:020000040000FA
:1030200002490401020408000101000201CA8100F2
:1030300001000200040008001001020408494300D6
:10304000EF222202016F58C22830140D30280812D6
:10305000015C0E12017390C214222202013B3B025A
:10306000018D930200B5D602017DE0020154B90240
:1030700001A6170201C20B0201C3C30201BE05ED86
:10308000D2E7CD33EC3392D524814006E4FFFEFD38
:10309000FC22FCE4CFCECDCC24E0501174FF80EDB7
:1030A000C3CC13CCCD13CDCE13CECF13CF0470F041
:1030B00030D5DE020037FFF920E73624F9500379D6
:1030C00007E4F42402FBE582158270021583DBF627
:1030D000E024FB501BE96014E4F0E58215827002E5
:1030E0001583E004F0B40A08E4F0D9EE7401F00AA4
:1030F00022C2D522ED33EC3392D5FA602AB4FF33E5
:10310000EDC2E77B8160067A317919E4227A317960
:103110002220D5047A31791D224E614E002B494E72
:1031200046002D494E4600E47A08F0A3DAFC7B0005
:10313000740722C093C083C082ECC0E0EDC0E0EE13
:10314000C0E0EFC0E0EA75F010A4CAABF075F04D36
:10315000A42BFBE435F0FCEA2410FAEB34C5FBECBD
:1031600034D9FCEDC2E7FF75F056A4F42411C5F084
:10317000F434C58FF0A42AE5F03BE43CF020E716D8
:10318000120034E5D0E0FFD0E0FED0E0FDD0E0FC5E
:10319000120034138016F404120034E5D0E0FFD09E
:1031A000E0FED0E0FDD0E0FC12003301D082D083FD
:1031B000D093E0FAEDD2E7CD33EC332482FBE4C3C5
:1031C000CF33CFCE33CECD33CD33DBF37B0775F0AA
:1031D0000A846004F0A31B0AE5F0F0A38FF0740AE0
:1031E000A4FFACF08EF0740AA42CFEACF050010CDD
:1031F0008DF0740AA42CFDE435F0F0A3DBDE740737
:103200002202003560E86480F8E933E83360110495
:1032100060EFED33EC337009E8FCE9FDEAFEEBFF0B
:10322000220460DDD3EB9FEA9EE99DE8C2E78CF0C3
:10323000C2F795F0400CE8CCF8E9CDF9EACEFAEB0C
:10324000CFFB1200352B85D0F05804700320D5B188
:10325000E80470085002B2D50200356A92D5EC0439
:1032600060F6E4CCC0E0C398F8603C941860094074
:103270000ED0E0FB02003542E4FBFAC9FC8028E8EE
:1032800030E406E4C9FBE4CAFCE830E305E4C9CA5B
:10329000CBFCE854076010F8C3E913F9EA13FAEB22
:1032A00013FBEC13FCD8F130F531C3E49CFCEF9B2D
:1032B000FFEE9AFEED99FDD0E0FBEF4E4D4C701302
:1032C00022DB0402003567EC2CFCEF33FFEE33FE0B
:1032D000ED33FDED30E7EA02003542EF2BFFEE3A29
:1032E000FEED39FDD0E0FB50140BBB0004020035AD
:1032F0006AED13FDEE13FEEF13FFEC13FC02003535
:1033000042EC4D6011E8497018ED33EC3304600D68
:10331000E4FCFFFEFD22E933E8330470F8020035D7
:10332000601200352B58046009E4CC248150072832
:10333000500B0200356A28400402003567C0E0EBFC
:103340004A7046B98007D0E0FB02003556EF4E7058
:103350001DBD8008EBFFEAFEE9FD80EAE98DF0A4DF
:10336000FEE5F0020033F0E9CDF9EAFEEBFFEF896C
:10337000F0A4FCE5F0CE89F0A42EFFE435F0CD8971
:10338000F0A42DFEE435F08067EF4E7005BD80D7C8
:1033900080C2EF8BF0A4ACF0EE8BF0A42CFCE435F3
:1033A000F0F8EF8AF0A42CE5F038FCE433CB8DF094
:1033B000A42CFCE5F03BF8EE8AF0A42CFCE5F038F8
:1033C000F8E433CF89F0A42CFCE5F038CF3400CEFC
:1033D00089F0A42FFFE5F03EFEE433C98DF0A42E62
:1033E000FEE5F039CD8AF0A42FFFE5F03EFEE43D86
:1033F000FD33D0E0FB50080BBB00100200356AEC37
:103400002CFCEF33FFEE33FEED33FD0200354202BC
:1034100000356AEC5D046005E8590470040200356B
:10342000601200352B580460F4EC4860F0EC700436
:10343000FDFEFF22C860D82481C8500AC3986002EC
:103440005007020035679850C6F582E9294B4A704B
:1034500006AB820200355675F0007C1A7880C3EF07
:103460009BEE9AED99400DC3EF9BFFEE9AFEED990E
:10347000FDE842F0DC24ACF0D0E0FFD0E0FED0E08C
:10348000FDAB8220E7101BEB60B8EC2CFCEF33FFA8
:10349000EE33FEED33FD02003542E803F830E70578
:1034A000C0F075F000EF2FFFEE33FEED33FD40B7B7
:1034B00030E7C180A93F8000004120000042C800E1
:1034C00000447A0000461C400047C3500049742461
:1034D000004B1896804CBEBC205A0E1BCA6753C2C4
:1034E0001C749DC5AEFB60065407602023231200A8
:1034F0003518EB5438600C120035031200351312E6
:10350000003301ECF8EDF9EEFAEFCB22EB120035C7
:103510001380F0543803241C900034B5FE93FC0E45
:10352000EE93FD0EEE930ECE93FF22E9D2E7C93360
:10353000E833F892D5EDD2E7CD33EC33FC5002B24C
:10354000D522EC30E7100FBF000C0EBE00080DBDF9
:1035500000040BEB6014A2D5EB13FCED92E7FD2207
:1035600074FFFCFDFEFF22E480F8A2D574FF13FC7B
:103570007D80E480EFEB7008E709F608DFFA801B36
:1035800089828A831410E70AF593E0A3F608DFFA2C
:103590008009F593E493A3F608DFF9ECFAA9F0EDBE
:1035A000FB2288F0EF60010E4E60F088F0ED60C500
:1035B0001410E7E7CB700E88828C838B93E709F0B9
:1035C000A3DFFA80D61410E72A89828A83F593EC68
:1035D000FAE0A3C8C582C8CCC583CCCBC593CBF0D9
:1035E000A3C8C582C8CCC583CCCBC593CBDFE2DEF4
:1035F000E080AA89828A83F593ECFAE493A3C8C594
:1036000082C8CCC583CCCBC593CBF0A3C8C582C838
:10361000CCC583CCCBC593CBDFE1DEDF0200359D8B
:10362000EB7002E72289828A831410E704F593E0A5
:1036300022F593E49322BB000327F722F8EB89825B
:103640008A831410E706F593E028F022F593E493BB
:103650002822BB0002F722BB8000500989828A839E
:103660008B931593F022EF8DF0A4A8F0CF8CF0A4EB
:1036700028CE8DF0A42EFE22BC000BBE0029EF8DBB
:10368000F084FFADF022E4CCF875F008EF2FFFEEE8
:1036900033FEEC33FCEE9DEC984005FCEE9DFE0FF6
:1036A000D5F0E9E4CEFD22EDF8F5F0EE008420D26D
:1036B0001CFEADF075F008EF2FFFED33FD400798CD
:1036C0005006D5F0F222C398FD0FD5F0EA22C5F0DE
:1036D000F8A3E028F0C5F0F8E582158270021583A2
:1036E000E038F022EB7007E7F5F009E7192289824C
:1036F0008A831410E708F593E0F5F0A3E022F59330
:10370000E493F5F074019322BB0006F709A7F019C2
:1037100022BB8000500D89828A838B931593F0E53C
:10372000F0A3F022EF2BFFEE3AFEED39FDEC38FC72
:103730002275F008758200EF2FFFEE33FECD33CDFA
:10374000CC33CCC58233C5829BED9AEC99E5829847
:10375000400CF582EE9BFEED9AFDEC99FC0FD5F046
:10376000D6E4CEFBE4CDFAE4CCF9A88222B800C1BD
:10377000B90059BA002DEC8BF084CFCECDFCE5F02A
:10378000CBF97818EF2FFFEE33FEED33FDEC33FC71
:10379000EB33FB10D703994004EB99FB0FD8E5E41A
:1037A000F9FA227818EF2FFFEE33FEED33FDEC33FC
:1037B000FCC933C910D7059BE99A4007EC9BFCE98B
:1037C0009AF90FD8E0E4C9FAE4CCFB2275F010EFC7
:1037D0002FFFEE33FEED33FDCC33CCC833C810D70A
:1037E000079BEC9AE899400AED9BFDEC9AFCE8995E
:1037F000F80FD5F0DAE4CDFBE4CCFAE4C8F922C343
:10380000E49FFFE49EFEE49DFDE49CFC22E8600F43
:10381000ECC313FCED13FDEE13FEEF13FFD8F12202
:10382000E8600FEFC333FFEE33FEED33FDEC33FC06
:10383000D8F122E0FCA3E0FDA3E0FEA3E0FF22E03C
:10384000F8A3E0F9A3E0FAA3E0FB22ECF0A3EDF08B
:10385000A3EEF0A3EFF022A42582F582E5F03583F4
:10386000F58322E0FBA3E0FAA3E0F922F8E0FBA352
:10387000A3E0F925F0F0E582158270021583E0FAE5
:1038800038F022EBF0A3EAF0A3E9F022EB7006E9AE
:10389000F802003AA889828A831410E706F5930299
:1038A000003863F59302003ABABB001CD093D0F005
:1038B000D0E0F8D0E0C9FBD0E0FAD0E0CBC8C0E05F
:1038C000C0F0C09302003AB1BB80005022D093D028
:1038D000F0D0E0F8D0E0C9F582D0E0CAF583D0E0BE
:1038E000CB14C8C0E0C0F0C093889302003883D0E6
:1038F00093D083D082D0E0D0E0D0E0E473D093D0F6
:1039000083D082F8E4937012740193700DA3A39393
:10391000F8740193F5828883E4737402936860EF0E
:10392000A3A3A380DF8B938A838982159353937F0C
:10393000E473EB700C87F009E608B5F019DFF68048
:103940001589828A831410E711F593E0F5F0A3E658
:1039500008B5F002DFF5020039E3F593E493F5F0E2
:10396000A3E608B5F07DDFF48079CB701388828CF4
:10397000838B9387F009E493A3B5F067DFF5806349
:103980001410E73089828A83F593ECFAE0F5F0A30E
:10399000C8C582C8CCC583CCCBC593CBE493A3C8A0
:1039A000C582C8CCC583CCCBC593CBB5F035DFDCA5
:1039B000DEDA802F89828A83F593ECFAE493F5F0BE
:1039C000A3C8C582C8CCC583CCCBC593CBE493A395
:1039D000C8C582C8CCC583CCCBC593CBB5F004DFBA
:1039E000DBDED97FFFB5F0020F2240027F01220209
:1039F0000039320200396A88F0EF60010E4E60EE45
:103A0000ED60EC1410E7ECCB701288828C83F59398
:103A100087F009E0A3B5F0CBDFF680C71410E72FDD
:103A200089828A83F593ECFAE0F5F0A3C8C582C8D1
:103A3000CCC583CCCBC593CBE0A3C8C582C8CCC5CD
:103A400083CCCBC593CBB5F09ADFDDDEDB809489E8
:103A5000828A83F593ECFAE493F5F0A3C8C582C893
:103A6000CCC583CCCBC593CBE0A3C8C582C8CCC59D
:103A700083CCCBC593CBB5F004DFDCDEDA020039B2
:103A8000E3EF4E6022EF60010EEDBB0007F709DFA8
:103A9000FCA9F022BB8000500E89828A838B93158B
:103AA00093F0A3DFFCDEFA22E6FB08E6FA08E6F96B
:103AB00022EBF608EAF608E9F622E493FB74019398
:103AC000FA740293F92241613F004161480041616B
:103AD0004300416142004161490041614700416545
:103AE0004900425210000042521900004252170091
:103AF000004152120042520E000042521500004294
:103B0000521300000143004164DF004164E00041C2
:103B100047F00060904C0F0042003E3C3A3B456845
:103B200043413F3D2B356769E2E188E0141E006A9E
:103B3000001D16041A1F006B061B070821208C6C41
:103B40002C1909171522686D11050B0A1C23696EC3
:103B500000100D1824256A6F360E0C1227260070EF
:103B600037380F33132D00718734032F2E0072392D
:103B7000E5283000310094006493928A002A8B007B
:103B800059895C5F85000062635A5D5E6029534419
:103B9000575B56556147000000004046000000009A
:103BA0000000000000000060A54B6A00000000005B
:103BB0000000000000000000000000BEE60000E47D
:103BC000B40000C4000000000000E3C3B900B70067
:103BD0000000E7C20000BC00920065C100B800B65A
:103BE0000000B0C000BFB5000000B1BD0000000083
:103BF000000000BB00540000B30000BA0000000049
:103C0000000000000058000000B2000000000000AA
:103C1000006600004D00504A000000494C51004F22
:103C200052004800004E00464B4800040102444543
:103C30003A3B3C3D3E3F40411E1F2000000000003B
:103C4000787665756677747E797A7C7D7B7F8180F6
:103C5000603F49E302810002820002830003B50055
:103C600003B60003B70003CD0003E20003E900033D
:103C7000EA00038301038A010392010394010321F3
:103C80000203230203240203250203260203270260
:103C9000032A024150AF0149520500000000000014
:103CA0001E001E44608411111111446075808080D3
:103CB0008044607B0104020844607F0004020648DF
:103CC0005E2E0010203040506070485E7680818209
:103CD0008384858687485E7E90919293949596978B
:103CE00060405E36A0A1A2A3A4A5A6A7A8A9AAABDE
:103CF000ACADAEAFB0B1B2B3B4B5B6B7B8B9BABB8C
:103D0000BCBDBEBFC0C1C2C3C4C5C6C7C8C9CACB7B
:103D1000CCCDCECFD0D1D2D3D4D5D6D7D8D9DADB6B
:103D2000DCDDDEDF4160350041604B0041604A0070
:103D30004160340044604600000000525DBA120148
:103D4000010109000008950B04681200010203013B
:103D500060405D7A2A0356006900720074007500A5
:103D600061006C0020004800550042002000560011
:103D7000650072003A0030002E0030003100000073
:103D80000000000000000000000000000000000033
:103D90000000000060205D5A0A034D0054004B00F3
:103DA00020000000000000000000000000000000F3
:103DB000000000000000000052542B12011001000E
:103DC000000008950B0668020001020301605454CC
:103DD0003D09025400030100A00109040000010391
:103DE000010100092110010001223F0007058103A4
:103DF000080001090401000103010200092110016A
:103E00000001226E00070582030700010904020079
:103E10000103010200092110010001225D000705D4
:103E20008303070001603F549505010906A10105C0
:103E30000719E029E715002501750195088102950C
:103E4000017508810195057501050819012905917C
:103E50000295017503910195067508150025680501
:103E600007190029688100C0606E54D40501090259
:103E7000A10185010901A101050919012905150003
:103E800025017501950581027503950181010501E3
:103E90000930093109381581257F75089503810698
:103EA000C0C005010980A10185020501198129838E
:103EB00015002501950375018106950175058101A0
:103EC000C0050C0901A101850319002A3C02150057
:103ED000263C02751095018100C0605D55420501C8
:103EE0000902A10185040901A1000509190129059B
:103EF0001500250175019505810275019503810164
:103F000075089501050109381581257F8106C009CD
:103F100001A1000501093015002600043500460006
:103F20000475109501810209311500260003350042
:103F3000460003751095018102C0C04454910403EA
:103F40000904602255FF2203410053004900580034
:103F5000200045006C0065006300740072006F0073
:103F60006E00690063007300604055BF2A0356006D
:103F7000690072007400750061006C002000480048
:103F80004900440020005600650072003A003000ED
:103F90002E00300031000000000000000000000092
:103FA0000000000000000000000000006020559F9D
:103FB0000A034100530049005800000000000000BF
:103FC00000000000000000000000000000000000F1
:103FD0004430F1010204085430DD14034D0069003F
:103FE000630072006F0073006F0066007400485B2E
:103FF000AB0102040810204080445AAA1A1C1E205B
:10400000445AA512141618425AE00000C117C115EF
:10401000C116415ADF00415AAE07415AA900496012
:104020009E030000000000000000415C9000602A38
:104030005C9D00810082008300B500B600B700CD12
:1040400000E200E900EA0183018A01920194022161
:1040500002230224022502260227022A495F810048
:104060000000000000640064495F6F000000000071
:10407000000200024F5FEA20FF803F0000000000C6
:104080000000000000004F5FCD20FF800000000016
:104090000000000000000000475FDC10000F200956
:1040A0000000475FE310000F200000004264490950
:1040B000DA42644B90C05A4CC2000100010001007A
:1040C0000100010001000100040020006400320032
:1040D0001900115A4CA80001000100010001000163
:1040E000000100010002001000320019000C00085D
:1040F0004D4F4C080C101820305E1A1A646464642A
:104100004D4E3F0406080C10182F1A1A646464649C
:10411000424CA50000424CE30000424CE10000414B
:104120004CA700424CA30000424CDF0000424CDD93
:104130000000605A4CE531324D000000384D00005F
:104140000000364D00000000344D00000000334DEB
:1041500000000000324D00000000314D0000000062
:104160003932314B00003131354B000039363030B7
:1041700000003139323030003338343030003537D8
:104180003630300000000000000000000000000099
:10419000C122C121445E9C03020100425E880000EE
:1041A000425E860000425ED9000060385EA0AA55DB
:1041B0000601CC330000AA550602CC330000AA55F4
:1041C000070301000000AA55050401000000AA55DC
:1041D000050501000000AA55050601000000AA55CA
:1041E000050701000000C11AC118C119415D59003D
:1041F000415CF801415D4401415D040F415D0600F1
:10420000415CF501415D3900415CED47415CCA000C
:10421000415D4B00445CEF00000000415CCB00417D
:104220005D3A00415D4C00415D0100485D290000A0
:10423000000000000000415CF400425D45020042C5
:104240005D480180425D4D0000495D18000000009E
:104250000000000000415D4700485D21039C039C75
:1042600000640064485D31029C0064029C0064416B
:104270005CFB004157BB0060C056FB00010203001D
:104280000100010101010182CAB203010201000122
:10429000000182CAB2010103010001000182CAB219
:1042A000020101010001000182CAB2010002030300
:1042B0000102010101010182CAB2010101010001F3
:1042C000000182CAB2000103010101010182CAB2E8
:1042D000020100010101010182CAB20200010303CF
:1042E0000101010201020182CAB2000103010201BF
:1042F000020182CAB2020102010001000182CAB2B7
:10430000010100010201020182CAB203000102029E
:104310000101010301030182CAB20001020103018C
:10432000030182CAB2010100010301030182CAB282
:10433000030103010001000182CAB260C0562500DA
:10434000010203030101010001000181304200016B
:104350000201010101018130420101030102010258
:10436000018130420201000103010301813042005A
:10437000010203020102010101010181305A03011E
:1043800003010001000181305A0001000103010313
:104390000181305A010101010201020181305A00FC
:1043A000020103000101010001000181305A0001F6
:1043B00001010101010181305A02010301020102E0
:1043C0000181305A020103010301030181305A00C7
:1043D000010203000100010101010181305A0301C2
:1043E00002010001000181305A01010301000100B6
:1043F0000181305A020101010001000181305A009F
:104400004862060000000000000000E50824A0F556
:1044100082E4345FF583759300E005082290005F25
:104420009D30070490005FA0E475F0011200386C25
:10443000020036202000E57F2ED2008018EF540FB6
:104440002490D43440D4FF30040BEF24BFB41A00BE
:1044500050032461FFE50960021509050CE50C70A5
:1044600002050B30071190005F9DE475F00112000A
:10447000386CEF020036520201CA887403D20780FA
:1044800003E4C207F50890005F9D12003883E4F54D
:1044900009F50BF50CE50960087F201200445580F2
:1044A000F4750AFFC201C200C202C203C205C206FD
:1044B000C2081200441DFF700E3007067F00120074
:1044C0004466AF0CAE0B22B42563C2D5C204120001
:1044D000441DFF24D0B40A00501A75F00A78093040
:1044E000D50508B6FF0106C6A426F620D50470023D
:1044F000D20380D824CFB41A00EF5004C2E5D2040E
:10450000020047A3D20180C4D20080BED20280BA8A
:10451000D2D580B8D20580B27F2012004455200247
:10452000077401B5090040F01200440BFF1200446B
:104530005502004495D208D206808F1200440BFB2E
:104540001200440BFA1200440BF94A4B700679B082
:104550007A487B8120023DE50960397E00E9C0E0B0
:104560002EF9EAC0E03400FA12003620F9D0E0FA61
:10457000D0E0C960060EEE650A70E2C2D5EBC0E07D
:10458000EAC0E0E9C0E0EE1200480BD0E0F9D0E06C
:10459000FAD0E0FB12003620FF6096EBC0E0EAC0E4
:1045A000E0E9C0E012004455D0E02401F9D0E03445
:1045B00000FAD0E0FBE50A0460DAD50AD70200452C
:1045C00031D202808F120047E760F6E50A700104DD
:1045D000120030B7A90A600EE50A600A14F50A1243
:1045E00000489AEF60F2EA30E702F404C39940040D
:1045F0000200467AEAF4250A0430E701E404F50AE9
:10460000800F120047E760B9EA050A250A12003058
:10461000B7EA90005FCCF030E701E4250A04D50A40
:1046200004200501141200480BE4C0E01200489A6F
:1046300090005FCCE0601420E70814F01200443DC5
:10464000802604F0D0E014C0E07F001200443DE575
:104650000A600812004434150A800D300504120067
:104660004434D0E002004495D0E00480BD120047FD
:10467000E76093E50A04120030B790005FCCEAF0DF
:10468000E50A20050260010424041200480B74FFAF
:1046900004C0E01200489A1200443DE50A200502D9
:1046A000600412004434D0E0B50AE57F45120044AE
:1046B0004790005FCCE07F2B30E7047F2DF404C0EF
:1046C000E012004455D0E075F00A84C0F0120044B6
:1046D0003ED0E01200443E020044957910800279F9
:1046E00008C206C2088008D2D5790A8004790AC2B5
:1046F000D5E50A047002F50AE4FAFDFEFF12004453
:104700000BFC7B082001161200440BFD7B103000CF
:104710000C1200440BFE1200440BFF7B20EC338292
:10472000D592D55013C3E43000069FFFE49EFEE40B
:104730002001039DFDE49CFCE4CBF8C201EC700C6D
:10474000CFCECDCCE824F8F870F38017C3EF33FF59
:10475000EE33FEED33FDEC33FCEB33FB994002FB13
:104760000FD8E9EB300105F8D0E0C448B201C0E051
:104770000AEC4D4E4F78207B0070C2EAB50A00402B
:10478000BCC0E01200480DD0F0D0E0200104C4C04D
:10479000E0C4B201C0F01200443ED0F0D5F0EA020D
:1047A000004495120038FD453B5346DB5845084C04
:1047B00045044246DF4F46E74446E749451E434627
:1047C000ED55460246466D4545C54748CD50450C1A
:1047D0002D45102E45372B45142345352048B92A41
:1047E00044CA480000452DE50AB4FF03750A0612C5
:1047F00000440BFC1200440BFD1200440BFE12009F
:10480000440BFF90005FC5020030F4790AA2D52066
:104810000314300509B910020404B9080104A2D533
:1048200020060250010420026D9202B509005036A4
:10483000C0E07F2030031A7F30A20272067205505A
:104840001012004866C202C206C205C2087F30804C
:1048500010300503E9C0E012004455300503D0E0F4
:10486000F9D0E0B509CA3005197F30B9100D120032
:1048700044557F583004077F788003B9080412003C
:1048800044553002067F2D020044557F202008F752
:104890007F2B2006F222920280CC7F00B4070050CA
:1048A0000E24C5F582E4345FF583759300E0FF22A2
:1048B000286E756C6C2900D2011200440B3001F790
:1048C000C201780930D50108F6020044CA1200443A
:1048D0000B7F4960087F4310E7027F5814C0E0EF68
:1048E00012004446743A12004446D0E0600DC0E025
:1048F000C41200443ED0E01200443ED203750904C5
:10490000020046DB75EBAA75EB55759D02787FE4D6
:10491000F618B830FB18E4F6D8FD900000007F00D0
:104920007E807D01E4F0A3DFFCDEFADDF8750F7E0A
:104930007510FF75814D020049640200CE32E49388
:10494000A3F85407240CC8C333C4540F4420C883AD
:104950004004F456800146F6DFE4800C01020408AE
:104960001020408090003AC6E47E019360CCA3FF03
:10497000543F30E509541FFEE493A360010ECF5469
:10498000E0B4E026E493FBA3E493FAA3E493F9A351
:10499000E493C083C08212003652D082D083A30930
:1049A000E970010ADFEADEE880BE54C025E0602B32
:1049B000408CE493A3FAE493A3F8E493A3C8C582DC
:1049C000C8CAC583CA759300F0759300A3C8C58291
:1049D000C8CAC583CADFE3DEE1808DE493A3F8E4AF
:1049E00093A34003F68001F208DFF40200496890C7
:1049F000006455120038337810EC4D4E4F70047C33
:104A0000A57DA5C3EC13FCED13FDEE13FEEF13FF24
:104A10005010EC64CCFCED644CFDEE644EFEEF6493
:104A2000CEFFD8DF900064551200384BEE547FFE65
:104A30002290006455EEF0EFA3F0A374A5F0A3F06C
:104A4000220200200082FF000000000200200082FD
:104A5000FF000000000200200082FF0000000002B2
:104A600000200082F0002000320200200082FF00BF
:104A70000000000500200082F000200064020020F9
:104A80000082FF000000000200200082F0002000F1
:104A9000640500200082FF00000000050020008265
:104AA000FF0000000005002003E8FF0000000005F3
:104AB000002000C8FF000000000200200082F0007B
:104AC0002000640200200082F00020006402002028
:104AD0000082F000200064FF0000000005000803D1
:104AE000E8F0002001F4FF000000000902190001B5
:104AF0000100E032090400000109000000070581FF
:104B0000030100FF04030904220320004D005400A8
:104B10004B00200045006C006500630074007200CB
:104B20006F006E00690063007300092907100032EE
:104B30000100FF0000000000000000000000000075
:104B40000000000000000000000000000000000065
:104B50000000000101010101010001000700080639
:104B60000414247484940818288090A0C090909015
:104B700090010204080FA0A0A0A00110044055A0BD
:104B8000A0A0A00220088090005F29EFF0A3EDF024
:104B9000A312003883C209C20AC20BC20CC20DE4C0
:104BA00090005F34F090005F36F0A3F0C21F9000D9
:104BB0005F29E0FF90005C0BF090005F2AE0FEEFC1
:104BC000120089D1EF2583F583E5822EF582E43545
:104BD0008312008675FF7E0064017004D20C806031
:104BE000EF64024E6004EF4E7056D20D90005C9957
:104BF000E0FFA3E090005F63CFF0A3EFF090005CD4
:104C00009BE0FFA3E090005F65CFF0A3EFF07E0094
:104C10007F0C7D007B017A5C799112003A819000D3
:104C20005F63E0FFA3E090005C99CFF0A3EFF0900A
:104C3000005F65E0FFA3E090005C9BCFF0A3EFF086
:104C40007E007F107D007B017A5F794112003A81FE
:104C500090005F29120085EE120086E6700A7B82C2
:104C60007AD479F20200448190005F29120085EE27
:104C70001200386380301200864812003620FF9000
:104C8000005F2AE0FE6F6028E92405120085E2E952
:104C90004A4B70030156F812008648E924081200B6
:104CA00085E21200898D90005F3B1200388380C638
:104CB00012008648E92405120085E2E94A4B700398
:104CC0000156F812008648E92405120085E290009A
:104CD0005F3812003883C8EEC87401088002C333FD
:104CE000D8FCFF90005F29E0FE900031501200894F
:104CF000D5EE120085FCE05F700790005F2FE0604A
:104D000028300C117B017A5B79B7120088A19000E2
:104D10005F347402F0300D117B017A5C790C120063
:104D200088A190005F347403F012008648E92404DF
:104D3000120085CE6041120086CA12003620FF9014
:104D4000005F3812003863120036206F6029E924B2
:104D500007120085E2EA494B70030156F890005FA4
:104D600038120088C2120085E21200898D90005F1F
:104D7000381200388380B21200862E1201B72190BB
:104D8000005F3812003863E92404120085E2120043
:104D900088A190005F38120087AF120085CE900086
:104DA0005F34F0E490005F57F090005F34E0FF90D4
:104DB000005F57E0D39F400301551B120087A312E9
:104DC0000085CBFF7E0064077002D20C300C38EFF8
:104DD00064074E600FEF640C4E6009EF64014E6093
:104DE000030154E5EF640C4E6017EF64014E60035D
:104DF000014E7D120086051200867C648045F070AD
:104E00007CC20CD20D8003300D73120087A31200F8
:104E100085CBFF6401600DEF64096008EF640C60EE
:104E2000030154E5120086051200867CFFAEF06493
:104E3000014E6049EF64804E6043EF64024E603D76
:104E4000EF64304E6037EF64314E6031EF64384EBE
:104E5000602B120087A3120085CB640C601F120028
:104E600086051200867CFFAEF064814E600FEF6411
:104E7000824E6009EF64834E60030154E51200879F
:104E8000A312003620648060030154E5200C030166
:104E900052E012008648E92401120085E2E94A4BFB
:104EA00070357D1F7F10FE12019FED12008871EB9F
:104EB000C0E0EAC0E0E9C0E01200864812008824A1
:104EC000120038A912008648E92401120085E2E99F
:104ED0004A4B70030156F812008605240112008522
:104EE000CE6007640260030154E5D20AE490005FDB
:104EF0005FF0120086052415120085CEFF601212A5
:104F00000085D7120036E464E045F07016D20980BF
:104F10001212008605240D1200867E64E045F070B2
:104F200002D209302003015521900050A7E09000E3
:104F30005F35F0EF6046120085D7E9240212008544
:104F4000CE120086042406120085CE2FFFE433FE25
:104F50007803EFCEA2E713CE13D8F890005F561275
:104F60000085D6E92402120085CE120086042406AC
:104F7000120085CE2F90005F5BF080151200860531
:104F80002406120085CEFF90005F5612008A08EFBB
:104F9000F0120086052408120085CE64016003012A
:104FA00051F3120086052409120085CE90005F5946
:104FB00012008A08E090005F5D1200891590005F82
:104FC000591200892240030154E590005F5DE02EF4
:104FD000FF90005F55F090005F2EE0FEEFD39E4003
:104FE000030154E5120086CA90005F55E0291200C3
:104FF00085CEFC70030151EC90005F5BE02408FE5D
:1050000090005F5AF0120086052407120085CEFD3D
:10501000EED39D400AED540790005F5AF080079050
:10502000005F5A7408F090005F5CECF012008A1385
:1050300090005F5EF012008A4490005F5A12008870
:10504000E4FEC39F40030151EC74AB2E1200867046
:10505000FF90005F5CE05F70030151E51200860580
:105060002415120085CE700301511612008A131206
:105070000088E52F90005F60F0E490005F5FF01221
:105080000086052415120085CEFF90005F5FE0FECC
:10509000C39F400301513E120085D7EE120089DC08
:1050A00029120088CC120085CEFD90005F60E0C31D
:1050B0009D405990005F3E120085B6FF90005F60F2
:1050C000E0D39F5047120085D790005F5FE0FF124A
:1050D000008772FD90005F61E5F0F0A3ED1200859E
:1050E000D6EF75F004A429120086AE2402120085C2
:1050F000CEFF90005F60E0C39FFF120085D7900055
:105100005F5F12008771FDCEEDCE802C90005F5F57
:10511000E004F001507F12008605240D1200867E07
:10512000FFAEF090005F61EEF0A3EFF090005F58EB
:10513000E0FE90005F5EE02E2F90005F30F0900068
:105140005F61E07004A3E064E0702E90005F4112A4
:105150000088E4FE1200866EFDEF4D90005F41F086
:10516000900050A7E04DF074AB2E12008670FF90B7
:10517000005F35E05F7047804190005F30E01200D3
:1051800087B7F583C083C08212008663FCEE4C753E
:105190009300D082D08312008647E9240112008553
:1051A000E2120088247E00E92FF9EE120085D0FF7C
:1051B00074AB2D120086705F7004120056F99000D7
:1051C0005F5C120088E41200866EF4FEEF5E9000D1
:1051D0005F5CF07010120086CA90005F55E02912E3
:1051E0000087DA8007120089E4015039120089EC47
:1051F000014FBD120086052408120085CE640860A8
:10520000030154E5120086052406120085CE9000A5
:105210005F5512008915120086052409120085CEFB
:105220001200892340030154E5EEFFA3E02FFFE4C1
:1052300033FE90005F2EE0FDD3EF9D7480F86E98F2
:1052400040030154E590005F54E0FFA3E02FFFE42A
:1052500033FE120086CA12008732FF90005F5CF0B6
:10526000E412003652EF64017004D20B805D9000AE
:105270005F5CE0605612008605240D1200867EFFFA
:1052800090005F5CE02F90005F30F0120087B7F570
:1052900083C083C08212008663FCEE4C759300D0FD
:1052A00082D08312008647E92401120085E21200B1
:1052B00088247E00E92FF9EE120085D0FF74AB2D13
:1052C000120086705F7004120056F91200862E12CA
:1052D00001B7213020030154E5120089EC01521678
:1052E000200D030154E5E490005F36F0A3F01200B6
:1052F00086052401120085CEFF64026014EF640667
:10530000600FEF6460600AEF60076440600301545F
:10531000AC120087A3120085CB64097011D21F1252
:105320000086BA1201221A90005C910153B4D21F78
:10533000120086051200867CFFE5F0600301541818
:10534000EF24CF603514606024FA605C24B8606C90
:1053500024506003015418120086052408120085A9
:10536000CE120086B51201221A90005C93EEF0A3D3
:10537000EFF07B017A5C7993802112008605240886
:10538000120085CE120086B51201221A90005C959B
:10539000EEF0A3EFF07B017A5C799590005C91E0F0
:1053A000FD1201BC060154C9120086BA1201221A6C
:1053B00090005C97EEF0A3EFF00154C9120086CA8A
:1053C0001200879B1200570D90005F63EE8077906C
:1053D000005F63E0FCA3E0FD4C702512008605240D
:1053E0000C120085CE70030154C990005C90E0441B
:1053F0000412008A1EE490005C99F0A3F00154C9E5
:1054000090005C9912008A254404F012008605245D
:105410000C120087590154C9120086CA1200879BDA
:105420001200570D90005F65EEF0A3EFF0120087B9
:10543000A3120085CB6401701390005F65E0FFA3A9
:10544000E090005F63CFF0A3EFF0808390005F6592
:10545000E0FCA3E0FD4C702312008605240B120033
:1054600085CE602E90005C90E0440812008A1ED227
:105470001FE490005C9BF0A3F0801790005C9B12EF
:10548000008A254408F012008605240B1200875973
:10549000D21F120086052401120085CE6460702997
:1054A00090005C9BE07002A3E0601E221200860563
:1054B0002401120085CE7011120086051200867C30
:1054C000640145F0700301541890005F36E07002EB
:1054D000A3E0600301532E1200862E1201B7213083
:1054E00020030156F81200862E1201B72120202138
:1054F000120086052419120085E2EA494B60121257
:105500000086052419120085E21200898D12008898
:10551000A190005F57E004F0014DA9300B03015644
:10552000F8200A030156F812008648E92401120007
:1055300085E212003620FF90005F41E06F700301AA
:1055400055D92009030155D9EF607812008A441219
:1055500000880E506E12008648E92401120085E290
:1055600012003620FE74AB2F12008670FF5E603C86
:1055700090005F41E05F703490005F58E012008659
:105580006E12008A37900051FFE014F0900050A78F
:10559000120088E4FE1200866EF4FDEF5D9000506C
:1055A000A7F0EE24E0FD7F011201CA9612008648A2
:1055B000E92401120085E2120036206006120089FB
:1055C000E4808C90005F41E0FF12008648E92401EE
:1055D000120085E2EF1200365290005F31740F1214
:1055E00000891A90005F311200892240030156F8A9
:1055F00012008648E92401120085E212008824EE98
:105600007E0029F9EE120085D0FF70030156C89084
:10561000005F54E0120087D0120086756F7003019E
:1056200056C812008A441200880E40030156C81260
:10563000008648E92401120085E2120088249000C7
:105640005F54E0FE7C0029F9EC120085D0FD74ABBC
:105650002F12008670FF5D605274422EF582E43492
:105660005F120086755F704312008648E9240112BC
:105670000085E21200882490005F54E0FF29F9ECD5
:10568000120085D090005F581200866B12008A3796
:10569000EF33333354F82D0490005F30F0FD900069
:1056A00051FFE014F07F011201CA9612008648E90A
:1056B0002401120085E21200882412008A4B4F60F8
:1056C00007120089E401562690005F54120087CE2D
:1056D00012008675FE12008648E92401120085E258
:1056E00012008824EF7C0029F9EC3AFAEE12003619
:1056F00052120089EC0155E322900051FFE004F0C2
:1057000090005F30E0FDE4FF1201CA962290006035
:1057100052120038837B017A5F793612008A6A223E
:1057200090005FF9EFF0A3EDF0C21EE49000600579
:10573000F0A3F09000601904F09000600D12008852
:10574000B412008A5275F07890003265120085F725
:105750001200386390006007120038831200388C02
:1057600090005FFE12003883120085A7240A120001
:10577000867EFF90006001E5F0F0A3EFF012008953
:105780000312008734FF54030490005FFBF0FDC355
:1057900090006002E09D90006001E09400500301E1
:1057A0006211C21DEF54FC90005FFCF0E4FFEFC3F8
:1057B000940D748094805018EF90004B6093FE908D
:1057C000005FFCE0FDEE6D7004D21D80030F80DEF3
:1057D000201D2490005FFBE0120088ECC390006065
:1057E00002E09FFF90006001E09EFEF0A3EFF04E0C
:1057F000700301620380861200890312008734FF60
:10580000540CFECDEECDEF54F090005FFCF0900014
:105810005FFBE0FF7E00C3940274809480500AE432
:1058200090006003F0A3F08044EF64024E700A120F
:1058300000871A1200892D803490005FFBE0D3941A
:10584000027480948040261200871A1200892D90DD
:10585000005FFE1200386390006006E02402120030
:1058600087299000600375F000120036CECFEDCF8F
:10587000EF24FC7003015F2324FC70030160A1246A
:105880000860030161D190005FFCE0FF24706015A7
:1058900024F07003015E7124E07003015EAA2440CD
:1058A00060030161D1120085A7241C120085CEFE81
:1058B000120085A7241D120085CE8EF0A4FEEF6491
:1058C00080700B120085A7120089ABEE800CCFEE22
:1058D000CF120085A71200894AEF12003636120057
:1058E00085A72409120085CE54016003015E3112A0
:1058F000008A5290005FFCE0FD90006003E0FAA394
:10590000E0FB12013199EF7003015E31120085EA6C
:10591000120086E670307D20FE120062411200887F
:1059200071120085EA120088D49000326C12008552
:10593000F7120086E670097B827AD479FF015AEE6D
:10594000120085EA80401200881C12003620FF9069
:10595000005FFAE06F60447D217E00120062411218
:105960000086D270030161D112008849EBC0E0EAE1
:10597000C0E0E9C0E01200881CE91200894A120068
:1059800038A9900060161200386390006010120071
:10599000388390005FFAE0120036521200881CE94A
:1059A0002405120085E2E94A4B6003015A2E7D224C
:1059B000FE1200624812008871EBC0E0EAC0E0E924
:1059C000C0E01200881CE92405F9E43AFA12003814
:1059D000A91200881CE92405120085E2E94A4B70EF
:1059E000030161D11200881CE92405120085E290B0
:1059F00000600D12003883120085A7241312008561
:105A0000CE12008951EF12003652120085A7240EE3
:105A10001200867EFF12008686120085A7241012CF
:105A200000867EFF1200878012008A59806A120069
:105A300085A72413120085CE12008951120036204A
:105A40006F605A7D237E0012006248120086D27079
:105A5000097B827AD57910015AEE1200881CE9245C
:105A6000041200875912008849EBC0E0EAC0E0E95F
:105A7000C0E012008780120089B2120038A912001B
:105A800088499000600D12003883120085A7241306
:105A9000120085CE12008951EF1200365212008991
:105AA000F4900060077006120089C9800412008813
:105AB0007E120085CEFF9000600AE4F0A3EFF012A2
:105AC0000085A7241D120085CE9000600CF0900088
:105AD0006019E07003015B627D247F1C7E0012016F
:105AE0009FED120086D2700D7B827AD5792112004B
:105AF00044810161D1120087802404120085E2E90B
:105B00004A4B702D120088499000601312003883B0
:105B10009000601312003863EBC0E0EAC0E0E9C017
:105B2000E0120087802404F9E43AFA120038A980D0
:105B3000311200878024011200875912008849EB36
:105B4000C0E0EAC0E0E9C0E01200882C2419F9E4C2
:105B50003AFA120038A91200884990006013120026
:105B60003883120085A724AE120085CEFFD3120021
:105B700088AD5003015DD8120085A7241412008659
:105B80007E640C45F06010120085A7240E1200867A
:105B90007E640C45F07064EF12006212EBC0E0EA24
:105BA000C0E0E9C0E01200882C2416F9E43AFA12A9
:105BB0000038A990006013120085DBEA494B603B76
:105BC000120085A724AE120085CE120089DC1200D7
:105BD00085A712008851EBC0E0EAC0E0E9C0E09080
:105BE000006013120085DB12008940D0E0F9D0E09C
:105BF000FAD0E0FB120035A2015C90120085A724C8
:105C0000B0120085CE90005FFDF0120085A7241C25
:105C1000120085CE6401600E120085A7241D1200BB
:105C200085CE6401707B120085A724AE120085CE5C
:105C300012006212EBC0E0EAC0E0E9C0E0120088A6
:105C40002C2416F9E43AFA120038A99000601312D5
:105C50000085DBEA494B6038120085A724AE1200AC
:105C600085CE120089DC120085A712008851EBC096
:105C7000E0EAC0E0E9C0E090006013120085DB12AA
:105C8000008940D0E0F9D0E0FAD0E0FB120035A264
:105C9000120086EE120085A724AE120085CE015EAA
:105CA0002D120085A724AE120085CEFF90005FFD67
:105CB000E0C39F4003015E31120085A7241C12003F
:105CC00085CEFF7E00120085A7241D120085CE9090
:105CD00000601AF0740112003652120085A724AE3B
:105CE000120085CEC39401FD90005FFDE06D604120
:105CF000120089F4701A120085A72405120085CEBF
:105D0000CCEFCC2CFD120085A7120089ABED801DD5
:105D100090005FFCE064907018120085A7240712C1
:105D20000085CE2F120085A61200894AEF12003698
:105D300052120086EEE41200622890005FFCE0FF41
:105D40007E0064807027120085A72406120085CE8D
:105D5000FD120085A72405120087E59000600AA3C4
:105D6000E0FD120085A7120089ABED8029EF649059
:105D70004E7027120085A72408120085CE120085D8
:105D8000A62407120086919000600AA3E012008505
:105D9000A61200894AEF120036529000601AE012F3
:105DA0000085A6241D12008691120085A724B0123A
:105DB000008759120085A724AE120085CE120085F7
:105DC000A624B0120085CEC39F5003015ACE120004
:105DD00085A7120087D88059120085A7241E1200BB
:105DE000867EFF1200882C12008763120085A7248C
:105DF0001C120085CE6401602F120085A7241D129D
:105E00000085CEFFD3120088AD401D120085A72467
:105E10000E1200867E640C45F0700D120085A724DA
:105E2000AE12008691015BFB120086EEE412006266
:105E300028120089F4900060077010120089C912BE
:105E40000085CE120085A62405800E1200887E12E1
:105E50000085CE120085A62407120086917E007F61
:105E6000937D00120085A71200885112003A8180AC
:105E700022120085A72409120085CE4404120036A0
:105E800052120085A7241212008759120085A7120A
:105E90000087D8120085A724101200867E12008584
:105EA000A612008851E5F0016157120085A724125F
:105EB000F9E43AFA12008A1F12003620705E1200CE
:105EC00085A72409120085CE54FA120036527E00AE
:105ED0007F0B7D00120085A72413F9E43AFA120023
:105EE0003A817E007F937D00120085A712008851C1
:105EF00012003A81120085A72405120087DA1200E9
:105F000085A72406120087DA120085A7240712004D
:105F100087DA120085A72408120087DA900060193A
:105F200001605A120085A72409120085CE54016031
:105F3000030161D190005FFCE0440424FC70030184
:105F40005FD924F0700301607D24F0700301608F3D
:105F500024B0700301606C24E070030160602410C1
:105F600060030161D1900060197401F012008A523F
:105F700075F07890003268120085F71200386312CD
:105F800000362012008938FDCEEDCE541F4F12008E
:105F9000365212008939120085A624131200869108
:105FA000120085A72405F9E43AFA7408120036367F
:105FB000120085A7120089AB740812003636120051
:105FC00085A7120089B2740812003652120085A704
:105FD0001200894A74080161CD120085A7240912B4
:105FE0000085CE30E215120088FA120085A624142E
:105FF000F9E43AFAEE1200876B8021120088FA1257
:106000000085A6240EF9E43AFAEE1200876B9000A0
:10601000600D120086E66004120086869000600320
:10602000E07004A3E0640C60030161D190005FFAAA
:10603000E0FF90005FF9E090003164120088581290
:106040000089951200867560030161D1EE12008906
:10605000D112008995F5837593007401F00161D127
:1060600012008939120085A6241D800A1200893980
:10607000120085A6241C120086910161D1120088AD
:10608000FA120085A62418F9E43AFAEE01615712D3
:106090000088FA120085A6241AF9E43AFAEE0161A2
:1060A00057120085A72409120085CEFF5401600312
:1060B0000161D190005FFCE0440824E870030161B5
:1060C0005B24F07003016178242060030161D1EF4B
:1060D0009000600330E263E0FCA3E01200858E12C2
:1060E0000086AD12008851EC8DF012003708900048
:1060F0006003E0FCA3E01200858E120086AD120062
:106100008851EC8DF0120037081200857B12008652
:10611000AD120087E31200857B120086AD242112A8
:106120000087E5120085A712008757120085A72473
:10613000AEF9E43AFA74010161CDE0FEA3E0FFCDCF
:10614000EFCD120087802403120087E5120085A797
:106150002410F9E43AFAEE8FF0801790006003E023
:10616000FCA3E01200858E120086AD12008851EC6F
:106170008DF01200370880591200857B120086AD21
:10618000120087E31200858F120086AD241E1200D4
:10619000867E12008938FDCEEDCEC39F120085A603
:1061A00024AFF9E43AFAEF120036361200858A126B
:1061B0000086AD2421120087E5120085A712008712
:1061C00057120085A724AEF9E43AFA74011200369A
:1061D0003690005FFBE0F9120088EC90006001E06F
:1061E000FCA3E0FDC39FEC9E4011E9FFED9FFFEC97
:1061F0009E90006001F0A3EFF08008E49000600141
:10620000F0A3F090006001E07002A3E0600301578A
:106210007D2275F004A4FFAEF07D2512019FEDCA2A
:10622000EECAC9EFC97B0122900060E4F0900060E3
:1062300003E0FAA3E0FB1200EC8B90006019EFF092
:10624000227F0B12019FED227F0A12019FED22E4B3
:1062500090006268F0C237900047F0E070041201CD
:10626000C991900042EAE090006262F0E0FD900087
:10627000321F12009D17ED12009C0CE0900062632B
:10628000F0C39412A3F0ED12009C9CED12009C0C44
:10629000E020E703016ABF12009BFAE07003016A85
:1062A000BF12009BFAE0120038FD62CF0162FE02CD
:1062B00063C903642D0466960566F90667C507671A
:1062C000E40868BC0968D40A695F0B000069EC1235
:1062D000009BFA7402F075F078EF900032541200CF
:1062E0009C077401F012009EAB1201B20E12009CCA
:1062F000659000310E12009C07E4F00169EC120079
:106300009C3612009E57600301638990006262E030
:10631000FD9000322C12009D53ED12009C0CE054B5
:106320008090006265F09000323212009D16ED12EE
:10633000009C0CE0FEA3E04E603A90006265E0B481
:10634000800812009BFA7403803012009BFA7405D7
:1063500012009DC312009C07E0640D60030162A15E
:10636000D23712009C659000323C12009C077402E8
:10637000F00169EC12009BFA740712009EF3120000
:106380009C07E4F0A3F00162A112009E1F64037059
:1063900003016611EFB4070301661190006268E023
:1063A000640B60030169EC12009BFA740C12009DEF
:1063B000C312009C07E0640D60030169EC12009CAD
:1063C0006512009D9CEF01664B90006263E0FF1236
:1063D000009C7DE0FCA3E0FD90002DBB12009CD949
:1063E00012009FB0FFEE9CFE90006266F0A3EFF0FB
:1063F00090006263E090002DB512009CDAE0FCA3EF
:10640000E0FDC39FEC9E500990006266ECF0A3EDA6
:10641000F012009DD812009F30E4900061A6F012A7
:106420000138E212009BFA7404F00169EC12009C3E
:1064300036E090006268F090006268E064026003F9
:106440000165D090006263E0FEC39412A3F0EE12E7
:10645000009C7D12009EA675F01112009D68E0FA66
:10646000A3E0C39FFFEA9E90006266F0A3EFF07581
:10647000F011ED12009D01E0FEA312009DA89E40C8
:1064800005EEF0A3EFF012009C659000310E1200B3
:106490009C0712009DC212009C07E0640D706C9076
:1064A000006266E0FEA3E0FF90006262E0FD900003
:1064B000324412009F45ED12009C0CEEF0A3EFF069
:1064C000E490006265F012009DA49400402A12003E
:1064D0009FB712009D7A12009C27FE90006263E035
:1064E00075F01112009EC412003863E92FF9E43AE6
:1064F000FAEE12009F4C80CE12009C659000323C58
:1065000012009C077403F0D237804FE4900062655C
:10651000F012009DA49400404112009FB712009E0B
:106520002712009C27FC12009EAB12009C7DE0FA13
:10653000A3E0FBEFF582758300EB2582FFE5833A4C
:10654000FE75F011ED12009EC412003863E92FF9B8
:10655000EA3EFAEC12009F4C80B79000626612008F
:106560009EA612009C7DEE8FF0120036CE75F011C3
:10657000ED12009D68E0FEA3E0FF75F011ED120042
:106580009C80E0FCA3E0C39FEC9E502C12009C6515
:106590009000310F12009C07E0FD12009CF9E0FA18
:1065A000A3E0C39DEA9400500675F078EF800D12C9
:1065B000009BFA7403F0800F12009C659000322B50
:1065C00012009C077409F03037030169EC0162A1E5
:1065D00012009E1F6403703590006262E0900031EB
:1065E0000E12009D09EE12009C0CE004F0D39403FF
:1065F000400C75F078EE12009C5DEE0169421200CD
:106600009C54EE12009C0C7403F00162A1EFB407DD
:106610000C12009DD812009C5AEF01694212009E94
:106620001F640B702F12009C54EE12009C0C740C13
:10663000F012009CE1EE12009C0CE0640D6003017E
:1066400069EC12009FC112009D9CEE12009C0C741C
:106650000C01677DEF6404702B12009CF9E0FEA32F
:10666000E04E600690006268802612009BFA740378
:1066700012009EF312009C0712009EB250030162AA
:10668000A101687890006268E0640C60030169EC25
:106690007402F001643712009C65900032341200DD
:1066A0009C07E0B40D1775F078EF900032441200AB
:1066B0009C07E0FFA3E090006266CF80229000621A
:1066C00063E0FF12009C7DE0FCA3E0FD75F011EF9C
:1066D00012009D6812009FB0FFEE9C90006266F071
:1066E000A3EFF012009DD812009F301201106C121F
:1066F000009BFA7406F00169EC12009C3612009EB1
:1067000057600301679590006263E090002DBD1211
:10671000009C6FEC8DF0120036CE90006263E0902A
:10672000002DBB12009C6F12009FB0EE9C12009CCB
:10673000659000322B500912009C077405F0800709
:1067400012009C077407F012009C6590003234120E
:10675000009C07E0640D60030162A175F078EF9082
:1067600000322B12009C07E0B4051890006262E032
:1067700075F0789000323C12009C077407F0D23715
:106780000169EC12009C659000323C12009C077479
:1067900008F00162A112009E1FB40B0301684DEFC7
:1067A000B4040A12009BFA7405F00162A190006221
:1067B00068E0640760030169EC12009DD812009C38
:1067C0005AEF01694212009DD8A3E0FD900061A636
:1067D0007401F0E4FBFA120138E212009BFA74082B
:1067E000F00169EC12009C3612009E57701E1200D8
:1067F0009C659000323412009C07E0B40D0B12002F
:106800009F1512009C077408F00168B212009E1FC9
:1068100064076004EFB4030C12009DD812009C5A68
:10682000EF01694212009E1F640B703012009FC17D
:1068300012009CE5EE12009C0CE0B40D10900032AA
:106840003C12009CCDEE12009C0C740CF012009CCB
:1068500054EE12009C0C740CF00169ECEF640470AF
:106860002A12009BFA740712009EF312009C071272
:10687000009EB250030162A112009C659000322973
:1068800012009C07E4F0A3F001662590006268E026
:10689000640C60030169EC12009C659000323412B4
:1068A000009C07E0B40D0B12009F1512009C0774AA
:1068B00008F012009BFA740DF00169EC12009DD8EB
:1068C000A3E0FDE4FBFA1201106C12009BFA740ABB
:1068D000F00169EC12009C3612009E5770281200DD
:1068E0009BFA740D12009DC312009C07E0640D60BA
:1068F000030169EC12009C659000323C12009C0779
:106900007414F00169EC12009E1FB4040712009C7D
:1069100054EE8041EF6407600C90006268E064030D
:1069200060030169EC12009C659000310E12009C1E
:1069300007E004F0D39403401375F078EF12009C45
:106940005DEF12009C0C740BF00162A112009DD847
:1069500012009C5AEF12009C0C7409F00162A11203
:10696000009C659000310712009C07E020E71F9013
:10697000006262E09000322812009E4FEE12009CEE
:106980000CE4F075F078EE12009C5DEE805775F027
:1069900078EF9000322812009C07E004F0D39402B4
:1069A000502E12009BFA7401F090005BB3E0FD9052
:1069B000006263E0FB90006162EFF0A37401F0A35A
:1069C00074F4F0A37401F0A374F4F0E4FF016ABB63
:1069D00012009C659000322812009C0712009EFD58
:1069E00012009C5DEF12009C0C740EF012009BFADA
:1069F000E0FF640D600DEF640E6008EF640C60034F
:106A0000016AB112009C659000322812009C0712A6
:106A1000009EFD9000325412009C0712009DC2128D
:106A2000009C07E024F7601814603424FE604114D1
:106A3000604F24FE606824077077900030DC80345B
:106A400012009C659000321E12009C07E0FB900033
:106A50005953E0FD90006162EF12009CC2801A124F
:106A6000009C659000323812009C07E06043803D36
:106A700090002F7212009CB7FB7F0412012DD98069
:106A80003012009BFAE0640D600B12009F1512009B
:106A90009C07740CF012009CB3FB7F04801D120055
:106AA0009C659000323812009C07E060041201C916
:106AB0003730370B12009CB3FB7F0412012DD92213
:106AC000D22BE490006127F01200C1CC24AEF582F5
:106AD000E434121200BFC478371200C1CB24AFF5E2
:106AE00082E434121200BFC478341200C1CB24B047
:106AF000F582E434121200BFC478351200C1CB24F1
:106B0000B1F582E434121200BFC47836F618E6FFFD
:106B10005470FEC4540F7838F6EF540708F67844E2
:106B200006E6C394404002E4F67837E6FFC39404D7
:106B3000400301726A7834E620E703017046783832
:106B4000E6900008591200C0A9E020E70301704652
:106B50001200C0B11200BFC430E20718E6FF1201F4
:106B6000C3E37835E654076003016C3608E620E09D
:106B700003016C1608E6FF08E6FE75F0EA900008CF
:106B8000FC1200BFB860589000322B1200C21012E5
:106B900000C04DFD64096015ED640A60109000327C
:106BA0003C1200C2101200C04D641470321200C1B9
:106BB000D81200BFB8C394A050161200C1D412005E
:106BC000BFB804F07844E67003763F22784416227A
:106BD0001200C1D41200C0602F1200C0BBE4F0123A
:106BE00000C14C1200C035E6FD08E690006137F0A8
:106BF00008E6A3F0A37401F01201797D1200C14CE4
:106C00001200C03512018B9D7838E6FF18E6FD12A0
:106C100000A3E10170547835E6783730E30CE6FFE5
:106C200008E6FD12017178017054E6FF08E6FD12D6
:106C3000017B620170547835E620E303016F18127E
:106C400000C03DB4091118E6FBFDE4900062C7F0F6
:106C50001201603C0170547838E664016003016DF4
:106C60005608E6640170637837E6FA1200C0E51250
:106C700000C04FFE90004B5BE0FD5E6003016D2B9A
:106C8000E6FC2452F582E4344B1200C04FFB7457EB
:106C90002CF582E4344B1200C04F6B6023ED4E9014
:106CA000004B5BF090004A221200C296EAF0E4A387
:106CB000F0A3F0A3F0A3F0FB7F0312012DD9806BAA
:106CC0007837E6FF1201BD7D80617839E6FF640206
:106CD0006008EF640360030170547837E6FF120028
:106CE000C0E51200C04FFE90004B69E0FD5E703BB6
:106CF00074602FF582E4344B1200C04FFF90004BBC
:106D000068E06F6026E6FCED4E90004B69F0900065
:106D10004B561200C296ECF0A3E4F0A304F0A3E4F7
:106D2000F0A304F0E4FBFF12012DD97839E6242307
:106D3000F582E4345FF583C083C082759300E0FF81
:106D40007837E69000302393FEEF4E759300D082A3
:106D5000D083F00170547839E6FF18E6FE1200C1C6
:106D6000F41200BFB85460646060030170541200F4
:106D7000C1F31200BFB8540F783AF6E6FF90002F27
:106D80007C1200C222E090006127F090005200E0E7
:106D9000FE7837666003016E6575F016EF1200C16C
:106DA00012C083C082E0FD74AF2EF582E4345B1222
:106DB00000C04FF4FEED5E759300D082D083F0905A
:106DC000002F811200C221E0FF783AE6FE75F0162E
:106DD00090002F8212003857E06F60109000520030
:106DE000E078381200C200EE1200726B7837E6FFCE
:106DF00008E675F0EA9000089E1200BFB8FD7C001E
:106E000008E6FB74017E00C8EBC8088005C333CEDA
:106E100033CED8F9FFEE5CFEEF5D4E600301705497
:106E20007837E6FF08E6FD75F0EA9000089E12004C
:106E3000BFB8FE7401C8EBC8088002C333D8FC4E4B
:106E4000F012016C767838E6FF18E6FD783912000A
:106E5000C0E41200C04FFB900063507401F01201B7
:106E60009BC101705490006127E0FF7838E6FE90E6
:106E70000031641200C0DC1200C17D1200C04F64FA
:106E8000017003016F0A900051E3E020E6030170F6
:106E900054783AE6FF1200C10FC083C082E0FE784A
:106EA00037E624AFF582E4345B1200C04FF4FDEE08
:106EB0005D759300D082D083F09000612FE0FE904A
:106EC000002F871200C221E5822EF582E43583125D
:106ED00000C04FFF783AE6FC75F01690002F831241
:106EE000003857E5822EF582E435831200C04F6FDB
:106EF00070030170549000612FE0FF7838E6FD08C0
:106F0000E6FBEC1200726B017054900051E3E0203C
:106F1000E503017054016E911200C03D64097003D5
:106F200001705408E6FEEF1200C1F41200C0602E9A
:106F30001200BFBF54606460600301703290005261
:106F400000E0FF7837E6FD6F600301703275F0C036
:106F5000ED1200C17508E6FF75930075F018120078
:106F6000C18B9000612812003883120036209000F7
:106F7000612EF090006129E475F002120036CE75A2
:106F8000F0EAEF900008B71200C0602E1200BFBFF9
:106F9000540F783AF6E675F048A4249CF9740190F1
:106FA00000612B1200C29DE49000612FF0900061FF
:106FB0002EE0FFA3E0FEC39F502D90006128120039
:106FC0003863E92EF9E41200C0FDFF9000612B1236
:106FD000003863E92EF9E43AFAEF120036529000D5
:106FE000612FE004F080C6783AE675F048A4249456
:106FF000F97401900061301200C29D9000612EE092
:10700000FF1200C13BEF1200C2292405F9E412006F
:10701000C0FD54FC1200C2292401F9E41200C0FD95
:10702000440812003652E6FDE4FB7F01120197A0EE
:10703000D22B302B1F1200C1FC900063F07420F0A3
:1070400012018E8B800E7834E630E7081200C1FC06
:107050001201C08B7834E620E303017177C2E9782E
:1070600037E6FF14601314601914601F24037022A4
:1070700075A6987835A6A7801975AE987835A6AF0D
:10708000801075B6987835A6B7800775BE987835A4
:10709000A6BFD2E97835E630E4030171401200C0A2
:1070A000B11200BFC420E0030171407837E612003E
:1070B000C1061200BFC454EE1200C0B01200BFC41B
:1070C0004402F0E6FF08E675F0EA900008BF1200FF
:1070D000BFB85401F07D011201C0DD7837E6FF1220
:1070E0000178D97837E6FF7B08E4FD120103827846
:1070F00037E6FF7B01E4FD1200306F7837E6FF7D55
:10710000011201ABA4900050BCE020E66AE49000BC
:10711000612FF09000612FE0FFC39404501412001F
:10712000C0B11200BFC420E0099000612FE004F05C
:1071300080E19000612FE0C39404403BC21380378C
:107140007835E630E4317837E61200C1061200BF28
:10715000C420E0231200C0B11200BFC44401F0E417
:10716000FD1201C0DD7837E6FDE4FF120145077826
:1071700037E6FF1201C8357834E630E21A7837E690
:10718000FFE4FD120176E67837E6FF1201C71878B2
:1071900037E6FF1201763E7834E630E4087837E6C9
:1071A000FF1201BBA47834E620E50301726A783748
:1071B000E6FF701275A699783BA6A7E64420F6F57F
:1071C000A775A699803EEFB4011275AE99783BA6DB
:1071D000AFE64420F6F5AF75AE9980287837E6B46F
:1071E000021275B699783BA6B7E64420F6F5B77556
:1071F000B699801075BE99783BA6BFE64420F6F597
:10720000BF75BE997837E6FF1200C1A81200C04FC3
:10721000702790004F591200C296EFF01200C2631F
:107220001200C263E4FBFF12012DD9EF04FF12002C
:10723000C1A51200C19EF080291200C1A51200C094
:107240004FC39401FFE49400FE900042F575F009ED
:10725000EF12003857EE75F009A41200C09D12001D
:10726000C2647837E6FF1201C15222900063CCF06D
:1072700012014609229000601BEFF0A3ECF0A3ED91
:1072800012007F8CE490006021F0A374FFF0E49082
:10729000006024F0A3F012007CA8FF90006031127F
:1072A000007DCEE9240112007A7024FC7003017382
:1072B000B614700301757524E47003017535241F3D
:1072C00060030179489000601E12003863E92FF9CD
:1072D000EA3EFA9000602812003883E92404120084
:1072E0007A70FEC3940640097406120036527F007D
:1072F000229000601B12007F051200798BE04E7512
:107300009300F012007EC61200798BE0701D12000F
:107310007E95240512007A7012007E9F9000314DF8
:1073200012007A9AEE12007990EFF012007E952406
:107330000512007A7012007E9F9000314F12007A81
:10734000DAEE12007990E0FDEFD39D400F9000310E
:107350004F12007AC1EE12007990EFF012007E9584
:10736000240812007A70D394324006743212003628
:10737000527E007F04EEC0E0EFC0E0900060281273
:10738000007A694480FD9000601BE075F0EAA42457
:10739000CCF9740835F0FA7B01D0E0FFD0E0FE12A2
:1073A000003A819000602812007A6912007CB9903E
:1073B00000317001752712007CA89000602B12002C
:1073C0007DCEE9240212007A70C3940640037F0048
:1073D0002212007CF8240312007A70700B90006077
:1073E00021F0A3E004F0800A90006022E0B4FF02E4
:1073F000E4F012007CF8240512007A70FF7021126C
:10740000007C021200798BE0FE90006022E0FD1209
:10741000007AA212007D192D120079A9EEF0802ABF
:1074200012007D21900031521200799AEFF0ED1296
:10743000007A5AED12007990E0700F75F078ED1235
:10744000007A5DED12007990EFF012007CF82403D1
:1074500012007A70FF12007D2175F0789000317172
:107460001200799DE0FCEFD39C400E75F078ED9012
:107470000031711200799DEFF012007CF8240612A1
:10748000007A70FF90006022E0FE75F078ED9000C9
:1074900031581200799DEFF09000602B12007A694C
:1074A0009000316412007998EFF012007CF8240407
:1074B00012007A709000317712007998E0FEEFD3D5
:1074C0009E401112007D2175F078900031771200F6
:1074D000799DEFF09000602B12007A6964016003DF
:1074E0000179489000601B12007E561200798BE0F3
:1074F000440112007FBB5430601590005D3A1200C9
:107500007FC2900032591200798BEEF001794890D9
:10751000005200E0245AF582E4344F12007C2D1210
:10752000007CB99000325912003857EE1200799061
:10753000EFF001794812007CA829F9EA3EFAE92423
:107540000712007C531201CA5E12007D27900032A0
:107550000F12007AE3ED2583F583C083C082120009
:107560007CD2D082D08375F00212003857EEF0A39F
:10757000EFF001794890006021E0D39406400301C8
:10758000793E12007CA829F9EA3EFA9000602E129A
:10759000003883C233E490006023F090006021E063
:1075A000FF90006023E0FEC39F505E12007C7A24AF
:1075B0000212007A70547FFF12007D2712007A01B8
:1075C000ED2583F583C083C08212007EA6D082D0D1
:1075D0008312007C93759300120079A6E0547F6FAC
:1075E000701E9000601BE0FF9000317112007AEF76
:1075F00012007D192D120079A9E0600DD2338009A7
:1076000090006023E004F0809212007C7A2404123F
:10761000007C531201CA5E90006026EEF0A3EFF0EA
:1076200090006022E012007CB912007AA6EE1200EF
:107630007D1A2F120079A9E06401704712007A596F
:10764000EE12007990E06401600C12007A59EE129B
:107650000079907401F0D390006027E094C090000E
:107660006026E09400401CE4F0A374C0F0FF7E00AC
:107670001201CA5E12007C7A12007DEAEE8FF012CF
:10768000003708203303017808120079E7EE2583DC
:10769000F583C083C08212007EA6D082D083120000
:1076A0007C93C083C08212007E27D082D083258243
:1076B000120079A9E06F700301779012007A59EEF9
:1076C00012007990E06403700301790212007C7A61
:1076D000240212007A7012007E9F12007A01EE12CC
:1076E00000799012007F0FC083C08212007E27D0E5
:1076F00082D0832582120079A912007A0CEE120042
:10770000799012007F0FC083C08290006023E0FE5A
:10771000759300D082D0832582120079A912007C53
:10772000001200798BE0B4092012007C34C083C0C1
:107730008212007CD2D082D08312007C9375930099
:10774000120079A674F0F0802D120079C2EE258324
:10775000F583C083C08212007CD2D082D083120015
:107760007C93C083C08212007E27D082D083258282
:10777000120079A9EFF012007C7A240312007A70CB
:107780005403C43354E012007CB9900031C58054D6
:107790009000601BE0900031A112007B10EF258368
:1077A000F583C083C08212007CD2D082D0831200C5
:1077B0007C93C083C08212007E27D082D083258232
:1077C000120079A9E0FF90006026E0FCA3E0FDD361
:1077D0009FEC94005003017902CFEDCF12007CBAE8
:1077E000900031A112003857EE2583F583C083C085
:1077F0008212007CD2D082D08312007C93C083C0DE
:1078000082900060230178F2120079E7EE2583F57B
:1078100083C083C08212007EA6D082D08312007CF7
:1078200093C083C08290006021E0759300D082D025
:10783000832582120079A912007A0CEE1200799049
:1078400012007F0FC083C08290006021E0FE75931C
:1078500000D082D0832582120079A912007C001208
:1078600000798BE0B4092012007C34C083C08212FE
:10787000007CD2D082D08312007C937593001200DA
:1078800079A674FFF08031120079C2EE2583F5836A
:10789000C083C08212007CD2D082D08312007C933D
:1078A000C083C08290006021E0759300D082D083B5
:1078B0002582120079A9EFF012007C7A24031200CD
:1078C0007A705403C43354E012007E9FFE9000315E
:1078D000C512007B27EE2583F583C083C08212008A
:1078E0007CD2D082D08312007C93C083C08290006F
:1078F0006021E0759300D082D0832582120079A99F
:10790000EFF012007CF8240512007A70B4092F12EF
:10791000007C7A2406F9E43AFA74FA12003652121C
:10792000007C7A240212007A70547F12007E9F90AD
:1079300000327812007B3FEE12007990EFF0203396
:107940000790006021E004F090006031120038637D
:1079500012003620FF90006024E48FF0120036CE33
:107960009000601CE0FEA3E0FFC390006025E09F54
:1079700090006024E09E50030172967F01229000E7
:107980006361E0FF75F0789000322B12003857EFFA
:107990002583F58375930022FFED75F0781200388A
:1079A00057ED2583F583E5822EF582E43583F58353
:1079B00075930022EFF09000322BEE75F078020004
:1079C00038579000602E12003863E92406F9E43A33
:1079D000FA12003620FF9000601BE0900031E9FEB3
:1079E00075F078020038579000602E12003863E975
:1079F0002402F9E43AFA12003620FF9000601BE0FE
:107A0000FE9000317D75F07802003857EFF090005D
:107A10006026A3E0FF900031A1EE75F078020038F7
:107A200057EE75F07802003857900062D07B007AEC
:107A3000007900E0FF75F0789000322122FFE0909D
:107A40000008FCFE75F0EA12003857E5822FF58237
:107A5000E43583F58375930022EE75F0789000315C
:107A600010020038579000640A12003863E92407B6
:107A7000F9E43AFA02003620F090002F71E0FD9010
:107A8000006162EFF0CFEECFA3E4F0EFA3F0E4A348
:107A9000F0A3F022FFE090003236FE75F07802008D
:107AA000385775F078EF9000315202003857EFF0F8
:107AB000E0FF75F01690002F8102003857900031DA
:107AC00011EE75F0780200385790003109ED75F02D
:107AD0007802003857E09000322BFE75F0780200F3
:107AE0003857EE75F0780200385790003272EE7514
:107AF000F07802003857900062CAE0FF75F07822F3
:107B000090006089E075F01690002F8B02003857C6
:107B1000FF75F078020038579000655EE0FF75F061
:107B20007822ED9000322175F078020038579000ED
:107B30006089E0FF75F01690002F8202003857FE32
:107B400075F07802003857A3E0900062D9F09000F9
:107B500062CBE0FD900062DA229000310CED75F00E
:107B6000780200385790006089E075F048A4249CA2
:107B7000F9740135F0FA7B012212003863CEEACEA7
:107B8000CFE9CF22E090003109FD75F0780200388E
:107B90005775F0EA900008D4020038579000641539
:107BA000E0FFA3E0FDA3E0FB22900062DAE0FE75B7
:107BB000F078EF9000323622900062CAE0FFA3E036
:107BC000FDE4900062D9F0A3229000316A75F0784C
:107BD00002003857E0FD75F01190002DB212003808
:107BE00057020038839000640DE0FF75F078900034
:107BF0003236221200388375F078EF90003221225D
:107C0000EFF09000601BE0FF75F0789000311022DB
:107C10009000649FE090000904FF75F0EA020038CC
:107C2000579000608CE024ABF582E4345BF58375FB
:107C30009300E022900031E9EF75F0781200385798
:107C4000EF2583F58322F0EF75F07890003107225D
:107C5000E92402F9E43AFA120036E4FFAEF0229089
:107C6000006089E0FF90002F7C75F0160200385705
:107C7000F075F078EF9000323B229000602E1200F9
:107C80003863E92275F01690002F8D1200385702E4
:107C900000386375F0060200385790006419E0FF61
:107CA00075F0789000323C229000601E120038631C
:107CB00090006024E0FEA3E022FF9000601BE0FE45
:107CC00075F0782275F01190002DB512003857E448
:107CD000F02290006022E075930022FDEF75F0EA3B
:107CE00002003857FE75F07802003857F090002FE8
:107CF00071E0FD90006162229000602B12003863F9
:107D0000E92290006421E0FF7C017D780200366664
:107D10001200388375F078EF22EF2583F583E58232
:107D20002290006022E0FE9000601BE0FD229000A7
:107D30006254E0FF90006256E022E075F016A42441
:107D400087F9742F35F0FA7B0122EF75F0EA020013
:107D50003857ED75F078020038577B017A60798FDB
:107D600090006201120038839000608BE090006206
:107D700004F0A322F075F078EF900031102290000B
:107D8000649FE0FF75F07890003234229000641B0D
:107D9000E0FF9000641922120038837B007A00799A
:107DA0000022740FF075F078EF9000323A229000C4
:107DB00062CAE0FFA3E0FD2290006256E0FF227558
:107DC000F0EA90000926120038577593002229F92D
:107DD000EA3EFA0200388390002F9002003857756F
:107DE000F005A429F9EA35F0FAE92404F9E43AFAAD
:107DF00022E0FF75F0789000321F2212003863E90C
:107E00004A4B22EB54F0FFC4540FFEEB540FFCCB53
:107E1000EECB9000628122900042EAE0FF22CAEE9F
:107E2000CAC9EFC97B012290006023E0759300224C
:107E300075F00812003857E0FEA3E0FF90006521BE
:107E4000E0FD2290006375E0FF22E09000655EFD9A
:107E5000E09000616222E0FF75F078900031092225
:107E6000EE75F07802003857A3F09000640A020023
:107E7000386390006253E075F0C090000FAA0200D2
:107E80003857E4F075F078EF9000321F22A3F0A38A
:107E9000F0FB7F04229000602812003863E922FF83
:107EA0009000601BE02290006022E0FD75930022AC
:107EB000900062D0E0FF75F078229000608BE0FFC8
:107EC0007E00EE22E0FD75F078EF9000314D22CE7D
:107ED000EDCEEFC39402227E017D0002003A817B49
:107EE000017A6079999000616C0200388375F01610
:107EF000A42483F9742F35F0FA7B012275F078EF12
:107F00009000323422E0FF75F078900031512275F4
:107F1000F006ED0200385790002DAF02003857EF01
:107F2000F0A3EDF0A3EBF02290003105E075930093
:107F300022E0FF75F0789000323B22E0FF75F07888
:107F40009000321B221200365275F078EF9000310B
:107F50001D22FE12003857E5822F22F0900042EBDE
:107F6000E02290006419E0FF9000641BE0FD22E035
:107F7000FF90006089E022120036529000608EE08F
:107F800004F02274072FF974313E22EFF0A30200AF
:107F90003883744B2FF974323EFA7B0122E0FF9054
:107FA00000608AE0229000608EE029F9E43AFA222B
:107FB000759300E0FE90006374E022F0900051E3BE
:107FC000E022E0FE75F078EF22900062D2E0FEA39E
:107FD000E0FF2290006412E0FF2275F016EF12001D
:107FE0003857E0229000608AE0FF229000649FE012
:107FF000FF2290006526E0FF2290005AD9E075F03C
:1080000003A424E4F582E4345AF583759300E090E8
:10801000006301F0A37408F0E490006300F09000A6
:108020006302E0FF90006301E05F700301852B12A3
:108030000150B1248BF582E4345F12015073FE903D
:10804000006303F0747A2FF582E4345F12015073F9
:10805000FF90006304F07B827ACA79B390006300DA
:10806000E0FD90005FA0E4F0A3EDF0EEFDA3E4F0EE
:10807000A3EDF0A3E4F0A3EFF012008571B4601556
:10808000A3E070117B827ACA79D7120044819000F4
:1080900063047403F090006304E0FF7003018494B0
:1080A00020E30301815D90006303E020E30301818D
:1080B000447B827ACA79DD90006300120151151267
:1080C0000044817B817A4A79DC1201C19D12015002
:1080D000B11201B6E7EF603FC2E890005AD3E090DA
:1080E000005F7EF0D2E87B827ACA79FF1200448179
:1080F00090005F79E0FD90006300E090006162F025
:10810000A37403F0A374E8F0A37403F0A374E8F07D
:10811000E4FBFF12012DD9120150B11201506C4441
:1081200008F074942FF582E4345F12015073FFC39A
:10813000940240291201C9277B827ACB7918120058
:10814000448180197B827ACB79271201512F12004A
:10815000855A1201506C54F7F01201B580900063FB
:1081600004E020E00301821C90006303E030E0069D
:10817000120150F38004120150FA120150E07B8288
:108180007ACB79480184DC120150675401FF9000DA
:108190006303E0FE54016F6079EE30E02E90005AE8
:1081A000DFE0C3940850147B827ACB796612008595
:1081B000667D1E7C001201A16080617B827ACB7992
:1081C0007490005ADF12015115804D120150B11206
:1081D00001506C54FEF074992F120150B8120150E6
:1081E000B11201511C120150BD30390A90005F9349
:1081F000E06F7002C2391201508B12015073FFC33D
:10820000940240181201C9271201508B120150BD6F
:10821000800A7B827ACB79911200448190006304BA
:10822000E020E1030182EA90006303E030E10612FE
:108230000150F38004120150FA120150E07B827A5F
:10824000CB7998120085661201506CFE5402FD90A5
:10825000006303E0FC54026D601CEC30E111748F8C
:108260002FF582E4345F120151394402F080071285
:1082700001506754FDF090006303E0FF20E16B5470
:1082800021642170651201508B12015073FFC39459
:1082900002405790003107120150C512015073304F
:1082A000E70D1201508B12015073FF1201C9271202
:1082B00001508B120150BD7B827ACB79B5120044FC
:1082C00081120150B12499F582E4345F1201507398
:1082D000C39405501590005F80E0700E7D1EFC1267
:1082E00001A16090005F807401F090006304E030B1
:1082F000E26690006303E030E206120150F380046E
:10830000120150FA120150E07B827ACB79CE120032
:108310004481120150675404FF90006303E0FE544F
:10832000046F602AEE30E2137B827ACB79EC120084
:108330004481120150674404F0801D7B827ACC791D
:1083400001120044811201506754FBF0800A7B82C5
:108350007ACB79911200448190006304E020E40319
:1083600001850E90006303E05403640360030184FD
:108370008690005F80E0C39402500301850E7B82EB
:108380007ACC791612008571FF30E106120150F3A4
:108390008004120150FA120150E0EF30E0061201A1
:1083A00050F38004120150FA90005FA3120038834A
:1083B0007B827ACC792B120044811201508B1201FE
:1083C0005073FF600790006305F080587B017A636B
:1083D000790590006300E0FD12015DD3EF700301A9
:1083E00084811201514090006300E0FE1201509020
:1083F000F583759300EFF0EEC454F0FE9000321C4C
:10840000120150C512015139F090006303E030E6CB
:10841000131201514090003151120150C612015007
:10842000734480F090006300E0FE0490003106F099
:108430001201514075F07890003234120150C9F5A4
:10844000837593007405F074992E120150B8900052
:108450005F80F090005F7FE0FD900061621201514B
:108460000112015103E4FBFF12012DD97B827ACC6A
:108470007942900063051201511512004481018573
:108480000EC23901850E7B827ACC795F120044815D
:10849000C239807A7B827ACC79711201512F120114
:1084A00050AA90006303120150A590006304E0FFFE
:1084B00090005FA4E4F0A3EF1200855A1201511C52
:1084C0001201507320E01C748B2FF582E4345F128C
:1084D00001507330E00D7B827ACC79951200448193
:1084E000018187120150B11201511C1201507330E9
:1084F000E41C748B2FF582E4345F1201507320E486
:108500000D7B827ACC79A71200448101836312012A
:1085100050B1248BF582E4345F12015073FE746B0A
:108520002FF582E4345F12015139F090006301E0CD
:10853000FFA3E0FEF4FDEF5D90006301F05478606E
:1085400018EE25E090006302F090006300E004F074
:10855000E0C39404500301801E22F0120044819075
:10856000006300E0FF221200448190006300E0FFFE
:10857000221200448190006303E022900060071201
:10858000003863E924AFF9E43AFA12003620FD908E
:1085900000600712003863E924AEF9E43AFA1200E9
:1085A000362075F004A4FF9000600712003863E9DC
:1085B00022FF9000605212003863E92416F9E43A71
:1085C000FA1200388CE92FF9EA3EFAE92403F9E4BB
:1085D0003AFA02003620F090005F3E12003863E95C
:1085E0002416F9E43AFA0200388C90005FF9E09022
:1085F00000326CFF75F07812003857EF2583F58351
:1086000075930022FF90005F3E12003863E92290CC
:1086100000605EE0FF9000605212003863E922754E
:10862000F004A4FF900060E512003863E922900096
:108630005F2B12003863900062881200388390002C
:108640005F2EE09000628BF090005F3B0200386389
:10865000F9E43AFA120036E4FF900060DE120038C6
:1086600063E922759300E090005F33FEE0FD24ABE8
:10867000F582E4345BF583759300E0222404F9E489
:108680003AFA020036E49000600D12003863E924E3
:1086900002F9E43AFAEF02003652900061B3E0903A
:1086A0000061AB75F004A4FF12003863E92FF9EA0A
:1086B00035F0FAE92290005C91F090005F3E1200E4
:1086C0003863900060BF1200388390005F2B020077
:1086D0003863CAEECAC9EFC97B0190006016120068
:1086E00038839000601612003863E94A4B229000EC
:1086F0005FF9E0FF90005FFCE0FD90006013120066
:108700003863900060DE120038839000600712002A
:108710003863900060E10200388390005FFE120031
:10872000386390006006E02401FF90006005E034AB
:1087300000FEE92FF9EA3EFA02003620E075F00467
:10874000A4FFAEF0900061AB02003863A3F0E4A395
:10875000F0A3F0A3F0A32224AFF9E43AFA740102E3
:108760000036362404F9E43AFAE5F08FF0020037D7
:1087700008E075F004A429F9EA35F0FA020036E4BD
:108780009000600D12003863E9229000605EE0C343
:108790009401FFE49400FE7802EF229000604F12F3
:1087A00000388390005F3E0200386390006106123B
:1087B000003863E9240122C39401FF131313541FEB
:1087C00090005F32F0EF5407A3F090005F32E0FFBB
:1087D0002442F582E4345F2224AEF9E43AFAE4025A
:1087E0000036522420F9E43AFAED020036529000A5
:1087F000604C12003863E4F5F002003708F0A3E49F
:10880000F0A37406F0E4A3F0A37408F0A322900090
:108810005F58E0FFC3940874809480229000601039
:1088200002003863E92401F9E43AFA229000601367
:1088300012003863E922FE9000605DE02EFEC374F2
:10884000089EFEC8EEC8EF082290006016020038AD
:1088500063241EF9E43AFA22FE75F07802003857D4
:1088600029F9EA3EFA120036E4FF90006055E5F07F
:1088700022CAEECAC9EFC97B01229000610612002C
:108880003863E9240822900061F6E0FF75F07890E3
:1088900000326F22F0A37481F0A3E4F0A3747FF0A0
:1088A0002290005F3E02003883FF7E00C394017473
:1088B000809480227B007A00790002003883900047
:1088C000610312003863E9240722E92FF9EA3EFA2E
:1088D000E92402221200388375F078EF22900060BC
:1088E0005EF0E022E0FF90005F58E022FF7E009003
:1088F000006005EE8FF0020036CE90006003E0FECF
:10890000A3E02290005FFE1200386390006005E053
:10891000FEA3E02922131313541FF0E490005F54C8
:10892000F022E0FF90005F54E0FEC39F22900060C1
:1089300003FFE4F0A3EFF022FF90006003A3E02226
:10894000C8E9C8CCEACCCDEBCD222408F9E43AFA48
:1089500022FF9000600D02003863FF900061FB026F
:10896000003863FF900061AFE0FEEF9E22F09000C0
:10897000604F020038639000605EE0C39401229073
:108980000064B412003863120036E4FF2290005FE6
:108990005102003883EE2583F583E5822FF582E4CA
:1089A0003583229000610C020038832406F9E43AF2
:1089B000FA222407F9E43AFA227480F0A37406F04C
:1089C000227401F0A3E4F0A32212003863E9240624
:1089D000229000316475F0780200385775F004A4D5
:1089E000FFAEF02290005F58E004F02290005F5448
:1089F000E004F02290005FFCE064802290006109B6
:108A000012003863E9241922131313541FF0900045
:108A10005F5B2290005F54E033333354F822F074EC
:108A2000FF02003636ECF0A3EDF090005C90E022FF
:108A3000FFC374089FFF22F45E02003652FFC3EDAD
:108A400094016F22E490005F58F022CEEACECFE985
:108A5000CF2290005FF9E0FF222403F9E43AFA22E2
:108A6000900061F812003863E9229000604C120017
:108A7000388390006059E4F0A304F0302004E4FE51
:108A8000FF22120086152408120085CE64016003BF
:108A9000018D1290006055F0A3F0120087EEE49073
:108AA000006060F0120086152406120085CEFF904B
:108AB000006058F0120086152409120085CE90003F
:108AC000605FF0EF54079000605DF0E49000605B41
:108AD000F090006058E0FF131313541FFE900060E5
:108AE0005CF0EF5407900060571200896DE92E1278
:108AF0000085CE9000605EF01200861524091200F9
