:020000040000FA
:1000000002010001020408000101000201B0EA003F
:100010000100020004000800100102040849430026
:10002000EF222202014FBFCDEFCDCCEECCCFCFEFF0
:10003000FACECEEE2400FFE43AFE2202011A650257
:100040000172B502008B8F0201628F02013A5802E1
:1000500001AA540201A90002018D1B0201A43E90D5
:10006000909090010204080FA0A0A0A001100440ED
:1000700055A0A0A0A00220088012012DD92222FFA5
:100080009000662A120013DA7810EC4D4E4F70047F
:100090007CA57DA5C3EC13FCED13FDEE13FEEF1361
:1000A000FF5010EC64CCFCED644CFDEE644EFEEFB2
:1000B00064CEFFD8DF9000662A120013F2EE547F60
:1000C000FE229000662AEEF0EFA3F0A374A5F0A341
:1000D000F02275F003A42498F582E4345FF583756B
:1000E00093002275F003A4249AF582E4345FF5832B
:1000F00075930022F090005F97E004F0C3942022F3
:1001000075EBAA75EB55759D02787FE4F6D8FD90E6
:100110000000007F007E807D01E4F0A3DFFCDEFABA
:10012000DDF8750F7E7510FF75814E02001B904142
:100130006309004163120041630D0041630C0041FB
:100140006313004163110041672A004254A8000074
:100150004254B100004254AF00004154AA0042543E
:10016000A600004254AD00004254AB00000145001F
:100170004166BA004166BB004147F00060904C0FF9
:100180000042003E3C3A3B456843413F3D2B3567CA
:1001900069E2E188E0141E006A001D16041A1F00BF
:1001A0006B061B070821208C6C2C19091715226877
:1001B0006D11050B0A1C23696E00100D1824256AA9
:1001C0006F360E0C122726007037380F33132D00B0
:1001D000718734032F2E007239E5283000310094E6
:1001E000006493928A002A8B0059895C5F85000025
:1001F00062635A5D5E60295344575B565561470000
:100200000000004046000000000000000000000068
:1002100060A54B6A00000000000000000000000024
:1002200000000000BEE60000E4B40000C4000000CE
:10023000000000E3C3B900B7000000E7C20000BC43
:1002400000920065C100B800B60000B0C000BFB5A4
:10025000000000B1BD00000000000000BB00540021
:1002600000B30000BA0000000000000000005800C9
:100270000000B2000000000000006600004D0050C9
:100280004A000000494C51004F52004800004E0007
:10029000464B480004010244453A3B3C3D3E3F404A
:1002A000411E1F2000000000007876657566777497
:1002B0007E797A7C7D7B7F8180603F49E30281008B
:1002C00002820002830003B50003B60003B70003F7
:1002D000CD0003E20003E90003EA00038301038A7F
:1002E0000103920103940103210203230203240268
:1002F000032502032602032702032A024150AF010D
:100300004952050000000000001E001E4E5E7300F2
:1003100047014700470147F000F100FF004E5E63D0
:1003200000E001E000E001E0F000F100FF00606E9D
:100330005DCE0924800617150F4500010401450113
:10034000040627203A4500010628203D4500010308
:1003500029204203302043071440131A45000109A5
:100360001380130F180A450001071640130A4500B1
:100370000106052005450001030620160B07200C89
:10038000860500E7035E28580A0CA0090F04160B27
:100390005E2858040E482858062020185E2858FF6A
:1003A000415E8300415DC900415DC500415E720050
:1003B000415E8500415DCD00415DCB00415E710035
:1003C000415DC80044624E1111111144623F8080AA
:1003D0008080446245010402084462490004020628
:1003E000485FF800102030405060704860408081C5
:1003F00082838485868748604890919293949596ED
:100400009760406000A0A1A2A3A4A5A6A7A8A9AA3E
:10041000ABACADAEAFB0B1B2B3B4B5B6B7B8B9BAB4
:10042000BBBCBDBEBFC0C1C2C3C4C5C6C7C8C9CAA4
:10043000CBCCCDCECFD0D1D2D3D4D5D6D7D8D9DA94
:10044000DBDCDDDEDF4161FF00416215004162144B
:10045000004161FE0044621000000000525F8412FF
:1004600001010109000008950B0468120001020354
:100470000160405F442A03560069007200740075F1
:100480000061006C0020004800550042002000562A
:1004900000650072003A0030002E0030003100008C
:1004A000000000000000000000000000000000004C
:1004B000000000000060205F240A034D0054004B40
:1004C000002000000000000000000000000000000C
:1004D0000000000000000000005256C3120110018D
:1004E00000000008950B0668020001020301605439
:1004F00056D509025400030100A0010904000001BF
:1005000003010100092110010001223F00070581BC
:100510000308000109040100010301020009211080
:10052000010001226E000705820307000109040291
:10053000000103010200092110010001225D0007F2
:10054000058303070001603F572D05010906A1013E
:10055000050719E029E715002501750195088102B5
:100560009501750881019505750105081901290591
:10057000910295017503910195067508150025688E
:100580000507190029688100C0606E576C050109D4
:1005900002A10185010901A101050919012905151A
:1005A00000250175019505810275039501810105FD
:1005B000010930093109381581257F7508950381B6
:1005C00006C0C005010980A1018502050119812924
:1005D0008315002501950375018106950175058137
:1005E00001C0050C0901A101850319002A3C02156F
:1005F00000263C02751095018100C0605D57DA0548
:10060000010902A10185040901A1000509190129B7
:100610000515002501750195058102750195038178
:100620000175089501050109381581257F8106C0EE
:100630000901A10005010930150026000435004616
:10064000000475109501810209311500260003355B
:1006500000460003751095018102C0C0445729046B
:1006600003090460225897220341005300490058AF
:1006700000200045006C0065006300740072006F8C
:10068000006E00690063007300604058572A0356EB
:1006900000690072007400750061006C0020004861
:1006A000004900440020005600650072003A003006
:1006B000002E0030003100000000000000000000AB
:1006C0000000000000000000000000000060205852
:1006D000370A0341005300490058000000000000A1
:1006E000000000000000000000000000000000000A
:1006F000004430F1010204085430DD14034D006958
:1007000000630072006F0073006F006600740048A1
:100710005CA70102040810204080445BA61A1C1E3E
:1007200020445BA112141618425BDC0000C11CC1FE
:100730001AC11B415BDB00415BAA07415BA5004975
:100740006268030000000000000000415D8C006052
:100750002A5D9900810082008300B500B600B700D1
:10076000CD00E200E900EA0183018A0192019402CE
:100770002102230224022502260227022A49614B74
:1007800000000000000064006449613900000000BE
:1007900000000200024F61B420FF803F0000000013
:1007A000000000000000004F619720FF8000000063
:1007B0000000000000000000004761A610000F20AC
:1007C0000900004761AD10000F2000000042661ACA
:1007D00009DA42661C90C05A4CC2000100010001B7
:1007E000000100010001000100040020006400324B
:1007F000001900115A4CA80001000100010001007D
:1008000001000100010002001000320019000C007C
:10081000084D4F4C080C101820305E1A1A6464649E
:10082000644D4E3F0406080C10182F1A1A646464B5
:1008300064424CA50000424CE30000424CE1000041
:10084000414CA700424CA30000424CDF0000424C48
:10085000DD0000605A4CE531324D000000384D009B
:10086000000000364D00000000344D000000003351
:100870004D00000000324D00000000314D0000002E
:10088000003932314B00003131354B000039363000
:1008900030000031393230300033383430300035F8
:1008A000373630300000000000000000000000007B
:1008B00000C11FC11DC11E415F2300415EBC01413B
:1008C0005F0E01415EC80F415ECA00415EB9014141
:1008D0005F0300415EB147415E8E00415F150044F9
:1008E0005EB300000000415E8F00415F0400415F85
:1008F0001600415EC500485EF300000000000000E5
:1009000000415EB800425F0F0200425F1201804268
:100910005F1700004F5EDC000000000000000000D8
:10092000000000000000415F1100485EEB039C03E3
:100930009C00640064485EFB029C0064029C0064AE
:10094000415EBF004154A50060C05312000000008A
:1009500000010001000100018249B603010101020A
:100960000101018249B6030102010201010182492C
:10097000B603010201030103018249B6030201002B
:1009800000010001000100018249B60301010102DA
:100990000101018249B603010201020101018249FC
:1009A000B603010201030103018249B602010300FB
:1009B00000010001000100018249B60201010101AC
:1009C0000103018249B602010101020102018249CB
:1009D000B602010301010103018249B601030200CD
:1009E00000010001000100018249B601010301017B
:1009F0000101018249B6010102010301020182499C
:100A0000B601010301030102018249B660C053D25D
:100A100003020100030100010101000181F6FF034F
:100A20000101010201000181F6FF0301020102013F
:100A3000010181F6FF030102010301030181F6FFB9
:100A400002010003020100010101030181F6FF021E
:100A50000101010101000181F6FF02010101020112
:100A6000020181F6FF020103010001030181F6FF8B
:100A700001000302010100010001030181F6FF01F1
:100A80000100010101010181F6FF010102010301E1
:100A9000020181F6FF010103010001020181F6FF5D
:100AA00000030201000103010001000181F6FF00C3
:100AB0000101010201010181F6FF000102010301B0
:100AC000010181F6FF000103010301020181F6FF2C
:100AD00060F0521200010203030101010001000154
:100AE00081002200010201010101018100220101B6
:100AF000030102010201810022020100010301033E
:100B00000181002203010200010100010201000134
:100B100081007E010100010301010181007E0301CA
:100B200002010201000181007E03010201030101B3
:100B30000181007E030102000101000100010001AA
:100B400081007E010100010101010181007E03019C
:100B500002010201020181007E030102010301037F
:100B60000181007E00000000000000000000000085
:100B70000000000000000000000000000000000075
:100B80000000000000000000000000000000000065
:100B90000000000000000000000000000000000055
:100BA0000000000000000000000000000000000045
:100BB0000000000000000000000000000000000035
:100BC00000000000C127C126446066000102034204
:100BD0006052000042605000004260A30000603894
:100BE000606AAA550601CC330000AA550602CC3330
:100BF0000000AA55070301000000AA5505040100E2
:100C00000000AA55050501000000AA5505060100CF
:100C10000000AA55050701000000004863D000004D
:100C2000000000000000EDD2E7CD33EC3392D52474
:100C3000814006E4FFFEFDFC22FCE4CFCECDCC24B7
:100C4000E0501174FF80EDC3CC13CCCD13CDCE1387
:100C5000CECF13CF0470F030D5DE020013A6F920FA
:100C6000E73624F950037907E4F42402FBE5821502
:100C70008270021583DBF6E024FB501BE96014E46C
:100C8000F0E582158270021583E004F0B40A08E4EE
:100C9000F0D9EE7401F00A22C2D522ED33EC339282
:100CA000D5FA602AB4FF33EDC2E77B8160067A0C87
:100CB00079C0E4227A0C79C920D5047A0C79C4224F
:100CC0004E614E002B494E46002D494E4600E47AB7
:100CD00008F0A3DAFC7B00740722C093C083C082B3
:100CE000ECC0E0EDC0E0EEC0E0EFC0E0EA75F0106F
:100CF000A4CAABF075F04DA42BFBE435F0FCEA245C
:100D000010FAEB34C5FBEC34D9FCEDC2E7FF75F00B
:100D100056A4F42411C5F0F434C58FF0A42AE5F0EC
:100D20003BE43CF020E7161200108CD0E0FFD0E04E
:100D3000FED0E0FDD0E0FC12000FBA8016F40412E1
:100D400000108CD0E0FFD0E0FED0E0FDD0E0FC123F
:100D5000000EA8D082D083D093E0FAEDD2E7CD3355
:100D6000EC332482FBE4C3CF33CFCE33CECD33CDAF
:100D700033DBF37B0775F00A846004F0A31B0AE5FC
:100D8000F0F0A38FF0740AA4FFACF08EF0740AA404
:100D90002CFEACF050010C8DF0740AA42CFDE4354F
:100DA000F0F0A3DBDE74072202001107E86480F88C
:100DB000E933E83360110460EFED33EC337009E898
:100DC000FCE9FDEAFEEBFF220460DDD3EB9FEA9E27
:100DD000E99DE8C2E78CF0C2F795F0400CE8CCF84A
:100DE000E9CDF9EACEFAEBCFFB120010D285D0F0B4
:100DF0005804700320D5B1E80470085002B2D5023F
:100E000000111192D5EC0460F6E4CCC0E0C398F870
:100E1000603C94186009400ED0E0FB020010E9E449
:100E2000FBFAC9FC8028E830E406E4C9FBE4CAFC0C
:100E3000E830E305E4C9CACBFCE854076010F8C306
:100E4000E913F9EA13FAEB13FBEC13FCD8F130F5D4
:100E500031C3E49CFCEF9BFFEE9AFEED99FDD0E0E0
:100E6000FBEF4E4D4C701322DB040200110EEC2CF4
:100E7000FCEF33FFEE33FEED33FDED30E7EA020029
:100E800010E9EF2BFFEE3AFEED39FDD0E0FB5014F8
:100E90000BBB000402001111ED13FDEE13FEEF1366
:100EA000FFEC13FC020010E9EC4D6011E8497018EA
:100EB000ED33EC3304600DE4FCFFFEFD22E933E882
:100EC000330470F802001107120010D258046009B0
:100ED000E4CC2481500728500B0200111128400453
:100EE0000200110EC0E0EB4A7046B98007D0E0FB6B
:100EF000020010FDEF4E701DBD8008EBFFEAFEE919
:100F0000FD80EAE98DF0A4FEE5F002000F97E9CD3F
:100F1000F9EAFEEBFFEF89F0A4FCE5F0CE89F0A43E
:100F20002EFFE435F0CD89F0A42DFEE435F0806786
:100F3000EF4E7005BD80D780C2EF8BF0A4ACF0EE11
:100F40008BF0A42CFCE435F0F8EF8AF0A42CE5F04B
:100F500038FCE433CB8DF0A42CFCE5F03BF8EE8AB2
:100F6000F0A42CFCE5F038F8E433CF89F0A42CFC95
:100F7000E5F038CF3400CE89F0A42FFFE5F03EFE37
:100F8000E433C98DF0A42EFEE5F039CD8AF0A42F0C
:100F9000FFE5F03EFEE43DFD33D0E0FB50080BBB27
:100FA000001002001111EC2CFCEF33FFEE33FEEDCC
:100FB00033FD020010E902001111EC5D046005E848
:100FC0005904700402001107120010D2580460F492
:100FD000EC4860F0EC7004FDFEFF22C860D824816C
:100FE000C8500AC398600250070200110E9850C6FC
:100FF000F582E9294B4A7006AB82020010FD75F0BC
:10100000007C1A7880C3EF9BEE9AED99400DC3EFF8
:101010009BFFEE9AFEED99FDE842F0DC24ACF0D0A7
:10102000E0FFD0E0FED0E0FDAB8220E7101BEB60DC
:10103000B8EC2CFCEF33FFEE33FEED33FD02001075
:10104000E9E803F830E705C0F075F000EF2FFFEE98
:1010500033FEED33FD40B730E7C180A93F8000008B
:101060004120000042C80000447A0000461C4000B5
:1010700047C35000497424004B1896804CBEBC20D6
:101080005A0E1BCA6753C21C749DC5AEFB60065442
:101090000760202323120010BFEB5438600C1200AD
:1010A00010AA120010BA12000EA8ECF8EDF9EEFA30
:1010B000EFCB22EB120010BA80F0543803241C90BE
:1010C00000105CFE93FC0EEE93FD0EEE930ECE939D
:1010D000FF22E9D2E7C933E833F892D5EDD2E7CD64
:1010E00033EC33FC5002B2D522EC30E7100FBF00D6
:1010F0000C0EBE00080DBD00040BEB6014A2D5EB76
:1011000013FCED92E7FD2274FFFCFDFEFF22E4805C
:10111000F8A2D574FF13FC7D80E480EFEB7008E744
:1011200009F608DFFA801B89828A831410E70AF522
:1011300093E0A3F608DFFA8009F593E493A3F60899
:10114000DFF9ECFAA9F0EDFB2288F0EF60010E4E1A
:1011500060F088F0ED60C51410E7E7CB700E888270
:101160008C838B93E709F0A3DFFA80D61410E72A6B
:1011700089828A83F593ECFAE0A3C8C582C8CCC5FE
:1011800083CCCBC593CBF0A3C8C582C8CCC583CCD8
:10119000CBC593CBDFE2DEE080AA89828A83F59318
:1011A000ECFAE493A3C8C582C8CCC583CCCBC59365
:1011B000CBF0A3C8C582C8CCC583CCCBC593CBDF4D
:1011C000E1DEDF02001144EB7002E72289828A83AC
:1011D0001410E704F593E022F593E49322BB000397
:1011E00027F722F8EB89828A831410E706F593E04B
:1011F00028F022F593E4932822BB0002F722BB805B
:1012000000500989828A838B931593F022EF8DF029
:10121000A4A8F0CF8CF0A428CE8DF0A42EFE22BC82
:10122000000BBE0029EF8DF084FFADF022E4CCF876
:1012300075F008EF2FFFEE33FEEC33FCEE9DEC98DB
:101240004005FCEE9DFE0FD5F0E9E4CEFD22EDF861
:10125000F5F0EE008420D21CFEADF075F008EF2F03
:10126000FFED33FD4007985006D5F0F222C398FDFC
:101270000FD5F0EA22C5F0F8A3E028F0C5F0F8E5B4
:1012800082158270021583E038F022EB7007E7F5D3
:10129000F009E7192289828A831410E708F593E0A0
:1012A000F5F0A3E022F593E493F5F074019322BBEB
:1012B0000006F709A7F01922BB8000500D89828A29
:1012C000838B931593F0E5F0A3F022EF2BFFEE3A1A
:1012D000FEED39FDEC38FC2275F008758200EF2F29
:1012E000FFEE33FECD33CDCC33CCC58233C5829BEC
:1012F000ED9AEC99E58298400CF582EE9BFEED9A12
:10130000FDEC99FC0FD5F0D6E4CEFBE4CDFAE4CCAD
:10131000F9A88222B800C1B90059BA002DEC8BF0AF
:1013200084CFCECDFCE5F0CBF97818EF2FFFEE336C
:10133000FEED33FDEC33FCEB33FB10D70399400497
:10134000EB99FB0FD8E5E4F9FA227818EF2FFFEEBE
:1013500033FEED33FDEC33FCC933C910D7059BE9EF
:101360009A4007EC9BFCE99AF90FD8E0E4C9FAE44B
:10137000CCFB2275F010EF2FFFEE33FEED33FDCCEA
:1013800033CCC833C810D7079BEC9AE899400AEDD4
:101390009BFDEC9AFCE899F80FD5F0DAE4CDFBE47C
:1013A000CCFAE4C8F922C3E49FFFE49EFEE49DFD6D
:1013B000E49CFC22E8600FECC313FCED13FDEE137C
:1013C000FEEF13FFD8F122E8600FEFC333FFEE33D7
:1013D000FEED33FDEC33FCD8F122E0FCA3E0FDA3ED
:1013E000E0FEA3E0FF22E0F8A3E0F9A3E0FAA3E027
:1013F000FB22ECF0A3EDF0A3EEF0A3EFF022A42586
:1014000082F582E5F03583F58322E0FBA3E0FAA3C1
:10141000E0F922F8E0FBA3A3E0F925F0F0E582155E
:101420008270021583E0FA38F022EBF0A3EAF0A311
:10143000E9F022EB7006E9F80200164F89828A83F0
:101440001410E706F5930200140AF59302001661E2
:10145000BB001CD093D0F0D0E0F8D0E0C9FBD0E0C6
:10146000FAD0E0CBC8C0E0C0F0C09302001658BB71
:1014700080005022D093D0F0D0E0F8D0E0C9F582BF
:10148000D0E0CAF583D0E0CB14C8C0E0C0F0C09370
:1014900088930200142AD093D083D082D0E0D0E089
:1014A000D0E0E473D093D083D082F8E493701274C8
:1014B0000193700DA3A393F8740193F5828883E4DC
:1014C000737402936860EFA3A3A380DF8B938A8376
:1014D0008982159353937FE473EB700C87F009E6D0
:1014E00008B5F019DFF6801589828A831410E71198
:1014F000F593E0F5F0A3E608B5F002DFF50200157C
:101500008AF593E493F5F0A3E608B5F07DDFF48067
:1015100079CB701388828C838B9387F009E493A333
:10152000B5F067DFF580631410E73089828A83F5B0
:1015300093ECFAE0F5F0A3C8C582C8CCC583CCCB48
:10154000C593CBE493A3C8C582C8CCC583CCCBC517
:1015500093CBB5F035DFDCDEDA802F89828A83F524
:1015600093ECFAE493F5F0A3C8C582C8CCC583CC4C
:10157000CBC593CBE493A3C8C582C8CCC583CCCBE1
:10158000C593CBB5F004DFDBDED97FFFB5F0020FEA
:101590002240027F0122020014D90200151188F0B6
:1015A000EF60010E4E60EEED60EC1410E7ECCB70D6
:1015B0001288828C83F59387F009E0A3B5F0CBDF26
:1015C000F680C71410E72F89828A83F593ECFAE03E
:1015D000F5F0A3C8C582C8CCC583CCCBC593CBE0FE
:1015E000A3C8C582C8CCC583CCCBC593CBB5F09A74
:1015F000DFDDDEDB809489828A83F593ECFAE49365
:10160000F5F0A3C8C582C8CCC583CCCBC593CBE0CD
:10161000A3C8C582C8CCC583CCCBC593CBB5F004D9
:10162000DFDCDEDA0200158AEF4E6022EF60010E89
:10163000EDBB0007F709DFFCA9F022BB8000500ECC
:1016400089828A838B931593F0A3DFFCDEFA22E66E
:10165000FB08E6FA08E6F922EBF608EAF608E9F6EE
:1016600022E493FB740193FA740293F922E50824AF
:101670006AF582E43461F583759300E005082290F1
:101680000061673007049000616AE475F0011200A0
:101690001413020011C72000E57F2ED2008018EF3E
:1016A000540F2490D43440D4FF30040BEF24BFB443
:1016B0001A0050032461FFE50960021509050CE5D5
:1016C0000C7002050B30071190006167E475F001A2
:1016D00012001413EF020011F90201B0787403D262
:1016E000078003E4C207F508900061671200142A1E
:1016F000E4F509F50BF50CE50960087F20120016EA
:10170000B780F4750AFFC201C200C202C203C2055B
:10171000C206C2081200167FFF700E3007067F0057
:10172000120016C8AF0CAE0B22B42563C2D5C2049A
:101730001200167FFF24D0B40A00501A75F00A7800
:101740000930D50508B6FF0106C6A426F620D50443
:101750007002D20380D824CFB41A00EF5004C2E53F
:10176000D20402001A05D20180C4D20080BED20287
:1017700080BAD2D580B8D20580B27F20120016B7C9
:101780002002077401B5090040F01200166DFF1227
:101790000016B7020016F7D208D206808F12001684
:1017A0006DFB1200166DFA1200166DF94A4B7006A9
:1017B00079127A1B7B8120023DE50960397E00E9C0
:1017C000C0E02EF9EAC0E03400FA120011C7F9D0E7
:1017D000E0FAD0E0C960060EEE650A70E2C2D5EB11
:1017E000C0E0EAC0E0E9C0E0EE12001A6DD0E0F916
:1017F000D0E0FAD0E0FB120011C7FF6096EBC0E02A
:10180000EAC0E0E9C0E0120016B7D0E02401F9D048
:10181000E03400FAD0E0FBE50A0460DAD50AD7022A
:10182000001793D202808F12001A4960F6E50A7001
:10183000010412000C5EA90A600EE50A600A14F5A4
:101840000A12001AFCEF60F2EA30E702F404C399CE
:101850004004020018DCEAF4250A0430E701E4043D
:10186000F50A800F12001A4960B9EA050A250A1222
:10187000000C5EEA90006196F030E701E4250A046E
:10188000D50A042005011412001A6DE4C0E012000C
:101890001AFC90006196E0601420E70814F0120032
:1018A000169F802604F0D0E014C0E07F00120016DE
:1018B0009FE50A600812001696150A800D3005048F
:1018C00012001696D0E0020016F7D0E00480BD1298
:1018D000001A496093E50A0412000C5E90006196BC
:1018E000EAF0E50A200502600104240412001A6DE2
:1018F00074FF04C0E012001AFC1200169FE50A20D3
:101900000502600412001696D0E0B50AE57F451284
:101910000016A990006196E07F2B30E7047F2DF43C
:1019200004C0E0120016B7D0E075F00A84C0F012CF
:101930000016A0D0E0120016A0020016F779108061
:10194000027908C206C2088008D2D5790A800479D3
:101950000AC2D5E50A047002F50AE4FAFDFEFF1298
:1019600000166DFC7B082001161200166DFD7B1021
:1019700030000C1200166DFE1200166DFF7B20EC7D
:101980003382D592D55013C3E43000069FFFE49E06
:10199000FEE42001039DFDE49CFCE4CBF8C201ECD5
:1019A000700CCFCECDCCE824F8F870F38017C3EFDD
:1019B00033FFEE33FEED33FDEC33FCEB33FB9940AC
:1019C00002FB0FD8E9EB300105F8D0E0C448B201C2
:1019D000C0E00AEC4D4E4F78207B0070C2EAB50A99
:1019E0000040BCC0E012001A6FD0F0D0E02001042B
:1019F000C4C0E0C4B201C0F0120016A0D0F0D5F00F
:101A0000EA020016F7120014A4179D53193D581747
:101A10006A4C17664219414F1949441949491780C0
:101A200043194F5518644618CF451827471B2F50A8
:101A3000176E2D17722E17992B1776231797201BC9
:101A40001B2A172C480000178FE50AB4FF03750AFC
:101A5000061200166DFC1200166DFD1200166DFECA
:101A60001200166DFF9000618F02000C9B790AA294
:101A7000D5200314300509B910020404B908010483
:101A8000A2D520060250010420026D9202B5090081
:101A90005036C0E07F2030031A7F30A202720672F7
:101AA00005501012001AC8C202C206C205C2087F41
:101AB000308010300503E9C0E0120016B73005038E
:101AC000D0E0F9D0E0B509CA3005197F30B9100D62
:101AD000120016B77F583004077F788003B90804D6
:101AE000120016B73002067F2D020016B77F2020A5
:101AF00008F77F2B2006F222920280CC7F00B407E9
:101B000000500E248FF582E43461F583759300E074
:101B1000FF22286E756C6C2900D2011200166D3000
:101B200001F7C201780930D50108F60200172C121E
:101B300000166D7F4960087F4310E7027F5814C08C
:101B4000E0EF120016A8743A120016A8D0E0600D5B
:101B5000C0E0C4120016A0D0E0120016A0D2037597
:101B600009040200193D0200A13CE493A3F85407C4
:101B7000240CC8C333C4540F4420C8834004F45613
:101B8000800146F6DFE4800C01020408102040804A
:101B90009000012FE47E019360CCA3FF543F30E519
:101BA00009541FFEE493A360010ECF54E0B4E02675
:101BB000E493FBA3E493FAA3E493F9A3E493C0832F
:101BC000C082120011F9D082D083A309E970010A02
:101BD000DFEADEE880BE54C025E0602B408CE49351
:101BE000A3FAE493A3F8E493A3C8C582C8CAC58343
:101BF000CA759300F0A3759300C8C582C8CAC5838F
:101C0000CADFE3DEE1808DE493A3F8E493A340030D
:101C1000F68001F208DFF402001B9402002000822B
:101C2000FF000000000200200082FF000000000210
:101C300000200082FF000000000200200082F0006F
:101C40002000320200200082FF000000000500207A
:101C50000082F0002000640200200082FF000000EB
:101C6000000200200082F0002000640500200082B5
:101C7000FF000000000500200082FF0000000005BA
:101C8000002003E8FF0000000005002000C8FF005E
:101C90000000000200200082F0002000640200200A
:101CA0000082F0002000640200200082F00020008A
:101CB00064FF0000000005000803E8F0002001F4C4
:101CC000FF0000000009021900010100E0320904D0
:101CD00000000109000000070581030100FF040363
:101CE0000904220320004D0054004B002000450051
:101CF0006C0065006300740072006F006E00690084
:101D0000630073000929071000320100FF00000082
:101D100000000000000000000000000000000000C3
:101D200000000000000000000000000000010101B0
:101D300001010100010007000806041424748494C2
:101D40000818288090A0C0900060F3EFF0A3EDF099
:101D5000A31200142AC20EC20FC210C211C212E492
:101D6000900060FEF090006100F0A3F0C2249000AB
:101D700060F3E0FF90005D07F0900060F4E0FEEF9C
:101D800012005BE8EF2583F583E5822EF582E435CA
:101D9000831200588CFF7E0064017004D2118060B1
:101DA000EF64024E6004EF4E7056D21290005D95C3
:101DB000E0FFA3E09000612DCFF0A3EFF090005D75
:101DC00097E0FFA3E09000612FCFF0A3EFF07E003B
:101DD0007F0C7D007B017A5D798D120016289000C2
:101DE000612DE0FFA3E090005D95CFF0A3EFF090B0
:101DF00000612FE0FFA3E090005D97CFF0A3EFF02C
:101E00007E007F107D007B017A61790B120016281D
:101E1000900060F312005805120058FD700A7B8292
:101E20007ABE794C020016E3900060F31200580568
:101E30001200140A80301200585F120011C7FF9080
:101E40000060F4E0FE6F6028E92405120057F9E90C
:101E50004A4B70030128B81200585FE924081200A9
:101E600057F912005BA4900061051200142A80C685
:101E70001200585FE92405120057F9E94A4B700334
:101E80000128B81200585FE92405120057F99000A4
:101E900061021200142AC8EEC87401088002C3331C
:101EA000D8FCFF900060F3E0FE9000315012005B20
:101EB000ECEE12005813E05F7007900060F9E060EC
:101EC000283011117B017A5C79B312005AB8900066
:101ED00060FE7402F03012117B017A5D7908120005
:101EE0005AB8900060FE7403F01200585FE92404B1
:101EF000120057E56041120058E1120011C7FF902F
:101F00000061021200140A120011C76F6029E9244F
:101F100007120057F9EA494B70030128B890006195
:101F20000212005AD9120057F912005BA490006106
:101F3000021200142A80B21200584512019DB89076
:101F40000061021200140AE92404120057F9120079
:101F50005AB890006102120059C6120057E590006D
:101F600060FEF0E490006121F0900060FEE0FF90E0
:101F7000006121E0D39F40030126DB120059BA1211
:101F80000057E2FF7E0064077002D211301138EF73
:101F900064074E600FEF640C4E6009EF64014E6001
:101FA000030126A5EF640C4E6017EF64014E600339
:101FB00001203D1200581C12005893648045F070B7
:101FC0007CC211D2128003301273120059BA12006F
:101FD00057E2FF6401600DEF64096008EF640C6074
:101FE000030126A51200581C12005893FFAEF0649E
:101FF000014E6049EF64804E6043EF64024E603DE5
:10200000EF64304E6037EF64314E6031EF64384E2C
:10201000602B120059BA120057E2640C601F1200C4
:10202000581C12005893FFAEF064814E600FEF64AD
:10203000824E6009EF64834E60030126A5120059A9
:10204000BA120011C7648060030126A520110301A4
:1020500024A01200585FE92401120057F9E94A4B05
:1020600070357D1F7F10FE120184A012005A88EB8C
:10207000C0E0EAC0E0E9C0E01200585F12005A3B3D
:10208000120014501200585FE92401120057F9E9B8
:102090004A4B70030128B81200581C240112005743
:1020A000E56007640260030126A5D20FE490006199
:1020B00029F01200581C2415120057E5FF60121277
:1020C0000057EE1200128B64E045F07016D20E80BD
:1020D000121200581C240D1200589564E045F0704F
:1020E00002D20E3025030126E1900050A7E09000B7
:1020F00060FFF0EF6046120057EEE924021200572D
:10210000E51200581B2406120057E52FFFE433FEAA
:102110007803EFCEA2E713CE13D8F8900061201217
:102120000057EDE92402120057E51200581B24065F
:10213000120057E52F90006125F080151200581C01
:102140002406120057E5FF9000612012005C1FEF8B
:10215000F01200581C2408120057E56401600301C6
:1021600023B31200581C2409120057E59000612384
:1021700012005C1FE09000612712005B2C90006150
:102180002312005B3940030126A590006127E02E51
:10219000FF9000611FF0900060F8E0FEEFD39E40DA
:1021A000030126A5120058E19000611FE0291200EA
:1021B00057E5FC70030123AC90006125E02408FE84
:1021C00090006124F01200581C2407120057E5FD0E
:1021D000EED39D400AED540790006124F0800790F3
:1021E0000061247408F090006126ECF012005C2A73
:1021F00090006128F012005C5B9000612412005A8C
:10220000FBFEC39F40030123AC74A72E1200588726
:10221000FF90006126E05F70030123A51200581CA7
:102220002415120057E570030122D612005C2A1211
:10223000005AFC2F9000612AF0E490006129F0120E
:1022400000581C2415120057E5FF90006129E0FE9C
:10225000C39F40030122FE120057EEEE12005BF313
:102260002912005AE3120057E5FD9000612AE0C3ED
:102270009D405990006108120057CDFF9000612ADF
:10228000E0D39F5047120057EE90006129E0FF1203
:10229000005989FD9000612BE5F0F0A3ED12005785
:1022A000EDEF75F004A429120058C524021200575E
:1022B000E5FF9000612AE0C39FFF120057EE9000F7
:1022C000612912005988FDCEEDCE802C9000612945
:1022D000E004F001223F1200581C240D1200589512
:1022E000FFAEF09000612BEEF0A3EFF090006122C2
:1022F000E0FE90006128E02E2F900060FAF0900040
:10230000612BE07004A3E064E0702E9000610B127A
:10231000005AFBFE12005885FDEF4D9000610BF056
:10232000900050A7E04DF074A72E12005887FF9040
:102330000060FFE05F70478041900060FAE01200AB
:1023400059CEF583C083C0821200587AFCEE4C75DA
:102350009300D082D0831200585EE9240112005706
:10236000F912005A3B7E00E92FF9EE120057E7FF01
:1023700074A72D120058875F7004120028B99000CE
:10238000612612005AFB12005885F4FEEF5E9000A1
:102390006126F07010120058E19000611FE02912D0
:1023A0000059F1800712005BFB0121F912005C0368
:1023B00001217D1200581C2408120057E5640860B2
:1023C000030126A51200581C2406120057E59000B0
:1023D000611F12005B2C1200581C2409120057E5E3
:1023E00012005B3A40030126A5EEFFA3E02FFFE4B5
:1023F00033FE900060F8E0FDD3EF9D7480F86E9896
:1024000040030126A59000611EE0FFA3E02FFFE43A
:1024100033FE120058E112005949FF90006126F086
:10242000E4120011F9EF64017004D210805D900095
:102430006126E060561200581C240D12005895FFCA
:1024400090006126E02F900060FAF0120059CEF55E
:1024500083C083C0821200587AFCEE4C759300D082
:1024600082D0831200585EE92401120057F912004D
:102470005A3B7E00E92FF9EE120057E7FF74A72DB3
:10248000120058875F7004120028B91200584512D4
:10249000019DB83025030126A512005C030123D657
:1024A0002012030126A5E490006100F0A3F01200C1
:1024B000581C2401120057E5FF64026014EF640603
:1024C000600FEF6460600AEF6007644060030126FC
:1024D0006C120059BA120057E264097011D224122A
:1024E0000058D11201000090005D8D012574D224A6
:1024F0001200581C12005893FFE5F060030125D824
:10250000EF24CF603514606024FA605C24B8606CFE
:10251000245060030125D81200581C2408120057CB
:10252000E5120058CC1201000090005D8FEEF0A380
:10253000EFF07B017A5D798F80211200581C24080E
:10254000120057E5120058CC1201000090005D9176
:10255000EEF0A3EFF07B017A5D799190005D8DE064
:10256000FD1201A26F012689120058D1120100004C
:1025700090005D93EEF0A3EFF0012689120058E180
:10258000120059B2120028CD9000612DEE80779094
:1025900000612DE0FCA3E0FD4C70251200581C24C6
:1025A0000C120057E5700301268990005D8CE04411
:1025B0000412005C35E490005D95F0A3F0012689DB
:1025C00090005D9512005C3C4404F01200581C24FD
:1025D0000C12005970012689120058E1120059B2FC
:1025E000120028CD9000612FEEF0A3EFF0120059F9
:1025F000BA120057E2640170139000612FE0FFA34C
:10260000E09000612DCFF0A3EFF080839000612F68
:10261000E0FCA3E0FD4C70231200581C240B1200B8
:1026200057E5602E90005D8CE0440812005C35D2C6
:1026300024E490005D97F0A3F0801790005D97125E
:10264000005C3C4408F01200581C240B1200597026
:10265000D2241200581C2401120057E5646070292E
:1026600090005D97E07002A3E0601E221200581CEB
:102670002401120057E570111200581C12005893E3
:10268000640145F070030125D890006100E07002FC
:10269000A3E060030124EE1200584512019DB830FA
:1026A00025030128B81200584512019DB8202521A4
:1026B0001200581C2419120057F9EA494B601212F3
:1026C00000581C2419120057F912005BA412005A7A
:1026D000B890006121E004F0011F69301003012867
:1026E000B8200F030128B81200585FE92401120036
:1026F00057F9120011C7FF9000610BE06F700301E2
:102700002799200E03012799EF607812005C5B1275
:10271000005A25506E1200585FE92401120057F943
:10272000120011C7FE74A72F12005887FF5E603C8D
:102730009000610BE05F703490006122E01200585D
:102740008512005C4E900051FFE014F0900050A7FD
:1027500012005AFBFE12005885F4FDEF5D90005008
:10276000A7F0EE24E0FD7F011200A6791200585F69
:10277000E92401120057F9120011C7600612005B2C
:10278000FB808C9000610BE0FF1200585FE9240190
:10279000120057F9EF120011F9900060FB740F124C
:1027A000005B31900060FB12005B3940030128B8E8
:1027B0001200585FE92401120057F912005A3BEE4B
:1027C0007E0029F9EE120057E7FF70030128889078
:1027D00000611EE0120059E71200588C6F7003016F
:1027E000288812005C5B12005A25400301288812D9
:1027F00000585FE92401120057F912005A3B90007B
:10280000611EE0FE7C0029F9EC120057E7FD74A779
:102810002F12005887FF5D6052740C2EF582E4344D
:10282000611200588C5F70431200585FE924011256
:102830000057F912005A3B9000611EE0FF29F9ECA5
:10284000120057E7900061221200588212005C4E7D
:10285000EF33333354F82D04900060FAF0FD90000C
:1028600051FFE014F07F011200A6791200585FE9D1
:102870002401120057F912005A3B12005C624F60AB
:102880000712005BFB0127E69000611E120059E56C
:102890001200588CFE1200585FE92401120057F90B
:1028A00012005A3BEF7C0029F9EC3AFAEE120011C3
:1028B000F912005C030127A322900051FFE004F00D
:1028C000900060FAE0FDE4FF1200A6792290006219
:1028D0001C1200142A7B017A61790012005C8122AB
:1028E000900061E5EFF0A3ECF0A3ED120051A7E436
:1028F000900061EBF0A374FFF0E4900061EEF0A3B0
:10290000F012004E88FF900061FB12004FDBE924BB
:102910000112004C4C24FC7003012A2114700301A5
:102920002BE024E47003012BA0241F6003012FB3CC
:10293000900061E81200140AE92FF9EA3EFA9000CB
:1029400061F21200142AE9240412004C4CFEC394D4
:102950000640097406120011F97F0022900061E51B
:102960001200511312004B64E04E759300F01200F8
:1029700050CD12004B64E0701D1200509C240512D3
:10298000004C4C120050A69000314D12004C76EED7
:1029900012004B69EFF01200509C240512004C4CC1
:1029A000120050A69000314F12004CB6EE12004BB0
:1029B00069E0FDEFD39D400F9000314F12004C8233
:1029C000EE12004B69EFF01200509C240812004CEC
:1029D0004CD3943240067432120011F97E007F0409
:1029E000EEC0E0EFC0E0900061F212004C45448080
:1029F000FD900061E5E075F0EAA424CCF974083597
:102A0000F0FA7B01D0E0FFD0E0FE12001628900023
:102A100061F212004C4512004E9990003170012B6A
:102A20009212004E88900061F512004FDBE92402FB
:102A300012004C4CC3940640037F002212004EFC4F
:102A4000240312004C4C700B900061EBF0A3E004E7
:102A5000F0800A900061ECE0B4FF02E4F012004E56
:102A6000FC240512004C4CFF702112004DE21200B4
:102A70004B64E0FE900061ECE0FD12004C99120006
:102A80004F262D12004B82EEF0802A12004F2E901E
:102A900000315212004B73EFF0ED12004C36ED1284
:102AA000004B69E0700F75F078ED12004C39ED12B3
:102AB000004B69EFF012004EFC240312004C4CFF57
:102AC00012004F2E75F0789000317112004B76E0B5
:102AD000FCEFD39C400E75F078ED90003171120040
:102AE0004B76EFF012004EFC240612004C4CFF9087
:102AF0000061ECE0FE75F078ED9000315812004B6B
:102B000076EFF0900061F512004C459000316412B0
:102B1000004B71EFF012004EFC240412004C4C905C
:102B200000317712004B71E0FEEFD39E401112008E
:102B30004F2E75F0789000317712004B76EFF090C1
:102B40000061F512004C4564016003012FB3900051
:102B500061E51200505D12004B64E0440112005127
:102B6000CB5430601590005F04120051D2900032B7
:102B70005912004B64EEF0012FB390005200E02494
:102B80005AF582E4344F12004E0D12004E99900017
:102B90003259120013FEEE12004B69EFF0012FB311
:102BA00012004E8829F9EA3EFAE9240712004E3352
:102BB0001200002712004F349000320F12004CBF59
:102BC000ED2583F583C083C08212004EB2D082D03F
:102BD0008375F002120013FEEEF0A3EFF0012FB3A5
:102BE000900061EBE0D394064003012FA912004E40
:102BF0008829F9EA3EFA900061F81200142AC239D5
:102C0000E4900061EDF0900061EBE0FF900061ED79
:102C1000E0FEC39F505E12004E5A240212004C4C3C
:102C2000547FFF12004F3412004BDAED2583F583F9
:102C3000C083C082120050ADD082D08312004E7388
:102C400075930012004B7FE0547F6F701E900061FF
:102C5000E5E0FF9000317112004CCB12004F262DA1
:102C600012004B82E0600DD2398009900061EDE0E6
:102C700004F0809212004E5A240412004E331200C7
:102C80000027900061F0EEF0A3EFF0900061ECE01F
:102C900012004E9912004C9DEE12004F272F120089
:102CA0004B82E06401704712004C35EE12004B6914
:102CB000E06401600C12004C35EE12004B697401A7
:102CC000F0D3900061F1E094C0900061F0E09400D6
:102CD000401CE4F0A374C0F0FF7E00120000271235
:102CE000004E5A1200500CEE8FF0120012AF203935
:102CF00003012E7312004BC0EE2583F583C083C001
:102D000082120050ADD082D08312004E73C083C0B7
:102D10008212005035D082D083258212004B82E08F
:102D20006F7003012DFB12004C35EE12004B69E071
:102D300064037003012F6D12004E5A240212004CDE
:102D40004C120050A612004BDAEE12004B69120032
:102D5000511DC083C08212005035D082D08325829D
:102D600012004B8212004BE5EE12004B691200512B
:102D70001DC083C082900061EDE0FE759300D0829B
:102D8000D083258212004B8212004DE012004B646A
:102D9000E0B4092012004E14C083C08212004EB26B
:102DA000D082D08312004E7375930012004B7F7453
:102DB000F0F0802D12004B9BEE2583F583C083C07D
:102DC0008212004EB2D082D08312004E73C083C0F4
:102DD0008212005035D082D083258212004B82EFC0
:102DE000F012004E5A240312004C4C5403C43354C6
:102DF000E012004E99900031C58054900061E5E0EA
:102E0000900031A112004D02EF2583F583C083C0ED
:102E10008212004EB2D082D08312004E73C083C0A3
:102E20008212005035D082D083258212004B82E07E
:102E3000FF900061F0E0FCA3E0FDD39FEC94005014
:102E400003012F6DCFEDCF12004E9A900031A112E9
:102E50000013FEEE2583F583C083C08212004EB2BC
:102E6000D082D08312004E73C083C082900061ED87
:102E7000012F5D12004BC0EE2583F583C083C08215
:102E8000120050ADD082D08312004E73C083C08236
:102E9000900061EBE0759300D082D0832582120010
:102EA0004B8212004BE5EE12004B691200511DC01F
:102EB00083C082900061EBE0FE759300D082D083E6
:102EC000258212004B8212004DE012004B64E0B4E8
:102ED000092012004E14C083C08212004EB2D0826C
:102EE000D08312004E7375930012004B7F74FFF075
:102EF000803112004B9BEE2583F583C083C0821284
:102F0000004EB2D082D08312004E73C083C0829034
:102F10000061EBE0759300D082D083258212004BD4
:102F200082EFF012004E5A240312004C4C5403C49A
:102F30003354E0120050A6FE900031C512004D1926
:102F4000EE2583F583C083C08212004EB2D082D0BA
:102F50008312004E73C083C082900061EBE07593D2
:102F600000D082D083258212004B82EFF012004EF7
:102F7000FC240512004C4CB4092F12004E5A2406B2
:102F8000F9E43AFA74FA120011F912004E5A2402C6
:102F900012004C4C547F120050A690003278120060
:102FA0004D31EE12004B69EFF0203907900061EBD4
:102FB000E004F0900061FB1200140A120011C7FF38
:102FC000900061EEE48FF012001275900061E6E06F
:102FD000FEA3E0FFC3900061EFE09F900061EEE090
:102FE0009E50030129017F0122EF600F90005200E3
:102FF000E06D6007CFEDCF1201AE4D22FFFFFFFF66
:10300000900061C3EFF0A3EDF0C223E4900061CF24
:10301000F0A3F0900061E304F0900061D712005A31
:10302000CB12005C6975F078900032651200580E82
:103030001200140A900061D11200142A12001433F5
:10304000900061C81200142A120057BE240A120010
:103050005895FF900061CBE5F0F0A3EFF012005B14
:103060001A1200594BFF540304900061C5F0FDC3D0
:10307000900061CCE09D900061CBE0940050030192
:103080003AF1C222EF54FC900061C6F0E4FFEFC3B6
:10309000940D748094805018EF90001D3A93FE9028
:1030A0000061C6E0FDEE6D7004D22280030F80DE69
:1030B000202224900061C5E012005B03C3900061F0
:1030C000CCE09FFF900061CBE09EFEF0A3EFF04EBE
:1030D0007003013AE3808612005B1A1200594BFF1D
:1030E000540CFECDEECDEF54F0900061C6F0900090
:1030F00061C5E0FF7E00C3940274809480500AE4AE
:10310000900061CDF0A3F08044EF64024E700A128B
:1031100000593112005B448034900061C5E0D394C3
:10312000027480948040261200593112005B449052
:103130000061C81200140A900061D0E0240212005D
:103140005940900061CD75F00012001275CFEDCF9F
:10315000EF24FC700301380324FC7003013981243F
:10316000086003013AB1900061C6E0FF2470601569
:1031700024F0700301375124E0700301378A2440A2
:103180006003013AB1120057BE241C120057E5FE3D
:10319000120057BE241D120057E58EF0A4FEEF6406
:1031A00080700B120057BE12005BC2EE800CCFEE97
:1031B000CF120057BE12005B61EF120011DD12004A
:1031C00057BE2409120057E554016003013711125C
:1031D000005C69900061C6E0FD900061CDE0FAA35B
:1031E000E0FB12010E52EF7003013711120058017B
:1031F000120058FD70307D20FE12003B2112005A53
:10320000881200580112005AEB9000326C120058DC
:103210000E120058FD70097B827ABE79590133CEB7
:1032200012005801804012005A33120011C7FF905B
:103230000061C4E06F60447D217E0012003B2112DA
:103240000058E97003013AB112005A60EBC0E0EA9D
:10325000C0E0E9C0E012005A33E912005B611200DD
:103260001450900061E01200140A900061DA12001C
:10327000142A900061C4E0120011F912005A33E9D7
:103280002405120057F9E94A4B600301330E7D22F1
:10329000FE12003B2812005A88EBC0E0EAC0E0E9C9
:1032A000C0E012005A33E92405F9E43AFA12001496
:1032B0005012005A33E92405120057F9E94A4B70BD
:1032C00003013AB112005A33E92405120057F9906C
:1032D0000061D71200142A120057BE24131200579F
:1032E000E512005B68EF120011F9120057BE240EC0
:1032F00012005895FF1200589D120057BE2410125C
:10330000005895FF1200599712005C70806A1200F5
:1033100057BE2413120057E512005B68120011C754
:103320006F605A7D237E0012003B28120058E9701E
:10333000097B827ABE796A0133CE12005A33E924BE
:10334000041200597012005A60EBC0E0EAC0E0E9D4
:10335000C0E01200599712005BC91200145012000D
:103360005A60900061D71200142A120057BE24132D
:10337000120057E512005B68EF120011F912005CB1
:103380000B900061D1700612005BE0800412005ABD
:1033900095120057E5FF900061D4E4F0A3EFF0121E
:1033A0000057BE241D120057E5900061D6F0900032
:1033B00061E3E070030134427D247F1C7E00120132
:1033C00084A0120058E9700D7B827ABE797B1200CE
:1033D00016E3013AB1120059972404120057F9E993
:1033E0004A4B702D12005A60900061DD1200142AC1
:1033F000900061DD1200140AEBC0E0EAC0E0E9C011
:10340000E0120059972404F9E43AFA1200145080AB
:10341000311200599724011200597012005A60EBC2
:10342000C0E0EAC0E0E9C0E012005A432419F9E420
:103430003AFA1200145012005A60900061DD120036
:10344000142A120057BE24AE120057E5FFD3120013
:103450005AC450030136B8120057BE241412005843
:1034600095640C45F06010120057BE240E120058EF
:1034700095640C45F07064EF12003AF2EBC0E0EA9C
:10348000C0E0E9C0E012005A432416F9E43AFA1207
:10349000001450900061DD120057F2EA494B603B86
:1034A000120057BE24AE120057E512005BF3120063
:1034B00057BE12005A68EBC0E0EAC0E0E9C0E090F5
:1034C0000061DD120057F212005B57D0E0F9D0E046
:1034D000FAD0E0FB12001149013570120057BE24EA
:1034E000B0120057E5900061C7F0120057BE241CCF
:1034F000120057E56401600E120057BE241D120031
:1035000057E56401707B120057BE24AE120057E5E8
:1035100012003AF2EBC0E0EAC0E0E9C0E012005A63
:10352000432416F9E43AFA12001450900061DD12B7
:103530000057F2EA494B6038120057BE24AE120021
:1035400057E512005BF3120057BE12005A68EBC039
:10355000E0EAC0E0E9C0E0900061DD120057F2123D
:10356000005B57D0E0F9D0E0FAD0E0FB120011493F
:1035700012005905120057BE24AE120057E501375C
:103580000D120057BE24AE120057E5FF900061C730
:10359000E0C39F4003013711120057BE241C1200E4
:1035A00057E5FF7E00120057BE241D120057E5901C
:1035B0000061E4F07401120011F9120057BE24AE4C
:1035C000120057E5C39401FD900061C7E06D6041B2
:1035D00012005C0B701A120057BE2405120057E54A
:1035E000CCEFCC2CFD120057BE12005BC2ED801D4B
:1035F000900061C6E064907018120057BE24071254
:103600000057E52F120057BD12005B61EF12001149
:10361000F912005905E412003B08900061C6E0FF72
:103620007E0064807027120057BE2406120057E502
:10363000FD120057BE2405120059FC900061D4A36E
:10364000E0FD120057BE12005BC2ED8029EF6490CE
:103650004E7027120057BE2408120057E51200577B
:10366000BD2407120058A8900061D4A3E0120057AF
:10367000BD12005B61EF120011F9900061E4E012ED
:103680000057BD241D120058A8120057BE24B012C6
:10369000005970120057BE24AE120057E5120057B1
:1036A000BD24B0120057E5C39F50030133AE120092
:1036B00057BE120059EF8059120057BE241E120047
:1036C0005895FF12005A431200597A120057BE242F
:1036D0001C120057E56401602F120057BE241D1212
:1036E0000057E5FFD312005AC4401D120057BE24F4
:1036F0000E12005895640C45F0700D120057BE2450
:10370000AE120058A80134DB12005905E412003B48
:103710000812005C0B900061D1701012005BE01287
:103720000057E5120057BD2405800E12005A95126D
:103730000057E5120057BD2407120058A87E007FED
:10374000937D00120057BE12005A6812001628809E
:1037500022120057BE2409120057E544041200113A
:10376000F9120057BE241212005970120057BE12EF
:103770000059EF120057BE2410120058951200573E
:10378000BD12005A68E5F0013A37120057BE241204
:10379000F9E43AFA12005C36120011C7705E1200AA
:1037A00057BE2409120057E554FA120011F97E00A1
:1037B0007F0B7D00120057BE2413F9E43AFA120081
:1037C00016287E007F937D00120057BE12005A68B3
:1037D00012001628120057BE2405120059F11200DB
:1037E00057BE2406120059F1120057BE24071200DA
:1037F00059F1120057BE2408120059F1900061E3FC
:1038000001393A120057BE2409120057E5540160ED
:1038100003013AB1900061C6E0440424FC70030146
:1038200038B924F0700301395D24F0700301396F59
:1038300024B0700301394C24E07003013940241096
:103840006003013AB1900061E37401F012005C6919
:1038500075F078900032681200580E1200140A12A7
:103860000011C712005B4FFDCEEDCE541F4F12006A
:1038700011F912005B50120057BD2413120058A812
:10388000120057BE2405F9E43AFA7408120011DD5B
:10389000120057BE12005BC27408120011DD120044
:1038A00057BE12005BC97408120011F9120057BE0E
:1038B00012005B617408013AAD120057BE24091270
:1038C0000057E530E21512005B11120057BD2414B9
:1038D000F9E43AFAEE12005982802112005B1112CB
:1038E0000057BD240EF9E43AFAEE12005982900016
:1038F00061D7120058FD60041200589D900061CD00
:10390000E07004A3E0640C6003013AB1900061C46C
:10391000E0FF900061C3E09000316412005A6F1222
:10392000005BAC1200588C6003013AB1EE12005BF0
:10393000E812005BACF5837593007401F0013AB1B5
:1039400012005B50120057BD241D800A12005B500C
:10395000120057BD241C120058A8013AB112005B96
:1039600011120057BD2418F9E43AFAEE013A371261
:10397000005B11120057BD241AF9E43AFAEE013A3D
:1039800037120057BE2409120057E5FF54016003A7
:10399000013AB1900061C6E0440824E87003013A9E
:1039A0003B24F07003013A5824206003013AB1EF40
:1039B000900061CD30E263E0FCA3E0120057A51255
:1039C0000058C412005A68EC8DF0120012AF90003B
:1039D00061CDE0FCA3E0120057A5120058C412000C
:1039E0005A68EC8DF0120012AF1200579212005874
:1039F000C4120059FA12005792120058C42421121E
:103A00000059FC120057BE1200596E120057BE2416
:103A1000AEF9E43AFA7401013AADE0FEA3E0FFCD5D
:103A2000EFCD120059972403120059FC120057BE23
:103A30002410F9E43AFAEE8FF08017900061CDE09F
:103A4000FCA3E0120057A5120058C412005A68ECFB
:103A50008DF0120012AF805912005792120058C414
:103A6000120059FA120057A6120058C4241E120060
:103A7000589512005B4FFDCEEDCEC39F120057BD8F
:103A800024AFF9E43AFAEF120011DD120057A11247
:103A90000058C42421120059FC120057BE120059CC
:103AA0006E120057BE24AEF9E43AFA740112001106
:103AB000DD900061C5E0F912005B03900061CBE08E
:103AC000FCA3E0FDC39FEC9E4011E9FFED9FFFECDE
:103AD0009E900061CBF0A3EFF08008E4900061CBF2
:103AE000F0A3F0900061CBE07002A3E0600301302E
:103AF0005D2275F004A4FFAEF07D25120184A0CAFA
:103B0000EECAC9EFC97B0122900062AEF09000615D
:103B1000CDE0FAA3E0FB1200C742900061E3EFF0B2
:103B2000227F0B120184A0227F0A120184A022E4CA
:103B300090006432F0C23D900047F0E07004120142
:103B4000B00B900042EAE09000642CF0E0FD9000A1
:103B5000321F1200735AED1200724FE09000642D74
:103B6000F0C39412A3F0ED120072DFED1200724F59
:103B7000E020E70301439F1200723DE07003014320
:103B80009F1200723DE0120014A43BAF013BDE0225
:103B90003CA9033D0D043F76053FD90640A50740EB
:103BA000C408419C0941B40A423F0B000042CC12B8
:103BB00000723D7402F075F078EF900032541200FC
:103BC000724A7401F0120074F51201979B12007290
:103BD000A89000310E1200724AE4F00142CC1200AB
:103BE00072791200749A6003013C699000642CE0C1
:103BF000FD9000322C12007396ED1200724FE054CB
:103C0000809000642FF09000323212007359ED1250
:103C100000724FE0FEA3E04E603A9000642FE0B4E3
:103C200080081200723D740380301200723D7405EA
:103C3000120074061200724AE0640D6003013B81B9
:103C4000D23D120072A89000323C1200724A7402F7
:103C5000F00142CC1200723D740712007548120048
:103C6000724AE4F0A3F0013B8112007462640370B5
:103C700003013EF1EFB40703013EF190006432E02E
:103C8000640B60030142CC1200723D740C1200748C
:103C9000061200724AE0640D60030142CC12007209
:103CA000A8120073DFEF013F2B9000642DE0FF129C
:103CB0000072C0E0FCA3E0FD90002DBB1200731C5D
:103CC000120075FDFFEE9CFE90006430F0A3EFF053
:103CD0009000642DE090002DB51200731DE0FCA350
:103CE000E0FDC39FEC9E500990006430ECF0A3ED22
:103CF000F01200741B1200757EE490006370F012E5
:103D000001193A1200723D7404F00142CC120072A3
:103D100079E090006432F090006432E06402600365
:103D2000013EB09000642DE0FEC39412A3F0EE12A9
:103D30000072C0120074F075F011120073ABE0FA5B
:103D4000A3E0C39FFFEA9E90006430F0A3EFF075FC
:103D5000F011ED12007344E0FEA3120073EB9E40DD
:103D600005EEF0A3EFF0120072A89000310E1200E1
:103D7000724A120074051200724AE0640D706C9071
:103D8000006430E0FEA3E0FF9000642CE0FD9000B2
:103D9000324412007593ED1200724FEEF0A3EFF073
:103DA000E49000642FF0120073E79400402A1200A0
:103DB0007604120073BD1200726AFE9000642DE05A
:103DC00075F011120075191200140AE92FF9E43A7E
:103DD000FAEE1200759A80CE120072A89000323C62
:103DE0001200724A7403F0D23D804FE49000642FB9
:103DF000F0120073E7940040411200760412007440
:103E00006A1200726AFC120074F5120072C0E0FAC5
:103E1000A3E0FBEFF582758300EB2582FFE5833A93
:103E2000FE75F011ED120075191200140AE92FF950
:103E3000EA3EFAEC1200759A80B7900064301200E6
:103E400074F0120072C0EE8FF01200127575F0114E
:103E5000ED120073ABE0FEA3E0FF75F011ED120070
:103E600072C3E0FCA3E0C39FEC9E502C120072A82A
:103E70009000310F1200724AE0FD1200733CE0FA2C
:103E8000A3E0C39DEA9400500675F078EF800D1210
:103E900000723D7403F0800F120072A89000322B64
:103EA0001200724A7409F0303D030142CC013B819B
:103EB00012007462640370359000642CE09000314D
:103EC0000E1200734CEE1200724FE004F0D3940314
:103ED000400C75F078EE120072A0EE014222120042
:103EE0007297EE1200724F7403F0013B81EFB4073A
:103EF0000C1200741B1200729DEF0142221200741A
:103F000062640B702F12007297EE1200724F740CE5
:103F1000F012007324EE1200724FE0640D60030192
:103F200042CC1200760E120073DFEE1200724F7454
:103F30000C01405DEF6404702B1200733CE0FEA3A3
:103F4000E04E60069000643280261200723D7403D9
:103F5000120075481200724A120074FC5003013BB3
:103F60008101415890006432E0640C60030142CC4E
:103F70007402F0013D17120072A890003234120052
:103F8000724AE0B40D1775F078EF900032441200D9
:103F9000724AE0FFA3E090006430CF80229000647A
:103FA0002DE0FF120072C0E0FCA3E0FD75F011EF00
:103FB000120073AB120075FDFFEE9C90006430F0B0
:103FC000A3EFF01200741B1200757E1200EF861230
:103FD00000723D7406F00142CC1200727912007436
:103FE0009A60030140759000642DE090002DBD1291
:103FF0000072B2EC8DF0120012759000642DE0900A
:10400000002DBB120072B2120075FDEE9C12007200
:10401000A89000322B50091200724A7405F08007F4
:104020001200724A7407F0120072A8900032341223
:1040300000724AE0640D6003013B8175F078EF90F7
:1040400000322B1200724AE0B405189000642CE094
:1040500075F0789000323C1200724A7407F0D23D3D
:104060000142CC120072A89000323C1200724A74D5
:1040700008F0013B8112007462B40B0301412DEF83
:10408000B4040A1200723D7405F0013B8190006493
:1040900032E0640760030142CC1200741B1200720C
:1040A0009DEF0142221200741BA3E0FD900063709B
:1040B0007401F0E4FBFA1201193A1200723D74081F
:1040C000F00142CC120072791200749A701E120034
:1040D00072A8900032341200724AE0B40D0B120044
:1040E00075631200724A7408F00141921200746202
:1040F00064076004EFB4030C1200741B1200729D7D
:10410000EF01422212007462640B70301200760ECE
:1041100012007328EE1200724FE0B40D10900032BE
:104120003C12007310EE1200724F740CF012007209
:1041300097EE1200724F740CF00142CCEF640470E1
:104140002A1200723D7407120075481200724A125A
:104150000074FC5003013B81120072A890003229C8
:104160001200724AE4F0A3F0013F0590006432E0CF
:10417000640C60030142CC120072A8900032341229
:1041800000724AE0B40D0B120075631200724A749B
:1041900008F01200723D740DF00142CC1200741B45
:1041A000A3E0FDE4FBFA1200EF861200723D740AF0
:1041B000F00142CC120072791200749A7028120039
:1041C000723D740D120074061200724AE0640D60B4
:1041D000030142CC120072A89000323C1200724AD5
:1041E0007414F00142CC12007462B404071200721D
:1041F00097EE8041EF6407600C90006432E0640346
:1042000060030142CC120072A89000310E120072BD
:104210004AE004F0D39403401375F078EF12007273
:10422000A0EF1200724F740BF0013B811200741B5F
:104230001200729DEF1200724F7409F0013B81125F
:104240000072A8900031071200724AE020E71F9028
:1042500000642CE09000322812007492EE1200727A
:104260004FE4F075F078EE120072A0EE805775F012
:1042700078EF900032281200724AE004F0D39402E2
:10428000502E1200723D7401F090005CAFE0FD9082
:1042900000642DE0FB9000632CEFF0A37401F0A309
:1042A00074F4F0A37401F0A374F4F0E4FF01439BF1
:1042B000120072A8900032281200724A1200755241
:1042C000120072A0EF1200724F740EF01200723DD5
:1042D000E0FF640D600DEF640E6008EF640C600396
:1042E000014391120072A8900032281200724A1203
:1042F000007552900032541200724A120074051276
:1043000000724AE024F7601814603424FE604114FF
:10431000604F24FE606824077077900030DC8034A2
:10432000120072A89000321E1200724AE0FB900048
:104330005A4FE0FD9000632CEF12007305801A12B3
:104340000072A8900032381200724AE06043803D4B
:1043500090002F72120072FAFB7F0412010D12807E
:10436000301200723DE0640D600B120075631200A4
:10437000724A740CF0120072F6FB7F04801D12006A
:1043800072A8900032381200724AE060041201AF45
:10439000B0303D0B120072F6FB7F0412010D1222A9
:1043A000D231E4900062F1F01200979524AEF582CC
:1043B000E4341212009579783F1200979424AFF5F7
:1043C00082E4341212009579783C1200979424B05C
:1043D000F582E4341212009579783D120097942406
:1043E000B1F582E4341212009579783EF618E6FFB2
:1043F0005470FEC4540F7840F6EF540708F6784620
:1044000006E6C394404002E4F6783FE6FFC3940416
:104410004003014B4C783CE620E7030149287840F3
:10442000E6900008591200965EE020E70301492853
:10443000120096661200957930E20718E6FF120125
:10444000AA74783DE65407600301451608E620E0AB
:10445000030144F608E6FF08E6FE75F0EA9000085E
:10446000FC1200956D60589000322B120097C71215
:10447000009602FD64096015ED640A601090003238
:104480003C120097C7120096026414703212009713
:10449000A11200956DC394A050161200979D1200B2
:1044A000956D04F07846E67003763F227846162232
:1044B0001200979D120096152F12009670E4F012CC
:1044C000009701120095EAE6FD08E690006301F00E
:1044D00008E6A3F0A37401F012015ECC120097016C
:1044E000120095EA120170427840E6FF18E6FD12CC
:1044F000007644014936783DE6783F30E30CE6FF2C
:1045000008E6FD12015577014936E6FF08E6FD127F
:104510000160B1014936783DE620E3030147FA1214
:104520000095F2B4091318E6FBCDEBCDE4900064DE
:1045300098F0120141C10149367840E664016003F8
:1045400001463808E664017063783FE6FA12009687
:104550009A12009604FE90004B5BE0FD5E60030142
:10456000460DE6FC2452F582E4344B12009604FB1F
:1045700074572CF582E4344B120096046B6023EDE3
:104580004E90004B5BF090004A221200984DEAF0EA
:10459000E4A3F0A3F0A3F0A3F0FB7F0312010D123C
:1045A000806B783FE6FF1201A3B680617841E6FF99
:1045B00064026008EF64036003014936783FE6FF58
:1045C0001200969A12009604FE90004B69E0FD5E80
:1045D000703B74602FF582E4344B12009604FF9018
:1045E000004B68E06F6026E6FCED4E90004B69F0F2
:1045F00090004B561200984DECF0A3E4F0A304F0A9
:10460000A3E4F0A304F0E4FBFF12010D127841E6ED
:1046100024EDF582E43460F583C083C08275930095
:10462000E0FF783FE69000000393FEEF4E759300A5
:10463000D082D083F00149367841E6FF18E6FE12B9
:104640000097AB1200956D546064606003014936B9
:10465000120097AA1200956D540F7842F6E6FF906B
:10466000002F7C120097D9E0900062F1F090005288
:1046700000E0FE783F66600301474775F016EF12D1
:104680000096C7C083C082E0FD74AB2EF582E4348F
:104690005C12009604F4FEED5E759300D082D08328
:1046A000F090002F81120097D8E0FF7842E6FE7567
:1046B000F01690002F82120013FEE06F6010900041
:1046C0005200E07840120097B7EE12004B4D783F51
:1046D000E6FF08E675F0EA9000089E1200956DFD71
:1046E0007C0008E6FBC8EBC87E007401088005C3A7
:1046F00033CE33CED8F9FFEE5CFEEF5D4E600301A2
:104700004936783FE6FF08E6FD75F0EA9000089E1E
:104710001200956DFEC8EBC87401088002C333D83F
:10472000FC4EF0120154C27840E6FF18E6FD7841D5
:104730001200969912009604FB900065217401F016
:10474000120180D7014936900062F1E0FF7840E61F
:10475000FE9000316412009691120097321200967A
:1047600004640170030147EC900051E3E020E6038C
:104770000149367842E6FF120096C4C083C082E049
:10478000FE783FE624ABF582E4345C12009604F434
:10479000FDEE5D759300D082D083F0900062F9E069
:1047A000FE90002F87120097D8E5822EF582E4351F
:1047B0008312009604FF7842E6FC75F01690002FF5
:1047C00083120013FEE5822EF582E43583120096F3
:1047D000046F7003014936900062F9E0FF7840E60B
:1047E000FD08E6FBEC12004B4D014936900051E309
:1047F000E020E503014936014773120095F2640990
:10480000700301493608E6FEEF120097AB120096DE
:10481000152E120095745460646060030149149071
:10482000005200E0FF783FE6FD6F60030149147518
:10483000F0C0ED1200972A08E6FF75930075F01896
:1048400012009740900062F21200142A120011C761
:10485000900062F8F0900062F3E475F0021200122A
:104860007575F0EAEF900008B7120096152E120049
:104870009574540F7842F6E675F048A4249CF974B8
:1048800001900062F512009854E4900062F9F090F3
:104890000062F8E0FFA3E0FEC39F502D900062F29B
:1048A0001200140AE92EF9E4120096B2FF90006299
:1048B000F51200140AE92EF9E43AFAEF120011F9A0
:1048C000900062F9E004F080C67842E675F048A4F2
:1048D0002494F97401900062FA12009854900062D6
:1048E000F8E0FF120096F0EF120097E02405F9E4DB
:1048F000120096B254FC120097E02401F9E4120071
:1049000096B24408120011F9E6FDE4FB7F011201A2
:104910007D33D23130311F120097B3900065C174DE
:1049200020F012017238800E783CE630E708120061
:1049300097B31201A20D783CE620E303014A59C265
:10494000E9783FE6FF14601314601914601F240314
:10495000702275A698783DA6A7801975AE98783D07
:10496000A6AF801075B698783DA6B7800775BE983B
:10497000783DA6BFD2E9783DE630E403014A221231
:104980000096661200957920E003014A22783FE6FE
:10499000120096BB1200957954EE12009665120033
:1049A00095794402F0E6FF08E675F0EA900008BF4A
:1049B0001200956D5401F07D011201A6ED783FE6DD
:1049C000FF12015CE0783FE6FF7B08E4FD1200DFA8
:1049D00085783FE6FF7B01E4FD1201B0E2783FE617
:1049E000FF7D0112018ADF900050BCE020E66AE4FE
:1049F000900062F9F0900062F9E0FFC39404501453
:104A0000120096661200957920E009900062F9E0A4
:104A100004F080E1900062F9E0C39404403BC218C6
:104A20008037783DE630E431783FE6120096BB12DD
:104A300000957920E02312009666120095794401D2
:104A4000F0E4FD1201A6ED783FE6FDE4FF1201243B
:104A500042783FE6FF1201AEC0783CE630E21A78B9
:104A60003FE6FFE4FD12015B92783FE6FF1201ACE6
:104A7000BF783FE6FF120158E9783CE630E4087859
:104A80003FE6FF1201A1DC783CE620E503014B4C38
:104A9000783FE6FF701275A6997843A6A7E64420F2
:104AA000F6F5A775A699803EEFB4011275AE997818
:104AB00043A6AFE64420F6F5AF75AE998028783F5F
:104AC000E6B4021275B6997843A6B7E64420F6F527
:104AD000B775B699801075BE997843A6BFE6442095
:104AE000F6F5BF75BE99783FE6FF12009771120088
:104AF0009604702790004F591200984DEFF0120065
:104B0000981A1200981AE4FBFF12010D12EF04FF2D
:104B10001200976E12009767F080291200976E12AC
:104B2000009604C39401FFE49400FE900042F575E2
:104B3000F009EF120013FEEE75F009A41200965270
:104B40001200981B783FE6FF1201A7FD2290006536
:104B50009DF0120126452290006532E0FF75F07845
:104B60009000322B120013FEEF2583F5837593001E
:104B700022FFED75F078120013FEED2583F583E535
:104B8000822EF582E43583F58375930022EFF09051
:104B900000322BEE75F078020013FE900061F812DF
:104BA00000140AE92406F9E43AFA120011C7FF904A
:104BB0000061E5E0900031E9FE75F078020013FE37
:104BC000900061F81200140AE92402F9E43AFA129A
:104BD0000011C7FF900061E5E0FE9000317D75F0A7
:104BE00078020013FEEFF0900061F0A3E0FBCFEB42
:104BF000CF900031A1EE75F078020013FEEE75F053
:104C000078020013FE900064A17B007A007900E036
:104C1000FF75F0789000322122FFE0900008FCFE42
:104C200075F0EA120013FEE5822FF582E43583F574
:104C30008375930022EE75F0789000311002001316
:104C4000FE900065DB1200140AE92407F9E43AFA41
:104C5000020011C7F090002F71E0FD9000632CEF6F
:104C6000F0CFEECFA3E4F0EFA3F0E4A3F0A3F022A3
:104C7000FFE090003236FE75F078020013FE9000DF
:104C80003111EE75F078020013FEEFF0E0FF75F0E1
:104C90001690002F81020013FE75F078EF9000311E
:104CA00052020013FE90003109ED75F078020013F6
:104CB000FEE09000322BFE75F078020013FEEE75D8
:104CC000F078020013FE90003272EE75F078020068
:104CD00013FE9000649BE0FF75F07822A3E0FDCE08
:104CE000EDCE900064AAF09000649CE0FD9000641A
:104CF000AB2290006253E075F01690002F8B0200FB
:104D000013FEFF75F078020013FE90006742E0FF8B
:104D100075F07822ED9000322175F078020013FED4
:104D200090006253E0FF75F01690002F820200138E
:104D3000FEFE75F078020013FE9000310CED75F068
:104D400078020013FE90006253E075F048A4249CA2
:104D5000F9740135F0FA7B01221200140ACEEACE72
:104D6000CFE9CF22E090003109FD75F07802001301
:104D7000FE75F0EA900008D4020013FE900065E68C
:104D8000E0FFA3E0FDA3E0FB22900064ABE0FE7532
:104D9000F078EF90003236229000649BE0FFA3E0B1
:104DA000FDE4900064AAF0A3229000316A75F078C7
:104DB000020013FEE0FD75F01190002DB2120013F9
:104DC000FE0200142A900065DEE0FF75F078900086
:104DD0003236221200142A75F078EF900032212228
:104DE000EFF0900061E5E0FF75F07890003110225F
:104DF00090006674E090000904FF75F0EA02001369
:104E0000FE90006256E024A7F582E4345CF58375D9
:104E10009300E022900031E9EF75F078120013FE64
:104E2000EF2583F58322F0EF75F0789000310722AB
:104E3000E92402F9E43AFA1200128BFFAEF0229054
:104E4000006253E0FF90002F7C75F016020013FE05
:104E5000F075F078EF9000323B22900061F812007C
:104E6000140AE92275F01690002F8D120013FE022D
:104E700000140A75F006020013FE900065EAE0FFD8
:104E800075F0789000323C22900061E81200140A1C
:104E9000900061EEE0FEA3E022FF900061E5E0FEFD
:104EA00075F0782275F01190002DB5120013FEE414
:104EB000F022900061ECE075930022FDEF75F0EABE
:104EC000020013FEFE75F078020013FEEB54F0C4EE
:104ED000540FFFCEEFCECFEBCFEF540FFFCCEFCC84
:104EE000CFEDCFCDCDCFEECFCBEFCB9000644B222B
:104EF000F090002F71E0FD9000632C22900061F58E
:104F00001200140AE922900065F2E0FF7C017D782E
:104F10001200120D74072FF974313EFA2212001498
:104F20002A75F078EF22EF2583F583E58222900041
:104F300061ECE0FE900061E5E0FD229000641EE07F
:104F4000FF90006420E022E075F016A42487F97435
:104F50002F35F0FA7B0122EF75F0EA020013FEED27
:104F600075F078020013FE7B017A62795990006334
:104F7000CB1200142A90006255E0900063CEF0A39B
:104F800022F075F078EF900031102290006674E006
:104F9000FF75F0789000323422900065ECE0FF90CD
:104FA0000065EA221200142A7B007A00790022743C
:104FB0000FF075F078EF9000323A229000649BE099
:104FC000FFA3E0FD2290006420E0FF2275F0EA904C
:104FD000000926120013FE7593002229F9EA3EFA11
:104FE0000200142A7E007C017D781200120D744BA1
:104FF0002FF974323EFA7B012290002F90020013A9
:10500000FE75F005A429F9EA35F0FAE92404F9E47B
:105010003AFA22E0FF75F0789000321F2212001455
:105020000AE94A4B22900042EAE0FF22CAEECAC9CE
:10503000EFC97B0122900061EDE07593002275F0CD
:1050400008120013FEE0FEA3E0FF90006702E0FDFF
:1050500022E090006742FDE09000632C22E0FF75A3
:10506000F0789000310922EE75F078020013FEA36B
:10507000F0900065DB0200140A9000641DE075F0FA
:10508000C090000FAA020013FEE4F075F078EF90D4
:1050900000321F22A3F0A3F0FB7F0422900061F2F4
:1050A0001200140AE922FF900061E5E022900061FD
:1050B000ECE0FD75930022900064A1E0FF75F078AC
:1050C0002290006255E0FF7E00EE22E0FD75F07850
:1050D000EF9000314D22CEEDCEEFC394022290002E
:1050E0006546E0FF227E017D00020016287B017AE2
:1050F000627963900063360200142A75F016A424C6
:1051000083F9742F35F0FA7B012275F078EF900067
:10511000323422E0FF75F078900031512275F006AC
:10512000ED020013FE90002DAF020013FEEFF0A37E
:10513000EDF0A3EBF02290003105E075930022E042
:10514000FF75F0789000323B22E0FF75F078900018
:10515000321B22120011F975F078EF9000311D22F8
:10516000FE120013FEE5822F22C874A7C8CC744239
:10517000CCCD7401CD22F0900042EBE0229000658E
:10518000EAE0FF900065ECE0FD22E0FFCEEDCECD41
:10519000CD22E0FF90006253E022120011F990004E
:1051A0006258E004F022EFF0A30200142AE0FF901E
:1051B000006254E02290006258E029F9E43AFA22B1
:1051C000759300E0FE90006545E022F0900051E309
:1051D000E022E0FE75F078EF22900064A3E0FEA3E9
:1051E000E0FF22C8E9C8CCEACCCDEBCD2290006527
:1051F000E3E0FF2275F016EF120013FEE0229000AC
:105200006254E0FF2290006674E0FF22900067077E
:10521000E0FF2290005BD5E075F003A424E0F58266
:10522000E4345BF583759300E0900064D2F0A374DE
:1052300008F0E4900064D1F0900064D3E0FF9000A7
:1052400064D2E05F7003015745120134952455F58F
:1052500082E4346112013457FE900064D4F0744447
:105260002FF582E4346112013457FF900064D5F0C9
:105270007B827AB4792F900064D1E0FD9000616A5E
:10528000E4F0A3EDF0EEFDA3E4F0A3EDF0A3E4F071
:10529000A3EFF012005788B46015A3E070117B8271
:1052A0007AB47953120016E3900064D57403F09039
:1052B0000064D5E0FF70030156AE20E3030153778D
:1052C000900064D4E020E30301535E7B827AB479DA
:1052D00059900064D1120134F9120016E37B817AEF
:1052E0001C79B61201A8921201349512019D7EEF2D
:1052F000603FC2E890005BCFE090006148F0D2E8E8
:105300007B827AB4797B120016E390006143E0FD62
:10531000900064D1E09000632CF0A37403F0A374B8
:10532000E8F0A37403F0A374E8F0E4FBFF12010DAE
:105330001212013495120134504408F0745E2FF5B6
:1053400082E4346112013457FFC3940240291201F0
:10535000AFA07B827AB47994120016E380197B8225
:105360007AB479A312013513120057711201345027
:1053700054F7F012019C52900064D5E020E0030144
:105380005436900064D4E030E006120134D7800433
:10539000120134DE120134C47B827AB479C401561E
:1053A000F61201344B5401FF900064D4E0FE540126
:1053B0006F6079EE30E02E90005BDBE0C394085024
:1053C000147B827AB479E21200577D7D1E7C001234
:1053D00001878280617B827AB479F090005BDB1276
:1053E0000134F9804D120134951201345054FEF00D
:1053F00074632F1201349C1201349512013500128E
:105400000134A1303F0A9000615DE06F7002C23F3D
:105410001201346F12013457FFC394024018120175
:10542000AFA01201346F120134A1800A7B827AB5D9
:10543000790D120016E3900064D5E020E1030155D8
:1054400004900064D4E030E106120134D7800412E5
:105450000134DE120134C47B827AB579141200570C
:105460007D12013450FE5402FD900064D4E0FC54DF
:10547000026D601CEC30E11174592FF582E4346147
:105480001201351D4402F080071201344B54FDF027
:10549000900064D4E0FF20E16B5421642170651218
:1054A00001346F12013457FFC3940240579000310A
:1054B00007120134A91201345730E70D1201346F7D
:1054C00012013457FF1201AFA01201346F120134E0
:1054D000A17B827AB57931120016E312013495244A
:1054E00063F582E4346112013457C394055015907A
:1054F00000614AE0700E7D1EFC12018782900061FF
:105500004A7401F0900064D5E030E266900064D403
:10551000E030E206120134D78004120134DE1201B9
:1055200034C47B827AB5794A120016E31201344BF7
:105530005404FF900064D4E0FE54046F602AEE30FF
:10554000E2137B827AB57968120016E31201344BBC
:105550004404F0801D7B827AB5797D120016E31237
:1055600001344B54FBF0800A7B827AB5790D12002E
:1055700016E3900064D5E020E4030157289000640E
:10558000D4E05403640360030156A09000614AE034
:10559000C3940250030157287B827AB57992120096
:1055A0005788FF30E106120134D78004120134DE3F
:1055B000120134C4EF30E006120134D78004120126
:1055C00034DE9000616D1200142A7B827AB579A7CF
:1055D000120016E31201346F12013457FF60079076
:1055E0000064D6F080587B017A6479D6900064D14B
:1055F000E0FD120140F2EF700301569B12013524C9
:10560000900064D1E0FE12013474F583759300EFCD
:10561000F0EEC454F0FE9000321C120134A91201C5
:10562000351DF0900064D4E030E61312013524906B
:10563000003151120134AA120134574480F0900015
:1056400064D1E0FE0490003106F01201352475F0BB
:105650007890003234120134ADF5837593007405EF
:10566000F074632E1201349C9000614AF090006146
:1056700049E0FD9000632C120134E5120134E7E4A7
:10568000FBFF12010D127B827AB579BE900064D6C1
:10569000120134F9120016E3015728C23F015728BE
:1056A0007B827AB579DB120016E3C23F807A7B8277
:1056B0007AB579ED120135131201348E900064D45D
:1056C00012013489900064D5E0FF9000616EE4F02F
:1056D000A3EF12005771120135001201345720E078
:1056E0001C74552FF582E434611201345730E00DFB
:1056F0007B827AB67911120016E30153A1120134AC
:1057000095120135001201345730E41C74552FF501
:1057100082E434611201345720E40D7B827AB67939
:1057200023120016E301557D120134952455F582AC
:10573000E4346112013457FE74352FF582E434618C
:105740001201351DF0900064D2E0FFA3E0FEF4FDED
:10575000EF5D900064D2F054786015EE25E0A3F080
:10576000900064D1E004F0E0C39404500301523887
:1057700022F0120016E3900064D1E0FF221200161E
:10578000E3900064D1E0FF22120016E3900064D49D
:10579000E022900061D11200140AE924AFF9E43A42
:1057A000FA120011C7FD900061D11200140AE92419
:1057B000AEF9E43AFA120011C775F004A4FF9000A4
:1057C00061D11200140AE922FF9000621C12001439
:1057D0000AE92416F9E43AFA12001433E92FF9EA37
:1057E0003EFAE92403F9E43AFA020011C7F0900006
:1057F00061081200140AE92416F9E43AFA020014C6
:1058000033900061C3E09000326CFF75F0781200B5
:1058100013FEEF2583F58375930022FF9000610846
:105820001200140AE92290006228E0FF9000621C36
:105830001200140AE92275F004A4FF900062AF126E
:1058400000140AE922900060F51200140A90006426
:10585000521200142A900060F8E090006455F09015
:105860000061050200140AF9E43AFA1200128BFFF3
:10587000900062A81200140AE922759300E09000DB
:1058800060FDFEE0FD24A7F582E4345CF5837593AA
:1058900000E0222404F9E43AFA0200128B9000613D
:1058A000D71200140AE92402F9E43AFAEF020011CF
:1058B000F99000637DE09000637575F004A4FF1219
:1058C00000140AE92FF9EA35F0FAE92290005D8D1B
:1058D000F0900061081200140A900062891200140E
:1058E0002A900060F50200140ACAEECAC9EFC97B0B
:1058F00001900061E01200142A900061E01200148F
:105900000AE94A4B22900061C3E0FF900061C6E0C3
:10591000FD900061DD1200140A900062A8120014CC
:105920002A900061D11200140A900062AB020014A8
:105930002A900061C81200140A900061D0E024018E
:10594000FF900061CFE03400FEE92FF9EA3EFA0251
:105950000011C7E075F004A4FFAEF090006375027B
:1059600000140AA3F0E4A3F0A3F0A3F0A32224AF51
:10597000F9E43AFA7401020011DD2404F9E43AFA78
:10598000E5F08FF0020012AFE075F004A429F9EA07
:1059900035F0FA0200128B900061D71200140AE968
:1059A0002290006228E0C39401FFE49400FE780294
:1059B000EF22900062191200142A90006108020080
:1059C000140A900062D01200140AE9240122C39440
:1059D00001FF131313541F900060FCF0EF5407A352
:1059E000F0900060FCE0FF240CF582E43461222496
:1059F000AEF9E43AFAE4020011F92420F9E43AFAA3
:105A0000ED020011F9900062161200140AE4F5F09C
:105A1000020012AFF0A3E4F0A37406F0E4A3F0A335
:105A20007408F0A32290006122E0FFC39408748000
:105A3000948022900061DA0200140AE92401F9E45A
:105A40003AFA22900061DD1200140AE922FE900069
:105A50006227E02EFEC374089EFEC8EEC8EF08223F
:105A6000900061E00200140A241EF9E43AFA22FED2
:105A700075F078020013FE29F9EA3EFA1200128B43
:105A8000FF9000621FE5F022CAEECAC9EFC97B0190
:105A900022900062D01200140AE9240822900063C8
:105AA000C0E0FF75F0789000326F22F0A37481F0AF
:105AB000A3E4F0A3747FF022900061080200142A8E
:105AC000FF7E00C3940174809480227B007A007969
:105AD000000200142A900062CD1200140AE9240783
