:020000040000FA
:1000000002010001020408000101000201B19C008C
:100010000100020004000800100102040849430026
:10002000EF222202015813E4FE120183C4CEEFCE68
:10003000CFCF220201675902016064020118F70262
:1000400001AAB602008CAA02018DB802013756023D
:10005000019AFC0201A9630201AEAA0201A51F9048
:10006000909090010204080FA0A0A0A001100440ED
:1000700055A0A0A0A002200880120128B22222FFD1
:1000800090006714120013CE7810EC4D4E4F7004A0
:100090007CA57DA5C3EC13FCED13FDEE13FEEF1361
:1000A000FF5010EC64CCFCED644CFDEE644EFEEFB2
:1000B00064CEFFD8DF90006714120013E6EE547F81
:1000C000FE2290006714EEF0EFA3F0A374A5F0A356
:1000D000F02275F003A42486F582E43460F583757C
:1000E00093002275F003A42488F582E43460F5833C
:1000F00075930022F090006085E004F0C394202204
:1001000075EBAA75EB55759D02787FE4F6D8FD90E6
:100110000000007F007E807D01E4F0A3DFFCDEFABA
:10012000DDF8750F7E7510FF75814D02001B84414F
:1001300063E9004163F2004163ED004163EC00417B
:1001400063F3004163F10041681C004249C70000AD
:100150004249D400004249D200004149C900424905
:10016000C300004249CC00004249CA00004249C5D0
:1001700000004249D000004249CE00000143004146
:1001800067AA004167AB004147F00060904F320022
:1001900042003E3C3A3B456843413F3D2B35676951
:1001A000E2E188E0141E006A001D16041A1F006BAD
:1001B000061B070821208C6C2C1909171522686D65
:1001C00011050B0A1C23696E00100D1824256A6F97
:1001D000360E0C122726007037380F33132D00719E
:1001E0008734032F2E007239E52830003100940047
:1001F0006493928A002A8B0059895C5F85000062B3
:10020000635A5D5E60295344575B56556147000051
:1002100000004046000000000000000000000060F8
:10022000A54E8D000000000000000000000000004E
:10023000000000BEE60000E4B40000C400000000BE
:100240000000E3C3B900B7000000E7C20000BC0033
:10025000920065C100B800B60000B0C000BFB50094
:100260000000B1BD00000000000000BB0054000011
:10027000B30000BA000000000000000000580000B9
:1002800000B2000000000000006600004D00504A6F
:10029000000000494C51004F52004800004E0046FB
:1002A0004B480004010244453A3B3C3D3E3F40413F
:1002B0001E1F200000000000787665756677747E4A
:1002C000797A7C7D7B7F8180603F4D0602810002D0
:1002D000820002830003B50003B60003B70003CD1C
:1002E0000003E20003E90003EA00038301038A013B
:1002F0000392010394010321020323020324020356
:100300002502032602032702032A024153D6014194
:10031000552E0041527E0041552D004153D80041D9
:10032000527F0049552F0000000000001E001E4EA5
:100330005F610047014700470147F000F100FF00FF
:100340004E5F5100E001E000E001E0F000F100FF4D
:1003500000604F5EDB0924800617150F450001047D
:10036000014501040327203A0331203C0332203B9E
:100370000333203E0334203D0336201D0329204251
:1003800003302043071640130A4500010A0CA00958
:100390000F04160B5E2858040E4828580620201813
:1003A0005E2858FF415F7100415ED600415ED20079
:1003B000415F6000415F7300415EDA00415ED8003A
:1003C000415F5F00415ED500486141001020304030
:1003D0005060704861898081828384858687486106
:1003E00091909192939495969760406149A0A1A2B3
:1003F000A3A4A5A6A7A8A9AAABACADAEAFB0B1B255
:10040000B3B4B5B6B7B8B9BABBBCBDBEBFC0C1C244
:10041000C3C4C5C6C7C8C9CACBCCCDCECFD0D1D234
:10042000D3D4D5D6D7D8D9DADBDCDDDEDF4162F331
:100430000041630900416308004162F20044630423
:1004400000000000526072120101010900000895CD
:100450000B0468120001020301604060322A035657
:1004600000690072007400750061006C0020004893
:10047000005500420020005600650072003A00302E
:10048000002E0030003100000000000000000000DD
:10049000000000000000000000000000006020607C
:1004A000120A034D0054004B002000000000000021
:1004B000000000000000000000000000000000003C
:1004C000005257D01201100100000008950B066879
:1004D000020001020301605457E2090254000301C3
:1004E00000A001090400000103010100092110011D
:1004F0000001223F000705810308000109040100F3
:100500000103010200092110010001226E0007050C
:10051000820307000109040200010301020009210E
:1005200010010001225D0007058303070001603F01
:10053000583A05010906A101050719E029E7150048
:1005400025017501950881029501750881019505C0
:10055000750105081901290591029501750391019D
:10056000950675081500256805071900296881009A
:10057000C0606E587905010902A10185010901A138
:100580000105091901290515002501750195058148
:1005900002750395018101050109300931093815FA
:1005A00081257F750895038106C0C005010980A1DA
:1005B000018502050119812983150025019503751F
:1005C000018106950175058101C0050C0901A10194
:1005D000850319002A3C021500263C02751095017E
:1005E0008100C0605D58E705010902A10185040989
:1005F00001A10005091901290515002501750195BD
:1006000005810275019503810175089501050109B0
:10061000381581257F8106C00901A1000501093037
:10062000150026000435004600047510950181026E
:1006300009311500260003350046000375109501A9
:100640008102C0C044583604030904602259A42220
:10065000034100530049005800200045006C00652C
:10066000006300740072006F006E00690063007325
:1006700000604059642A03560069007200740075D6
:100680000061006C00200048004900440020005632
:1006900000650072003A0030002E0030003100008A
:1006A000000000000000000000000000000000004A
:1006B0000000000000602059440A03410053004933
:1006C00000580000000000000000000000000000D2
:1006D0000000000000000000004430F101020408A6
:1006E0005430DD14034D006900630072006F007325
:1006F000006F0066007400485DB401020408102019
:100700004080445CB31A1C1E20445CAE12141618C0
:10071000425CE90000C11CC11AC11B415CE80041F8
:100720005CB707415CB20049634803000000000069
:10073000000000415E9900602A5EA60081008200F0
:100740008300B500B600B700CD00E200E900EA0181
:1007500083018A01920194022102230224022502CC
:10076000260227022A49623F0000000000006400C0
:100770006449622D0000000000000200024F62A8E0
:1007800020FF803F00000000000000000000004F3C
:10079000628B20FF800000000000000000000000CD
:1007A0000047629A10000F200900004762A1100064
:1007B0000F2000000042670009DA42670290C05A29
:1007C0004FE60001000100010001000100010001ED
:1007D0000004002000640032001900115A4FCC00C0
:1007E0000100010001000100010001000100020000
:1007F0001000320019000C00084D5270080C10183F
:1008000020305E1A1A646464644D51630406080C57
:1008100010182F1A1A64646464424FC900004250D1
:100820000700004250050000414FCB00424FC70077
:100830000042500300004250010000414FC30041FC
:10084000527D00605A500931324D000000384D0091
:10085000000000364D00000000344D000000003361
:100860004D00000000324D00000000314D0000003E
:10087000003932314B00003131354B000039363010
:100880003000003139323030003338343030003508
:10089000373630300000000000000000000000008B
:1008A00000C11FC11DC11E41601100415FAA01416D
:1008B0005FFC01415FB60F415FB800415FA7014196
:1008C0005FF100415F9F47415F7C0041600300444E
:1008D0005FA100000000415F7D00415FF2004160C8
:1008E0000400415FB300485FE10000000000000029
:1008F00000415FA600425FFD0200426000018042AD
:10090000600500004F5FCA0000000000000000000A
:10091000000000000000415FFF00485FD9039C0316
:100920009C00640064485FE9029C0064029C0064CF
:10093000415FAD004157CF0060C0563C0000000051
:10094000000101010001000182484800010101018C
:1009500001020182484800010201010102018248AE
:100960004803010301030103018248480001020317
:10097000000101010001000182484800010101015C
:10098000010201824848000102010101020182487E
:1009900048030103010301030182484801020003E7
:1009A0000101000102010001824848010102010128
:1009B000010101824848010102010201000182484F
:1009C00048030103010301030182484802000103B7
:1009D00002010001000101018248480201010100F9
:1009E000010101824848020100010201020182481E
:1009F00048030103010301030182484860C056FC1B
:100A000000010203000101010001000181F58300E2
:100A10000101010101020181F583000102010101CF
:100A2000030181F583000103010201030181F583C4
:100A300001020300010100010301000181F58301AE
:100A40000102010101010181F5830101020102019D
:100A5000030181F583010103010201000181F58396
:100A600002030001020100010301010181F583027B
:100A70000101010001010181F5830201030102016D
:100A8000020181F583020103010301000181F58365
:100A900003000102030100010001010181F583034C
:100AA0000101010001020181F5830301020101013D
:100AB000020181F583030100010301030181F58334
:100AC00060F0553C00010203030101010001000137
:100AD00081002200010201010101018100220101C6
:100AE000030102010201810022020100010301034E
:100AF0000181002200010203000101010001020145
:100B000081007E000101010101030181007E0201DB
:100B100003010001020181007E02010301010103C2
:100B20000181007E000102030001010100010001BA
:100B300081007E000101010101010181007E0201AD
:100B400003010201020181007E020103010301038E
:100B50000181007E00000000000000000000000095
:100B60000000000000000000000000000000000085
:100B70000000000000000000000000000000000075
:100B80000000000000000000000000000000000065
:100B90000000000000000000000000000000000055
:100BA0000000000000000000000000000000000045
:100BB00000000000C127C126446101000102034278
:100BC00060E800004260E6000042613F00004160D2
:100BD000FF0060386106AA550601CC330000AA5513
:100BE0000602CC330000AA55070301000000AA55F5
:100BF000050401000000AA55050501000000AA55E2
:100C0000050601000000AA55050701000000004884
:100C100064B80000000000000000EDD2E7CD33EC26
:100C20003392D524814006E4FFFEFDFC22FCE4CF94
:100C3000CECDCC24E0501174FF80EDC3CC13CCCDCD
:100C400013CDCE13CECF13CF0470F030D5DE02001B
:100C5000139AF920E73624F950037907E4F42402C3
:100C6000FBE582158270021583DBF6E024FB501B46
:100C7000E96014E4F0E582158270021583E004F067
:100C8000B40A08E4F0D9EE7401F00A22C2D522EDCC
:100C900033EC3392D5FA602AB4FF33EDC2E77B819F
:100CA00060067A0C79B4E4227A0C79BD20D5047AF6
:100CB0000C79B8224E614E002B494E46002D494E0C
:100CC0004600E47A08F0A3DAFC7B00740722C093A4
:100CD000C083C082ECC0E0EDC0E0EEC0E0EFC0E059
:100CE000EA75F010A4CAABF075F04DA42BFBE43507
:100CF000F0FCEA2410FAEB34C5FBEC34D9FCEDC26D
:100D0000E7FF75F056A4F42411C5F0F434C58FF054
:100D1000A42AE5F03BE43CF020E71612001080D056
:100D2000E0FFD0E0FED0E0FDD0E0FC12000FAE808E
:100D300016F40412001080D0E0FFD0E0FED0E0FDF9
:100D4000D0E0FC12000E9CD082D083D093E0FAED6C
:100D5000D2E7CD33EC332482FBE4C3CF33CFCE33A1
:100D6000CECD33CD33DBF37B0775F00A846004F01E
:100D7000A31B0AE5F0F0A38FF0740AA4FFACF08E79
:100D8000F0740AA42CFEACF050010C8DF0740AA48F
:100D90002CFDE435F0F0A3DBDE740722020010FB2B
:100DA000E86480F8E933E83360110460EFED33EC78
:100DB000337009E8FCE9FDEAFEEBFF220460DDD3B5
:100DC000EB9FEA9EE99DE8C2E78CF0C2F795F04000
:100DD0000CE8CCF8E9CDF9EACEFAEBCFFB12001023
:100DE000C685D0F05804700320D5B1E804700850CF
:100DF00002B2D50200110592D5EC0460F6E4CCC035
:100E0000E0C398F8603C94186009400ED0E0FB0203
:100E10000010DDE4FBFAC9FC8028E830E406E4C9F0
:100E2000FBE4CAFCE830E305E4C9CACBFCE854079C
:100E30006010F8C3E913F9EA13FAEB13FBEC13FCA7
:100E4000D8F130F531C3E49CFCEF9BFFEE9AFEED48
:100E500099FDD0E0FBEF4E4D4C701322DB040200F5
:100E60001102EC2CFCEF33FFEE33FEED33FDED30E1
:100E7000E7EA020010DDEF2BFFEE3AFEED39FDD080
:100E8000E0FB50140BBB000402001105ED13FDEE56
:100E900013FEEF13FFEC13FC020010DDEC4D6011AC
:100EA000E8497018ED33EC3304600DE4FCFFFEFDFF
:100EB00022E933E8330470F8020010FB120010C678
:100EC00058046009E4CC2481500728500B0200111B
:100ED0000528400402001102C0E0EB4A7046B980C8
:100EE00007D0E0FB020010F1EF4E701DBD8008EB53
:100EF000FFEAFEE9FD80EAE98DF0A4FEE5F00200DC
:100F00000F8BE9CDF9EAFEEBFFEF89F0A4FCE5F0E9
:100F1000CE89F0A42EFFE435F0CD89F0A42DFEE4B7
:100F200035F08067EF4E7005BD80D780C2EF8BF043
:100F3000A4ACF0EE8BF0A42CFCE435F0F8EF8AF0D2
:100F4000A42CE5F038FCE433CB8DF0A42CFCE5F0C8
:100F50003BF8EE8AF0A42CFCE5F038F8E433CF89B6
:100F6000F0A42CFCE5F038CF3400CE89F0A42FFF9C
:100F7000E5F03EFEE433C98DF0A42EFEE5F039CD58
:100F80008AF0A42FFFE5F03EFEE43DFD33D0E0FB08
:100F900050080BBB001002001105EC2CFCEF33FFD6
:100FA000EE33FEED33FD020010DD02001105EC5DB5
:100FB000046005E859047004020010FB120010C61A
:100FC000580460F4EC4860F0EC7004FDFEFF22C8A9
:100FD00060D82481C8500AC39860025007020011EB
:100FE000029850C6F582E9294B4A7006AB8202008E
:100FF00010F175F0007C1A7880C3EF9BEE9AED99A2
:10100000400DC3EF9BFFEE9AFEED99FDE842F0DC48
:1010100024ACF0D0E0FFD0E0FED0E0FDAB8220E7D2
:10102000101BEB60B8EC2CFCEF33FFEE33FEED331E
:10103000FD020010DDE803F830E705C0F075F000B0
:10104000EF2FFFEE33FEED33FD40B730E7C180A94F
:101050003F8000004120000042C80000447A0000A8
:10106000461C400047C35000497424004B1896802A
:101070004CBEBC205A0E1BCA6753C21C749DC5AE21
:10108000FB6006540760202323120010B3EB543892
:10109000600C1200109E120010AE12000E9CECF8B4
:1010A000EDF9EEFAEFCB22EB120010AE80F05438DF
:1010B00003241C90001050FE93FC0EEE93FD0EEEE8
:1010C000930ECE93FF22E9D2E7C933E833F892D5E5
:1010D000EDD2E7CD33EC33FC5002B2D522EC30E751
:1010E000100FBF000C0EBE00080DBD00040BEB601E
:1010F00014A2D5EB13FCED92E7FD2274FFFCFDFE7C
:10110000FF22E480F8A2D574FF13FC7D80E480EF19
:10111000EB7008E709F608DFFA801B89828A8314DE
:1011200010E70AF593E0A3F608DFFA8009F593E4E7
:1011300093A3F608DFF9ECFAA9F0EDFB2288F0EFB3
:1011400060010E4E60F088F0ED60C51410E7E7CB4B
:10115000700E88828C838B93E709F0A3DFFA80D628
:101160001410E72A89828A83F593ECFAE0A3C8C5B4
:1011700082C8CCC583CCCBC593CBF0A3C8C582C8ED
:10118000CCC583CCCBC593CBDFE2DEE080AA8982DD
:101190008A83F593ECFAE493A3C8C582C8CCC583CF
:1011A000CCCBC593CBF0A3C8C582C8CCC583CCCB70
:1011B000C593CBDFE1DEDF02001138EB7002E722DE
:1011C00089828A831410E704F593E022F593E4936F
:1011D00022BB000327F722F8EB89828A831410E7E9
:1011E00006F593E028F022F593E4932822BB000251
:1011F000F722BB8000500989828A838B931593F074
:1012000022EF8DF0A4A8F0CF8CF0A428CE8DF0A40E
:101210002EFE22BC000BBE0029EF8DF084FFADF046
:1012200022E4CCF875F008EF2FFFEE33FEEC33FC30
:10123000EE9DEC984005FCEE9DFE0FD5F0E9E4CE66
:10124000FD22EDF8F5F0EE008420D21CFEADF07525
:10125000F008EF2FFFED33FD4007985006D5F0F270
:1012600022C398FD0FD5F0EA22C5F0F8A3E028F0DC
:10127000C5F0F8E582158270021583E038F022EBA4
:101280007007E7F5F009E7192289828A831410E7CD
:1012900008F593E0F5F0A3E022F593E493F5F074FC
:1012A000019322BB0006F709A7F01922BB8000506A
:1012B0000D89828A838B931593F0E5F0A3F022EFDA
:1012C0002BFFEE3AFEED39FDEC38FC2275F0087587
:1012D0008200EF2FFFEE33FECD33CDCC33CCC58271
:1012E00033C5829BED9AEC99E58298400CF582EE2D
:1012F0009BFEED9AFDEC99FC0FD5F0D6E4CEFBE415
:10130000CDFAE4CCF9A88222B800C1B90059BA00DC
:101310002DEC8BF084CFCECDFCE5F0CBF97818EF37
:101320002FFFEE33FEED33FDEC33FCEB33FB10D738
:1013300003994004EB99FB0FD8E5E4F9FA227818F9
:10134000EF2FFFEE33FEED33FDEC33FCC933C91054
:10135000D7059BE99A4007EC9BFCE99AF90FD8E086
:10136000E4C9FAE4CCFB2275F010EF2FFFEE33FE58
:10137000ED33FDCC33CCC833C810D7079BEC9AE8CB
:1013800099400AED9BFDEC9AFCE899F80FD5F0DA4C
:10139000E4CDFBE4CCFAE4C8F922C3E49FFFE49E69
:1013A000FEE49DFDE49CFC22E8600FECC313FCED21
:1013B00013FDEE13FEEF13FFD8F122E8600FEFC329
:1013C00033FFEE33FEED33FDEC33FCD8F122E0FCCD
:1013D000A3E0FDA3E0FEA3E0FF22E0F8A3E0F9A371
:1013E000E0FAA3E0FB22ECF0A3EDF0A3EEF0A3EF14
:1013F000F022A42582F582E5F03583F58322E0FB17
:10140000A3E0FAA3E0F922F8E0FBA3A3E0F925F0BA
:10141000F0E582158270021583E0FA38F022EBF0D5
:10142000A3EAF0A3E9F022EB7006E9F80200164304
:1014300089828A831410E706F593020013FEF59360
:1014400002001655BB001CD093D0F0D0E0F8D0E0DD
:10145000C9FBD0E0FAD0E0CBC8C0E0C0F0C0930236
:1014600000164CBB80005022D093D0F0D0E0F8D0D2
:10147000E0C9F582D0E0CAF583D0E0CB14C8C0E063
:10148000C0F0C09388930200141ED093D083D08202
:10149000D0E0D0E0D0E0E473D093D083D082F8E401
:1014A000937012740193700DA3A393F8740193F5D4
:1014B000828883E4737402936860EFA3A3A380DF40
:1014C0008B938A838982159353937FE473EB700C1B
:1014D00087F009E608B5F019DFF6801589828A835E
:1014E0001410E711F593E0F5F0A3E608B5F002DF7C
:1014F000F50200157EF593E493F5F0A3E608B5F048
:101500007DDFF48079CB701388828C838B9387F096
:1015100009E493A3B5F067DFF580631410E7308921
:10152000828A83F593ECFAE0F5F0A3C8C582C8CCB3
:10153000C583CCCBC593CBE493A3C8C582C8CCC527
:1015400083CCCBC593CBB5F035DFDCDEDA802F89D9
:10155000828A83F593ECFAE493F5F0A3C8C582C8B8
:10156000CCC583CCCBC593CBE493A3C8C582C8CCF0
:10157000C583CCCBC593CBB5F004DFDBDED97FFFD1
:10158000B5F0020F2240027F0122020014CD0200BA
:10159000150588F0EF60010E4E60EEED60EC141062
:1015A000E7ECCB701288828C83F59387F009E0A377
:1015B000B5F0CBDFF680C71410E72F89828A83F558
:1015C00093ECFAE0F5F0A3C8C582C8CCC583CCCBB8
:1015D000C593CBE0A3C8C582C8CCC583CCCBC5938B
:1015E000CBB5F09ADFDDDEDB809489828A83F593C8
:1015F000ECFAE493F5F0A3C8C582C8CCC583CCCB84
:10160000C593CBE0A3C8C582C8CCC583CCCBC5935A
:10161000CBB5F004DFDCDEDA0200157EEF4E60228F
:10162000EF60010EEDBB0007F709DFFCA9F022BB5C
:101630008000500E89828A838B931593F0A3DFFC80
:10164000DEFA22E6FB08E6FA08E6F922EBF608EAFB
:10165000F608E9F622E493FB740193FA740293F915
:1016600022E508245EF582E43462F583759300E098
:101670000508229000625B3007049000625EE4750A
:10168000F00112001407020011BB2000E57F2ED2EA
:10169000008018EF540F2490D43440D4FF30040B52
:1016A000EF24BFB41A0050032461FFE5096002155E
:1016B00009050CE50C7002050B3007119000625B08
:1016C000E475F00112001407EF020011ED020000B2
:1016D000277403D2078003E4C207F5089000625B19
:1016E0001200141EE4F509F50BF50CE50960087FFE
:1016F00020120016AB80F4750AFFC201C200C202BC
:10170000C203C205C206C20812001673FF700E3073
:1017100007067F00120016BCAF0CAE0B22B4256387
:10172000C2D5C20412001673FF24D0B40A00501AA6
:1017300075F00A780930D50508B6FF0106C6A4265B
:10174000F620D5047002D20380D824CFB41A00EF5B
:101750005004C2E5D204020019F9D20180C4D200BB
:1017600080BED20280BAD2D580B8D20580B27F20A6
:10177000120016AB2002077401B5090040F01200F8
:101780001661FF120016AB020016EBD208D20680DB
:101790008F12001661FB12001661FA12001661F931
:1017A0004A4B700679067A1B7B8120023DE5096071
:1017B000397E00E9C0E02EF9EAC0E03400FA1200F8
:1017C00011BBF9D0E0FAD0E0C960060EEE650A70F0
:1017D000E2C2D5EBC0E0EAC0E0E9C0E0EE12001AD8
:1017E00061D0E0F9D0E0FAD0E0FB120011BBFF605D
:1017F00096EBC0E0EAC0E0E9C0E0120016ABD0E032
:101800002401F9D0E03400FAD0E0FBE50A0460DA04
:10181000D50AD702001787D202808F12001A3D60C6
:10182000F6E50A70010412000C52A90A600EE50ADE
:10183000600A14F50A12001AF0EF60F2EA30E702CB
:10184000F404C3994004020018D0EAF4250A0430D5
:10185000E701E404F50A800F12001A3D60B9EA05B9
:101860000A250A12000C52EA9000628AF030E70161
:10187000E4250A04D50A042005011412001A61E4C3
:10188000C0E012001AF09000628AE0601420E708BD
:1018900014F012001693802604F0D0E014C0E07F0C
:1018A0000012001693E50A60081200168A150A80D5
:1018B0000D3005041200168AD0E0020016EBD0E0CD
:1018C0000480BD12001A3D6093E50A0412000C5218
:1018D0009000628AEAF0E50A20050260010424040F
:1018E00012001A6174FF04C0E012001AF012001610
:1018F00093E50A20050260041200168AD0E0B50ABA
:10190000E57F451200169D9000628AE07F2B30E74C
:10191000047F2DF404C0E0120016ABD0E075F00A8D
:1019200084C0F012001694D0E01200169402001643
:10193000EB791080027908C206C2088008D2D579F6
:101940000A8004790AC2D5E50A047002F50AE4FAAD
:10195000FDFEFF12001661FC7B0820011612001626
:1019600061FD7B1030000C12001661FE1200166142
:10197000FF7B20EC3382D592D55013C3E4300006B0
:101980009FFFE49EFEE42001039DFDE49CFCE4CB6C
:10199000F8C201EC700CCFCECDCCE824F8F870F38F
:1019A0008017C3EF33FFEE33FEED33FDEC33FCEB7A
:1019B00033FB994002FB0FD8E9EB300105F8D0E08A
:1019C000C448B201C0E00AEC4D4E4F78207B007055
:1019D000C2EAB50A0040BCC0E012001A63D0F0D0E1
:1019E000E0200104C4C0E0C4B201C0F012001694AB
:1019F000D0F0D5F0EA020016EB12001498179153BC
:101A0000193158175E4C175A4219354F193D441970
:101A10003D4917744319435518584618C345181BB8
:101A2000471B235017622D17662E178D2B176A231D
:101A3000178B201B0F2A17204800001783E50AB4D4
:101A4000FF03750A0612001661FC12001661FD12F2
:101A5000001661FE12001661FF9000628302000C06
:101A60008F790AA2D5200314300509B910020404A5
:101A7000B9080104A2D520060250010420026D928B
:101A800002B509005036C0E07F2030031A7F30A233
:101A90000272067205501012001ABCC202C206C2BF
:101AA00005C2087F308010300503E9C0E01200163F
:101AB000AB300503D0E0F9D0E0B509CA3005197F95
:101AC00030B9100D120016AB7F583004077F7880B4
:101AD00003B90804120016AB3002067F2D0200166F
:101AE000AB7F202008F77F2B2006F222920280CCC9
:101AF0007F00B40700500E2483F582E43462F5833E
:101B0000759300E0FF22286E756C6C2900D20112DB
:101B10000016613001F7C201780930D50108F602DC
:101B2000001720120016617F4960087F4310E7020A
:101B30007F5814C0E0EF1200169C743A1200169CF5
:101B4000D0E0600DC0E0C412001694D0E012001680
:101B500094D2037509040200193102010E26E493A0
:101B6000A3F85407240CC8C333C4540F4420C883BB
:101B70004004F456800146F6DFE4800C01020408BC
:101B8000102040809000012FE47E019360CCA3FFE1
:101B9000543F30E509541FFEE493A360010ECF5477
:101BA000E0B4E026E493FBA3E493FAA3E493F9A35F
:101BB000E493C083C082120011EDD082D083A309C8
:101BC000E970010ADFEADEE880BE54C025E0602B40
:101BD000408CE493A3FAE493A3F8E493A3C8C582EA
:101BE000C8CAC583CA759300F0A3759300C8C5829F
:101BF000C8CAC583CADFE3DEE1808DE493A3F8E4BD
:101C000093A34003F68001F208DFF402001B880270
:101C100000200082FF000000000200200082FF0080
:101C20000000000200200082FF00000000020020EF
:101C30000082F0002000320200200082FF0000003D
:101C4000000500200082F0002000640200200082D5
:101C5000FF000000000200200082F0002000640568
:101C600000200082FF000000000500200082FF002D
:101C700000000005002003E8FF0000000005002030
:101C800000C8FF000000000200200082F0002000D9
:101C9000640200200082F000200064020020008224
:101CA000F000200064FF0000000005000803E8F0D9
:101CB000002001F4FF0000000009021900010100EA
:101CC000E03209040000010900000007058103015A
:101CD00000FF04030904220320004D0054004B00C0
:101CE000200045006C0065006300740072006F0006
:101CF0006E006900630073000929071000320100BB
:101D0000FF000000000000000000000000000000D4
:101D100000000000000000000000000000000000C3
:101D2000000101010101010001000700080604147F
:101D3000247484940818288090A0C0900061E7EF74
:101D4000F0A3EDF0A31200141EC20EC20FC210C207
:101D500011C212E4900061F2F0900061F4F0A3F07F
:101D6000C224900061E7E0FF90005E14F0900061F3
:101D7000E8E0FEEF12005BE8EF2583F583E5822EB5
:101D8000F582E435831200588CFF7E0064017004F4
:101D9000D2118060EF64024E6004EF4E7056D21292
:101DA00090005EA2E0FFA3E090006221CFF0A3EFDD
:101DB000F090005EA4E0FFA3E090006223CFF0A3C8
:101DC000EFF07E007F0C7D007B017A5E799A120035
:101DD000161C90006221E0FFA3E090005EA2CFF00D
:101DE000A3EFF090006223E0FFA3E090005EA4CF99
:101DF000F0A3EFF07E007F107D007B017A6179FF18
:101E00001200161C900061E712005805120058FDE0
:101E1000700A7B827ABD7970020016D7900061E764
:101E200012005805120013FE80301200585F120095
:101E300011BBFF900061E8E0FE6F6028E924051205
:101E40000057F9E94A4B70030128AC1200585FE9CA
:101E50002408120057F912005BA4900061F91200E7
:101E6000141E80C61200585FE92405120057F9E9D4
:101E70004A4B70030128AC1200585FE92405120098
:101E800057F9900061F61200141EC8EEC8740108DC
:101E90008002C333D8FCFF900061E7E0FE90003180
:101EA0005012005BECEE12005813E05F70079000D8
:101EB00061EDE060283011117B017A5D79C012007C
:101EC0005AB8900061F27402F03012117B017A5E10
:101ED000791512005AB8900061F27403F01200589C
:101EE0005FE92404120057E56041120058E1120036
:101EF00011BBFF900061F6120013FE120011BB6FC0
:101F00006029E92407120057F9EA494B70030128B8
:101F1000AC900061F612005AD9120057F912005B1A
:101F2000A4900061F61200141E80B21200584512EF
:101F3000019D97900061F6120013FEE9240412003F
:101F400057F912005AB8900061F6120059C61200F3
:101F500057E5900061F2F0E490006215F0900061A6
:101F6000F2E0FF90006215E0D39F40030126CF12FC
:101F70000059BA120057E2FF7E0064077002D211C6
:101F8000301138EF64074E600FEF640C4E6009EFBC
:101F900064014E6003012699EF640C4E6017EF64F4
:101FA000014E60030120311200581C120058936446
:101FB0008045F0707CC211D212800330127312007F
:101FC00059BA120057E2FF6401600DEF640960081E
:101FD000EF640C60030126991200581C12005893FC
:101FE000FFAEF064014E6049EF64804E6043EF64E1
:101FF000024E603DEF64304E6037EF64314E603129
:10200000EF64384E602B120059BA120057E2640C8C
:10201000601F1200581C12005893FFAEF064814EEE
:10202000600FEF64824E6009EF64834E6003012607
:1020300099120059BA120011BB64806003012699FD
:102040002011030124941200585FE9240112005763
:10205000F9E94A4B70357D1F7F10FE120184E112B1
:10206000005A88EBC0E0EAC0E0E9C0E01200585F27
:1020700012005A3B120014441200585FE924011266
:102080000057F9E94A4B70030128AC1200581C2490
:1020900001120057E5600764026003012699D20F20
:1020A000E49000621DF01200581C2415120057E540
:1020B000FF6012120057EE1200127F64E045F070CC
:1020C00016D20E80121200581C240D12005895646E
:1020D000E045F07002D20E3025030126D590005362
:1020E000CEE0900061F3F0EF6046120057EEE92475
:1020F00002120057E51200581B2406120057E52F64
:10210000FFE433FE7803EFCEA2E713CE13D8F890A6
:10211000006214120057EDE92402120057E5120084
:10212000581B2406120057E52F90006219F0801505
:102130001200581C2406120057E5FF90006214128A
:10214000005C1FEFF01200581C2408120057E564D1
:102150000160030123A71200581C2409120057E54F
:102160009000621712005C1FE09000621B12005B7F
:102170002C9000621712005B3940030126999000F1
:10218000621BE02EFF90006213F0900061ECE0FE15
:10219000EFD39E4003012699120058E1900062138C
:1021A000E029120057E5FC70030123A0900062199A
:1021B000E02408FE90006218F01200581C24071258
:1021C0000057E5FDEED39D400AED540790006218DC
:1021D000F08007900062187408F09000621AECF02A
:1021E00012005C2A9000621CF012005C5B9000629E
:1021F0001812005AFBFEC39F40030123A074B42EA3
:1022000012005887FF9000621AE05F700301239963
:102210001200581C2415120057E570030122CA123F
:10222000005C2A12005AFC2F9000621EF0E490001D
:10223000621DF01200581C2415120057E5FF900093
:10224000621DE0FEC39F40030122F2120057EEEE32
:1022500012005BF32912005AE3120057E5FD9000CB
:10226000621EE0C39D4059900061FC120057CDFFF3
:102270009000621EE0D39F5047120057EE9000621C
:102280001DE0FF12005989FD9000621FE5F0F0A3E8
:10229000ED120057EDEF75F004A429120058C52483
:1022A00002120057E5FF9000621EE0C39FFF12007C
:1022B00057EE9000621D12005988FDCEEDCE802CA5
:1022C0009000621DE004F00122331200581C240D1E
:1022D00012005895FFAEF09000621FEEF0A3EFF0F1
:1022E00090006216E0FE9000621CE02E2F900061CC
:1022F000EEF09000621FE07004A3E064E0702E90A6
:102300000061FF12005AFBFE12005885FDEF4D9050
:102310000061FFF0900053CEE04DF074B42E120037
:102320005887FF900061F3E05F7047804190006143
:10233000EEE0120059CEF583C083C0821200587AB5
:10234000FCEE4C759300D082D0831200585EE924D5
:1023500001120057F912005A3B7E00E92FF9EE12E4
:102360000057E7FF74B42D120058875F7004120005
:1023700028AD9000621A12005AFB12005885F4FE34
:10238000EF5E9000621AF07010120058E190006247
:1023900013E029120059F1800712005BFB0121EDC7
:1023A00012005C030121711200581C24081200570E
:1023B000E5640860030126991200581C24061200E7
:1023C00057E59000621312005B2C1200581C240980
:1023D000120057E512005B3A4003012699EEFFA375
:1023E000E02FFFE433FE900061ECE0FDD3EF9D743D
:1023F00080F86E98400301269990006212E0FFA3D6
:10240000E02FFFE433FE120058E112005949FF901B
:1024100000621AF0E4120011EDEF64017004D210B2
:10242000805D9000621AE060561200581C240D1264
:10243000005895FF9000621AE02F900061EEF012B4
:102440000059CEF583C083C0821200587AFCEE4C4E
:10245000759300D082D0831200585EE924011200E7
:1024600057F912005A3B7E00E92FF9EE120057E7A8
:10247000FF74B42D120058875F7004120028AD124B
:1024800000584512019D9730250301269912005CE2
:10249000030123CA201203012699E4900061F4F09D
:1024A000A3F01200581C2401120057E5FF640260DB
:1024B00014EF6406600FEF6460600AEF6007644029
:1024C0006003012660120059BA120057E2640970D5
:1024D00011D224120058D11200FCA490005E9A017F
:1024E0002568D2241200581C12005893FFE5F060B2
:1024F000030125CCEF24CF603514606024FA605CC2
:1025000024B8606C245060030125CC1200581C24B0
:1025100008120057E5120058CC1200FCA490005E8F
:102520009CEEF0A3EFF07B017A5E799C8021120093
:10253000581C2408120057E5120058CC1200FCA4C5
:1025400090005E9EEEF0A3EFF07B017A5E799E90A4
:10255000005E9AE0FD1201A2F201267D120058D120
:102560001200FCA490005EA0EEF0A3EFF001267D27
:10257000120058E1120059B2120028C190006221E5
:10258000EE807790006221E0FCA3E0FD4C70251204
:1025900000581C240C120057E5700301267D9000A2
:1025A0005E99E0440412005C35E490005EA2F0A362
:1025B000F001267D90005EA212005C3C4404F01203
:1025C00000581C240C1200597001267D120058E19D
:1025D000120059B2120028C190006223EEF0A3EF5E
:1025E000F0120059BA120057E264017013900062B1
:1025F00023E0FFA3E090006221CFF0A3EFF08083FF
:1026000090006223E0FCA3E0FD4C70231200581CF4
:10261000240B120057E5602E90005E99E0440812EA
:10262000005C35D224E490005EA4F0A3F080179003
:10263000005EA412005C3C4408F01200581C240BFD
:1026400012005970D2241200581C2401120057E5C0
:102650006460702990005EA4E07002A3E0601E2216
:102660001200581C2401120057E570111200581C6A
:1026700012005893640145F070030125CC9000616D
:10268000F4E07002A3E060030124E2120058451256
:10269000019D973025030128AC1200584512019D79
:1026A000972025211200581C2419120057F9EA49D5
:1026B0004B60121200581C2419120057F912005BCB
:1026C000A412005AB890006215E004F0011F5D30BA
:1026D00010030128AC200F030128AC1200585FE959
:1026E0002401120057F9120011BBFF900061FFE0B6
:1026F0006F700301278D200E0301278DEF60781284
:10270000005C5B12005A25506E1200585FE92401EC
:10271000120057F9120011BBFE74B42F1200588733
:10272000FF5E603C900061FFE05F703490006216D5
:10273000E01200588512005C4E90005527E014F01E
:10274000900053CE12005AFBFE12005885F4FDEFA4
:102750005D900053CEF0EE24E0FD7F011200AF3417
:102760001200585FE92401120057F9120011BB60F2
:102770000612005BFB808C900061FFE0FF120058A6
:102780005FE92401120057F9EF120011ED9000618A
:10279000EF740F12005B31900061EF12005B394063
:1027A000030128AC1200585FE92401120057F91206
:1027B000005A3BEE7E0029F9EE120057E7FF700346
:1027C00001287C90006212E0120059E71200588C38
:1027D0006F700301287C12005C5B12005A254003D5
:1027E00001287C1200585FE92401120057F91200F9
:1027F0005A3B90006212E0FE7C0029F9EC1200576F
:10280000E7FD74B42F12005887FF5D605274002EEC
:10281000F582E434621200588C5F70431200585FF6
:10282000E92401120057F912005A3B90006212E0AD
:10283000FF29F9EC120057E7900062161200588247
:1028400012005C4EEF33333354F82D04900061EEE8
:10285000F0FD90005527E014F07F011200AF341214
:1028600000585FE92401120057F912005A3B120088
:102870005C624F600712005BFB0127DA9000621276
:10288000120059E51200588CFE1200585FE924012D
:10289000120057F912005A3BEF7C0029F9EC3AFA82
:1028A000EE120011ED12005C0301279722900055F3
:1028B00027E004F0900061EEE0FDE4FF1200AF3489
:1028C00022900063101200141E7B017A6179F412C9
:1028D000005C8122900062D9EFF0A3ECF0A3ED122E
:1028E0000051A7E4900062DFF0A374FFF0E49000D1
:1028F00062E2F0A3F012004E88FF900062EF120037
:102900004FDBE9240112004C4C24FC7003012A1512
:10291000147003012BD424E47003012B94241F6052
:1029200003012FA7900062DC120013FEE92FF9EAE1
:102930003EFA900062E61200141EE9240412004CD4
:102940004CFEC3940640097406120011ED7F00226C
:10295000900062D91200511312004B64E04E75933F
:1029600000F0120050CD12004B64E0701D120050B8
:102970009C240512004C4C120050A69000314D12C0
:10298000004C76EE12004B69EFF01200509C2405CB
:1029900012004C4C120050A69000314F12004CB661
:1029A000EE12004B69E0FDEFD39D400F9000314FD8
:1029B00012004C82EE12004B69EFF01200509C2482
:1029C0000812004C4CD3943240067432120011EDC0
:1029D0007E007F04EEC0E0EFC0E0900062E61200EF
:1029E0004C454480FD900062D9E075F0EAA424CC07
:1029F000F9740835F0FA7B01D0E0FFD0E0FE120058
:102A0000161C900062E612004C4512004E99900090
:102A10003170012B8612004E88900062E912004F3F
:102A2000DBE9240212004C4CC3940640037F0022D1
:102A300012004EFC240312004C4C700B900062DF1D
:102A4000F0A3E004F0800A900062E0E0B4FF02E44A
:102A5000F012004EFC240512004C4CFF70211200B5
:102A60004DE212004B64E0FE900062E0E0FD1200D7
:102A70004C9912004F262D12004B82EEF0802A1244
:102A8000004F2E9000315212004B73EFF0ED120008
:102A90004C36ED12004B69E0700F75F078ED1200C6
:102AA0004C39ED12004B69EFF012004EFC2403127A
:102AB000004C4CFF12004F2E75F0789000317112CF
:102AC000004B76E0FCEFD39C400E75F078ED900063
:102AD000317112004B76EFF012004EFC240612000A
:102AE0004C4CFF900062E0E0FE75F078ED90003114
:102AF0005812004B76EFF0900062E912004C4590BE
:102B000000316412004B71EFF012004EFC240412ED
:102B1000004C4C9000317712004B71E0FEEFD39ED9
:102B2000401112004F2E75F0789000317712004B53
:102B300076EFF0900062E912004C456401600301F9
:102B40002FA7900062D91200505D12004B64E04440
:102B500001120051CB5430601590005FF212005109
:102B6000D29000325912004B64EEF0012FA7900072
:102B70005528E02481F582E4345212004E0D1200F3
:102B80004E9990003259120013F2EE12004B69EF89
:102B9000F0012FA712004E8829F9EA3EFAE924072E
:102BA00012004E331201AFB212004F349000320FB8
:102BB00012004CBFED2583F583C083C08212004E06
:102BC000B2D082D08375F002120013F2EEF0A3EFC0
:102BD000F0012FA7900062DFE0D394064003012F9D
:102BE0009D12004E8829F9EA3EFA900062EC12002C
:102BF000141EC238E4900062E1F0900062DFE0FF52
:102C0000900062E1E0FEC39F505E12004E5A240223
:102C100012004C4C547FFF12004F3412004BDAED7F
:102C20002583F583C083C082120050ADD082D0834B
:102C300012004E7375930012004B7FE0547F6F704B
:102C40001E900062D9E0FF9000317112004CCB124F
:102C5000004F262D12004B82E0600DD23880099083
:102C60000062E1E004F0809212004E5A2404120047
:102C70004E331201AFB2900062E4EEF0A3EFF09099
:102C80000062E0E012004E9912004C9DEE12004FDF
:102C9000272F12004B82E06401704712004C35EE82
:102CA00012004B69E06401600C12004C35EE12001A
:102CB0004B697401F0D3900062E5E094C09000622B
:102CC000E4E09400401CE4F0A374C0F0FF7E001226
:102CD00001AFB212004E5A1200500CEE8FF01200EB
:102CE00012A3203803012E6712004BC0EE2583F596
:102CF00083C083C082120050ADD082D08312004EB8
:102D000073C083C08212005035D082D083258212D6
:102D1000004B82E06F7003012DEF12004C35EE1274
:102D2000004B69E064037003012F6112004E5A24C6
:102D30000212004C4C120050A612004BDAEE1200A8
:102D40004B691200511DC083C08212005035D082E1
:102D5000D083258212004B8212004BE5EE12004B0D
:102D6000691200511DC083C082900062E1E0FE75CF
:102D70009300D082D083258212004B8212004DE056
:102D800012004B64E0B4092012004E14C083C082CC
:102D900012004EB2D082D08312004E73759300128F
:102DA000004B7F74F0F0802D12004B9BEE2583F5D5
:102DB00083C083C08212004EB2D082D08312004EF4
:102DC00073C083C08212005035D082D08325821216
:102DD000004B82EFF012004E5A240312004C4C5468
:102DE00003C43354E012004E99900031C5805490D2
:102DF0000062D9E0900031A112004D02EF2583F569
:102E000083C083C08212004EB2D082D08312004EA3
:102E100073C083C08212005035D082D083258212C5
:102E2000004B82E0FF900062E4E0FCA3E0FDD39F52
:102E3000EC94005003012F61CFEDCF12004E9A9019
:102E40000031A1120013F2EE2583F583C083C08206
:102E500012004EB2D082D08312004E73C083C08263
:102E6000900062E1012F5112004BC0EE2583F583E3
:102E7000C083C082120050ADD082D08312004E7346
:102E8000C083C082900062DFE0759300D082D0835F
:102E9000258212004B8212004BE5EE12004B6912A4
:102EA00000511DC083C082900062DFE0FE75930078
:102EB000D082D083258212004B8212004DE0120096
:102EC0004B64E0B4092012004E14C083C08212008B
:102ED0004EB2D082D08312004E7375930012004B15
:102EE0007F74FFF0803112004B9BEE2583F583C089
:102EF00083C08212004EB2D082D08312004E73C0C3
:102F000083C082900062DFE0759300D082D0832579
:102F10008212004B82EFF012004E5A240312004C32
:102F20004C5403C43354E0120050A6FE900031C547
:102F300012004D19EE2583F583C083C08212004E26
:102F4000B2D082D08312004E73C083C082900062E0
:102F5000DFE0759300D082D083258212004B82EF90
:102F6000F012004EFC240512004C4CB4092F120044
:102F70004E5A2406F9E43AFA74FA120011ED1200DE
:102F80004E5A240212004C4C547F120050A690005E
:102F9000327812004D31EE12004B69EFF020380705
:102FA000900062DFE004F0900062EF120013FE1266
:102FB0000011BBFF900062E2E48FF01200126990F2
:102FC0000062DAE0FEA3E0FFC3900062E3E09F90BE
:102FD0000062E2E09E50030128F57F0122120014F6
:102FE0001EA2AF9229C2AF22900066027402F07F47
:102FF0000422900066027401F0E4FF22FFFFFFFF4D
:10300000900062B7EFF0A3EDF0C223E4900062C33A
:10301000F0A3F0900062D704F0900062CB12005A47
:10302000CB12005C6975F078900032651200580E82
:10303000120013FE900062C51200141E1200142725
:10304000900062BC1200141E120057BE240A120027
:103050005895FF900062BFE5F0F0A3EFF012005B1F
:103060001A1200594BFF540304900062B9F0FDC3DB
:10307000900062C0E09D900062BFE09400500301A8
:103080003AF1C222EF54FC900062BAF0E4FFEFC3C1
:10309000940D748094805018EF90001D2E93FE9034
:1030A0000062BAE0FDEE6D7004D22280030F80DE74
:1030B000202224900062B9E012005B03C3900062FA
:1030C000C0E09FFF900062BFE09EFEF0A3EFF04ED5
:1030D0007003013AE3808612005B1A1200594BFF1D
:1030E000540CFECDEECDEF54F0900062BAF090009B
:1030F00062B9E0FF7E00C3940274809480500AE4B9
:10310000900062C1F0A3F08044EF64024E700A1296
:1031100000593112005B448034900062B9E0D394CE
:10312000027480948040261200593112005B449052
:103130000062BC120013FE900062C4E02402120080
:103140005940900062C175F00012001269CFEDCFB6
:10315000EF24FC700301380324FC7003013981243F
:10316000086003013AB1900062BAE0FF2470601574
:1031700024F0700301375124E0700301378A2440A2
:103180006003013AB1120057BE241C120057E5FE3D
:10319000120057BE241D120057E58EF0A4FEEF6406
:1031A00080700B120057BE12005BC2EE800CCFEE97
:1031B000CF120057BE12005B61EF120011D1120056
:1031C00057BE2409120057E554016003013711125C
:1031D000005C69900062BAE0FD900062C1E0FAA371
:1031E000E0FB12010CE6EF700301371112005801E9
:1031F000120058FD70307D20FE12003B2112005A53
:10320000881200580112005AEB9000326C120058DC
:103210000E120058FD70097B827ABD797D0133CE94
:1032200012005801804012005A33120011BBFF9067
:103230000062B8E06F60447D217E0012003B2112E5
:103240000058E97003013AB112005A60EBC0E0EA9D
:10325000C0E0E9C0E012005A33E912005B611200DD
:103260001444900062D4120013FE900062CE12004B
:10327000141E900062B8E0120011ED12005A33E9FA
:103280002405120057F9E94A4B600301330E7D22F1
:10329000FE12003B2812005A88EBC0E0EAC0E0E9C9
:1032A000C0E012005A33E92405F9E43AFA12001496
:1032B0004412005A33E92405120057F9E94A4B70C9
:1032C00003013AB112005A33E92405120057F9906C
:1032D0000062CB1200141E120057BE2413120057B6
:1032E000E512005B68EF120011ED120057BE240ECC
:1032F00012005895FF1200589D120057BE2410125C
:10330000005895FF1200599712005C70806A1200F5
:1033100057BE2413120057E512005B68120011BB60
:103320006F605A7D237E0012003B28120058E9701E
:10333000097B827ABD798E0133CE12005A33E9249B
:10334000041200597012005A60EBC0E0EAC0E0E9D4
:10335000C0E01200599712005BC912001444120019
:103360005A60900062CB1200141E120057BE241344
:10337000120057E512005B68EF120011ED12005CBD
:103380000B900062C5700612005BE0800412005AC8
:1033900095120057E5FF900062C8E4F0A3EFF01229
:1033A0000057BE241D120057E5900062CAF090003D
:1033B00062D7E070030134427D247F1C7E0012013D
:1033C00084E1120058E9700D7B827ABD799F12006A
:1033D00016D7013AB1120059972404120057F9E99F
:1033E0004A4B702D12005A60900062D11200141ED8
:1033F000900062D1120013FEEBC0E0EAC0E0E9C029
:10340000E0120059972404F9E43AFA1200144480B7
:10341000311200599724011200597012005A60EBC2
:10342000C0E0EAC0E0E9C0E012005A432419F9E420
:103430003AFA1200144412005A60900062D112004D
:10344000141E120057BE24AE120057E5FFD312001F
:103450005AC450030136B8120057BE241412005843
:1034600095640C45F06010120057BE240E120058EF
:1034700095640C45F07064EF12003AF2EBC0E0EA9C
:10348000C0E0E9C0E012005A432416F9E43AFA1207
:10349000001444900062D1120057F2EA494B603B9D
:1034A000120057BE24AE120057E512005BF3120063
:1034B00057BE12005A68EBC0E0EAC0E0E9C0E090F5
:1034C0000062D1120057F212005B57D0E0F9D0E051
:1034D000FAD0E0FB1200113D013570120057BE24F6
:1034E000B0120057E5900062BBF0120057BE241CDA
:1034F000120057E56401600E120057BE241D120031
:1035000057E56401707B120057BE24AE120057E5E8
:1035100012003AF2EBC0E0EAC0E0E9C0E012005A63
:10352000432416F9E43AFA12001444900062D112CE
:103530000057F2EA494B6038120057BE24AE120021
:1035400057E512005BF3120057BE12005A68EBC039
:10355000E0EAC0E0E9C0E0900062D1120057F21248
:10356000005B57D0E0F9D0E0FAD0E0FB1200113D4B
:1035700012005905120057BE24AE120057E501375C
:103580000D120057BE24AE120057E5FF900062BB3B
:10359000E0C39F4003013711120057BE241C1200E4
:1035A00057E5FF7E00120057BE241D120057E5901C
:1035B0000062D8F07401120011ED120057BE24AE63
:1035C000120057E5C39401FD900062BBE06D6041BD
:1035D00012005C0B701A120057BE2405120057E54A
:1035E000CCEFCC2CFD120057BE12005BC2ED801D4B
:1035F000900062BAE064907018120057BE2407125F
:103600000057E52F120057BD12005B61EF12001149
:10361000ED12005905E412003B08900062BAE0FF89
:103620007E0064807027120057BE2406120057E502
:10363000FD120057BE2405120059FC900062C8A379
:10364000E0FD120057BE12005BC2ED8029EF6490CE
:103650004E7027120057BE2408120057E51200577B
:10366000BD2407120058A8900062C8A3E0120057BA
:10367000BD12005B61EF120011ED900062D8E01204
:103680000057BD241D120058A8120057BE24B012C6
:10369000005970120057BE24AE120057E5120057B1
:1036A000BD24B0120057E5C39F50030133AE120092
:1036B00057BE120059EF8059120057BE241E120047
:1036C0005895FF12005A431200597A120057BE242F
:1036D0001C120057E56401602F120057BE241D1212
:1036E0000057E5FFD312005AC4401D120057BE24F4
:1036F0000E12005895640C45F0700D120057BE2450
:10370000AE120058A80134DB12005905E412003B48
:103710000812005C0B900062C5701012005BE01292
:103720000057E5120057BD2405800E12005A95126D
:103730000057E5120057BD2407120058A87E007FED
:10374000937D00120057BE12005A681200161C80AA
:1037500022120057BE2409120057E544041200113A
:10376000ED120057BE241212005970120057BE12FB
:103770000059EF120057BE2410120058951200573E
:10378000BD12005A68E5F0013A37120057BE241204
:10379000F9E43AFA12005C36120011BB705E1200B6
:1037A00057BE2409120057E554FA120011ED7E00AD
:1037B0007F0B7D00120057BE2413F9E43AFA120081
:1037C000161C7E007F937D00120057BE12005A68BF
:1037D0001200161C120057BE2405120059F11200E7
:1037E00057BE2406120059F1120057BE24071200DA
:1037F00059F1120057BE2408120059F1900062D707
:1038000001393A120057BE2409120057E5540160ED
:1038100003013AB1900062BAE0440424FC70030151
:1038200038B924F0700301395D24F0700301396F59
:1038300024B0700301394C24E07003013940241096
:103840006003013AB1900062D77401F012005C6924
:1038500075F078900032681200580E120013FE12B4
:103860000011BB12005B4FFDCEEDCE541F4F120076
:1038700011ED12005B50120057BD2413120058A81E
:10388000120057BE2405F9E43AFA7408120011D167
:10389000120057BE12005BC27408120011D1120050
:1038A00057BE12005BC97408120011ED120057BE1A
:1038B00012005B617408013AAD120057BE24091270
:1038C0000057E530E21512005B11120057BD2414B9
:1038D000F9E43AFAEE12005982802112005B1112CB
:1038E0000057BD240EF9E43AFAEE12005982900016
:1038F00062CB120058FD60041200589D900062C116
:10390000E07004A3E0640C6003013AB1900062B877
:10391000E0FF900062B7E09000316412005A6F122D
:10392000005BAC1200588C6003013AB1EE12005BF0
:10393000E812005BACF5837593007401F0013AB1B5
:1039400012005B50120057BD241D800A12005B500C
:10395000120057BD241C120058A8013AB112005B96
:1039600011120057BD2418F9E43AFAEE013A371261
:10397000005B11120057BD241AF9E43AFAEE013A3D
:1039800037120057BE2409120057E5FF54016003A7
:10399000013AB1900062BAE0440824E87003013AA9
:1039A0003B24F07003013A5824206003013AB1EF40
:1039B000900062C130E263E0FCA3E0120057A51260
:1039C0000058C412005A68EC8DF0120012A3900047
:1039D00062C1E0FCA3E0120057A5120058C4120017
:1039E0005A68EC8DF0120012A31200579212005880
:1039F000C4120059FA12005792120058C42421121E
:103A00000059FC120057BE1200596E120057BE2416
:103A1000AEF9E43AFA7401013AADE0FEA3E0FFCD5D
:103A2000EFCD120059972403120059FC120057BE23
:103A30002410F9E43AFAEE8FF08017900062C1E0AA
:103A4000FCA3E0120057A5120058C412005A68ECFB
:103A50008DF0120012A3805912005792120058C420
:103A6000120059FA120057A6120058C4241E120060
:103A7000589512005B4FFDCEEDCEC39F120057BD8F
:103A800024AFF9E43AFAEF120011D1120057A11253
:103A90000058C42421120059FC120057BE120059CC
:103AA0006E120057BE24AEF9E43AFA740112001106
:103AB000D1900062B9E0F912005B03900062BFE0B0
:103AC000FCA3E0FDC39FEC9E4011E9FFED9FFFECDE
:103AD0009E900062BFF0A3EFF08008E4900062BF08
:103AE000F0A3F0900062BFE07002A3E06003013039
:103AF0005D2275F004A4FFAEF07D25120184E1CAB9
:103B0000EECAC9EFC97B01229000638EF09000627B
:103B1000C1E0FAA3E0FB1200C5C6900062D7EFF047
:103B2000227F0B120184E1227F0A120184E122E448
:103B30009000651AF0C23C900047F0E0700412015A
:103B4000B0A1900042EAE090006514F0E0FD900022
:103B5000321F120077C7ED120076BCE090006515A9
:103B6000F0C39412A3F0ED1200774CED120076BC76
:103B7000E020E70301439F120076AAE070030143AF
:103B80009F120076AAE0120014983BAF013BDE02C0
:103B90003CA9033D0D043F76053FD90640A50740EB
:103BA000C408419C0941B40A423F0B000042CC12B8
:103BB0000076AA7402F075F078EF9000325412008B
:103BC00076B77401F012007962120197F012007753
:103BD000159000310E120076B7E4F00142CC1200CD
:103BE00076E6120079076003013C6990006514E0F5
:103BF000FD9000322C12007803ED120076BCE054E8
:103C00008090006517F090003232120077C6ED12F6
:103C10000076BCE0FEA3E04E603A90006517E0B489
:103C20008008120076AA74038030120076AA740508
:103C300012007873120076B7E0640D6003013B81D7
:103C4000D23C120077159000323C120076B7740215
:103C5000F00142CC120076AA7407120079B5120066
:103C600076B7E4F0A3F0013B81120078CF640370D3
:103C700003013EF1EFB40703013EF19000651AE045
:103C8000640B60030142CC120076AA740C12007817
:103C900073120076B7E0640D60030142CC12007726
:103CA000151200784CEF013F2B90006515E0FF12D4
:103CB00000772DE0FCA3E0FD90002DBB120077897A
:103CC00012007A6AFFEE9CFE90006518F0A3EFF0F8
:103CD00090006515E090002DB51200778AE0FCA3F6
:103CE000E0FDC39FEC9E500990006518ECF0A3ED39
:103CF000F012007888120079EBE490006450F01222
:103D00000117CC120076AA7404F00142CC1200769E
:103D1000E6E09000651AF09000651AE06402600326
:103D2000013EB090006515E0FEC39412A3F0EE12C0
:103D300000772D1200795D75F01112007818E0FA05
:103D4000A3E0C39FFFEA9E90006518F0A3EFF07513
:103D5000F011ED120077B1E0FEA3120078589E40FA
:103D600005EEF0A3EFF0120077159000310E12006F
:103D700076B712007872120076B7E0640D706C901E
:103D8000006518E0FEA3E0FF90006514E0FD9000E0
:103D9000324412007A00ED120076BCEEF0A3EFF090
:103DA000E490006517F0120078549400402A120045
:103DB0007A711200782A120076D7FE90006515E01D
:103DC00075F01112007986120013FEE92FF9E43A1A
:103DD000FAEE12007A0780CE120077159000323C7E
:103DE000120076B77403F0D23C804FE49000651760
:103DF000F0120078549400404112007A7112007859
:103E0000D7120076D7FC120079621200772DE0FA03
:103E1000A3E0FBEFF582758300EB2582FFE5833A93
:103E2000FE75F011ED12007986120013FEE92FF9EC
:103E3000EA3EFAEC12007A0780B79000651812008B
:103E4000795D1200772DEE8FF01200126975F01176
:103E5000ED12007818E0FEA3E0FF75F011ED1200FE
:103E60007730E0FCA3E0C39FEC9E502C1200771546
:103E70009000310F120076B7E0FD120077A9E0FA4A
:103E8000A3E0C39DEA9400500675F078EF800D1210
:103E90000076AA7403F0800F120077159000322B81
:103EA000120076B77409F0303C030142CC013B812B
:103EB000120078CF6403703590006514E0900031F3
:103EC0000E120077B9EE120076BCE004F0D3940332
:103ED000400C75F078EE1200770DEE0142221200D0
:103EE0007704EE120076BC7403F0013B81EFB40757
:103EF0000C120078881200770AEF01422212007833
:103F0000CF640B702F12007704EE120076BC740C95
:103F1000F012007791EE120076BCE0640D600301B0
:103F200042CC12007A7B1200784CEE120076BC7400
:103F30000C01405DEF6404702B120077A9E0FEA332
:103F4000E04E60069000651A8026120076AA74037F
:103F5000120079B5120076B7120079695003013B5F
:103F6000810141589000651AE0640C60030142CC65
:103F70007402F0013D1712007715900032341200E0
:103F800076B7E0B40D1775F078EF90003244120068
:103F900076B7E0FFA3E090006518CF80229000651F
:103FA00015E0FF1200772DE0FCA3E0FD75F011EFA6
:103FB0001200781812007A6AFFEE9C90006518F0E3
:103FC000A3EFF012007888120079EB1200EE0A12CB
:103FD0000076AA7406F00142CC120076E61200794F
:103FE00007600301407590006515E090002DBD123B
:103FF00000771FEC8DF01200126990006515E090BB
:10400000002DBB1200771F12007A6AEE9C12007717
:10401000159000322B5009120076B77405F0800716
:10402000120076B77407F012007715900032341240
:104030000076B7E0640D6003013B8175F078EF9086
:1040400000322B120076B7E0B4051890006514E03A
:1040500075F0789000323C120076B77407F0D23CCD
:104060000142CC120077159000323C120076B774F2
:1040700008F0013B81120078CFB40B0301412DEF12
:10408000B4040A120076AA7405F0013B8190006521
:104090001AE0640760030142CC12007888120077AE
:1040A0000AEF01422212007888A3E0FD90006450DC
:1040B0007401F0E4FBFA120117CC120076AA74081E
:1040C000F00142CC120076E612007907701E120051
:1040D000771590003234120076B7E0B40D0B120061
:1040E00079D0120076B77408F0014192120078CFAF
:1040F00064076004EFB4030C120078881200770A9A
:10410000EF014222120078CF640B703012007A7BEC
:1041100012007795EE120076BCE0B40D10900032DC
:104120003C1200777DEE120076BC740CF012007722
:1041300004EE120076BC740CF00142CCEF64047003
:104140002A120076AA7407120079B5120076B71207
:104150000079695003013B811200771590003229E4
:10416000120076B7E4F0A3F0013F059000651AE075
:10417000640C60030142CC120077159000323412B7
:104180000076B7E0B40D0B120079D0120076B77448
:1041900008F0120076AA740DF00142CC1200788863
:1041A000A3E0FDE4FBFA1200EE0A120076AA740AFC
:1041B000F00142CC120076E6120079077028120056
:1041C00076AA740D12007873120076B7E0640D6061
:1041D000030142CC120077159000323C120076B7F2
:1041E0007414F00142CC120078CFB40407120077A7
:1041F00004EE8041EF6407600C9000651AE06403F0
:1042000060030142CC120077159000310E12007647
:10421000B7E004F0D39403401375F078EF12007701
:104220000DEF120076BC740BF0013B811200788810
:104230001200770AEF120076BC7409F0013B81127C
:1042400000771590003107120076B7E020E71F9045
:10425000006514E090003228120078FFEE1200761C
:10426000BCE4F075F078EE1200770DEE805775F033
:1042700078EF90003228120076B7E004F0D3940271
:10428000502E120076AA7401F090005DBCE0FD9003
:10429000006515E0FB9000640CEFF0A37401F0A33F
:1042A00074F4F0A37401F0A374F4F0E4FF01439BF1
:1042B0001200771590003228120076B7120079BFED
:1042C0001200770DEF120076BC740EF0120076AA81
:1042D000E0FF640D600DEF640E6008EF640C600396
:1042E0000143911200771590003228120076B71220
:1042F0000079BF90003254120076B7120078721223
:104300000076B7E024F7601814603424FE6041148E
:10431000604F24FE606824077077900030DC8034A2
:10432000120077159000321E120076B7E0FB900065
:104330005B5CE0FD9000640CEF12007772801A1253
:1043400000771590003238120076B7E06043803D68
:1043500090002F7212007767FB7F0412010BA6807A
:1043600030120076AAE0640D600B120079D01200C2
:1043700076B7740CF012007763FB7F04801D120087
:10438000771590003238120076B7E060041201B061
:1043900046303C0B12007763FB7F0412010BA62210
:1043A000D230E4900063D1F0120098AA24AEF582D6
:1043B000E434121200968E7837120098A924AFF5D3
:1043C00082E434121200968E7834120098A924B038
:1043D000F582E434121200968E7835120098A924E2
:1043E000B1F582E434121200968E7836F618E6FFA4
:1043F0005470FEC4540F7838F6EF540708F678442A
:1044000006E6C394404002E4F67837E6FFC394041E
:104410004003014B4C7834E620E703014928783803
:10442000E69000085912009773E020E7030149283D
:104430001200977B1200968E30E20718E6FF1201F9
:10444000AAD67835E65407600301451608E620E051
:10445000030144F608E6FF08E6FE75F0EA9000085E
:10446000FC1200968260589000322B120098DC12E9
:10447000009717FD64096015ED640A601090003222
:104480003C120098DC1200971764147032120098E6
:10449000B612009682C394A05016120098B2120071
:1044A000968204F07844E67003763F227844162220
:1044B000120098B21200972A2F12009785E4F0128A
:1044C000009816120096FFE6FD08E6900063E1F002
:1044D00008E6A3F0A37401F012015CA5120098167F
:1044E000120096FF12016F4C7838E6FF18E6FD12B5
:1044F000007AB10149367835E6783730E30CE6FFCB
:1045000008E6FD1201528D014936E6FF08E6FD126C
:10451000015D470149367835E620E3030147FA1289
:10452000009707B4091318E6FBCDEBCDE4900065C6
:1045300087F012013F930149367838E66401600341
:1045400001463808E6640170637837E6FA1200978E
:10455000AF12009719FE90004E7EE0FD5E600301F1
:10456000460DE6FC2475F582E4344E12009719FBE3
:10457000747A2CF582E4344E120097196B6023EDA7
:104580004E90004E7EF090004D4512009962EAF088
:10459000E4A3F0A3F0A3F0A3F0FB7F0312010BA6AA
:1045A000806B7837E6FF1201A49780617839E6FFC7
:1045B00064026008EF640360030149367837E6FF60
:1045C000120097AF12009719FE90004E8CE0FD5E2E
:1045D000703B74832FF582E4344E12009719FF90DC
:1045E000004E8BE06F6026E6FCED4E90004E8CF0A6
:1045F00090004E7912009962ECF0A3E4F0A304F06D
:10460000A3E4F0A304F0E4FBFF12010BA67839E663
:1046100024E1F582E43461F583C083C082759300A0
:10462000E0FF7837E69000000393FEEF4E759300AD
:10463000D082D083F00149367839E6FF18E6FE12C1
:104640000098C0120096825460646060030149368D
:10465000120098BF12009682540F783AF6E6FF9047
:10466000002F7C120098EEE0900063D1F09000558E
:1046700028E0FE783766600301474775F016EF12B1
:104680000097DCC083C082E0FD74B82EF582E4346C
:104690005D12009719F4FEED5E759300D082D08311
:1046A000F090002F81120098EDE0FF783AE6FE7559
:1046B000F01690002F82120013F2E06F601090004D
:1046C0005528E07838120098CCEE12004B4D783720
:1046D000E6FF08E675F0EA9000089E12009682FD5B
:1046E0007C0008E6FBC8EBC87E007401088005C3A7
:1046F00033CE33CED8F9FFEE5CFEEF5D4E600301A2
:1047000049367837E6FF08E6FD75F0EA9000089E26
:1047100012009682FEC8EBC87401088002C333D829
:10472000FC4EF0120151D87838E6FF18E6FD7839D2
:10473000120097AE12009719FB900066107401F0FA
:10474000120180B9014936900063D1E0FF7838E664
:10475000FE90003164120097A6120098471200974D
:1047600019640170030147EC9000550BE020E6034B
:10477000014936783AE6FF120097D9C083C082E03B
:10478000FE7837E624B8F582E4345D12009719F418
:10479000FDEE5D759300D082D083F0900063D9E088
:1047A000FE90002F87120098EDE5822EF582E43509
:1047B0008312009719FF783AE6FC75F01690002FE7
:1047C00083120013F2E5822EF582E43583120097FE
:1047D000196F7003014936900063D9E0FF7838E61D
:1047E000FD08E6FBEC12004B4D0149369000550BDD
:1047F000E020E50301493601477312009707640979
:10480000700301493608E6FEEF120098C0120097C7
:104810002A2E120096895460646060030149149046
:10482000005528E0FF7837E6FD6F600301491475F5
:10483000F0C0ED1200983F08E6FF75930075F01880
:1048400012009855900063D21200141E120011BB82
:10485000900063D8F0900063D3E475F00212001268
:104860006975F0EAEF900008B71200972A2E12003F
:104870009689540F783AF6E675F048A4249CF974AA
:1048800001900063D512009969E4900063D9F0901B
:104890000063D8E0FFA3E0FEC39F502D900063D2D9
:1048A000120013FEE92EF9E4120097C7FF9000638F
:1048B000D5120013FEE92EF9E43AFAEF120011EDD9
:1048C000900063D9E004F080C6783AE675F048A419
:1048D0002494F97401900063DA12009969900063DE
:1048E000D8E0FF12009805EF120098F52405F9E4CE
:1048F000120097C754FC120098F52401F9E4120045
:1049000097C74408120011EDE6FDE4FB7F01120198
:104910007CB1D23030301F120098C8900066A77466
:1049200020F0120170C4800E7834E630E7081200DF
:1049300098C81201A2907834E620E303014A59C2D4
:10494000E97837E6FF14601314601914601F24031C
:10495000702275A6987835A6A7801975AE98783517
:10496000A6AF801075B6987835A6B7800775BE9843
:104970007835A6BFD2E97835E630E403014A221241
:1049800000977B1200968E20E003014A227837E6DA
:10499000120097D01200968E54EE1200977A1200F1
:1049A000968E4402F0E6FF08E675F0EA900008BF34
:1049B000120096825401F07D011201A7767837E645
:1049C000FF1200FF5A7837E6FF7B08E4FD1200DE95
:1049D000097837E6FF7B01E4FD1201B1947837E6F0
:1049E000FF7D0112018B7C900053E4E020E66AE435
:1049F000900063D9F0900063D9E0FFC39404501491
:104A00001200977B1200968E20E009900063D9E097
:104A100004F080E1900063D9E0C39404403BC218E5
:104A200080377835E630E4317837E6120097D012D7
:104A300000968E20E0231200977B1200968E440190
:104A4000F0E4FD1201A7767837E6FDE4FF120123BA
:104A5000EB7837E6FF1201AF1D7834E630E21A78C2
:104A600037E6FFE4FD12015A0F7837E6FF1201AD79
:104A7000017837E6FF12015E877834E630E4087883
:104A800037E6FF1201A25F7834E620E503014B4CC4
:104A90007837E6FF701275A699783BA6A7E6442002
:104AA000F6F5A775A699803EEFB4011275AE997818
:104AB0003BA6AFE64420F6F5AF75AE99802878376F
:104AC000E6B4021275B699783BA6B7E64420F6F52F
:104AD000B775B699801075BE99783BA6BFE644209D
:104AE000F6F5BF75BE997837E6FF1200988612007A
:104AF000971970279000528012009962EFF012000F
:104B0000992F1200992FE4FBFF12010BA6EF04FF6F
:104B1000120098831200987CF0802912009883126A
:104B2000009719C39401FFE49400FE900042F575CC
:104B3000F009EF120013F2EE75F009A41200976766
:104B4000120099307837E6FF1201A86022900066C3
:104B500087F0120125EE2290006621E0FF75F078C3
:104B60009000322B120013F2EF2583F5837593002A
:104B700022FFED75F078120013F2ED2583F583E541
:104B8000822EF582E43583F58375930022EFF09051
:104B900000322BEE75F078020013F2900062EC12F6
:104BA0000013FEE92406F9E43AFA120011BBFF9063
:104BB0000062D9E0900031E9FE75F078020013F24E
:104BC000900062EC120013FEE92402F9E43AFA12B2
:104BD0000011BBFF900062D9E0FE9000317D75F0BE
:104BE00078020013F2EFF0900062E4A3E0FBCFEB59
:104BF000CF900031A1EE75F078020013F2EE75F05F
:104C000078020013F2900065907B007A007900E052
:104C1000FF75F0789000322122FFE0900008FCFE42
:104C200075F0EA120013F2E5822FF582E43583F580
:104C30008375930022EE75F0789000311002001316
:104C4000F2900066C1120013FEE92407F9E43AFA73
:104C5000020011BBF090002F71E0FD9000640CEF9A
:104C6000F0CFEECFA3E4F0EFA3F0E4A3F0A3F022A3
:104C7000FFE090003236FE75F078020013F29000EB
:104C80003111EE75F078020013F2EFF0E0FF75F0ED
:104C90001690002F81020013F275F078EF9000312A
:104CA00052020013F290003109ED75F07802001302
:104CB000F2E09000322BFE75F078020013F2EE75F0
:104CC000F078020013F290003272EE75F078020074
:104CD00013F29000658AE0FF75F07822A3E0FDCE24
:104CE000EDCE90006599F09000658BE0FD90006539
:104CF0009A2290006333E075F01690002F8B02002B
:104D000013F2FF75F078020013F290006833E0FFB1
:104D100075F07822ED9000322175F078020013F2E0
:104D200090006333E0FF75F01690002F82020013AD
:104D3000F2FE75F078020013F29000310CED75F080
:104D400078020013F290006333E075F048A4249CCD
:104D5000F9740135F0FA7B0122120013FECEEACE7F
:104D6000CFE9CF22E090003109FD75F07802001301
:104D7000F275F0EA900008D4020013F2900066CCBD
:104D8000E0FFA3E0FDA3E0FB229000659AE0FE7542
:104D9000F078EF90003236229000658AE0FFA3E0C1
:104DA000FDE490006599F0A3229000316A75F078D7
:104DB000020013F2E0FD75F01190002DB212001305
:104DC000F20200141E900066C4E0FF75F0789000B7
:104DD0003236221200141E75F078EF900032212234
:104DE000EFF0900062D9E0FF75F07890003110226A
:104DF00090006764E090000904FF75F0EA02001378
:104E0000F290006336E024B4F582E4345DF58375F6
:104E10009300E022900031E9EF75F078120013F270
:104E2000EF2583F58322F0EF75F0789000310722AB
:104E3000E92402F9E43AFA1200127FFFAEF0229060
:104E4000006333E0FF90002F7C75F016020013F230
:104E5000F075F078EF9000323B22900062EC120087
:104E600013FEE92275F01690002F8D120013F20246
:104E70000013FE75F006020013F2900066D0E0FF0A
:104E800075F0789000323C22900062DC120013FE34
:104E9000900062E2E0FEA3E022FF900062D9E0FE13
:104EA00075F0782275F01190002DB5120013F2E420
:104EB000F022900062E0E075930022FDEF75F0EAC9
:104EC000020013F2FE75F078020013F2EB54F0C406
:104ED000540FFFCEEFCECFEBCFEF540FFFCCEFCC84
:104EE000CFEDCFCDCDCFEECFCBEFCB900065332242
:104EF000F090002F71E0FD9000640C22900062E9B8
:104F0000120013FEE922900066D8E0FF7C017D7854
:104F10001200120174072FF974313EFA22120014A4
:104F20001E75F078EF22EF2583F583E5822290004D
:104F300062E0E0FE900062D9E0FD2290006506E0AC
:104F4000FF90006508E022E075F016A42487F9744C
:104F50002F35F0FA7B0122EF75F0EA020013F2ED33
:104F600075F078020013F27B017A6379399000645E
:104F7000B31200141E90006335E0900064B6F0A3F5
:104F800022F075F078EF900031102290006764E015
:104F9000FF75F0789000323422900066D2E0FF90E6
:104FA0000066D0221200141E7B007A007900227461
:104FB0000FF075F078EF9000323A229000658AE0A9
:104FC000FFA3E0FD2290006508E0FF2275F0EA9063
:104FD000000926120013F27593002229F9EA3EFA1D
:104FE0000200141E7E007C017D7812001201744BB9
:104FF0002FF974323EFA7B012290002F90020013A9
:10500000F275F005A429F9EA35F0FAE92404F9E487
:105010003AFA22E0FF75F0789000321F2212001356
:10502000FEE94A4B22900042EAE0FF22CAEECAC9DA
:10503000EFC97B0122900062E1E07593002275F0D8
:1050400008120013F2E0FEA3E0FF900067F2E0FD1B
:1050500022E090006833FDE09000640C22E0FF75D0
:10506000F0789000310922EE75F078020013F2A377
:10507000F0900066C1020013FE90006505E075F037
:10508000C090000FAA020013F2E4F075F078EF90E0
:1050900000321F22A3F0A3F0FB7F0422900062E6FF
:1050A000120013FEE922FF900062D9E02290006214
:1050B000E0E0FD7593002290006590E0FF75F078C8
:1050C0002290006335E0FF7E00EE22E0FD75F0786F
:1050D000EF9000314D22CEEDCEEFC394022290002E
:1050E0006635E0FF227E017D000200161C7B017AFE
:1050F000637943900064160200141E75F016A42410
:1051000083F9742F35F0FA7B012275F078EF900067
:10511000323422E0FF75F078900031512275F006AC
:10512000ED020013F290002DAF020013F2EFF0A396
:10513000EDF0A3EBF02290003105E075930022E042
:10514000FF75F0789000323B22E0FF75F078900018
:10515000321B22120011ED75F078EF9000311D2204
:10516000FE120013F2E5822F22C874A7C8CC744245
:10517000CCCD7401CD22F0900042EBE0229000668D
:10518000D0E0FF900066D2E0FD22E0FFCEEDCECD74
:10519000CD22E0FF90006333E022120011ED900079
:1051A0006338E004F022EFF0A30200141EE0FF9049
:1051B000006334E02290006338E029F9E43AFA22EF
:1051C000759300E0FE90006634E022F09000550BED
:1051D000E022E0FE75F078EF2290006592E0FEA3F9
:1051E000E0FF22C8E9C8CCEACCCDEBCD2290006626
:1051F000C9E0FF2275F016EF120013F2E0229000D2
:105200006334E0FF2290006764E0FF22900067F7BC
:10521000E0FF2290005CE2E075F003A424EDF5824B
:10522000E4345CF583759300E0900065C1F0A374ED
:1052300008F0E4900065C0F0900065C2E0FF9000C7
:1052400065C1E05F7003015745120132722449F5D0
:1052500082E4346212013234FE900065C3F0743887
:105260002FF582E4346212013234FF900065C4F0FD
:105270007B827AB179BD900065C0E0FD9000625EEE
:10528000E4F0A3EDF0EEFDA3E4F0A3EDF0A3E4F071
:10529000A3EFF012005788B46015A3E070117B8271
:1052A0007AB179E1120016D7900065C47403F090CA
:1052B0000065C4E0FF70030156AE20E3030153779D
:1052C000900065C3E020E30301535E7B827AB179ED
:1052D000E7900065C0120132D6120016D77B817AA2
:1052E0001C79AA1201A8F51201327212019D5DEF1C
:1052F000603FC2E890005CDCE09000623CF0D2E8E5
:105300007B827AB27909120016D790006237E0FDED
:10531000900065C0E09000640CF0A37403F0A374E7
:10532000E8F0A37403F0A374E8F0E4FBFF12010BB0
:10533000A6120132721201322D4408F074522FF578
:1053400082E4346212013234FFC394024029120114
:10535000B0367B827AB27922120016D780197B820E
:105360007AB27931120132F0120057711201322DE6
:1053700054F7F012019C6E900065C4E020E0030138
:105380005436900065C3E030E006120132B4800468
:10539000120132BB120132A17B827AB279520156DC
:1053A000F6120132285401FF900065C3E0FE54015B
:1053B0006F6079EE30E02E90005CE8E0C394085016
:1053C000147B827AB279701200577D7D1E7C0012A8
:1053D00001881F80617B827AB2797E90005CE8123E
:1053E0000132D6804D120132721201322D54FEF07C
:1053F00074572F1201327912013272120132DD120A
:1054000001327E303E0A90006251E06F7002C23E6F
:105410001201324C12013234FFC3940240181201BF
:10542000B0361201324C1201327E800A7B827AB28F
:10543000799B120016D7900065C4E020E103015566
:1054400004900065C3E030E106120132B48004121A
:105450000132BB120132A17B827AB279A2120057CB
:105460007D1201322DFE5402FD900065C3E0FC5414
:10547000026D601CEC30E111744D2FF582E4346252
:10548000120132FA4402F080071201322854FDF072
:10549000900065C3E0FF20E16B5421642170651228
:1054A00001324C12013234FFC39402405790003154
:1054B00007120132861201323430E70D1201324CEC
:1054C00012013234FF1201B0361201324C12013295
:1054D0007E7B827AB279BF120016D7120132722413
:1054E00057F582E4346212013234C39405501590AA
:1054F00000623EE0700E7D1EFC1201881F9000626B
:105500003E7401F0900065C4E030E266900065C32F
:10551000E030E206120132B48004120132BB120103
:1055200032A17B827AB279D8120016D712013228C2
:105530005404FF900065C3E0FE54046F602AEE300F
:10554000E2137B827AB279F6120016D71201322862
:105550004404F0801D7B827AB3790B120016D712B7
:1055600001322854FBF0800A7B827AB2799B1200C8
:1055700016D7900065C4E020E40301572890006529
:10558000C3E05403640360030156A09000623EE050
:10559000C3940250030157287B827AB3792012000A
:1055A0005788FF30E106120132B48004120132BB89
:1055B000120132A1EF30E006120132B48004120170
:1055C00032BB900062611200141E7B827AB379357F
:1055D000120016D71201324C12013234FF600790CC
:1055E0000065C5F080587B017A6579C5900065C07B
:1055F000E0FD12013EC4EF700301569B120133011E
:10560000900065C0E0FE12013251F583759300EF02
:10561000F0EEC454F0FE9000321C120132861201EA
:1056200032FAF0900065C3E030E6131201330190C6
:1056300000315112013287120132344480F090005F
:1056400065C0E0FE0490003106F01201330175F0F0
:1056500078900032341201328AF583759300740514
:10566000F074572E120132799000623EF090006281
:105670003DE0FD9000640C120132C2120132C4E41C
:10568000FBFF12010BA67B827AB3794C900065C5B3
:10569000120132D6120016D7015728C23E015728F0
:1056A0007B827AB37969120016D7C23E807A7B82F8
:1056B0007AB3797B120132F01201326B900065C32C
:1056C00012013266900065C4E0FF90006262E4F06F
:1056D000A3EF12005771120132DD1201323420E0C3
:1056E0001C74492FF582E434621201323430E00D2B
:1056F0007B827AB3799F120016D70153A11201322F
:1057000072120132DD1201323430E41C74492FF57B
:1057100082E434621201323420E40D7B827AB37960
:10572000B1120016D701557D120132722449F5825B
:10573000E4346212013234FE74292FF582E43462BB
:10574000120132FAF0900065C1E0FFA3E0FEF4FD23
:10575000EF5D900065C1F054786015EE25E0A3F090
:10576000900065C0E004F0E0C39404500301523897
:1057700022F0120016D7900065C0E0FF221200163A
:10578000D7900065C0E0FF22120016D7900065C3D5
:10579000E022900062C5120013FEE924AFF9E43A5A
:1057A000FA120011BBFD900062C5120013FEE9243D
:1057B000AEF9E43AFA120011BB75F004A4FF9000B0
:1057C00062C5120013FEE922FF900063101200135D
:1057D000FEE92416F9E43AFA12001427E92FF9EA4F
:1057E0003EFAE92403F9E43AFA020011BBF0900012
:1057F00061FC120013FEE92416F9E43AFA020014DF
:1058000027900062B7E09000326CFF75F0781200CC
:1058100013F2EF2583F58375930022FF900061FC5E
:10582000120013FEE9229000631CE0FF9000631059
:10583000120013FEE92275F004A4FF9000638F129A
:105840000013FEE922900061E9120013FE9000654A
:105850003A1200141E900061ECE09000653DF0905B
:105860000061F9020013FEF9E43AFA1200127FFF18
:1058700090006388120013FEE922759300E0900007
:1058800061F1FEE0FD24B4F582E4345DF5837593A7
:1058900000E0222404F9E43AFA0200127F90006248
:1058A000CB120013FEE92402F9E43AFAEF020011E8
:1058B000ED9000645DE09000645575F004A4FF1263
:1058C0000013FEE92FF9EA35F0FAE92290005E9A1A
:1058D000F0900061FC120013FE9000636912001446
:1058E0001E900061E9020013FECAEECAC9EFC97B2F
:1058F00001900062D41200141E900062D4120013B2
:10590000FEE94A4B22900062B7E0FF900062BAE0E5
:10591000FD900062D1120013FE9000638812001403
:105920001E900062C5120013FE9000638B020014EB
:105930001E900062BC120013FE900062C4E02401BD
:10594000FF900062C3E03400FEE92FF9EA3EFA025C
:105950000011BBE075F004A4FFAEF09000645502A6
:105960000013FEA3F0E4A3F0A3F0A3F0A32224AF5E
:10597000F9E43AFA7401020011D12404F9E43AFA84
:10598000E5F08FF0020012A3E075F004A429F9EA13
:1059900035F0FA0200127F900062CB120013FEE98C
:1059A000229000631CE0C39401FFE49400FE78029F
:1059B000EF229000630D1200141E900061FC0200A3
:1059C00013FE900063B0120013FEE9240122C39479
:1059D00001FF131313541F900061F0F0EF5407A35D
:1059E000F0900061F0E0FF2400F582E434622224AC
:1059F000AEF9E43AFAE4020011ED2420F9E43AFAAF
:105A0000ED020011ED9000630A120013FEE4F5F0C0
:105A1000020012A3F0A3E4F0A37406F0E4A3F0A341
:105A20007408F0A32290006216E0FFC3940874800B
:105A3000948022900062CE020013FEE92401F9E472
:105A40003AFA22900062D1120013FEE922FE900081
:105A5000631BE02EFEC374089EFEC8EEC8EF08224A
:105A6000900062D4020013FE241EF9E43AFA22FEEA
:105A700075F078020013F229F9EA3EFA1200127F5B
:105A8000FF90006313E5F022CAEECAC9EFC97B019B
:105A900022900063B0120013FEE9240822900064F3
:105AA000A8E0FF75F0789000326F22F0A37481F0C7
:105AB000A3E4F0A3747FF022900061FC0200141EA6
:105AC000FF7E00C3940174809480227B007A007969
:105AD000000200141E900063AD120013FEE92407BB
