:020000040000FA
:1000000002010001020408000101000201AFCF005B
:100010000100020004000800100102040849430026
:10002000EF222202015586E4FE12018274CEEFCE49
:10003000CFCF220201660B02015E7B020116540241
:1000400001A8C802008E4402018C0B020134DF02B9
:100050000192B10201A7520201ACDD0201A30E9090
:10006000909090010204080FA0A0A0A001100440ED
:1000700055A0A0A0A002200880120127192222FF6B
:1000800090006705120013BE7810EC4D4E4F7004BF
:100090007CA57DA5C3EC13FCED13FDEE13FEEF1361
:1000A000FF5010EC64CCFCED644CFDEE644EFEEFB2
:1000B00064CEFFD8DF90006705120013D6EE547FA0
:1000C000FE2290006705EEF0EFA3F0A374A5F0A365
:1000D000F02275F003A4247AF582E43460F5837588
:1000E00093002275F003A4247CF582E43460F58348
:1000F00075930022F090006079E004F0C394202210
:1001000075EBAA75EB55759D02787FE4F6D8FD90E6
:100110000000007F007E807D01E4F0A3DFFCDEFABA
:10012000DDF8750F7E7510FF75814D02001B74415F
:1001300063DA004163E3004163DE004163DD0041B7
:1001400063E4004163E20041680C004249C70000DB
:100150004249D400004249D200004149C900424905
:10016000C300004249CC00004249CA00004249C5D0
:1001700000004249D000004249CE00000143004146
:10018000679800416799004147F00060904F320046
:1001900042003E3C3A3B456843413F3D2B35676951
:1001A000E2E188E0141E006A001D16041A1F006BAD
:1001B000061B070821208C6C2C1909171522686D65
:1001C00011050B0A1C23696E00100D1824256A6F97
:1001D000360E0C122726007037380F33132D00719E
:1001E0008734032F2E007239E52830003100940047
:1001F0006493928A002A8B0059895C5F85000062B3
:10020000635A5D5E60295344575B56556147000051
:1002100000004046000000000000000000000060F8
:10022000A54E8D000000000000000000000000004E
:10023000000000BEE60000E4B40000C400000000BE
:100240000000E3C3B900B7000000E7C20000BC0033
:10025000920065C100B800B60000B0C000BFB50094
:100260000000B1BD00000000000000BB0054000011
:10027000B30000BA000000000000000000580000B9
:1002800000B2000000000000006600004D00504A6F
:10029000000000494C51004F52004800004E0046FB
:1002A0004B480004010244453A3B3C3D3E3F40413F
:1002B0001E1F200000000000787665756677747E4A
:1002C000797A7C7D7B7F8180603F4D0602810002D0
:1002D000820002830003B50003B60003B70003CD1C
:1002E0000003E20003E90003EA00038301038A013B
:1002F0000392010394010321020323020324020356
:100300002502032602032702032A024153D6014194
:10031000552E0041527E0041552D004153D80041D9
:10032000527F0049552F0000000000001E001E4EA5
:100330005F550047014700470147F000F100FF000B
:100340004E5F4500E001E000E001E0F000F100FF59
:100350000060435EDB0924800617150F4500010489
:10036000014501040327203A0331203C0332203B9E
:100370000333203D0334203E071640130A45000195
:100380000A0CA0090F04160B5E2858040E482858C2
:10039000062020185E2858FF415F6500415ED600A8
:1003A000415ED200415F5400415F6700415EDA0068
:1003B000415ED800415F5300415ED5004860DA00DD
:1003C0001020304050607048612280818283848593
:1003D000868748612A9091929394959697604060A1
:1003E000E2A0A1A2A3A4A5A6A7A8A9AAABACADAE62
:1003F000AFB0B1B2B3B4B5B6B7B8B9BABBBCBDBE95
:10040000BFC0C1C2C3C4C5C6C7C8C9CACBCCCDCE84
:10041000CFD0D1D2D3D4D5D6D7D8D9DADBDCDDDE74
:10042000DF4162E4004162FA004162F9004162E3A7
:10043000004462F5000000005260661201010109EB
:10044000000008950B04681200010203016040607F
:10045000262A035600690072007400750061006C62
:100460000020004800550042002000560065007240
:10047000003A0030002E0030003100000000000083
:10048000000000000000000000000000000000006C
:1004900000602060060A034D0054004B002000005D
:1004A000000000000000000000000000000000004C
:1004B00000000000005257D0120110010000000897
:1004C000950B0668020001020301605457E209021D
:1004D0005400030100A00109040000010301010010
:1004E000092110010001223F0007058103080001D6
:1004F0000904010001030102000921100100012289
:100500006E000705820307000109040200010301D0
:100510000200092110010001225D00070583030785
:100520000001603F583A05010906A101050719E0DD
:1005300029E71500250175019508810295017508C7
:10054000810195057501050819012905910295019B
:1005500075039101950675081500256805071900B2
:1005600029688100C0606E587905010902A10185E2
:10057000010901A1010509190129051500250175C8
:100580000195058102750395018101050109300975
:100590003109381581257F750895038106C0C0058E
:1005A000010980A101850205011981298315002512
:1005B00001950375018106950175058101C0050C42
:1005C0000901A101850319002A3C021500263C02FD
:1005D000751095018100C0605D58E705010902A111
:1005E0000185040901A10005091901290515002546
:1005F00001750195058102750195038101750895C5
:1006000001050109381581257F8106C00901A10076
:100610000501093015002600043500460004751058
:1006200095018102093115002600033500460003BB
:10063000751095018102C0C0445836040309046056
:100640002259A422034100530049005800200045CC
:10065000006C0065006300740072006F006E00693A
:100660000063007300604059642A035600690072F9
:10067000007400750061006C0020004800490044CF
:100680000020005600650072003A0030002E003055
:100690000031000000000000000000000000000029
:1006A000000000000000000000602059440A0341DF
:1006B0000053004900580000000000000000000046
:1006C000000000000000000000000000004430F1C5
:1006D000010204085430DD14034D00690063007208
:1006E000006F0073006F0066007400485DB4010283
:1006F000040810204080445CB31A1C1E20445CAEE9
:1007000012141618425CE90000C11CC11AC11B4139
:100710005CE800415CB707415CB200496339030003
:1007200000000000000000415E9900602A5EA60003
:10073000810082008300B500B600B700CD00E20062
:10074000E900EA0183018A01920194022102230255
:1007500024022502260227022A49623000000000F6
:10076000000064006449621E0000000000000200F6
:10077000024F629920FF803F00000000000000004F
:100780000000004F627C20FF80000000000000009D
:10079000000000000047628B10000F200900004796
:1007A000629210000F200000004266F109DA4266F2
:1007B000F390C05A4FE60001000100010001000162
:1007C0000001000100040020006400320019001143
:1007D0005A4FCC000100010001000100010001009E
:1007E000010002001000320019000C00084D527088
:1007F000080C101820305E1A1A646464644D51634A
:100800000406080C10182F1A1A64646464424FC955
:10081000000042500700004250050000414FCB004D
:10082000424FC70000425003000042500100004107
:100830004FC30041527D00605A500931324D0000D3
:1008400000384D00000000364D00000000344D001F
:10085000000000334D00000000324D000000003168
:100860004D000000003932314B00003131354B0072
:10087000003936303000003139323030003338340E
:100880003030003537363030000000000000000006
:100890000000000000C11FC11DC11E4160050041D4
:1008A0005F9E01415FF001415FAA0F415FAC0041D3
:1008B0005F9B01415FE500415F9347415F700041ED
:1008C0005FF700445F9500000000415F7100415FE9
:1008D000E600415FF800415FA700485FD5000000D7
:1008E0000000000000415F9A00425FF10200425F99
:1008F000F40180425FF900004F5FBE00000000007D
:1009000000000000000000000000415FF300485FAD
:10091000CD039C039C00640064485FDD029C00647E
:10092000029C0064415FA1004157CF0060C0563C6B
:1009300000000000000100010001000182450703E2
:1009400001010102010101824507030102010201C7
:1009500001018245070301020103010301824507EA
:1009600003020100000100010001000182450703AC
:100970000101010201010182450703010201020197
:1009800001018245070301020103010301824507BA
:10099000020103000001000100010001824507027D
:1009A0000101010101030182450702010101020168
:1009B000020182450702010301010103018245078B
:1009C000010302000001000100010001824507014E
:1009D0000103010101010182450701010201030137
:1009E000020182450701010301030102018245075B
:1009F00060C056FC03020100030100010101000177
:100A000081F485030101010201000181F4850301E4
:100A100002010201010181F48503010201030103C6
:100A20000181F485020100030201000101010301BB
:100A300081F485020101010101000181F4850201B7
:100A400001010201020181F4850201030100010399
:100A50000181F4850100030201010001000103018D
:100A600081F485010100010101010181F485010189
:100A700002010301020181F4850101030100010269
:100A80000181F4850003020100010301000100015E
:100A900081F485000101010201010181F485000159
:100AA00002010301010181F4850001030103010238
:100AB0000181F48560F0553C00010203030101014E
:100AC00000010001810022000102010101010181F8
:100AD0000022010103010201020181002202010042
:100AE0000103010301810022030102000101000151
:100AF0000201000181007E01010001030101018169
:100B0000007E030102010201000181007E03010257
:100B1000010301010181007E0301020001010001C6
:100B20000001000181007E0101000101010101813C
:100B3000007E030102010201020181007E03010225
:100B4000010301030181007E00000000000000009D
:100B50000000000000000000000000000000000095
:100B60000000000000000000000000000000000085
:100B70000000000000000000000000000000000075
:100B80000000000000000000000000000000000065
:100B90000000000000000000000000000000000055
:100BA0000000000000000000C127C12644614B0086
:100BB0000102034261340000426132000042618858
:100BC00000006038614FAA550601CC330000AA55D9
:100BD0000602CC330000AA55070301000000AA5505
:100BE000050401000000AA55050501000000AA55F2
:100BF000050601000000AA55050701000000004895
:100C000064A90000000000000000EDD2E7CD33EC45
:100C10003392D524814006E4FFFEFDFC22FCE4CFA4
:100C2000CECDCC24E0501174FF80EDC3CC13CCCDDD
:100C300013CDCE13CECF13CF0470F030D5DE02002B
:100C4000138AF920E73624F950037907E4F42402E3
:100C5000FBE582158270021583DBF6E024FB501B56
:100C6000E96014E4F0E582158270021583E004F077
:100C7000B40A08E4F0D9EE7401F00A22C2D522EDDC
:100C800033EC3392D5FA602AB4FF33EDC2E77B81AF
:100C900060067A0C79A4E4227A0C79AD20D5047A26
:100CA0000C79A8224E614E002B494E46002D494E2C
:100CB0004600E47A08F0A3DAFC7B00740722C093B4
:100CC000C083C082ECC0E0EDC0E0EEC0E0EFC0E069
:100CD000EA75F010A4CAABF075F04DA42BFBE43517
:100CE000F0FCEA2410FAEB34C5FBEC34D9FCEDC27D
:100CF000E7FF75F056A4F42411C5F0F434C58FF065
:100D0000A42AE5F03BE43CF020E71612001070D076
:100D1000E0FFD0E0FED0E0FDD0E0FC12000F9E80AE
:100D200016F40412001070D0E0FFD0E0FED0E0FD19
:100D3000D0E0FC12000E8CD082D083D093E0FAED8C
:100D4000D2E7CD33EC332482FBE4C3CF33CFCE33B1
:100D5000CECD33CD33DBF37B0775F00A846004F02E
:100D6000A31B0AE5F0F0A38FF0740AA4FFACF08E89
:100D7000F0740AA42CFEACF050010C8DF0740AA49F
:100D80002CFDE435F0F0A3DBDE740722020010EB4B
:100D9000E86480F8E933E83360110460EFED33EC88
:100DA000337009E8FCE9FDEAFEEBFF220460DDD3C5
:100DB000EB9FEA9EE99DE8C2E78CF0C2F795F04010
:100DC0000CE8CCF8E9CDF9EACEFAEBCFFB12001033
:100DD000B685D0F05804700320D5B1E804700850EF
:100DE00002B2D5020010F592D5EC0460F6E4CCC056
:100DF000E0C398F8603C94186009400ED0E0FB0214
:100E00000010CDE4FBFAC9FC8028E830E406E4C910
:100E1000FBE4CAFCE830E305E4C9CACBFCE85407AC
:100E20006010F8C3E913F9EA13FAEB13FBEC13FCB7
:100E3000D8F130F531C3E49CFCEF9BFFEE9AFEED58
:100E400099FDD0E0FBEF4E4D4C701322DB04020005
:100E500010F2EC2CFCEF33FFEE33FEED33FDED3002
:100E6000E7EA020010CDEF2BFFEE3AFEED39FDD0A0
:100E7000E0FB50140BBB0004020010F5ED13FDEE77
:100E800013FEEF13FFEC13FC020010CDEC4D6011CC
:100E9000E8497018ED33EC3304600DE4FCFFFEFD0F
:100EA00022E933E8330470F8020010EB120010B6A8
:100EB00058046009E4CC2481500728500B0200102C
:100EC000F5284004020010F2C0E0EB4A7046B980F9
:100ED00007D0E0FB020010E1EF4E701DBD8008EB73
:100EE000FFEAFEE9FD80EAE98DF0A4FEE5F00200EC
:100EF0000F7BE9CDF9EAFEEBFFEF89F0A4FCE5F00A
:100F0000CE89F0A42EFFE435F0CD89F0A42DFEE4C7
:100F100035F08067EF4E7005BD80D780C2EF8BF053
:100F2000A4ACF0EE8BF0A42CFCE435F0F8EF8AF0E2
:100F3000A42CE5F038FCE433CB8DF0A42CFCE5F0D8
:100F40003BF8EE8AF0A42CFCE5F038F8E433CF89C6
:100F5000F0A42CFCE5F038CF3400CE89F0A42FFFAC
:100F6000E5F03EFEE433C98DF0A42EFEE5F039CD68
:100F70008AF0A42FFFE5F03EFEE43DFD33D0E0FB18
:100F800050080BBB0010020010F5EC2CFCEF33FFF7
:100F9000EE33FEED33FD020010CD020010F5EC5DE6
:100FA000046005E859047004020010EB120010B64A
:100FB000580460F4EC4860F0EC7004FDFEFF22C8B9
:100FC00060D82481C8500AC39860025007020010FC
:100FD000F29850C6F582E9294B4A7006AB820200AE
:100FE00010E175F0007C1A7880C3EF9BEE9AED99C2
:100FF000400DC3EF9BFFEE9AFEED99FDE842F0DC59
:1010000024ACF0D0E0FFD0E0FED0E0FDAB8220E7E2
:10101000101BEB60B8EC2CFCEF33FFEE33FEED332E
:10102000FD020010CDE803F830E705C0F075F000D0
:10103000EF2FFFEE33FEED33FD40B730E7C180A95F
:101040003F8000004120000042C80000447A0000B8
:10105000461C400047C35000497424004B1896803A
:101060004CBEBC205A0E1BCA6753C21C749DC5AE31
:10107000FB6006540760202323120010A3EB5438B2
:10108000600C1200108E1200109E12000E8CECF8F4
:10109000EDF9EEFAEFCB22EB1200109E80F05438FF
:1010A00003241C90001040FE93FC0EEE93FD0EEE08
:1010B000930ECE93FF22E9D2E7C933E833F892D5F5
:1010C000EDD2E7CD33EC33FC5002B2D522EC30E761
:1010D000100FBF000C0EBE00080DBD00040BEB602E
:1010E00014A2D5EB13FCED92E7FD2274FFFCFDFE8C
:1010F000FF22E480F8A2D574FF13FC7D80E480EF2A
:10110000EB7008E709F608DFFA801B89828A8314EE
:1011100010E70AF593E0A3F608DFFA8009F593E4F7
:1011200093A3F608DFF9ECFAA9F0EDFB2288F0EFC3
:1011300060010E4E60F088F0ED60C51410E7E7CB5B
:10114000700E88828C838B93E709F0A3DFFA80D638
:101150001410E72A89828A83F593ECFAE0A3C8C5C4
:1011600082C8CCC583CCCBC593CBF0A3C8C582C8FD
:10117000CCC583CCCBC593CBDFE2DEE080AA8982ED
:101180008A83F593ECFAE493A3C8C582C8CCC583DF
:10119000CCCBC593CBF0A3C8C582C8CCC583CCCB80
:1011A000C593CBDFE1DEDF02001128EB7002E722FE
:1011B00089828A831410E704F593E022F593E4937F
:1011C00022BB000327F722F8EB89828A831410E7F9
:1011D00006F593E028F022F593E4932822BB000261
:1011E000F722BB8000500989828A838B931593F084
:1011F00022EF8DF0A4A8F0CF8CF0A428CE8DF0A41F
:101200002EFE22BC000BBE0029EF8DF084FFADF056
:1012100022E4CCF875F008EF2FFFEE33FEEC33FC40
:10122000EE9DEC984005FCEE9DFE0FD5F0E9E4CE76
:10123000FD22EDF8F5F0EE008420D21CFEADF07535
:10124000F008EF2FFFED33FD4007985006D5F0F280
:1012500022C398FD0FD5F0EA22C5F0F8A3E028F0EC
:10126000C5F0F8E582158270021583E038F022EBB4
:101270007007E7F5F009E7192289828A831410E7DD
:1012800008F593E0F5F0A3E022F593E493F5F0740C
:10129000019322BB0006F709A7F01922BB8000507A
:1012A0000D89828A838B931593F0E5F0A3F022EFEA
:1012B0002BFFEE3AFEED39FDEC38FC2275F0087597
:1012C0008200EF2FFFEE33FECD33CDCC33CCC58281
:1012D00033C5829BED9AEC99E58298400CF582EE3D
:1012E0009BFEED9AFDEC99FC0FD5F0D6E4CEFBE425
:1012F000CDFAE4CCF9A88222B800C1B90059BA00ED
:101300002DEC8BF084CFCECDFCE5F0CBF97818EF47
:101310002FFFEE33FEED33FDEC33FCEB33FB10D748
:1013200003994004EB99FB0FD8E5E4F9FA22781809
:10133000EF2FFFEE33FEED33FDEC33FCC933C91064
:10134000D7059BE99A4007EC9BFCE99AF90FD8E096
:10135000E4C9FAE4CCFB2275F010EF2FFFEE33FE68
:10136000ED33FDCC33CCC833C810D7079BEC9AE8DB
:1013700099400AED9BFDEC9AFCE899F80FD5F0DA5C
:10138000E4CDFBE4CCFAE4C8F922C3E49FFFE49E79
:10139000FEE49DFDE49CFC22E8600FECC313FCED31
:1013A00013FDEE13FEEF13FFD8F122E8600FEFC339
:1013B00033FFEE33FEED33FDEC33FCD8F122E0FCDD
:1013C000A3E0FDA3E0FEA3E0FF22E0F8A3E0F9A381
:1013D000E0FAA3E0FB22ECF0A3EDF0A3EEF0A3EF24
:1013E000F022A42582F582E5F03583F58322E0FB27
:1013F000A3E0FAA3E0F922F8E0FBA3A3E0F925F0CB
:10140000F0E582158270021583E0FA38F022EBF0E5
:10141000A3EAF0A3E9F022EB7006E9F80200163324
:1014200089828A831410E706F593020013EEF59380
:1014300002001645BB001CD093D0F0D0E0F8D0E0FD
:10144000C9FBD0E0FAD0E0CBC8C0E0C0F0C0930246
:1014500000163CBB80005022D093D0F0D0E0F8D0F2
:10146000E0C9F582D0E0CAF583D0E0CB14C8C0E073
:10147000C0F0C09388930200140ED093D083D08222
:10148000D0E0D0E0D0E0E473D093D083D082F8E411
:10149000937012740193700DA3A393F8740193F5E4
:1014A000828883E4737402936860EFA3A3A380DF50
:1014B0008B938A838982159353937FE473EB700C2B
:1014C00087F009E608B5F019DFF6801589828A836E
:1014D0001410E711F593E0F5F0A3E608B5F002DF8C
:1014E000F50200156EF593E493F5F0A3E608B5F068
:1014F0007DDFF48079CB701388828C838B9387F0A7
:1015000009E493A3B5F067DFF580631410E7308931
:10151000828A83F593ECFAE0F5F0A3C8C582C8CCC3
:10152000C583CCCBC593CBE493A3C8C582C8CCC537
:1015300083CCCBC593CBB5F035DFDCDEDA802F89E9
:10154000828A83F593ECFAE493F5F0A3C8C582C8C8
:10155000CCC583CCCBC593CBE493A3C8C582C8CC00
:10156000C583CCCBC593CBB5F004DFDBDED97FFFE1
:10157000B5F0020F2240027F0122020014BD0200DA
:1015800014F588F0EF60010E4E60EEED60EC141083
:10159000E7ECCB701288828C83F59387F009E0A387
:1015A000B5F0CBDFF680C71410E72F89828A83F568
:1015B00093ECFAE0F5F0A3C8C582C8CCC583CCCBC8
:1015C000C593CBE0A3C8C582C8CCC583CCCBC5939B
:1015D000CBB5F09ADFDDDEDB809489828A83F593D8
:1015E000ECFAE493F5F0A3C8C582C8CCC583CCCB94
:1015F000C593CBE0A3C8C582C8CCC583CCCBC5936B
:10160000CBB5F004DFDCDEDA0200156EEF4E6022AF
:10161000EF60010EEDBB0007F709DFFCA9F022BB6C
:101620008000500E89828A838B931593F0A3DFFC90
:10163000DEFA22E6FB08E6FA08E6F922EBF608EA0B
:10164000F608E9F622E493FB740193FA740293F925
:1016500022E508244FF582E43462F583759300E0B7
:101660000508229000624C3007049000624FE47538
:10167000F001120013F7020011AB2000E57F2ED21B
:10168000008018EF540F2490D43440D4FF30040B62
:10169000EF24BFB41A0050032461FFE5096002156E
:1016A00009050CE50C7002050B3007119000624C27
:1016B000E475F001120013F7EF020011DD020000E3
:1016C000277403D2078003E4C207F5089000624C38
:1016D0001200140EE4F509F50BF50CE50960087F1E
:1016E000201200169B80F4750AFFC201C200C202DC
:1016F000C203C205C206C20812001663FF700E3094
:1017000007067F00120016ACAF0CAE0B22B42563A7
:10171000C2D5C20412001663FF24D0B40A00501AC6
:1017200075F00A780930D50508B6FF0106C6A4266B
:10173000F620D5047002D20380D824CFB41A00EF6B
:101740005004C2E5D204020019E9D20180C4D200DB
:1017500080BED20280BAD2D580B8D20580B27F20B6
:101760001200169B2002077401B5090040F0120018
:101770001651FF1200169B020016DBD208D206801B
:101780008F12001651FB12001651FA12001651F971
:101790004A4B700679F67A1A7B8120023DE5096092
:1017A000397E00E9C0E02EF9EAC0E03400FA120008
:1017B00011ABF9D0E0FAD0E0C960060EEE650A7010
:1017C000E2C2D5EBC0E0EAC0E0E9C0E0EE12001AE8
:1017D00051D0E0F9D0E0FAD0E0FB120011ABFF608D
:1017E00096EBC0E0EAC0E0E9C0E01200169BD0E052
:1017F0002401F9D0E03400FAD0E0FBE50A0460DA15
:10180000D50AD702001777D202808F12001A2D60F6
:10181000F6E50A70010412000C42A90A600EE50AFE
:10182000600A14F50A12001AE0EF60F2EA30E702EB
:10183000F404C3994004020018C0EAF4250A0430F5
:10184000E701E404F50A800F12001A2D60B9EA05D9
:101850000A250A12000C42EA9000627BF030E70190
:10186000E4250A04D50A042005011412001A51E4E3
:10187000C0E012001AE09000627BE0601420E708EC
:1018800014F012001683802604F0D0E014C0E07F2C
:101890000012001683E50A60081200167A150A8005
:1018A0000D3005041200167AD0E0020016DBD0E0FD
:1018B0000480BD12001A2D6093E50A0412000C4248
:1018C0009000627BEAF0E50A20050260010424042E
:1018D00012001A5174FF04C0E012001AE012001640
:1018E00083E50A20050260041200167AD0E0B50AEA
:1018F000E57F451200168D9000627BE07F2B30E77C
:10190000047F2DF404C0E01200169BD0E075F00AAD
:1019100084C0F012001684D0E01200168402001673
:10192000DB791080027908C206C2088008D2D57916
:101930000A8004790AC2D5E50A047002F50AE4FABD
:10194000FDFEFF12001651FC7B0820011612001646
:1019500051FD7B1030000C12001651FE1200165182
:10196000FF7B20EC3382D592D55013C3E4300006C0
:101970009FFFE49EFEE42001039DFDE49CFCE4CB7C
:10198000F8C201EC700CCFCECDCCE824F8F870F39F
:101990008017C3EF33FFEE33FEED33FDEC33FCEB8A
:1019A00033FB994002FB0FD8E9EB300105F8D0E09A
:1019B000C448B201C0E00AEC4D4E4F78207B007065
:1019C000C2EAB50A0040BCC0E012001A53D0F0D001
:1019D000E0200104C4C0E0C4B201C0F012001684CB
:1019E000D0F0D5F0EA020016DB12001488178153FC
:1019F000192158174E4C174A4219254F192D4419D1
:101A00002D4917644319335518484618B345180B28
:101A1000471B135017522D17562E177D2B175A237D
:101A2000177B201AFF2A17104800001773E50AB425
:101A3000FF03750A0612001651FC12001651FD1222
:101A4000001651FE12001651FF9000627402000C45
:101A50007F790AA2D5200314300509B910020404C5
:101A6000B9080104A2D520060250010420026D929B
:101A700002B509005036C0E07F2030031A7F30A243
:101A80000272067205501012001AACC202C206C2DF
:101A900005C2087F308010300503E9C0E01200164F
:101AA0009B300503D0E0F9D0E0B509CA3005197FB5
:101AB00030B9100D1200169B7F583004077F7880D4
:101AC00003B908041200169B3002067F2D0200168F
:101AD0009B7F202008F77F2B2006F222920280CCE9
:101AE0007F00B40700500E2474F582E43462F5835D
:101AF000759300E0FF22286E756C6C2900D20112EC
:101B00000016513001F7C201780930D50108F602FC
:101B1000001710120016517F4960087F4310E7023A
:101B20007F5814C0E0EF1200168C743A1200168C25
:101B3000D0E0600DC0E0C412001684D0E0120016A0
:101B400084D2037509040200192102010B83E49376
:101B5000A3F85407240CC8C333C4540F4420C883CB
:101B60004004F456800146F6DFE4800C01020408CC
:101B7000102040809000012FE47E019360CCA3FFF1
:101B8000543F30E509541FFEE493A360010ECF5487
:101B9000E0B4E026E493FBA3E493FAA3E493F9A36F
:101BA000E493C083C082120011DDD082D083A309E8
:101BB000E970010ADFEADEE880BE54C025E0602B50
:101BC000408CE493A3FAE493A3F8E493A3C8C582FA
:101BD000C8CAC583CA759300F0A3759300C8C582AF
:101BE000C8CAC583CADFE3DEE1808DE493A3F8E4CD
:101BF00093A34003F68001F208DFF402001B780291
:101C000000200082FF000000000200200082FF0090
:101C10000000000200200082FF00000000020020FF
:101C20000082F0002000320200200082FF0000004D
:101C3000000500200082F0002000640200200082E5
:101C4000FF000000000200200082F0002000640578
:101C500000200082FF000000000500200082FF003D
:101C600000000005002003E8FF0000000005002040
:101C700000C8FF000000000200200082F0002000E9
:101C8000640200200082F000200064020020008234
:101C9000F000200064FF0000000005000803E8F0E9
:101CA000002001F4FF0000000009021900010100FA
:101CB000E03209040000010900000007058103016A
:101CC00000FF04030904220320004D0054004B00D0
:101CD000200045006C0065006300740072006F0016
:101CE0006E006900630073000929071000320100CB
:101CF000FF000000000000000000000000000000E5
:101D000000000000000000000000000000000000D3
:101D1000000101010101010001000700080604148F
:101D2000247484940818288090A0C0900061D8EF93
:101D3000F0A3EDF0A31200140EC20EC20FC210C227
:101D400011C212E4900061E3F0900061E5F0A3F0AD
:101D5000C224900061D8E0FF90005E14F090006112
:101D6000D9E0FEEF12005669EF2583F583E5822E58
:101D7000F582E435831200530DFF7E006401700488
:101D8000D2118060EF64024E6004EF4E7056D212A2
:101D900090005EA2E0FFA3E090006212CFF0A3EFFC
:101DA000F090005EA4E0FFA3E090006214CFF0A3E7
:101DB000EFF07E007F0C7D007B017A5E799A120045
:101DC000160C90006212E0FFA3E090005EA2CFF03C
:101DD000A3EFF090006214E0FFA3E090005EA4CFB8
:101DE000F0A3EFF07E007F107D007B017A6179F037
:101DF0001200160C900061D8120052861200537E19
:101E0000700A7B827ABA792C020016C7900061D8DA
:101E100012005286120013EE8030120052E01200BF
:101E200011ABFF900061D9E0FE6F6028E924051234
:101E300000527AE94A4B700301289C120052E0E9F3
:101E400024081200527A12005625900061EA12000E
:101E5000140E80C6120052E0E924051200527AE9FD
:101E60004A4B700301289C120052E0E9240512003D
:101E7000527A900061E71200140EC8EEC87401088F
:101E80008002C333D8FCFF900061D8E0FE9000319F
:101E9000501200566DEE12005294E05F70079000F1
:101EA00061DEE060283011117B017A5D79C012009B
:101EB0005539900061E37402F03012117B017A5EB3
:101EC000791512005539900061E37403F012005245
:101ED000E0E92404120052666041120053621200CD
:101EE00011ABFF900061E7120013EE120011AB6F0F
:101EF0006029E924071200527AEA494B700301284D
:101F00009C900061E71200555A1200527A12005656
:101F100025900061E71200140E80B2120052C61222
:101F2000019BB4900061E7120013EEE92404120053
:101F3000527A12005539900061E71200544712009E
:101F40005266900061E3F0E490006206F090006158
:101F5000E3E0FF90006206E0D39F40030126BF123A
:101F600000543B12005263FF7E0064077002D211DE
:101F7000301138EF64074E600FEF640C4E6009EFCC
:101F800064014E6003012689EF640C4E6017EF6414
:101F9000014E60030120211200529D12005314646F
:101FA0008045F0707CC211D212800330127312008F
:101FB000543B12005263FF6401600DEF6409600836
:101FC000EF640C60030126891200529D1200531425
:101FD000FFAEF064014E6049EF64804E6043EF64F1
:101FE000024E603DEF64304E6037EF64314E603139
:101FF000EF64384E602B1200543B12005263640CA5
:10200000601F1200529D12005314FFAEF064814E07
:10201000600FEF64824E6009EF64834E6003012617
:10202000891200543B120011AB64806003012689C1
:10203000201103012484120052E0E924011200520D
:102040007AE94A4B70357D1F7F10FE120183911291
:10205000005509EBC0E0EAC0E0E9C0E0120052E040
:10206000120054BC12001434120052E0E924011290
:1020700000527AE94A4B700301289C1200529D24B9
:102080000112005266600764026003012689D20FC4
:10209000E49000620EF01200529D24151200526668
:1020A000FF60121200526F1200126F64E045F07070
:1020B00016D20E80121200529D240D120053166487
:1020C000E045F07002D20E3025030126C590005382
:1020D000CEE0900061E4F0EF60461200526FE92418
:1020E00002120052661200529C2406120052662F01
:1020F000FFE433FE7803EFCEA2E713CE13D8F890B7
:102100000062051200526EE92402120052661200AB
:10211000529C2406120052662F9000620AF080152D
:102120001200529D240612005266FF9000620512B2
:102130000056A0EFF01200529D240812005266646F
:102140000160030123971200529D24091200526678
:1021500090006208120056A0E09000620C12005538
:10216000AD90006208120055BA4003012689900024
:10217000620CE02EFF90006204F0900061DDE0FE52
:10218000EFD39E400301268912005362900062043F
:10219000E02912005266FC70030123909000620A4D
:1021A000E02408FE90006209F01200529D240712FC
:1021B000005266FDEED39D400AED5407900062097F
:1021C000F08007900062097408F09000620BECF058
:1021D000120056AB9000620DF0120056DC900062C7
:1021E000091200557CFEC39F400301239074B42E56
:1021F00012005308FF9000620BE05F700301238917
:102200001200529D24151200526670030122BA1268
:102210000056AB1200557D2F9000620FF0E4900045
:10222000620EF01200529D241512005266FF9000BB
:10223000620EE0FEC39F40030122E21200526FEEE5
:1022400012005674291200556412005266FD900067
:10225000620FE0C39D4059900061ED1200524EFFA5
:102260009000620FE0D39F50471200526F900062BF
:102270000EE0FF1200540AFD90006210E5F0F0A39A
:10228000ED1200526EEF75F004A42912005346249B
:102290000212005266FF9000620FE0C39FFF12001F
:1022A000526F9000620E12005409FDCEEDCE802CCC
:1022B0009000620EE004F00122231200529D240DD2
:1022C00012005316FFAEF090006210EEF0A3EFF094
:1022D00090006207E0FE9000620DE02E2F900061FA
:1022E000DFF090006210E07004A3E064E0702E90D4
:1022F0000061F01200557CFE12005306FDEF4D9078
:102300000061F0F0900053CEE04DF074B42E120056
:102310005308FF900061E4E05F70478041900061E6
:10232000DFE01200544FF583C083C082120052FBDD
:10233000FCEE4C759300D082D083120052DFE9246A
:10234000011200527A120054BC7E00E92FF9EE12FD
:10235000005268FF74B42D120053085F700412001D
:10236000289D9000620B1200557C12005306F4FE6B
:10237000EF5E9000620BF0701012005362900062EA
:1023800004E0291200547280071200567C0121DDFE
:10239000120056840121611200529D24081200523D
:1023A00066640860030126891200529D240612000B
:1023B000526690006204120055AD1200529D24092D
:1023C00012005266120055BB4003012689EEFFA39E
:1023D000E02FFFE433FE900061DDE0FDD3EF9D745C
:1023E00080F86E98400301268990006203E0FFA305
:1023F000E02FFFE433FE12005362120053CAFF9035
:1024000000620BF0E4120011DDEF64017004D210E1
:10241000805D9000620BE060561200529D240D1208
:10242000005316FF9000620BE02F900061DFF01266
:1024300000544FF583C083C082120052FBFCEE4C67
:10244000759300D082D083120052DFE9240112007C
:10245000527A120054BC7E00E92FF9EE1200526845
:10246000FF74B42D120053085F70041200289D12EF
:102470000052C612019BB430250301268912005672
:10248000840123BA201203012689E4900061E5F05B
:10249000A3F01200529D240112005266FF640260F4
:1024A00014EF6406600FEF6460600AEF6007644039
:1024B00060030126501200543B12005263640970FD
:1024C00011D224120053521200FBA690005E9A0112
:1024D0002558D2241200529D12005314FFE5F060DB
:1024E000030125BCEF24CF603514606024FA605CE2
:1024F00024B8606C245060030125BC1200529D2456
:1025000008120052661200534D1200FBA690005EA6
:102510009CEEF0A3EFF07B017A5E799C80211200A3
:10252000529D2408120052661200534D1200FBA661
:1025300090005E9EEEF0A3EFF07B017A5E799E90B4
:10254000005E9AE0FD1201A10F01266D12005352A8
:102550001200FBA690005EA0EEF0A3EFF001266D46
:102560001200536212005433120028B1900062121C
:10257000EE807790006212E0FCA3E0FD4C70251223
:1025800000529D240C12005266700301266D9000CB
:102590005E99E04404120056B6E490005EA2F0A3F7
:1025A000F001266D90005EA2120056BD4404F012A8
:1025B00000529D240C120053F101266D120053624B
:1025C00012005433120028B190006214EEF0A3EF11
:1025D000F01200543B1200526364017013900062C9
:1025E00014E0FFA3E090006212CFF0A3EFF080832D
:1025F00090006214E0FCA3E0FD4C70231200529D99
:10260000240B12005266602E90005E99E04408127E
:102610000056B6D224E490005EA4F0A3F080179098
:10262000005EA4120056BD4408F01200529D240B17
:10263000120053F1D2241200529D2401120052665E
:102640006460702990005EA4E07002A3E0601E2226
:102650001200529D24011200526670111200529D08
:1026600012005314640145F070030125BC90006111
:10267000E5E07002A3E060030124D2120052C6120A
:10268000019BB430250301289C120052C612019B05
:10269000B42025211200529D24191200527AEA49D1
:1026A0004B60121200529D24191200527A120056E9
:1026B000251200553990006206E004F0011F4D30EC
:1026C000100301289C200F0301289C120052E0E90E
:1026D00024011200527A120011ABFF900061F0E069
:1026E0006F700301277D200E0301277DEF607812B4
:1026F0000056DC120054A6506E120052E0E924018C
:102700001200527A120011ABFE74B42F120053085B
:10271000FF5E603C900061F0E05F70349000620703
:10272000E012005306120056CF90005527E014F037
:10273000900053CE1200557CFE12005306F4FDEFBC
:102740005D900053CEF0EE24E0FD7F011200A682E2
:10275000120052E0E924011200527A120011AB601B
:10276000061200567C808C900061F0E0FF1200524F
:10277000E0E924011200527AEF120011DD900061AD
:10278000E0740F120055B2900061E0120055BA409B
:102790000301289C120052E0E924011200527A122F
:1027A0000054BCEE7E0029F9EE12005268FF70035F
:1027B00001286C90006203E0120054681200530D6F
:1027C0006F700301286C120056DC120054A64003FF
:1027D00001286C120052E0E924011200527A120022
:1027E00054BC90006203E0FE7C0029F9EC12005218
:1027F00068FD74B42F12005308FF5D605274F12E0F
:10280000F582E434611200530D5F7043120052E010
:10281000E924011200527A120054BC90006203E0D5
:10282000FF29F9EC1200526890006207120053036E
:10283000120056CFEF33333354F82D04900061DF8C
:10284000F0FD90005527E014F07F011200A68212DF
:102850000052E0E924011200527A120054BC120026
:1028600056E34F60071200567C0127CA90006203AE
:10287000120054661200530DFE120052E0E92401CA
:102880001200527A120054BCEF7C0029F9EC3AFA9B
:10289000EE120011DD1200568401278722900055A8
:1028A00027E004F0900061DFE0FDE4FF1200A68263
:1028B00022900063011200140E7B017A6179E51207
:1028C00000570222900062CAEFF0A3ECF0A3ED12D1
:1028D0000051A7E4900062D0F0A374FFF0E49000F0
:1028E00062D3F0A3F012004E88FF900062E0120065
:1028F0004FDBE9240112004C4C24FC7003012A0533
:10290000147003012BC424E47003012B84241F6082
:1029100003012F97900062CD120013EEE92FF9EA20
:102920003EFA900062D71200140EE9240412004C03
:102930004CFEC3940640097406120011DD7F00228C
:10294000900062CA1200511312004B64E04E75935E
:1029500000F0120050CD12004B64E0701D120050C8
:102960009C240512004C4C120050A69000314D12D0
:10297000004C76EE12004B69EFF01200509C2405DB
:1029800012004C4C120050A69000314F12004CB671
:10299000EE12004B69E0FDEFD39D400F9000314FE8
:1029A00012004C82EE12004B69EFF01200509C2492
:1029B0000812004C4CD3943240067432120011DDE0
:1029C0007E007F04EEC0E0EFC0E0900062D712000E
:1029D0004C454480FD900062CAE075F0EAA424CC26
:1029E000F9740835F0FA7B01D0E0FFD0E0FE120068
:1029F000160C900062D712004C4512004E999000C0
:102A00003170012B7612004E88900062DA12004F6E
:102A1000DBE9240212004C4CC3940640037F0022E1
:102A200012004EFC240312004C4C700B900062D03C
:102A3000F0A3E004F0800A900062D1E0B4FF02E469
:102A4000F012004EFC240512004C4CFF70211200C5
:102A50004DE212004B64E0FE900062D1E0FD1200F6
:102A60004C9912004F262D12004B82EEF0802A1254
:102A7000004F2E9000315212004B73EFF0ED120018
:102A80004C36ED12004B69E0700F75F078ED1200D6
:102A90004C39ED12004B69EFF012004EFC2403128A
:102AA000004C4CFF12004F2E75F0789000317112DF
:102AB000004B76E0FCEFD39C400E75F078ED900073
:102AC000317112004B76EFF012004EFC240612001A
:102AD0004C4CFF900062D1E0FE75F078ED90003133
:102AE0005812004B76EFF0900062DA12004C4590DD
:102AF00000316412004B71EFF012004EFC240412FE
:102B0000004C4C9000317712004B71E0FEEFD39EE9
:102B1000401112004F2E75F0789000317712004B63
:102B200076EFF0900062DA12004C45640160030118
:102B30002F97900062CA1200505D12004B64E0446F
:102B400001120051CB5430601590005FE612005125
:102B5000D29000325912004B64EEF0012F97900092
:102B60005528E02481F582E4345212004E0D120003
:102B70004E9990003259120013E2EE12004B69EFA9
:102B8000F0012F9712004E8829F9EA3EFAE924074E
:102B900012004E331201ADE512004F349000320F97
:102BA00012004CBFED2583F583C083C08212004E16
:102BB000B2D082D08375F002120013E2EEF0A3EFE0
:102BC000F0012F97900062D0E0D394064003012FCC
:102BD0008D12004E8829F9EA3EFA900062DD12005B
:102BE000140EC238E4900062D2F0900062D0E0FF90
:102BF000900062D2E0FEC39F505E12004E5A240243
:102C000012004C4C547FFF12004F3412004BDAED8F
:102C10002583F583C083C082120050ADD082D0835B
:102C200012004E7375930012004B7FE0547F6F705B
:102C30001E900062CAE0FF9000317112004CCB126E
:102C4000004F262D12004B82E0600DD23880099093
:102C50000062D2E004F0809212004E5A2404120066
:102C60004E331201ADE5900062D5EEF0A3EFF09087
:102C70000062D1E012004E9912004C9DEE12004FFE
:102C8000272F12004B82E06401704712004C35EE92
:102C900012004B69E06401600C12004C35EE12002A
:102CA0004B697401F0D3900062D6E094C09000624A
:102CB000D5E09400401CE4F0A374C0F0FF7E001245
:102CC00001ADE512004E5A1200500CEE8FF01200CA
:102CD0001293203803012E5712004BC0EE2583F5C6
:102CE00083C083C082120050ADD082D08312004EC8
:102CF00073C083C08212005035D082D083258212E7
:102D0000004B82E06F7003012DDF12004C35EE1294
:102D1000004B69E064037003012F5112004E5A24E6
:102D20000212004C4C120050A612004BDAEE1200B8
:102D30004B691200511DC083C08212005035D082F1
:102D4000D083258212004B8212004BE5EE12004B1D
:102D5000691200511DC083C082900062D2E0FE75EE
:102D60009300D082D083258212004B8212004DE066
:102D700012004B64E0B4092012004E14C083C082DC
:102D800012004EB2D082D08312004E73759300129F
:102D9000004B7F74F0F0802D12004B9BEE2583F5E5
:102DA00083C083C08212004EB2D082D08312004E04
:102DB00073C083C08212005035D082D08325821226
:102DC000004B82EFF012004E5A240312004C4C5478
:102DD00003C43354E012004E99900031C5805490E2
:102DE0000062CAE0900031A112004D02EF2583F588
:102DF00083C083C08212004EB2D082D08312004EB4
:102E000073C083C08212005035D082D083258212D5
:102E1000004B82E0FF900062D5E0FCA3E0FDD39F71
:102E2000EC94005003012F51CFEDCF12004E9A9039
:102E30000031A1120013E2EE2583F583C083C08226
:102E400012004EB2D082D08312004E73C083C08273
:102E5000900062D2012F4112004BC0EE2583F58312
:102E6000C083C082120050ADD082D08312004E7356
:102E7000C083C082900062D0E0759300D082D0837E
:102E8000258212004B8212004BE5EE12004B6912B4
:102E900000511DC083C082900062D0E0FE75930097
:102EA000D082D083258212004B8212004DE01200A6
:102EB0004B64E0B4092012004E14C083C08212009B
:102EC0004EB2D082D08312004E7375930012004B25
:102ED0007F74FFF0803112004B9BEE2583F583C099
:102EE00083C08212004EB2D082D08312004E73C0D3
:102EF00083C082900062D0E0759300D082D0832599
:102F00008212004B82EFF012004E5A240312004C42
:102F10004C5403C43354E0120050A6FE900031C557
:102F200012004D19EE2583F583C083C08212004E36
:102F3000B2D082D08312004E73C083C082900062F0
:102F4000D0E0759300D082D083258212004B82EFAF
:102F5000F012004EFC240512004C4CB4092F120054
:102F60004E5A2406F9E43AFA74FA120011DD1200FE
:102F70004E5A240212004C4C547F120050A690006E
:102F8000327812004D31EE12004B69EFF020380715
:102F9000900062D0E004F0900062E0120013EE12A4
:102FA0000011ABFF900062D3E48FF0120012599031
:102FB0000062CBE0FEA3E0FFC3900062D4E09F90EC
:102FC0000062D3E09E50030128E57F012290006754
:102FD000101200140EE4FCECC39D501A9000671010
:102FE000120013EEE92CF9E43AFA120011ABFF12C9
:0B2FF00001ADD10C80E17E007F0122CA
:102FFC00FFFFFFFF900062A8EFF0A3EDF0C223E407
:10300C00900062B4F0A3F0900062C804F0900062EB
:10301C00BC1200554C120056EA75F07890003265DF
:10302C001200528F120013EE900062B61200140EB2
:10303C0012001417900062AD1200140E1200523FD1
:10304C00240A12005316FF900062B0E5F0F0A3EFD3
:10305C00F01200559B120053CCFF540304900062F5
:10306C00AAF0FDC3900062B1E09D900062B0E094C4
:10307C00005003013AF1C222EF54FC900062ABF015
:10308C00E4FFEFC3940D748094805018EF90001DF2
:10309C001E93FE900062ABE0FDEE6D7004D22280B8
:1030AC00030F80DE202224900062AAE012005584D7
:1030BC00C3900062B1E09FFF900062B0E09EFEF012
:1030CC00A3EFF04E7003013AE380861200559B1279
:1030DC000053CCFF540CFECDEECDEF54F0900062BB
:1030EC00ABF0900062AAE0FF7E00C394027480945F
:1030FC0080500AE4900062B2F0A3F08044EF6402C6
:10310C004E700A120053B2120055C5803490006202
:10311C00AAE0D39402748094804026120053B21219
:10312C000055C5900062AD120013EE900062B5E040
:10313C002402120053C1900062B275F0001200120A
:10314C0059CFEDCFEF24FC700301380324FC70033E
:10315C0001398124086003013AB1900062ABE0FFB1
:10316C002470601524F0700301375124E0700301C2
:10317C00378A24406003013AB11200523F241C12DA
:10318C00005266FE1200523F241D120052668EF051
:10319C00A4FEEF6480700B1200523F12005643EEF7
:1031AC00800CCFEECF1200523F120055E2EF12000E
:1031BC0011C11200523F24091200526654016003DF
:1031CC00013711120056EA900062ABE0FD900062EC
:1031DC00B2E0FAA3E0FB12010A43EF7003013711CE
:1031EC00120052821200537E70307D20FE12003B82
:1031FC002112005509120052821200556C900032B7
:10320C006C1200528F1200537E70097B827ABA794D
:10321C00390133CE120052828040120054B4120095
:10322C0011ABFF900062A9E06F60447D217E00121B
:10323C00003B211200536A7003013AB1120054E1B1
:10324C00EBC0E0EAC0E0E9C0E0120054B4E91200BF
:10325C0055E212001434900062C5120013EE900077
:10326C0062BF1200140E900062A9E0120011DD1270
:10327C000054B4E924051200527AE94A4B60030168
:10328C00330E7D22FE12003B2812005509EBC0E0E4
:10329C00EAC0E0E9C0E0120054B4E92405F9E43ACC
:1032AC00FA12001434120054B4E924051200527AB4
:1032BC00E94A4B7003013AB1120054B4E9240512E7
:1032CC0000527A900062BC1200140E1200523F247D
:1032DC001312005266120055E9EF120011DD1200B4
:1032EC00523F240E12005316FF1200531E120052AE
:1032FC003F241012005316FF12005418120056F1FE
:10330C00806A1200523F241312005266120055E9D3
:10331C00120011AB6F605A7D237E0012003B281205
:10332C0000536A70097B827ABA794A0133CE120053
:10333C0054B4E92404120053F1120054E1EBC0E040
:10334C00EAC0E0E9C0E0120054181200564A12001C
:10335C001434120054E1900062BC1200140E1200DE
:10336C00523F241312005266120055E9EF1200115D
:10337C00DD1200568C900062B67006120056618009
:10338C00041200551612005266FF900062B9E4F068
:10339C00A3EFF01200523F241D12005266900062FF
:1033AC00BBF0900062C8E070030134427D247F1CA6
:1033BC007E00120183911200536A700D7B827ABADF
:1033CC00795B120016C7013AB1120054182404128A
:1033DC0000527AE94A4B702D120054E1900062C2FF
:1033EC001200140E900062C2120013EEEBC0E0EA61
:1033FC00C0E0E9C0E0120054182404F9E43AFA12CF
:10340C000014348031120054182401120053F112AC
:10341C000054E1EBC0E0EAC0E0E9C0E0120054C4A3
:10342C002419F9E43AFA12001434120054E1900011
:10343C0062C21200140E1200523F24AE12005266E9
:10344C00FFD31200554550030136B81200523F24E9
:10345C001412005316640C45F060101200523F24F5
:10346C000E12005316640C45F07064EF12003AF221
:10347C00EBC0E0EAC0E0E9C0E0120054C42416F945
:10348C00E43AFA12001434900062C212005273EA49
:10349C00494B603B1200523F24AE120052661200A0
:1034AC0056741200523F120054E9EBC0E0EAC0E03F
:1034BC00E9C0E0900062C212005273120055D8D0DD
:1034CC00E0F9D0E0FAD0E0FB1200112D01357012BA
:1034DC0000523F24B012005266900062ACF0120011
:1034EC00523F241C120052666401600E1200523FBF
:1034FC00241D120052666401707B1200523F24AEF0
:10350C001200526612003AF2EBC0E0EAC0E0E9C0E9
:10351C00E0120054C42416F9E43AFA120014349060
:10352C000062C212005273EA494B60381200523FDB
:10353C0024AE12005266120056741200523F120052
:10354C0054E9EBC0E0EAC0E0E9C0E0900062C212CE
:10355C00005273120055D8D0E0F9D0E0FAD0E0FB5D
:10356C001200112D120053861200523F24AE12008D
:10357C00526601370D1200523F24AE12005266FF04
:10358C00900062ACE0C39F40030137111200523F20
:10359C00241C12005266FF7E001200523F241D12A2
:1035AC00005266900062C9F07401120011DD120025
:1035BC00523F24AE12005266C39401FD900062ACDF
:1035CC00E06D60411200568C701A1200523F2405B7
:1035DC0012005266CCEFCC2CFD1200523F1200565A
:1035EC0043ED801D900062ABE064907018120052A5
:1035FC003F2407120052662F1200523E120055E271
:10360C00EF120011DD12005386E412003B0890000B
:10361C0062ABE0FF7E00648070271200523F2406EC
:10362C0012005266FD1200523F24051200547D9088
:10363C000062B9A3E0FD1200523F12005643ED8028
:10364C0029EF64904E70271200523F24081200524A
:10365C00661200523E240712005329900062B9A34F
:10366C00E01200523E120055E2EF120011DD900004
:10367C0062C9E01200523E241D120053291200525E
:10368C003F24B0120053F11200523F24AE120052EC
:10369C00661200523E24B012005266C39F500301C2
:1036AC0033AE1200523F1200547080591200523F38
:1036BC00241E12005316FF120054C4120053FB12A6
:1036CC0000523F241C120052666401602F120052FB
:1036DC003F241D12005266FFD312005545401D12A7
:1036EC0000523F240E12005316640C45F0700D125C
:1036FC0000523F24AE120053290134DB12005386D2
:10370C00E412003B081200568C900062B670101246
:10371C00005661120052661200523E2405800E12B1
:10372C00005516120052661200523E240712005326
:10373C00297E007F937D001200523F120054E91243
:10374C0000160C80221200523F24091200526644CB
:10375C0004120011DD1200523F2412120053F11218
:10376C0000523F120054701200523F2410120053AA
:10377C00161200523E120054E9E5F0013A371200DD
:10378C00523F2412F9E43AFA120056B7120011AB68
:10379C00705E1200523F24091200526654FA120055
:1037AC0011DD7E007F0B7D001200523F2413F9E4E3
:1037BC003AFA1200160C7E007F937D001200523FE5
:1037CC00120054E91200160C1200523F240512008C
:1037DC0054721200523F2406120054721200523FCF
:1037EC002407120054721200523F24081200547223
:1037FC00900062C801393A1200523F24091200525B
:10380C006654016003013AB1900062ABE0440424B9
:10381C00FC70030138B924F0700301395D24F07099
:10382C000301396F24B0700301394C24E07003019B
:10383C00394024106003013AB1900062C87401F061
:10384C00120056EA75F078900032681200528F120E
:10385C000013EE120011AB120055D0FDCEEDCE547C
:10386C001F4F120011DD120055D11200523E2413CD
:10387C00120053291200523F2405F9E43AFA740855
:10388C00120011C11200523F12005643740812006C
:10389C0011C11200523F1200564A7408120011DD79
:1038AC001200523F120055E27408013AAD12005258
:1038BC003F24091200526630E21512005592120094
:1038CC00523E2414F9E43AFAEE1200540380211209
:1038DC000055921200523E240EF9E43AFAEE120010
:1038EC005403900062BC1200537E60041200531EFD
:1038FC00900062B2E07004A3E0640C6003013AB182
:10390C00900062A9E0FF900062A8E0900031641280
:10391C000054F01200562D1200530D6003013AB101
:10392C00EE120056691200562DF583759300740142
:10393C00F0013AB1120055D11200523E241D800AFA
:10394C00120055D11200523E241C12005329013A88
:10395C00B1120055921200523E2418F9E43AFAEED4
:10396C00013A37120055921200523E241AF9E43AE9
:10397C00FAEE013A371200523F240912005266FF48
:10398C0054016003013AB1900062ABE0440824E8B2
:10399C007003013A3B24F07003013A582420600371
:1039AC00013AB1EF900062B230E263E0FCA3E012A6
:1039BC0000522612005345120054E9EC8DF012000F
:1039CC001293900062B2E0FCA3E0120052261200A7
:1039DC005345120054E9EC8DF01200129312005270
:1039EC0013120053451200547B1200521312005351
:1039FC004524211200547D1200523F120053EF1245
:103A0C0000523F24AEF9E43AFA7401013AADE0FEFB
:103A1C00A3E0FFCDEFCD1200541824031200547D07
:103A2C001200523F2410F9E43AFAEE8FF08017900E
:103A3C000062B2E0FCA3E0120052261200534512C1
:103A4C000054E9EC8DF012001293805912005213BD
:103A5C00120053451200547B12005227120053459A
:103A6C00241E12005316120055D0FDCEEDCEC39F6E
:103A7C001200523E24AFF9E43AFAEF120011C112CF
:103A8C000052221200534524211200547D12005280
:103A9C003F120053EF1200523F24AEF9E43AFA748D
:103AAC0001120011C1900062AAE0F9120055849035
:103ABC000062B0E0FCA3E0FDC39FEC9E4011E9FF67
:103ACC00ED9FFFEC9E900062B0F0A3EFF08008E455
:103ADC00900062B0F0A3F0900062B0E07002A3E03E
:103AEC00600301305D2275F004A4FFAEF07D251259
:103AFC00018391CAEECAC9EFC97B01229000637F92
:103B0C00F0900062B2E0FAA3E0FB1200C4C890008F
:103B1C0062C8EFF0227F0B12018391227F0A1201FF
:103B2C00839122E49000650BF0C23C900047F0E0DA
:103B3C0070041201AED4900042EAE090006505F0EA
:103B4C00E0FD9000321F1200721AED1200710FE0AE
:103B5C0090006506F0C39412A3F0ED1200719FED76
:103B6C001200710FE020E70301439F120070FDE08B
:103B7C00700301439F120070FDE0120014883BAFEC
:103B8C00013BDE023CA9033D0D043F76053FD906FF
:103B9C0040A50740C408419C0941B40A423F0B00B0
:103BAC000042CC120070FD7402F075F078EF9000BA
:103BBC0032541200710A7401F0120073B51201969E
:103BCC0089120071689000310E1200710AE4F00144
:103BDC0042CC120071391200735A6003013C699097
:103BEC00006505E0FD9000322C12007256ED1200BB
:103BFC00710FE0548090006508F090003232120092
:103C0C007219ED1200710FE0FEA3E04E603A9000C5
:103C1C006508E0B48008120070FD74038030120057
:103C2C0070FD7405120072C61200710AE0640D601A
:103C3C0003013B81D23C120071689000323C1200AF
:103C4C00710A7402F00142CC120070FD740712006C
:103C5C0074081200710AE4F0A3F0013B81120073A6
:103C6C002264037003013EF1EFB40703013EF190AF
:103C7C0000650BE0640B60030142CC120070FD7414
:103C8C000C120072C61200710AE0640D600301424E
:103C9C00CC120071681200729FEF013F2B900065EF
:103CAC0006E0FF12007180E0FCA3E0FD90002DBB4C
:103CBC00120071DC120074BDFFEE9CFE90006509D1
:103CCC00F0A3EFF090006506E090002DB5120071A6
:103CDC00DDE0FCA3E0FDC39FEC9E5009900065095C
:103CEC00ECF0A3EDF0120072DB1200743EE49000D5
:103CFC006441F012011529120070FD7404F00142A8
:103D0C00CC12007139E09000650BF09000650BE06F
:103D1C0064026003013EB090006506E0FEC394129D
:103D2C00A3F0EE12007180120073B075F011120046
:103D3C00726BE0FAA3E0C39FFFEA9E90006509F066
:103D4C00A3EFF075F011ED12007204E0FEA3120067
:103D5C0072AB9E4005EEF0A3EFF01200716890007C
:103D6C00310E1200710A120072C51200710AE06461
:103D7C000D706C90006509E0FEA3E0FF90006505F6
:103D8C00E0FD9000324412007453ED1200710FEEFE
:103D9C00F0A3EFF0E490006508F0120072A7940015
:103DAC00402A120074C41200727D1200712AFE9017
:103DBC00006506E075F011120073D9120013EEE9DC
:103DCC002FF9E43AFAEE1200745A80CE12007168A0
:103DDC009000323C1200710A7403F0D23C804FE424
:103DEC0090006508F0120072A79400404112007414
:103DFC00C41200732A1200712AFC120073B512004F
:103E0C007180E0FAA3E0FBEFF582758300EB25826D
:103E1C00FFE5833AFE75F011ED120073D912001311
:103E2C00EEE92FF9EA3EFAEC1200745A80B79000D2
:103E3C006509120073B012007180EE8FF01200123F
:103E4C005975F011ED1200726BE0FEA3E0FF75F0F6
:103E5C0011ED12007183E0FCA3E0C39FEC9E502C8B
:103E6C00120071689000310F1200710AE0FD12000F
:103E7C0071FCE0FAA3E0C39DEA9400500675F0785B
:103E8C00EF800D120070FD7403F0800F120071684A
:103E9C009000322B1200710A7409F0303C0301427D
:103EAC00CC013B81120073226403703590006505D0
:103EBC00E09000310E1200720CEE1200710FE00453
:103ECC00F0D39403400C75F078EE12007160EE01A3
:103EDC00422212007157EE1200710F7403F0013B75
:103EEC0081EFB4070C120072DB1200715DEF01421E
:103EFC002212007322640B702F12007157EE120005
:103F0C00710F740CF0120071E4EE1200710FE0648A
:103F1C000D60030142CC120074CE1200729FEE129F
:103F2C0000710F740C01405DEF6404702B12007172
:103F3C00FCE0FEA3E04E60069000650B80261200AC
:103F4C0070FD7403120074081200710A120073BC25
:103F5C005003013B810141589000650BE0640C60FB
:103F6C00030142CC7402F0013D17120071689000FD
:103F7C0032341200710AE0B40D1775F078EF90002E
:103F8C0032441200710AE0FFA3E090006509CF8073
:103F9C002290006506E0FF12007180E0FCA3E0FDBA
:103FAC0075F011EF1200726B120074BDFFEE9C9055
:103FBC00006509F0A3EFF0120072DB1200743E12E0
:103FCC0000ED0C120070FD7406F00142CC12007171
:103FDC00391200735A600301407590006506E09039
:103FEC00002DBD12007172EC8DF012001259900070
:103FFC006506E090002DBB12007172120074BDEECC
:10400C009C120071689000322B50091200710A74D6
:10401C0005F080071200710A7407F01200716890A5
:10402C000032341200710AE0640D6003013B8175AB
:10403C00F078EF9000322B1200710AE0B405189062
:10404C00006505E075F0789000323C1200710A743E
:10405C0007F0D23C0142CC120071689000323C1245
:10406C0000710A7408F0013B8112007322B40B0337
:10407C0001412DEFB4040A120070FD7405F0013BF0
:10408C00819000650BE0640760030142CC12007262
:10409C00DB1200715DEF014222120072DBA3E0FD26
:1040AC00900064417401F0E4FBFA1201152912002E
:1040BC0070FD7408F00142CC120071391200735A71
:1040CC00701E12007168900032341200710AE0B454
:1040DC000D0B120074231200710A7408F001419246
:1040EC001200732264076004EFB4030C120072DB3D
:1040FC001200715DEF01422212007322640B7030CA
:10410C00120074CE120071E8EE1200710FE0B40DC3
:10411C00109000323C120071D0EE1200710F740C32
:10412C00F012007157EE1200710F740CF00142CCBA
:10413C00EF6404702A120070FD74071200740812E8
:10414C0000710A120073BC5003013B8112007168AC
:10415C00900032291200710AE4F0A3F0013F05909F
:10416C0000650BE0640C60030142CC120071689096
:10417C000032341200710AE0B40D0B1200742312D9
:10418C0000710A7408F0120070FD740DF00142CC3D
:10419C00120072DBA3E0FDE4FBFA1200ED0C12003E
:1041AC0070FD740AF00142CC120071391200735A7E
:1041BC007028120070FD740D120072C61200710A84
:1041CC00E0640D60030142CC120071689000323C37
:1041DC001200710A7414F00142CC12007322B40460
:1041EC000712007157EE8041EF6407600C90006578
:1041FC000BE0640360030142CC1200716890003143
:10420C000E1200710AE004F0D39403401375F07899
:10421C00EF12007160EF1200710F740BF0013B8113
:10422C00120072DB1200715DEF1200710F7409F055
:10423C00013B8112007168900031071200710AE095
:10424C0020E71F90006505E09000322812007352A1
:10425C00EE1200710FE4F075F078EE12007160EE62
:10426C00805775F078EF900032281200710AE00444
:10427C00F0D39402502E120070FD7401F090005D8A
:10428C00BCE0FD90006506E0FB900063FDEFF0A341
:10429C007401F0A374F4F0A37401F0A374F4F0E4CB
:1042AC00FF01439B12007168900032281200710AC2
:1042BC001200741212007160EF1200710F740EF084
:1042CC00120070FDE0FF640D600DEF640E6008EFEE
:1042DC00640C600301439112007168900032281243
:1042EC0000710A12007412900032541200710A12FA
:1042FC000072C51200710AE024F7601814603424AF
:10430C00FE604114604F24FE6068240770779000B3
:10431C0030DC8034120071689000321E1200710A79
:10432C00E0FB90005B5CE0FD900063FDEF12007120
:10433C00C5801A12007168900032381200710AE0C0
:10434C006043803D90002F72120071BAFB7F041203
:10435C000109038030120070FDE0640D600B120047
:10436C0074231200710A740CF0120071B6FB7F04F6
:10437C00801D12007168900032381200710AE060E2
:10438C00041201AE79303C0B120071B6FB7F0412A3
:10439C0001090322D230E4900063C2F012009A4A61
:1043AC0024AEF582E434121200982E783712009A5B
:1043BC004924AFF582E434121200982E783412009E
:1043CC009A4924B0F582E434121200982E783512F2
:1043DC00009A4924B1F582E434121200982E7836F2
:1043EC00F618E6FF5470FEC4540F7838F6EF5407F5
:1043FC0008F6784406E6C394404002E4F67837E6C3
:10440C00FFC394044003014B4C7834E620E70301CE
:10441C0049287838E69000085912009913E020E7F3
:10442C00030149281200991B1200982E30E207183C
:10443C00E6FF1201A8E87835E6540760030145163B
:10444C0008E620E0030144F608E6FF08E6FE75F0F6
:10445C00EA900008FC1200982260589000322B124F
:10446C00009A7C120098B7FD64096015ED640A602F
:10447C00109000323C12009A7C120098B7641470B1
:10448C003212009A5612009822C394A050161200B1
:10449C009A521200982204F07844E67003763F2278
:1044AC007844162212009A52120098CA2F120099C0
:1044BC0025E4F0120099B61200989FE6FD08E690EC
:1044CC000063D2F008E6A3F0A37401F012015ABC09
:1044DC00120099B61200989F12016DFE7838E6FF13
:1044EC0018E6FD120078F50149367835E678373054
:1044FC00E30CE6FF08E6FD12014F4C014936E6FFDE
:10450C0008E6FD12015B5E0149367835E620E303CF
:10451C000147FA120098A7B4091318E6FBCDEBCDAE
:10452C00E490006578F012013D180149367838E6C0
:10453C006401600301463808E6640170637837E66D
:10454C00FA1200994F120098B9FE90004E7EE0FDD1
:10455C005E600301460DE6FC2475F582E4344E12D0
:10456C000098B9FB747A2CF582E4344E120098B999
:10457C006B6023ED4E90004E7EF090004D45120086
:10458C009B02EAF0E4A3F0A3F0A3F0A3F0FB7F03FB
:10459C0012010903806B7837E6FF1201A286806155
:1045AC007839E6FF64026008EF6403600301493662
:1045BC007837E6FF1200994F120098B9FE90004E22
:1045CC008CE0FD5E703B74832FF582E4344E120058
:1045DC0098B9FF90004E8BE06F6026E6FCED4E9094
:1045EC00004E8CF090004E7912009B02ECF0A3E48C
:1045FC00F0A304F0A3E4F0A304F0E4FBFF12010920
:10460C00037839E624D2F582E43461F583C083C0A3
:10461C0082759300E0FF7837E69000000393FEEF7D
:10462C004E759300D082D083F00149367839E6FF7D
:10463C0018E6FE12009A60120098225460646060C2
:10464C000301493612009A5F12009822540F783AEF
:10465C00F6E6FF90002F7C12009A8EE0900063C269
:10466C00F090005528E0FE783766600301474775E7
:10467C00F016EF1200997CC083C082E0FD74B82E56
:10468C00F582E4345D120098B9F4FEED5E7593008A
:10469C00D082D083F090002F8112009A8DE0FF78A9
:1046AC003AE6FE75F01690002F82120013E2E06FCE
:1046BC00601090005528E0783812009A6CEE1200C9
:1046CC004B4D7837E6FF08E675F0EA9000089E122D
:1046DC00009822FD7C0008E6FBC8EBC87E00740144
:1046EC00088005C333CE33CED8F9FFEE5CFEEF5D08
:1046FC004E60030149367837E6FF08E6FD75F0EAAF
:10470C009000089E12009822FEC8EBC87401088025
:10471C0002C333D8FC4EF012014E977838E6FF18DE
:10472C00E6FD78391200994E120098B9FB9000669C
:10473C00017401F012017F6B014936900063C2E0F5
:10474C00FF7838E6FE900031641200994612009909
:10475C00E7120098B9640170030147EC9000550B07
:10476C00E020E603014936783AE6FF12009979C059
:10477C0083C082E0FE7837E624B8F582E4345D121B
:10478C000098B9F4FDEE5D759300D082D083F09063
:10479C000063CAE0FE90002F8712009A8DE5822EEE
:1047AC00F582E43583120098B9FF783AE6FC75F08F
:1047BC001690002F83120013E2E5822EF582E43569
:1047CC0083120098B96F7003014936900063CAE0F8
:1047DC00FF7838E6FD08E6FBEC12004B4D0149363C
:1047EC009000550BE020E503014936014773120098
:1047FC0098A76409700301493608E6FEEF12009A87
:10480C0060120098CA2E12009829546064606003EC
:10481C0001491490005528E0FF7837E6FD6F6003DE
:10482C0001491475F0C0ED120099DF08E6FF75938D
:10483C000075F018120099F5900063C31200140E65
:10484C00120011AB900063C9F0900063C4E475F0E2
:10485C00021200125975F0EAEF900008B712009896
:10486C00CA2E12009829540F783AF6E675F048A42F
:10487C00249CF97401900063C612009B09E490001B
:10488C0063CAF0900063C9E0FFA3E0FEC39F502D04
:10489C00900063C3120013EEE92EF9E4120099673D
:1048AC00FF900063C6120013EEE92EF9E43AFAEF1A
:1048BC00120011DD900063CAE004F080C6783AE67D
:1048CC0075F048A42494F97401900063CB12009BFA
:1048DC0009900063C9E0FF120099A5EF12009A95A8
:1048EC002405F9E41200996754FC12009A952401EE
:1048FC00F9E4120099674408120011DDE6FDE4FBAF
:10490C007F0112017B63D23030301F12009A689005
:10491C000066987420F012016F76800E7834E630C1
:10492C00E70812009A681201A0AD7834E620E30380
:10493C00014A59C2E97837E6FF1460131460191460
:10494C00601F2403702275A6987835A6A780197568
:10495C00AE987835A6AF801075B6987835A6B78026
:10496C000775BE987835A6BFD2E97835E630E403F2
:10497C00014A221200991B1200982E20E003014AD2
:10498C00227837E6120099701200982E54EE12001D
:10499C00991A1200982E4402F0E6FF08E675F0EA28
:1049AC00900008BF120098225401F07D011201A55D
:1049BC00657837E6FF120158D07837E6FF7B08E4BC
:1049CC00FD1200DD0B7837E6FF7B01E4FD1201AF31
:1049DC00C77837E6FF7D01120189CF900053E4E0E0
:1049EC0020E66AE4900063CAF0900063CAE0FFC35B
:1049FC00940450141200991B1200982E20E0099078
:104A0C000063CAE004F080E1900063CAE0C3940440
:104A1C00403BC21880377835E630E4317837E612FF
:104A2C000099701200982E20E0231200991B12009E
:104A3C00982E4401F0E4FD1201A5657837E6FDE4FB
:104A4C00FF120122527837E6FF1201AD507834E69E
:104A5C0030E21A7837E6FFE4FD120157827837E628
:104A6C00FF1201AB4E7837E6FF12015C9E7834E6FC
:104A7C0030E4087837E6FF1201A07C7834E620E5B4
:104A8C0003014B4C7837E6FF701275A699783BA65C
:104A9C00A7E64420F6F5A775A699803EEFB401125F
:104AAC0075AE99783BA6AFE64420F6F5AF75AE9996
:104ABC0080287837E6B4021275B699783BA6B7E62B
:104ACC004420F6F5B775B699801075BE99783BA65B
:104ADC00BFE64420F6F5BF75BE997837E6FF1200A5
:104AEC009A26120098B970279000528012009B02EF
:104AFC00EFF012009ACF12009ACFE4FBFF120109DB
:104B0C0003EF04FF12009A2312009A1CF080291262
:104B1C00009A23120098B9C39401FFE49400FE900C
:104B2C000042F575F009EF120013E2EE75F009A4DE
:104B3C001200990712009AD07837E6FF1201A64F9F
:104B4C002290006678F0120124552290006612E043
:104B5C00FF75F0789000322B120013E2EF2583F5ED
:104B6C008375930022FFED75F078120013E2ED25AA
:104B7C0083F583E5822EF582E43583F58375930006
:104B8C0022EFF09000322BEE75F078020013E290D9
:104B9C000062DD120013EEE92406F9E43AFA120081
:104BAC0011ABFF900062CAE0900031E9FE75F0781D
:104BBC00020013E2900062DD120013EEE92402F908
:104BCC00E43AFA120011ABFF900062CAE0FE9000CA
:104BDC00317D75F078020013E2EFF0900062D5A3FE
:104BEC00E0FBCFEBCF900031A1EE75F07802001313
:104BFC00E2EE75F078020013E2900065817B007A9A
:104C0C00007900E0FF75F0789000322122FFE090EF
:104C1C000008FCFE75F0EA120013E2E5822FF58223
:104C2C00E43583F58375930022EE75F078900031AE
:104C3C0010020013E2900066B2120013EEE9240792
:104C4C00F9E43AFA020011ABF090002F71E0FD90FC
:104C5C000063FDEFF0CFEECFA3E4F0EFA3F0E4A3FD
:104C6C00F0A3F022FFE090003236FE75F0780200DF
:104C7C0013E290003111EE75F078020013E2EFF0C0
:104C8C00E0FF75F01690002F81020013E275F078AA
:104C9C00EF90003152020013E290003109ED75F0F3
:104CAC0078020013E2E09000322BFE75F0780200DF
:104CBC0013E2EE75F078020013E290003272EE759A
:104CCC00F078020013E29000657BE0FF75F078222B
:104CDC00A3E0FDCEEDCE9000658AF09000657CE0FF
:104CEC00FD9000658B2290006324E075F016900017
:104CFC002F8B020013E2FF75F078020013E2900094
:104D0C006823E0FF75F07822ED9000322175F07881
:104D1C00020013E290006324E0FF75F01690002F60
:104D2C0082020013E2FE75F078020013E29000316B
:104D3C000CED75F078020013E290006324E075F03E
:104D4C0048A4249CF9740135F0FA7B01221200135B
:104D5C00EECEEACECFE9CF22E090003109FD75F01E
:104D6C0078020013E275F0EA900008D4020013E216
:104D7C00900066BDE0FFA3E0FDA3E0FB2290006580
:104D8C008BE0FE75F078EF90003236229000657B58
:104D9C00E0FFA3E0FDE49000658AF0A322900031CF
:104DAC006A75F078020013E2E0FD75F01190002DA9
:104DBC00B2120013E20200140E900066B5E0FF750B
:104DCC00F07890003236221200140E75F078EF90C5
:104DDC0000322122EFF0900062CAE0FF75F078906B
:104DEC000031102290006755E090000904FF75F027
:104DFC00EA020013E290006327E024B4F582E43465
:104E0C005DF583759300E022900031E9EF75F07841
:104E1C00120013E2EF2583F58322F0EF75F0789002
:104E2C0000310722E92402F9E43AFA1200126FFF6A
:104E3C00AEF02290006324E0FF90002F7C75F016FA
:104E4C00020013E2F075F078EF9000323B229000F4
:104E5C0062DD120013EEE92275F01690002F8D1210
:104E6C000013E2020013EE75F006020013E290004C
:104E7C0066C1E0FF75F0789000323C22900062CD64
:104E8C00120013EE900062D3E0FEA3E022FF90002C
:104E9C0062CAE0FE75F0782275F01190002DB51203
:104EAC000013E2E4F022900062D1E075930022FD41
:104EBC00EF75F0EA020013E2FE75F078020013E2DF
:104ECC00EB54F0C4540FFFCEEFCECFEBCFEF540F1B
:104EDC00FFCCEFCCCFEDCFCDCDCFEECFCBEFCB907A
:104EEC0000652422F090002F71E0FD900063FD22FC
:104EFC00900062DA120013EEE922900066C9E0FF1E
:104F0C007C017D78120011F174072FF974313EFA8F
:104F1C00221200140E75F078EF22EF2583F583E54D
:104F2C008222900062D1E0FE900062CAE0FD2290E5
:104F3C000064F7E0FF900064F9E022E075F016A43D
:104F4C002487F9742F35F0FA7B0122EF75F0EA0211
:104F5C000013E2ED75F078020013E27B017A6379BD
:104F6C002A900064A41200140E90006326E09000B6
:104F7C0064A7F0A322F075F078EF90003110229026
:104F8C00006755E0FF75F07890003234229000668F
:104F9C00C3E0FF900066C1221200140E7B007A0061
:104FAC00790022740FF075F078EF9000323A22906D
:104FBC0000657BE0FFA3E0FD22900064F9E0FF2296
:104FCC0075F0EA90000926120013E275930022296D
:104FDC00F9EA3EFA0200140E7E007C017D78120084
:104FEC0011F1744B2FF974323EFA7B012290002F91
:104FFC0090020013E275F005A429F9EA35F0FAE9FC
:10500C002404F9E43AFA22E0FF75F0789000321F9C
:10501C0022120013EEE94A4B22900042EAE0FF22F2
:10502C00CAEECAC9EFC97B0122900062D2E0759327
:10503C00002275F008120013E2E0FEA3E0FF9000DE
:10504C0067E0E0FD22E090006823FDE0900063FD46
:10505C0022E0FF75F0789000310922EE75F07802AD
:10506C000013E2A3F0900066B2020013EE9000640D
:10507C00F6E075F0C090000FAA020013E2E4F075A0
:10508C00F078EF9000321F22A3F0A3F0FB7F0422F4
:10509C00900062D7120013EEE922FF900062CAE082
:1050AC0022900062D1E0FD7593002290006581E0B2
:1050BC00FF75F0782290006326E0FF7E00EE22E080
:1050CC00FD75F078EF9000314D22CEEDCEEFC3940C
:1050DC00022290006626E0FF227E017D000200166F
:1050EC000C7B017A637934900064070200140E750E
:1050FC00F016A42483F9742F35F0FA7B012275F095
:10510C0078EF9000323422E0FF75F0789000315146
:10511C002275F006ED020013E290002DAF02001391
:10512C00E2EFF0A3EDF0A3EBF02290003105E07577
:10513C00930022E0FF75F0789000323B22E0FF757F
:10514C00F0789000321B22120011DD75F078EF9090
:10515C0000311D22FE120013E2E5822F22C874A733
:10516C00C8CC7442CCCD7401CD22F0900042EBE05F
:10517C0022900066C1E0FF900066C3E0FD22E0FFD4
:10518C00CEEDCECDCD22E0FF90006324E0221200C4
:10519C0011DD90006329E004F022EFF0A30200146B
:1051AC000EE0FF90006325E02290006329E029F9CE
:1051BC00E43AFA22759300E0FE90006625E022F0B6
:1051CC009000550BE022E0FE75F078EF2290006520
:1051DC0083E0FEA3E0FF22C8E9C8CCEACCCDEBCD3E
:1051EC0022900066BAE0FF2275F016EF120013E26F
:1051FC00E02290006325E0FF2290006755E0FF223B
:10520C00900067E5E0FF22900062B6120013EEE911
:10521C0024AFF9E43AFA120011ABFD900062B61219
:10522C000013EEE924AEF9E43AFA120011AB75F072
:10523C0004A4FF900062B6120013EEE922FF900066
:10524C006301120013EEE92416F9E43AFA12001481
:10525C0017E92FF9EA3EFAE92403F9E43AFA0200D5
:10526C0011ABF0900061ED120013EEE92416F9E495
:10527C003AFA02001417900062A8E09000326CFF1A
:10528C0075F078120013E2EF2583F58375930022F5
:10529C00FF900061ED120013EEE9229000630DE027
:1052AC00FF90006301120013EEE92275F004A4FFD5
:1052BC0090006380120013EEE922900061DA120074
:1052CC0013EE9000652B1200140E900061DDE0903F
:1052DC0000652EF0900061EA020013EEF9E43AFA50
:1052EC001200126FFF90006379120013EEE9227521
:1052FC009300E0900061E2FEE0FD24B4F582E4341A
:10530C005DF583759300E0222404F9E43AFA020077
:10531C00126F900062BC120013EEE92402F9E43A19
:10532C00FAEF020011DD9000644EE09000644675C7
:10533C00F004A4FF120013EEE92FF9EA35F0FAE9B4
:10534C002290005E9AF0900061ED120013EE900036
:10535C00635A1200140E900061DA020013EECAEECA
:10536C00CAC9EFC97B01900062C51200140E9000EF
:10537C0062C5120013EEE94A4B22900062A8E0FFCE
:10538C00900062ABE0FD900062C2120013EE900040
:10539C0063791200140E900062B6120013EE9000A6
:1053AC00637C0200140E900062AD120013EE9000AC
:1053BC0062B5E02401FF900062B4E03400FEE92FF6
:1053CC00F9EA3EFA020011ABE075F004A4FFAEF06E
:1053DC0090006446020013EEA3F0E4A3F0A3F0A344
:1053EC00F0A32224AFF9E43AFA7401020011C124AB
:1053FC0004F9E43AFAE5F08FF002001293E075F04C
:10540C0004A429F9EA35F0FA0200126F900062BC8C
:10541C00120013EEE9229000630DE0C39401FFE447
:10542C009400FE7802EF22900062FE1200140E909F
:10543C000061ED020013EE900063A1120013EEE97F
:10544C00240122C39401FF131313541F900061E134
:10545C00F0EF5407A3F0900061E1E0FF24F1F58236
:10546C00E434612224AEF9E43AFAE4020011DD24BA
:10547C0020F9E43AFAED020011DD900062FB120013
:10548C0013EEE4F5F002001293F0A3E4F0A374061B
:10549C00F0E4A3F0A37408F0A32290006207E0FFED
:1054AC00C394087480948022900062BF020013EEB3
:1054BC00E92401F9E43AFA22900062C2120013EED8
:1054CC00E922FE9000630CE02EFEC374089EFEC819
:1054DC00EEC8EF0822900062C5020013EE241EF9FC
:1054EC00E43AFA22FE75F078020013E229F9EA3E5A
:1054FC00FA1200126FFF90006304E5F022CAEECAA4
:10550C00C9EFC97B0122900063A1120013EEE924BC
:10551C00082290006499E0FF75F0789000326F22B9
:10552C00F0A37481F0A3E4F0A3747FF022900061E7
:10553C00ED0200140EFF7E00C3940174809480224F
:10554C007B007A0079000200140E9000639E12001A
:10555C0013EEE9240722E92FF9EA3EFAE9240222A4
:10556C001200140E75F078EF229000630DF0E0221B
:10557C00E0FF90006207E022FF7E00900062B4EE34
:10558C008FF002001259900062B2E0FEA3E022906C
:10559C000062AD120013EE900062B4E0FEA3E029AD
:1055AC0022131313541FF0E490006203F022E0FF67
:1055BC0090006203E0FEC39F22900062B2FFE4F011
:1055CC00A3EFF022FF900062B2A3E022C8E9C8CC9E
:1055DC00EACCCDEBCD222408F9E43AFA22FF900074
:1055EC0062BC020013EEFF9000649E020013EEFFFB
:1055FC009000644AE0FEEF9E22F0900062FE0200F2
:10560C0013EE9000630DE0C39401229000676A12C0
:10561C000013EE1200126FFF2290006200020014C1
:10562C000EEE2583F583E5822FF582E435832290F7
:10563C000063A70200140E2406F9E43AFA222407A8
:10564C00F9E43AFA227480F0A37406F0227401F0A3
:10565C00A3E4F0A322120013EEE9240622900031F9
:10566C006475F078020013E275F004A4FFAEF0222A
:10567C0090006207E004F02290006203E004F02244
:10568C00900062ABE0648022900063A4120013EEE1
:10569C00E9241922131313541FF09000620A22906C
:1056AC00006203E033333354F822F074FF0200112C
:1056BC00C1ECF0A3EDF090005E99E022FFC37408FA
:1056CC009FFF22F45E020011DDFFC3ED94016F22F7
:1056DC00E490006207F022CEEACECFE9CF22900010
:1056EC0062A8E0FF222403F9E43AFA229000649BBA
:1056FC00120013EEE922900062FB1200140E9000CF
:10570C006308E4F0A304F0302504E4FEFF22120049
:10571C0052AD240812005266640160030159AA902C
:10572C00006304F0A3F012005486E49000630FF0C1
:10573C00120052AD240612005266FF90006307F06F
:10574C00120052AD2409120052669000630EF0EF65
:10575C0054079000630CF0E49000630AF09000632F
:10576C0007E0FF131313541FFE9000630BF0EF546C
:10577C00079000630612005605E92E12005266903F
:10578C0000630DF0120052AD240912005266FF7E28
:10579C0000D3120054AD403D9000630EE0FD1200AA
:1057AC0054AD40030158359000630DE0FC9000634C
:1057BC000CE02DFDC374089DFDC8EDC8EC088002FB
:1057CC00C333D8FC12005575FCC8EDC8088002C361
:1057DC0013D8FC804FC3EF9408EE6480948050493A
:1057EC009000630DE0FF9000630CE0120054DA802F
:1057FC0002C313D8FC12005575FFC8EEC80880020E
:10580C00C333D8FC12005575FFA3E0120054CE80B0
:10581C0002C333D8FC12005575FFC8EEC8088002CD
:10582C00C313D8FC9000630DF09000630DE070136F
:10583C009000630CE0120056C89000630AE02FF051
:10584C0001596790006306120054AA40030159677E
:10585C0074B42F12005308FF9000630DE05F7003C7
:10586C000159569000630FE0600301594304120084
:10587C0056059000630BE02912005266FEEF1200F1
:10588C0056CF120052AD241512005266FF1200556D
:10589C00445003015924EF64017013120052AD12ED
:1058AC00005314FFAEF090006304EE01593E120059
:1058BC0052AD241512005266FD12005427C333CE8C
:1058CC0033CED8F912005249120056D5900063011C
:1058DC00603012005273EBC0E0EAC0E0E9C0E012A5
:1058EC000052AD241512005266FD9000630AE09040
:1058FC0000644AF0D0E0F9D0E0FAD0E012005BE2AC
:10590C008010120052739000630A120054091200A6
:10591C005501F0A3EFF0807A120052AD240D120065
:10592C005316FF9000630AE02FFFE435F0FE900061
:10593C006304F0A3EFF022900062FB120013EEE47C
:10594C0075F00112001293015BD89000630AE00419
:10595C00F090006306E004F001584F9000630CE0F7
:10596C005407120056C8CDEFCDCFCF9000630EE098
:10597C00FEC39F4010CFCFEE9FF0CFCF90006307B8
:10598C00E02FF08006E49000630EF09000630EE0D0
:10599C007003015BD8E49000630CF0015769900030
:1059AC006301120013EE9000635A1200140E1200E1
:1059BC0056061200FBA690006304EEF0A3EFF090E5
:1059CC00006304E0FCA3E0FDCFEDCF9000630DF08D
:1059DC004C7003015BD4120052AD240812005266C5
:1059EC00120054AC4003015B0A120052AD240612A3
:1059FC000052665407FF9000630CF0A3E0FE900089
:105A0C00630CE0FDC8EDC8EE088002C313D8FC128D
:105A1C00005575FEC8EDC8088002C333D8FC1200CF
:105A2C005575FE120052AD2409120052662F120059
:105A3C0056C8C8EFC8EE088002C333D8FC90006388
:105A4C000DF0120052AD2401120052666460600326
:105A5C00015AE812005486120052A724091200526F
:105A6C0066120054D58002C313D8FC9000630DF06D
:105A7C00120052AD2415120052661200554150030B
:105A8C00015BC2EF6401701C900063011200527341
:105A9C001200560EFFEE1200542CC333CE33CED868
:105AAC00F9015B50120052AD241512005266FD1222
:105ABC00005427C333CE33CED8F91200524912000A
:105ACC0056D56003015B769000630112005273128D
