:020000040000FA
:1000000002010001020408000101000201B18B009D
:100010000100020004000800100102040849430026
:10002000EF2222020157F7E4FE120183A8CEEFCEA1
:10003000CFCF220201673D02016048020117AD02E5
:1000400001AAA002008C7C02018D9C020137FC02F7
:1000500001948D0201A92A0201AE990201A50D9019
:10006000909090010204080FA0A0A0A001100440ED
:1000700055A0A0A0A002200880120128722222FF11
:100080009000670D120013C67810EC4D4E4F7004AF
:100090007CA57DA5C3EC13FCED13FDEE13FEEF1361
:1000A000FF5010EC64CCFCED644CFDEE644EFEEFB2
:1000B00064CEFFD8DF9000670D120013DEEE547F90
:1000C000FE229000670DEEF0EFA3F0A374A5F0A35D
:1000D000F02275F003A42482F582E43460F5837580
:1000E00093002275F003A42484F582E43460F58340
:1000F00075930022F090006081E004F0C394202208
:1001000075EBAA75EB55759D02787FE4F6D8FD90E6
:100110000000007F007E807D01E4F0A3DFFCDEFABA
:10012000DDF8750F7E7510FF75814D02001B7C4157
:1001300063E2004163EB004163E6004163E5004197
:1001400063EC004163EA00416815004249C70000C2
:100150004249D400004249D200004149C900424905
:10016000C300004249CC00004249CA00004249C5D0
:1001700000004249D000004249CE00000143004146
:1001800067A3004167A4004147F00060904F320030
:1001900042003E3C3A3B456843413F3D2B35676951
:1001A000E2E188E0141E006A001D16041A1F006BAD
:1001B000061B070821208C6C2C1909171522686D65
:1001C00011050B0A1C23696E00100D1824256A6F97
:1001D000360E0C122726007037380F33132D00719E
:1001E0008734032F2E007239E52830003100940047
:1001F0006493928A002A8B0059895C5F85000062B3
:10020000635A5D5E60295344575B56556147000051
:1002100000004046000000000000000000000060F8
:10022000A54E8D000000000000000000000000004E
:10023000000000BEE60000E4B40000C400000000BE
:100240000000E3C3B900B7000000E7C20000BC0033
:10025000920065C100B800B60000B0C000BFB50094
:100260000000B1BD00000000000000BB0054000011
:10027000B30000BA000000000000000000580000B9
:1002800000B2000000000000006600004D00504A6F
:10029000000000494C51004F52004800004E0046FB
:1002A0004B480004010244453A3B3C3D3E3F40413F
:1002B0001E1F200000000000787665756677747E4A
:1002C000797A7C7D7B7F8180603F4D0602810002D0
:1002D000820002830003B50003B60003B70003CD1C
:1002E0000003E20003E90003EA00038301038A013B
:1002F0000392010394010321020323020324020356
:100300002502032602032702032A024153D6014194
:10031000552E0041527E0041552D004153D80041D9
:10032000527F0049552F0000000000001E001E4EA5
:100330005F5D0047014700470147F000F100FF0003
:100340004E5F4D00E001E000E001E0F000F100FF51
:1003500000604B5EDB0924800617150F4500010481
:10036000014501040327203A0331203C0332203B9E
:100370000333203D0334203E032920420330204331
:10038000071640130A4500010A0CA0090F04160BBA
:100390005E2858040E482858062020185E2858FF6A
:1003A000415F6D00415ED600415ED200415F5C005E
:1003B000415F6F00415EDA00415ED800415F5B0043
:1003C000415ED5004860E200102030405060704827
:1003D000612A8081828384858687486132909192E8
:1003E0009394959697604060EAA0A1A2A3A4A5A6C5
:1003F000A7A8A9AAABACADAEAFB0B1B2B3B4B5B615
:10040000B7B8B9BABBBCBDBEBFC0C1C2C3C4C5C604
:10041000C7C8C9CACBCCCDCECFD0D1D2D3D4D5D6F4
:10042000D7D8D9DADBDCDDDEDF4162EC00416302E4
:1004300000416301004162EB004462FD00000000E6
:1004400052606E1201010109000008950B04681248
:1004500000010203016040602E2A03560069007209
:10046000007400750061006C0020004800550042D7
:100470000020005600650072003A0030002E003067
:10048000003100000000000000000000000000003B
:100490000000000000000000006020600E0A034D14
:1004A0000054004B0020000000000000000000008D
:1004B000000000000000000000000000005257D0C3
:1004C0001201100100000008950B066802000102ED
:1004D0000301605457E209025400030100A001091E
:1004E0000400000103010100092110010001223F65
:1004F000000705810308000109040100010301024E
:1005000000092110010001226E0007058203070087
:100510000109040200010301020009211001000188
:10052000225D0007058303070001603F583A05017B
:100530000906A101050719E029E715002501750144
:1005400095088102950175088101950575010508D9
:100550001901290591029501750391019506750808
:10056000150025680507190029688100C0606E58CC
:100570007905010902A10185010901A101050919F6
:100580000129051500250175019505810275039561
:1005900001810105010930093109381581257F756F
:1005A0000895038106C0C005010980A101850205E7
:1005B000011981298315002501950375018106958F
:1005C0000175058101C0050C0901A1018503190010
:1005D0002A3C021500263C02751095018100C0607E
:1005E0005D58E705010902A10185040901A1000583
:1005F0000919012905150025017501950581027567
:1006000001950381017508950105010938158125BA
:100610007F8106C00901A1000501093015002600EF
:10062000043500460004751095018102093115005A
:100630002600033500460003751095018102C0C0F5
:1006400044583604030904602259A422034100538C
:100650000049005800200045006C006500630074EC
:100660000072006F006E0069006300730060405903
:10067000642A035600690072007400750061006C02
:100680000020004800490044002000560065007228
:10069000003A0030002E0030003100000000000061
:1006A000000000000000000000000000000000004A
:1006B00000602059440A03410053004900580000DB
:1006C000000000000000000000000000000000002A
:1006D00000000000004430F1010204085430DD1431
:1006E000034D006900630072006F0073006F0066C5
:1006F000007400485DB40102040810204080445C8E
:10070000B31A1C1E20445CAE12141618425CE90099
:1007100000C11CC11AC11B415CE800415CB7074124
:100720005CB200496341030000000000000000418A
:100730005E9900602A5EA600810082008300B500F9
:10074000B600B700CD00E200E900EA0183018A01AA
:10075000920194022102230224022502260227028A
:100760002A496238000000000000640064496226E3
:100770000000000000000200024F62A120FF803F45
:1007800000000000000000000000004F628420FF15
:10079000800000000000000000000000004762939D
:1007A00010000F2009000047629A10000F2000007F
:1007B000004266F909DA4266FB90C05A4FE6000132
:1007C00000010001000100010001000100040020FF
:1007D00000640032001900115A4FCC0001000100E2
:1007E00001000100010001000100020010003200C0
:1007F00019000C00084D5270080C101820305E1AB9
:100800001A646464644D51630406080C10182F1AAE
:100810001A64646464424FC90000425007000042F9
:1008200050050000414FCB00424FC700004250032B
:1008300000004250010000414FC30041527D006062
:100840005A500931324D000000384D00000000368A
:100850004D00000000344D00000000334D0000004A
:1008600000324D00000000314D00000000393231EF
:100870004B00003131354B0000393630300000314B
:10088000393230300033383430300035373630309C
:1008900000000000000000000000000000C11FC1B7
:1008A0001DC11E41600D00415FA601415FF801417D
:1008B0005FB20F415FB400415FA301415FED0041B2
:1008C0005F9B47415F7800415FFF00445F9D0000F0
:1008D0000000415F7900415FEE0041600000415F30
:1008E000AF00485FDD0000000000000000415FA293
:1008F00000425FF90200425FFC018042600100009B
:100900004F5FC60000000000000000000000000073
:100910000000415FFB00485FD5039C039C0064001E
:1009200064485FE5029C0064029C0064415FA9008A
:100930004157CF0060C0563C00000000000100019C
:10094000000100018248EE03010101020101018260
:1009500048EE03010201020101018248EE03010297
:1009600001030103018248EE0302010000010001BE
:10097000000100018248EE03010101020101018230
:1009800048EE03010201020101018248EE03010267
:1009900001030103018248EE02010300000100018E
:1009A000000100018248EE02010101010103018200
:1009B00048EE02010101020102018248EE02010338
:1009C00001010103018248EE010302000001000160
:1009D000000100018248EE010103010101010182D1
:1009E00048EE01010201030102018248EE01010308
:1009F00001030102018248EE60C056FC03020100BF
:100A0000030100010101000181F5850301010102DB
:100A100001000181F585030102010201010181F557
:100A200085030102010301030181F5850201000331
:100A3000020100010101030181F5850201010101AB
:100A400001000181F585020101010201020181F528
:100A500085020103010001030181F5850100030204
:100A6000010100010001030181F58501010001017F
:100A700001010181F585010102010301020181F5F6
:100A800085010103010001020181F58500030201D6
:100A9000000103010001000181F58500010101024F
:100AA00001010181F585000102010301010181F5C8
:100AB00085000103010301020181F58560F0553CC9
:100AC0000001020303010101000100018100220075
:100AD0000102010101010181002201010301020162
:100AE00002018100220201000103010301810022B1
:100AF00003010200010100010201000181007E01E9
:100B00000100010301010181007E030102010201D4
:100B1000000181007E030102010301010181007EC9
:100B200003010200010100010001000181007E01BA
:100B30000100010101010181007E030102010201A6
:100B4000020181007E030102010301030181007E95
:100B50000000000000000000000000000000000095
:100B60000000000000000000000000000000000085
:100B70000000000000000000000000000000000075
:100B80000000000000000000000000000000000065
:100B90000000000000000000000000000000000055
:100BA0000000000000000000000000000000000045
:100BB000C127C1264461530001020342613C000089
:100BC00042613A0000426190000060386157AA55C6
:100BD0000601CC330000AA550602CC330000AA550A
:100BE000070301000000AA55050401000000AA55F2
:100BF000050501000000AA55050601000000AA55E0
:100C0000050701000000004864B10000000000007A
:100C10000000EDD2E7CD33EC3392D524814006E4D9
:100C2000FFFEFDFC22FCE4CFCECDCC24E0501174BD
:100C3000FF80EDC3CC13CCCD13CDCE13CECF13CFCD
:100C40000470F030D5DE02001392F920E73624F963
:100C500050037907E4F42402FBE582158270021543
:100C600083DBF6E024FB501BE96014E4F0E5821519
:100C70008270021583E004F0B40A08E4F0D9EE743F
:100C800001F00A22C2D522ED33EC3392D5FA602A64
:100C9000B4FF33EDC2E77B8160067A0C79ACE422C5
:100CA0007A0C79B520D5047A0C79B0224E614E00C9
:100CB0002B494E46002D494E4600E47A08F0A3DA4F
:100CC000FC7B00740722C093C083C082ECC0E0EDBF
:100CD000C0E0EEC0E0EFC0E0EA75F010A4CAABF0EF
:100CE00075F04DA42BFBE435F0FCEA2410FAEB344C
:100CF000C5FBEC34D9FCEDC2E7FF75F056A4F42433
:100D000011C5F0F434C58FF0A42AE5F03BE43CF0C3
:100D100020E71612001078D0E0FFD0E0FED0E0FD12
:100D2000D0E0FC12000FA68016F40412001078D058
:100D3000E0FFD0E0FED0E0FDD0E0FC12000E94D049
:100D400082D083D093E0FAEDD2E7CD33EC33248226
:100D5000FBE4C3CF33CFCE33CECD33CD33DBF37B08
:100D60000775F00A846004F0A31B0AE5F0F0A38F76
:100D7000F0740AA4FFACF08EF0740AA42CFEACF060
:100D800050010C8DF0740AA42CFDE435F0F0A3DBC7
:100D9000DE740722020010F3E86480F8E933E833D8
:100DA00060110460EFED33EC337009E8FCE9FDEA13
:100DB000FEEBFF220460DDD3EB9FEA9EE99DE8C2D3
:100DC000E78CF0C2F795F0400CE8CCF8E9CDF9EAF1
:100DD000CEFAEBCFFB120010BE85D0F058047003A2
:100DE00020D5B1E80470085002B2D5020010FD927F
:100DF000D5EC0460F6E4CCC0E0C398F8603C9418ED
:100E00006009400ED0E0FB020010D5E4FBFAC9FCFB
:100E10008028E830E406E4C9FBE4CAFCE830E305D6
:100E2000E4C9CACBFCE854076010F8C3E913F9EA37
:100E300013FAEB13FBEC13FCD8F130F531C3E49C4F
:100E4000FCEF9BFFEE9AFEED99FDD0E0FBEF4E4DDF
:100E50004C701322DB04020010FAEC2CFCEF33FF81
:100E6000EE33FEED33FDED30E7EA020010D5EF2B57
:100E7000FFEE3AFEED39FDD0E0FB50140BBB000451
:100E8000020010FDED13FDEE13FEEF13FFEC13FC5B
:100E9000020010D5EC4D6011E8497018ED33EC33C9
:100EA00004600DE4FCFFFEFD22E933E8330470F832
:100EB000020010F3120010BE58046009E4CC248133
:100EC000500728500B020010FD284004020010FAC1
:100ED000C0E0EB4A7046B98007D0E0FB020010E9A1
:100EE000EF4E701DBD8008EBFFEAFEE9FD80EAE9E8
:100EF0008DF0A4FEE5F002000F83E9CDF9EAFEEBE8
:100F0000FFEF89F0A4FCE5F0CE89F0A42EFFE435D4
:100F1000F0CD89F0A42DFEE435F08067EF4E70052A
:100F2000BD80D780C2EF8BF0A4ACF0EE8BF0A42C88
:100F3000FCE435F0F8EF8AF0A42CE5F038FCE4335B
:100F4000CB8DF0A42CFCE5F03BF8EE8AF0A42CFC51
:100F5000E5F038F8E433CF89F0A42CFCE5F038CF85
:100F60003400CE89F0A42FFFE5F03EFEE433C98DB6
:100F7000F0A42EFEE5F039CD8AF0A42FFFE5F03E77
:100F8000FEE43DFD33D0E0FB50080BBB0010020037
:100F900010FDEC2CFCEF33FFEE33FEED33FD0200D1
:100FA00010D5020010FDEC5D046005E859047004E2
:100FB000020010F3120010BE580460F4EC4860F018
:100FC000EC7004FDFEFF22C860D82481C8500AC31B
:100FD0009860025007020010FA9850C6F582E9297D
:100FE0004B4A7006AB82020010E975F0007C1A785B
:100FF00080C3EF9BEE9AED99400DC3EF9BFFEE9AF5
:10100000FEED99FDE842F0DC24ACF0D0E0FFD0E04A
:10101000FED0E0FDAB8220E7101BEB60B8EC2CFCAF
:10102000EF33FFEE33FEED33FD020010D5E803F899
:1010300030E705C0F075F000EF2FFFEE33FEED3323
:10104000FD40B730E7C180A93F800000412000008B
:1010500042C80000447A0000461C400047C35000CC
:10106000497424004B1896804CBEBC205A0E1BCAF3
:101070006753C21C749DC5AEFB60065407602023F5
:1010800023120010ABEB5438600C120010961200C3
:1010900010A612000E94ECF8EDF9EEFAEFCB22EB6D
:1010A000120010A680F0543803241C90001048FE53
:1010B00093FC0EEE93FD0EEE930ECE93FF22E9D23B
:1010C000E7C933E833F892D5EDD2E7CD33EC33FC02
:1010D0005002B2D522EC30E7100FBF000C0EBE005C
:1010E000080DBD00040BEB6014A2D5EB13FCED92D0
:1010F000E7FD2274FFFCFDFEFF22E480F8A2D57418
:10110000FF13FC7D80E480EFEB7008E709F608DF51
:10111000FA801B89828A831410E70AF593E0A3F60C
:1011200008DFFA8009F593E493A3F608DFF9ECFAF7
:10113000A9F0EDFB2288F0EF60010E4E60F088F020
:10114000ED60C51410E7E7CB700E88828C838B931B
:10115000E709F0A3DFFA80D61410E72A89828A8390
:10116000F593ECFAE0A3C8C582C8CCC583CCCBC547
:1011700093CBF0A3C8C582C8CCC583CCCBC593CBD9
:10118000DFE2DEE080AA89828A83F593ECFAE493B9
:10119000A3C8C582C8CCC583CCCBC593CBF0A3C8AC
:1011A000C582C8CCC583CCCBC593CBDFE1DEDF02E3
:1011B000001130EB7002E72289828A831410E70461
:1011C000F593E022F593E49322BB000327F722F87E
:1011D000EB89828A831410E706F593E028F022F564
:1011E00093E4932822BB0002F722BB8000500989B8
:1011F000828A838B931593F022EF8DF0A4A8F0CF11
:101200008CF0A428CE8DF0A42EFE22BC000BBE00D4
:1012100029EF8DF084FFADF022E4CCF875F008EFF3
:101220002FFFEE33FEEC33FCEE9DEC984005FCEE18
:101230009DFE0FD5F0E9E4CEFD22EDF8F5F0EE00CD
:101240008420D21CFEADF075F008EF2FFFED33FDCA
:101250004007985006D5F0F222C398FD0FD5F0EA6A
:1012600022C5F0F8A3E028F0C5F0F8E582158270F9
:10127000021583E038F022EB7007E7F5F009E71973
:101280002289828A831410E708F593E0F5F0A3E041
:1012900022F593E493F5F074019322BB0006F7095D
:1012A000A7F01922BB8000500D89828A838B931589
:1012B00093F0E5F0A3F022EF2BFFEE3AFEED39FDBF
:1012C000EC38FC2275F008758200EF2FFFEE33FE3C
:1012D000CD33CDCC33CCC58233C5829BED9AEC990E
:1012E000E58298400CF582EE9BFEED9AFDEC99FCB0
:1012F0000FD5F0D6E4CEFBE4CDFAE4CCF9A88222F7
:10130000B800C1B90059BA002DEC8BF084CFCECD16
:10131000FCE5F0CBF97818EF2FFFEE33FEED33FD4F
:10132000EC33FCEB33FB10D703994004EB99FB0F34
:10133000D8E5E4F9FA227818EF2FFFEE33FEED330B
:10134000FDEC33FCC933C910D7059BE99A4007EC83
:101350009BFCE99AF90FD8E0E4C9FAE4CCFB2275CA
:10136000F010EF2FFFEE33FEED33FDCC33CCC8335E
:10137000C810D7079BEC9AE899400AED9BFDEC9AC0
:10138000FCE899F80FD5F0DAE4CDFBE4CCFAE4C838
:10139000F922C3E49FFFE49EFEE49DFDE49CFC2251
:1013A000E8600FECC313FCED13FDEE13FEEF13FF2B
:1013B000D8F122E8600FEFC333FFEE33FEED33FDCB
:1013C000EC33FCD8F122E0FCA3E0FDA3E0FEA3E0B7
:1013D000FF22E0F8A3E0F9A3E0FAA3E0FB22ECF09F
:1013E000A3EDF0A3EEF0A3EFF022A42582F582E5B1
:1013F000F03583F58322E0FBA3E0FAA3E0F922F8BD
:10140000E0FBA3A3E0F925F0F0E582158270021558
:1014100083E0FA38F022EBF0A3EAF0A3E9F022EB44
:101420007006E9F80200163B89828A831410E706E9
:10143000F593020013F6F5930200164DBB001CD085
:1014400093D0F0D0E0F8D0E0C9FBD0E0FAD0E0CB08
:10145000C8C0E0C0F0C09302001644BB8000502218
:10146000D093D0F0D0E0F8D0E0C9F582D0E0CAF552
:1014700083D0E0CB14C8C0E0C0F0C09388930200D2
:101480001416D093D083D082D0E0D0E0D0E0E473C3
:10149000D093D083D082F8E4937012740193700DCE
:1014A000A3A393F8740193F5828883E47374029381
:1014B0006860EFA3A3A380DF8B938A83898215934F
:1014C00053937FE473EB700C87F009E608B5F019CD
:1014D000DFF6801589828A831410E711F593E0F511
:1014E000F0A3E608B5F002DFF502001576F593E407
:1014F00093F5F0A3E608B5F07DDFF48079CB7013A7
:1015000088828C838B9387F009E493A3B5F067DF1F
:10151000F580631410E73089828A83F593ECFAE052
:10152000F5F0A3C8C582C8CCC583CCCBC593CBE4AA
:1015300093A3C8C582C8CCC583CCCBC593CBB5F02B
:1015400035DFDCDEDA802F89828A83F593ECFAE4DA
:1015500093F5F0A3C8C582C8CCC583CCCBC593CBCB
:10156000E493A3C8C582C8CCC583CCCBC593CBB507
:10157000F004DFDBDED97FFFB5F0020F2240027FEF
:101580000122020014C5020014FD88F0EF60010E74
:101590004E60EEED60EC1410E7ECCB701288828C9C
:1015A00083F59387F009E0A3B5F0CBDFF680C7148D
:1015B00010E72F89828A83F593ECFAE0F5F0A3C84F
:1015C000C582C8CCC583CCCBC593CBE0A3C8C582AC
:1015D000C8CCC583CCCBC593CBB5F09ADFDDDEDBC1
:1015E000809489828A83F593ECFAE493F5F0A3C89A
:1015F000C582C8CCC583CCCBC593CBE0A3C8C5827C
:10160000C8CCC583CCCBC593CBB5F004DFDCDEDA28
:1016100002001576EF4E6022EF60010EEDBB000771
:10162000F709DFFCA9F022BB8000500E89828A8373
:101630008B931593F0A3DFFCDEFA22E6FB08E6FAB3
:1016400008E6F922EBF608EAF608E9F622E493FB4D
:10165000740193FA740293F922E5082457F582E4A1
:101660003462F583759300E00508229000625430DF
:10167000070490006257E475F001120013FF0200A6
:1016800011B32000E57F2ED2008018EF540F249074
:10169000D43440D4FF30040BEF24BFB41A005003FD
:1016A0002461FFE50960021509050CE50C700205CF
:1016B0000B30071190006254E475F001120013FF23
:1016C000EF020011E5020000277403D2078003E453
:1016D000C207F5089000625412001416E4F509F5EB
:1016E0000BF50CE50960087F20120016A380F47545
:1016F0000AFFC201C200C202C203C205C206C2087A
:101700001200166BFF700E3007067F00120016B431
:10171000AF0CAE0B22B42563C2D5C2041200166B07
:10172000FF24D0B40A00501A75F00A780930D505A4
:1017300008B6FF0106C6A426F620D5047002D2031F
:1017400080D824CFB41A00EF5004C2E5D2040200BE
:1017500019F1D20180C4D20080BED20280BAD2D5A3
:1017600080B8D20580B27F20120016A32002077431
:1017700001B5090040F012001659FF120016A3022D
:101780000016E3D208D206808F12001659FB120011
:101790001659FA12001659F94A4B700679FE7A1A50
:1017A0007B8120023DE50960397E00E9C0E02EF929
:1017B000EAC0E03400FA120011B3F9D0E0FAD0E048
:1017C000C960060EEE650A70E2C2D5EBC0E0EAC061
:1017D000E0E9C0E0EE12001A59D0E0F9D0E0FAD00A
:1017E000E0FB120011B3FF6096EBC0E0EAC0E0E955
:1017F000C0E0120016A3D0E02401F9D0E03400FAD2
:10180000D0E0FBE50A0460DAD50AD70200177FD2E0
:1018100002808F12001A3560F6E50A70010412008A
:101820000C4AA90A600EE50A600A14F50A12001AA9
:10183000E8EF60F2EA30E702F404C39940040200E2
:1018400018C8EAF4250A0430E701E404F50A800F19
:1018500012001A3560B9EA050A250A12000C4AEA94
:1018600090006283F030E701E4250A04D50A0420E1
:1018700005011412001A59E4C0E012001AE89000A1
:101880006283E0601420E70814F01200168B8026B3
:1018900004F0D0E014C0E07F001200168BE50A606F
:1018A0000812001682150A800D30050412001682F7
:1018B000D0E0020016E3D0E00480BD12001A3560CB
:1018C00093E50A0412000C4A90006283EAF0E50AEC
:1018D000200502600104240412001A5974FF04C098
:1018E000E012001AE81200168BE50A2005026004D7
:1018F00012001682D0E0B50AE57F451200169590D9
:10190000006283E07F2B30E7047F2DF404C0E012F7
:101910000016A3D0E075F00A84C0F01200168CD037
:10192000E01200168C020016E3791080027908C2DA
:1019300006C2088008D2D5790A8004790AC2D5E5A2
:101940000A047002F50AE4FAFDFEFF12001659FCC3
:101950007B0820011612001659FD7B1030000C1276
:10196000001659FE12001659FF7B20EC3382D592E7
:10197000D55013C3E43000069FFFE49EFEE420012F
:10198000039DFDE49CFCE4CBF8C201EC700CCFCECF
:10199000CDCCE824F8F870F38017C3EF33FFEE33B3
:1019A000FEED33FDEC33FCEB33FB994002FB0FD82B
:1019B000E9EB300105F8D0E0C448B201C0E00AEC20
:1019C0004D4E4F78207B0070C2EAB50A0040BCC083
:1019D000E012001A5BD0F0D0E0200104C4C0E0C4E3
:1019E000B201C0F01200168CD0F0D5F0EA02001659
:1019F000E31200149017895319295817564C17529F
:101A000042192D4F193544193549176C43193B5567
:101A100018504618BB451813471B1B50175A2D1753
:101A20005E2E17852B1762231783201B072A171892
:101A3000480000177BE50AB4FF03750A061200167A
:101A400059FC12001659FD12001659FE12001659C3
:101A5000FF9000627C02000C87790AA2D520031453
:101A6000300509B910020404B9080104A2D5200602
:101A70000250010420026D9202B509005036C0E008
:101A80007F2030031A7F30A20272067205501012B6
:101A9000001AB4C202C206C205C2087F30801030EC
:101AA0000503E9C0E0120016A3300503D0E0F9D029
:101AB000E0B509CA3005197F30B9100D120016A320
:101AC0007F583004077F788003B90804120016A3FA
:101AD0003002067F2D020016A37F202008F77F2BFF
:101AE0002006F222920280CC7F00B40700500E2420
:101AF0007CF582E43462F583759300E0FF22286E62
:101B0000756C6C2900D201120016593001F7C20120
:101B1000780930D50108F602001718120016597F0F
:101B20004960087F4310E7027F5814C0E0EF1200BD
:101B30001694743A12001694D0E0600DC0E0C412FE
:101B400000168CD0E01200168CD203750904020036
:101B5000192902010CDCE493A3F85407240CC8C330
:101B600033C4540F4420C8834004F456800146F621
:101B7000DFE4800C01020408102040809000012F57
:101B8000E47E019360CCA3FF543F30E509541FFE6F
:101B9000E493A360010ECF54E0B4E026E493FBA3EA
:101BA000E493FAA3E493F9A3E493C083C082120000
:101BB00011E5D082D083A309E970010ADFEADEE8EB
:101BC00080BE54C025E0602B408CE493A3FAE493DC
:101BD000A3F8E493A3C8C582C8CAC583CA75930095
:101BE000F0A3759300C8C582C8CAC583CADFE3DE07
:101BF000E1808DE493A3F8E493A34003F68001F21F
:101C000008DFF402001B800200200082FF000000B9
:101C1000000200200082FF0000000002002000827D
:101C2000FF000000000200200082F00020003202CD
:101C300000200082FF000000000500200082F0006C
:101C40002000640200200082FF000000000200204B
:101C50000082F0002000640500200082FF000000E8
:101C6000000500200082FF0000000005002003E8BE
:101C7000FF0000000005002000C8FF000000000277
:101C800000200082F0002000640200200082F000AA
:101C90002000640200200082F000200064FF0000A9
:101CA000000005000803E8F0002001F4FF00000038
:101CB0000009021900010100E032090400000109D5
:101CC000000000070581030100FF0403090422034B
:101CD00020004D0054004B00200045006C006500C2
:101CE0006300740072006F006E006900630073008F
:101CF0000929071000320100FF0000000000000069
:101D000000000000000000000000000000000000D3
:101D100000000000000000000001010101010100BD
:101D2000010007000806041424748494081828800D
:101D300090A0C0900061E0EFF0A3EDF0A3120014BA
:101D400016C20EC20FC210C211C212E4900061EBA3
:101D5000F0900061EDF0A3F0C224900061E0E0FF9C
:101D600090005E14F0900061E1E0FEEF12005BE88D
:101D7000EF2583F583E5822EF582E4358312005842
:101D80008CFF7E0064017004D2118060EF64024E0B
:101D90006004EF4E7056D21290005EA2E0FFA3E006
:101DA0009000621ACFF0A3EFF090005EA4E0FFA3D2
:101DB000E09000621CCFF0A3EFF07E007F0C7D006E
:101DC0007B017A5E799A120016149000621AE0FF85
:101DD000A3E090005EA2CFF0A3EFF09000621CE0C1
:101DE000FFA3E090005EA4CFF0A3EFF07E007F1091
:101DF0007D007B017A6179F812001614900061E091
:101E000012005805120058FD700A7B827ABD79A134
:101E1000020016CF900061E012005805120013F680
:101E200080301200585F120011B3FF900061E1E0B2
:101E3000FE6F6028E92405120057F9E94A4B700348
:101E40000128A41200585FE92408120057F9120073
:101E50005BA4900061F21200141680C61200585F55
:101E6000E92405120057F9E94A4B70030128A4122E
:101E700000585FE92405120057F9900061EF120045
:101E80001416C8EEC87401088002C333D8FCFF9052
:101E90000061E0E0FE9000315012005BECEE1200B9
:101EA0005813E05F7007900061E6E0602830111180
:101EB0007B017A5D79C012005AB8900061EB740220
:101EC000F03012117B017A5E791512005AB8900039
:101ED00061EB7403F01200585FE92404120057E527
:101EE0006041120058E1120011B3FF900061EF123F
:101EF0000013F6120011B36F6029E924071200578E
:101F0000F9EA494B70030128A4900061EF12005ACE
:101F1000D9120057F912005BA4900061EF1200146F
:101F20001680B21200584512019D85900061EF1293
:101F30000013F6E92404120057F912005AB8900071
:101F400061EF120059C6120057E5900061EBF0E412
:101F50009000620EF0900061EBE0FF9000620EE0F6
:101F6000D39F40030126C7120059BA120057E2FF5F
:101F70007E0064077002D211301138EF64074E60A2
:101F80000FEF640C4E6009EF64014E60030126916F
:101F9000EF640C4E6017EF64014E600301202912BC
:101FA00000581C12005893648045F0707CC211D216
:101FB000128003301273120059BA120057E2FF6404
:101FC00001600DEF64096008EF640C600301269165
:101FD0001200581C12005893FFAEF064014E604985
:101FE000EF64804E6043EF64024E603DEF64304E1C
:101FF0006037EF64314E6031EF64384E602B120071
:1020000059BA120057E2640C601F1200581C1200EB
:102010005893FFAEF064814E600FEF64824E60090A
:10202000EF64834E6003012691120059BA12001129
:10203000B36480600301269120110301248C1200F7
:10204000585FE92401120057F9E94A4B70357D1FAA
:102050007F10FE120184C512005A88EBC0E0EAC06E
:10206000E0E9C0E01200585F12005A3B1200143C35
:102070001200585FE92401120057F9E94A4B700336
:102080000128A41200581C2401120057E5600764BF
:10209000026003012691D20FE490006216F0120054
:1020A000581C2415120057E5FF6012120057EE125B
:1020B00000127764E045F07016D20E8012120058BC
:1020C0001C240D1200589564E045F07002D20E30C9
:1020D00025030126CD900053CEE0900061ECF0EF97
:1020E0006046120057EEE92402120057E51200582C
:1020F0001B2406120057E52FFFE433FE7803EFCED2
:10210000A2E713CE13D8F89000620D120057EDE944
:102110002402120057E51200581B2406120057E54E
:102120002F90006212F080151200581C2406120035
:1021300057E5FF9000620D12005C1FEFF01200588F
:102140001C2408120057E56401600301239F12005C
:10215000581C2409120057E59000621012005C1F01
:10216000E09000621412005B2C9000621012005B81
:1021700039400301269190006214E02EFF90006226
:102180000CF0900061E5E0FEEFD39E400301269144
:10219000120058E19000620CE029120057E5FC7033
:1021A0000301239890006212E02408FE900062115F
:1021B000F01200581C2407120057E5FDEED39D4095
:1021C0000AED540790006211F080079000621174CC
:1021D00008F090006213ECF012005C2A9000621587
:1021E000F012005C5B9000621112005AFBFEC39F6C
:1021F000400301239874B42E12005887FF900062A8
:1022000013E05F70030123911200581C2415120083
:1022100057E570030122C212005C2A12005AFC2FFB
:1022200090006217F0E490006216F01200581C242F
:1022300015120057E5FF90006216E0FEC39F4003B1
:102240000122EA120057EEEE12005BF32912005A47
:10225000E3120057E5FD90006217E0C39D405990DE
:102260000061F5120057CDFF90006217E0D39F5038
:1022700047120057EE90006216E0FF12005989FDE8
:1022800090006218E5F0F0A3ED120057EDEF75F045
:1022900004A429120058C52402120057E5FF90003B
:1022A0006217E0C39FFF120057EE90006216120003
:1022B0005988FDCEEDCE802C90006216E004F0012E
:1022C000222B1200581C240D12005895FFAEF090DE
:1022D000006218EEF0A3EFF09000620FE0FE9000B5
:1022E0006215E02E2F900061E7F090006218E07018
:1022F00004A3E064E0702E900061F812005AFBFE27
:1023000012005885FDEF4D900061F8F0900053CE1B
:10231000E04DF074B42E12005887FF900061ECE09D
:102320005F70478041900061E7E0120059CEF5836D
:10233000C083C0821200587AFCEE4C759300D082A4
:10234000D0831200585EE92401120057F912005A96
:102350003B7E00E92FF9EE120057E7FF74B42D120F
:102360000058875F7004120028A5900062131200C5
:102370005AFB12005885F4FEEF5E90006213F07075
:1023800010120058E19000620CE029120059F1800F
:102390000712005BFB0121E512005C0301216912B9
:1023A00000581C2408120057E564086003012691B8
:1023B0001200581C2406120057E59000620C12000F
:1023C0005B2C1200581C2409120057E512005B3ADE
:1023D0004003012691EEFFA3E02FFFE433FE9000BF
:1023E00061E5E0FDD3EF9D7480F86E98400301260F
:1023F000919000620BE0FFA3E02FFFE433FE120098
:1024000058E112005949FF90006213F0E4120011E4
:10241000E5EF64017004D210805D90006213E0600B
:10242000561200581C240D12005895FF900062139C
:10243000E02F900061E7F0120059CEF583C083C011
:10244000821200587AFCEE4C759300D082D0831231
:1024500000585EE92401120057F912005A3B7E0031
:10246000E92FF9EE120057E7FF74B42D12005887D8
:102470005F7004120028A51200584512019D853096
:10248000250301269112005C030123C220120301DF
:102490002691E4900061EDF0A3F01200581C240195
:1024A000120057E5FF64026014EF6406600FEF64EA
:1024B00060600AEF6007644060030126581200590B
:1024C000BA120057E264097011D224120058D112D6
:1024D00000FCA690005E9A012560D2241200581CD0
:1024E00012005893FFE5F060030125C4EF24CF608C
:1024F0003514606024FA605C24B8606C245060037A
:102500000125C41200581C2408120057E512005877
:10251000CC1200FCA690005E9CEEF0A3EFF07B01D5
:102520007A5E799C80211200581C2408120057E51D
:10253000120058CC1200FCA690005E9EEEF0A3EFB5
:10254000F07B017A5E799E90005E9AE0FD1201A216
:10255000E0012675120058D11200FCA690005EA082
:10256000EEF0A3EFF0012675120058E1120059B207
:10257000120028B99000621AEE80779000621AE08B
:10258000FCA3E0FD4C70251200581C240C120057CF
:10259000E5700301267590005E99E0440412005C2A
:1025A00035E490005EA2F0A3F001267590005EA2D3
:1025B00012005C3C4404F01200581C240C12005918
:1025C00070012675120058E1120059B2120028B9A4
:1025D0009000621CEEF0A3EFF0120059BA120057FF
:1025E000E2640170139000621CE0FFA3E0900062BF
:1025F0001ACFF0A3EFF080839000621CE0FCA3E010
:10260000FD4C70231200581C240B120057E5602E5D
:1026100090005E99E0440812005C35D224E49000FA
:102620005EA4F0A3F0801790005EA412005C3C440E
:1026300008F01200581C240B12005970D22412000A
:10264000581C2401120057E56460702990005EA4B4
:10265000E07002A3E0601E221200581C2401120048
:1026600057E570111200581C12005893640145F090
:1026700070030125C4900061EDE07002A3E06003E7
:102680000124DA1200584512019D853025030128E6
:10269000A41200584512019D852025211200581CC6
:1026A0002419120057F9EA494B60121200581C24F1
:1026B00019120057F912005BA412005AB890006278
:1026C0000EE004F0011F553010030128A4200F0371
:1026D0000128A41200585FE92401120057F91200E2
:1026E00011B3FF900061F8E06F7003012785200EA1
:1026F00003012785EF607812005C5B12005A2550B9
:102700006E1200585FE92401120057F9120011B34C
:10271000FE74B42F12005887FF5E603C900061F891
:10272000E05F70349000620FE01200588512005C88
:102730004E90005527E014F0900053CE12005AFB43
:10274000FE12005885F4FDEF5D900053CEF0EE24AC
:10275000E0FD7F011200A7821200585FE9240112F8
:102760000057F9120011B3600612005BFB808C90D9
:102770000061F8E0FF1200585FE92401120057F9E8
:10278000EF120011E5900061E8740F12005B3190C8
:102790000061E812005B3940030128A41200585F71
:1027A000E92401120057F912005A3BEE7E0029F984
:1027B000EE120057E7FF70030128749000620BE0EF
:1027C000120059E71200588C6F7003012874120030
:1027D0005C5B12005A2540030128741200585FE91F
:1027E0002401120057F912005A3B9000620BE0FEE0
:1027F0007C0029F9EC120057E7FD74B42F12005841
:1028000087FF5D605274F92EF582E434611200583E
:102810008C5F70431200585FE92401120057F912CF
:10282000005A3B9000620BE0FF29F9EC120057E7D9
:102830009000620F1200588212005C4EEF33333367
:1028400054F82D04900061E7F0FD90005527E01446
:10285000F07F011200A7821200585FE924011200E4
:1028600057F912005A3B12005C624F600712005B7E
:10287000FB0127D29000620B120059E51200588C20
:10288000FE1200585FE92401120057F912005A3B6A
:10289000EF7C0029F9EC3AFAEE120011E512005C27
:1028A0000301278F2290005527E004F0900061E794
:1028B000E0FDE4FF1200A7822290006309120014D9
:1028C000167B017A6179ED12005C8122900062D260
:1028D000EFF0A3ECF0A3ED120051A7E4900062D852
:1028E000F0A374FFF0E4900062DBF0A3F012004E5E
:1028F00088FF900062E812004FDBE9240112004CCF
:102900004C24FC7003012A0D147003012BCC24E429
:102910007003012B8C241F6003012F9F900062D550
:10292000120013F6E92FF9EA3EFA900062DF120076
:102930001416E9240412004C4CFEC394064009749A
:1029400006120011E57F0022900062D2120051139E
:1029500012004B64E04E759300F0120050CD12004F
:102960004B64E0701D1200509C240512004C4C1268
:102970000050A69000314D12004C76EE12004B69CB
:10298000EFF01200509C240512004C4C120050A68F
:102990009000314F12004CB6EE12004B69E0FDEF93
:1029A000D39D400F9000314F12004C82EE12004B2D
:1029B00069EFF01200509C240812004C4CD3943262
:1029C00040067432120011E57E007F04EEC0E0EF95
:1029D000C0E0900062DF12004C454480FD90006230
:1029E000D2E075F0EAA424CCF9740835F0FA7B0142
:1029F000D0E0FFD0E0FE12001614900062DF12005B
:102A00004C4512004E9990003170012B7E12004E01
:102A100088900062E212004FDBE9240212004C4C65
:102A2000C3940640037F002212004EFC24031200D0
:102A30004C4C700B900062D8F0A3E004F0800A9038
:102A40000062D9E0B4FF02E4F012004EFC2405124B
:102A5000004C4CFF702112004DE212004B64E0FE6E
:102A6000900062D9E0FD12004C9912004F262D1201
:102A7000004B82EEF0802A12004F2E90003152124D
:102A8000004B73EFF0ED12004C36ED12004B69E095
:102A9000700F75F078ED12004C39ED12004B69EFB4
:102AA000F012004EFC240312004C4CFF12004F2E7B
:102AB00075F0789000317112004B76E0FCEFD39CFA
:102AC000400E75F078ED9000317112004B76EFF00A
:102AD00012004EFC240612004C4CFF900062D9E01C
:102AE000FE75F078ED9000315812004B76EFF090C3
:102AF0000062E212004C459000316412004B71EF0D
:102B0000F012004EFC240412004C4C90003177125D
:102B1000004B71E0FEEFD39E401112004F2E75F076
:102B2000789000317712004B76EFF0900062E2125D
:102B3000004C4564016003012F9F900062D2120097
:102B4000505D12004B64E04401120051CB543060E0
:102B50001590005FEE120051D29000325912004BD6
:102B600064EEF0012F9F90005528E02481F582E467
:102B7000345212004E0D12004E999000325912003C
:102B800013EAEE12004B69EFF0012F9F12004E88FE
:102B900029F9EA3EFAE9240712004E331201AFA1E7
:102BA00012004F349000320F12004CBFED2583F518
:102BB00083C083C08212004EB2D082D08375F002EF
:102BC000120013EAEEF0A3EFF0012F9F900062D8FD
:102BD000E0D394064003012F9512004E8829F9EAAC
:102BE0003EFA900062E512001416C238E4900062CA
:102BF000DAF0900062D8E0FF900062DAE0FEC39F56
:102C0000505E12004E5A240212004C4C547FFF12A8
:102C1000004F3412004BDAED2583F583C083C08268
:102C2000120050ADD082D08312004E737593001203
:102C3000004B7FE0547F6F701E900062D2E0FF90E7
:102C400000317112004CCB12004F262D12004B8226
:102C5000E0600DD2388009900062DAE004F08092E2
:102C600012004E5A240412004E331201AFA19000FC
:102C700062DDEEF0A3EFF0900062D9E012004E9911
:102C800012004C9DEE12004F272F12004B82E06481
:102C900001704712004C35EE12004B69E064016090
:102CA0000C12004C35EE12004B697401F0D3900009
:102CB00062DEE094C0900062DDE09400401CE4F02D
:102CC000A374C0F0FF7E001201AFA112004E5A1291
:102CD00000500CEE8FF01200129B203803012E5F83
:102CE00012004BC0EE2583F583C083C082120050D2
:102CF000ADD082D08312004E73C083C082120050C8
:102D000035D082D083258212004B82E06F700301A0
:102D10002DE712004C35EE12004B69E0640370039E
:102D2000012F5912004E5A240212004C4C1200502E
:102D3000A612004BDAEE12004B691200511DC0833F
:102D4000C08212005035D082D083258212004B827F
:102D500012004BE5EE12004B691200511DC083C0FA
:102D600082900062DAE0FE759300D082D0832582E3
:102D700012004B8212004DE012004B64E0B40920B7
:102D800012004E14C083C08212004EB2D082D08393
:102D900012004E7375930012004B7F74F0F0802D7B
:102DA00012004B9BEE2583F583C083C08212004E38
:102DB000B2D082D08312004E73C083C08212005002
:102DC00035D082D083258212004B82EFF012004E64
:102DD0005A240312004C4C5403C43354E012004EE6
:102DE00099900031C58054900062D2E0900031A1EA
:102DF00012004D02EF2583F583C083C08212004E7E
:102E0000B2D082D08312004E73C083C082120050B1
:102E100035D082D083258212004B82E0FF90006281
:102E2000DDE0FCA3E0FDD39FEC94005003012F599B
:102E3000CFEDCF12004E9A900031A1120013EAEEAE
:102E40002583F583C083C08212004EB2D082D08326
:102E500012004E73C083C082900062DA012F4912C3
:102E6000004BC0EE2583F583C083C082120050ADB5
:102E7000D082D08312004E73C083C082900062D88B
:102E8000E0759300D082D083258212004B8212001D
:102E90004BE5EE12004B691200511DC083C08290B9
:102EA0000062D8E0FE759300D082D08325821200A4
:102EB0004B8212004DE012004B64E0B40920120076
:102EC0004E14C083C08212004EB2D082D083120052
:102ED0004E7375930012004B7F74FFF08031120027
:102EE0004B9BEE2583F583C083C08212004EB2D087
:102EF00082D08312004E73C083C082900062D8E0FB
:102F0000759300D082D083258212004B82EFF0129D
:102F1000004E5A240312004C4C5403C43354E012A4
:102F20000050A6FE900031C512004D19EE2583F524
:102F300083C083C08212004EB2D082D08312004E72
:102F400073C083C082900062D8E0759300D082D0B5
:102F500083258212004B82EFF012004EFC240512F2
:102F6000004C4CB4092F12004E5A2406F9E43AFAE8
:102F700074FA120011E512004E5A240212004C4C51
:102F8000547F120050A69000327812004D31EE129C
:102F9000004B69EFF0203807900062D8E004F09011
:102FA0000062E8120013F6120011B3FF900062DB1A
:102FB000E48FF012001261900062D3E0FEA3E0FF04
:102FC000C3900062DCE09F900062DBE09E50030152
:102FD00028ED7F0122EFB40C0BEC30E307ED20E786
:102FE000037F0122EFB41011EC30E70DCEECCECF11
:102FF000EDCFEF20E7037F01227F0022FFFFFFFFDD
:10300000900062B0EFF0A3EDF0C223E4900062BC48
:10301000F0A3F0900062D004F0900062C412005A55
:10302000CB12005C6975F078900032651200580E82
:10303000120013F6900062BE120014161200141F44
:10304000900062B512001416120057BE240A120036
:103050005895FF900062B8E5F0F0A3EFF012005B26
:103060001A1200594BFF540304900062B2F0FDC3E2
:10307000900062B9E09D900062B8E09400500301B6
:103080003AF1C222EF54FC900062B3F0E4FFEFC3C8
:10309000940D748094805018EF90001D2693FE903C
:1030A0000062B3E0FDEE6D7004D22280030F80DE7B
:1030B000202224900062B2E012005B03C390006201
:1030C000B9E09FFF900062B8E09EFEF0A3EFF04EE3
:1030D0007003013AE3808612005B1A1200594BFF1D
:1030E000540CFECDEECDEF54F0900062B3F09000A2
:1030F00062B2E0FF7E00C3940274809480500AE4C0
:10310000900062BAF0A3F08044EF64024E700A129D
:1031100000593112005B448034900062B2E0D394D5
:10312000027480948040261200593112005B449052
:103130000062B5120013F6900062BDE02402120096
:103140005940900062BA75F00012001261CFEDCFC5
:10315000EF24FC700301380324FC7003013981243F
:10316000086003013AB1900062B3E0FF247060157B
:1031700024F0700301375124E0700301378A2440A2
:103180006003013AB1120057BE241C120057E5FE3D
:10319000120057BE241D120057E58EF0A4FEEF6406
:1031A00080700B120057BE12005BC2EE800CCFEE97
:1031B000CF120057BE12005B61EF120011C912005E
:1031C00057BE2409120057E554016003013711125C
:1031D000005C69900062B3E0FD900062BAE0FAA37F
:1031E000E0FB12010B9CEF70030137111200580134
:1031F000120058FD70307D20FE12003B2112005A53
:10320000881200580112005AEB9000326C120058DC
:103210000E120058FD70097B827ABD79AE0133CE63
:1032200012005801804012005A33120011B3FF906F
:103230000062B1E06F60447D217E0012003B2112EC
:103240000058E97003013AB112005A60EBC0E0EA9D
:10325000C0E0E9C0E012005A33E912005B611200DD
:10326000143C900062CD120013F6900062C7120069
:103270001416900062B1E0120011E512005A33E911
:103280002405120057F9E94A4B600301330E7D22F1
:10329000FE12003B2812005A88EBC0E0EAC0E0E9C9
:1032A000C0E012005A33E92405F9E43AFA12001496
:1032B0003C12005A33E92405120057F9E94A4B70D1
:1032C00003013AB112005A33E92405120057F9906C
:1032D0000062C412001416120057BE2413120057C5
:1032E000E512005B68EF120011E5120057BE240ED4
:1032F00012005895FF1200589D120057BE2410125C
:10330000005895FF1200599712005C70806A1200F5
:1033100057BE2413120057E512005B68120011B368
:103320006F605A7D237E0012003B28120058E9701E
:10333000097B827ABD79BF0133CE12005A33E9246A
:10334000041200597012005A60EBC0E0EAC0E0E9D4
:10335000C0E01200599712005BC91200143C120021
:103360005A60900062C412001416120057BE241353
:10337000120057E512005B68EF120011E512005CC5
:103380000B900062BE700612005BE0800412005ACF
:1033900095120057E5FF900062C1E4F0A3EFF01230
:1033A0000057BE241D120057E5900062C3F0900044
:1033B00062D0E070030134427D247F1C7E00120144
:1033C00084C5120058E9700D7B827ABD79D0120055
:1033D00016CF013AB1120059972404120057F9E9A7
:1033E0004A4B702D12005A60900062CA12001416E7
:1033F000900062CA120013F6EBC0E0EAC0E0E9C038
:10340000E0120059972404F9E43AFA1200143C80BF
:10341000311200599724011200597012005A60EBC2
:10342000C0E0EAC0E0E9C0E012005A432419F9E420
:103430003AFA1200143C12005A60900062CA12005C
:103440001416120057BE24AE120057E5FFD3120027
:103450005AC450030136B8120057BE241412005843
:1034600095640C45F06010120057BE240E120058EF
:1034700095640C45F07064EF12003AF2EBC0E0EA9C
:10348000C0E0E9C0E012005A432416F9E43AFA1207
:1034900000143C900062CA120057F2EA494B603BAC
:1034A000120057BE24AE120057E512005BF3120063
:1034B00057BE12005A68EBC0E0EAC0E0E9C0E090F5
:1034C0000062CA120057F212005B57D0E0F9D0E058
:1034D000FAD0E0FB12001135013570120057BE24FE
:1034E000B0120057E5900062B4F0120057BE241CE1
:1034F000120057E56401600E120057BE241D120031
:1035000057E56401707B120057BE24AE120057E5E8
:1035100012003AF2EBC0E0EAC0E0E9C0E012005A63
:10352000432416F9E43AFA1200143C900062CA12DD
:103530000057F2EA494B6038120057BE24AE120021
:1035400057E512005BF3120057BE12005A68EBC039
:10355000E0EAC0E0E9C0E0900062CA120057F2124F
:10356000005B57D0E0F9D0E0FAD0E0FB1200113553
:1035700012005905120057BE24AE120057E501375C
:103580000D120057BE24AE120057E5FF900062B442
:10359000E0C39F4003013711120057BE241C1200E4
:1035A00057E5FF7E00120057BE241D120057E5901C
:1035B0000062D1F07401120011E5120057BE24AE72
:1035C000120057E5C39401FD900062B4E06D6041C4
:1035D00012005C0B701A120057BE2405120057E54A
:1035E000CCEFCC2CFD120057BE12005BC2ED801D4B
:1035F000900062B3E064907018120057BE24071266
:103600000057E52F120057BD12005B61EF12001149
:10361000E512005905E412003B08900062B3E0FF98
:103620007E0064807027120057BE2406120057E502
:10363000FD120057BE2405120059FC900062C1A380
:10364000E0FD120057BE12005BC2ED8029EF6490CE
:103650004E7027120057BE2408120057E51200577B
:10366000BD2407120058A8900062C1A3E0120057C1
:10367000BD12005B61EF120011E5900062D1E01213
:103680000057BD241D120058A8120057BE24B012C6
:10369000005970120057BE24AE120057E5120057B1
:1036A000BD24B0120057E5C39F50030133AE120092
:1036B00057BE120059EF8059120057BE241E120047
:1036C0005895FF12005A431200597A120057BE242F
:1036D0001C120057E56401602F120057BE241D1212
:1036E0000057E5FFD312005AC4401D120057BE24F4
:1036F0000E12005895640C45F0700D120057BE2450
:10370000AE120058A80134DB12005905E412003B48
:103710000812005C0B900062BE701012005BE01299
:103720000057E5120057BD2405800E12005A95126D
:103730000057E5120057BD2407120058A87E007FED
:10374000937D00120057BE12005A681200161480B2
:1037500022120057BE2409120057E544041200113A
:10376000E5120057BE241212005970120057BE1203
:103770000059EF120057BE2410120058951200573E
:10378000BD12005A68E5F0013A37120057BE241204
:10379000F9E43AFA12005C36120011B3705E1200BE
:1037A00057BE2409120057E554FA120011E57E00B5
:1037B0007F0B7D00120057BE2413F9E43AFA120081
:1037C00016147E007F937D00120057BE12005A68C7
:1037D00012001614120057BE2405120059F11200EF
:1037E00057BE2406120059F1120057BE24071200DA
:1037F00059F1120057BE2408120059F1900062D00E
:1038000001393A120057BE2409120057E5540160ED
:1038100003013AB1900062B3E0440424FC70030158
:1038200038B924F0700301395D24F0700301396F59
:1038300024B0700301394C24E07003013940241096
:103840006003013AB1900062D07401F012005C692B
:1038500075F078900032681200580E120013F612BC
:103860000011B312005B4FFDCEEDCE541F4F12007E
:1038700011E512005B50120057BD2413120058A826
:10388000120057BE2405F9E43AFA7408120011C96F
:10389000120057BE12005BC27408120011C9120058
:1038A00057BE12005BC97408120011E5120057BE22
:1038B00012005B617408013AAD120057BE24091270
:1038C0000057E530E21512005B11120057BD2414B9
:1038D000F9E43AFAEE12005982802112005B1112CB
:1038E0000057BD240EF9E43AFAEE12005982900016
:1038F00062C4120058FD60041200589D900062BA24
:10390000E07004A3E0640C6003013AB1900062B17E
:10391000E0FF900062B0E09000316412005A6F1234
:10392000005BAC1200588C6003013AB1EE12005BF0
:10393000E812005BACF5837593007401F0013AB1B5
:1039400012005B50120057BD241D800A12005B500C
:10395000120057BD241C120058A8013AB112005B96
:1039600011120057BD2418F9E43AFAEE013A371261
:10397000005B11120057BD241AF9E43AFAEE013A3D
:1039800037120057BE2409120057E5FF54016003A7
:10399000013AB1900062B3E0440824E87003013AB0
:1039A0003B24F07003013A5824206003013AB1EF40
:1039B000900062BA30E263E0FCA3E0120057A51267
:1039C0000058C412005A68EC8DF01200129B90004F
:1039D00062BAE0FCA3E0120057A5120058C412001E
:1039E0005A68EC8DF01200129B1200579212005888
:1039F000C4120059FA12005792120058C42421121E
:103A00000059FC120057BE1200596E120057BE2416
:103A1000AEF9E43AFA7401013AADE0FEA3E0FFCD5D
:103A2000EFCD120059972403120059FC120057BE23
:103A30002410F9E43AFAEE8FF08017900062BAE0B1
:103A4000FCA3E0120057A5120058C412005A68ECFB
:103A50008DF01200129B805912005792120058C428
:103A6000120059FA120057A6120058C4241E120060
:103A7000589512005B4FFDCEEDCEC39F120057BD8F
:103A800024AFF9E43AFAEF120011C9120057A1125B
:103A90000058C42421120059FC120057BE120059CC
:103AA0006E120057BE24AEF9E43AFA740112001106
:103AB000C9900062B2E0F912005B03900062B8E0C6
:103AC000FCA3E0FDC39FEC9E4011E9FFED9FFFECDE
:103AD0009E900062B8F0A3EFF08008E4900062B816
:103AE000F0A3F0900062B8E07002A3E06003013040
:103AF0005D2275F004A4FFAEF07D25120184C5CAD5
:103B0000EECAC9EFC97B012290006387F090006282
:103B1000BAE0FAA3E0FB1200C5C8900062D0EFF053
:103B2000227F0B120184C5227F0A120184C522E480
:103B300090006513F0C23C900047F0E07004120161
:103B4000B090900042EAE09000650DF0E0FD90003A
:103B5000321F12007799ED1200768EE09000650E0C
:103B6000F0C39412A3F0ED1200771EED1200768ED2
:103B7000E020E70301439F1200767CE070030143DD
:103B80009F1200767CE0120014903BAF013BDE02F6
:103B90003CA9033D0D043F76053FD90640A50740EB
:103BA000C408419C0941B40A423F0B000042CC12B8
:103BB00000767C7402F075F078EF900032541200B9
:103BC00076897401F0120079341201981D12007682
:103BD000E79000310E12007689E4F00142CC120029
:103BE00076B8120078D96003013C699000650DE059
:103BF000FD9000322C120077D5ED1200768EE05445
:103C00008090006510F09000323212007798ED122B
:103C100000768EE0FEA3E04E603A90006510E0B4BE
:103C200080081200767C740380301200767C740564
:103C30001200784512007689E0640D6003013B8133
:103C4000D23C120076E79000323C12007689740272
:103C5000F00142CC1200767C7407120079871200C2
:103C60007689E4F0A3F0013B81120078A16403702F
:103C700003013EF1EFB40703013EF190006513E04C
:103C8000640B60030142CC1200767C740C12007845
:103C90004512007689E0640D60030142CC12007683
:103CA000E71200781EEF013F2B9000650EE0FF1237
:103CB0000076FFE0FCA3E0FD90002DBB1200775BD7
:103CC00012007A3CFFEE9CFE90006511F0A3EFF02D
:103CD0009000650EE090002DB51200775CE0FCA32B
:103CE000E0FDC39FEC9E500990006511ECF0A3ED40
:103CF000F01200785A120079BDE490006449F01285
:103D00000116821200767C7404F00142CC12007617
:103D1000B8E090006513F090006513E06402600362
:103D2000013EB09000650EE0FEC39412A3F0EE12C7
:103D30000076FF1200792F75F011120077EAE0FA91
:103D4000A3E0C39FFFEA9E90006511F0A3EFF0751A
:103D5000F011ED12007783E0FEA31200782A9E4056
:103D600005EEF0A3EFF0120076E79000310E12009E
:103D700076891200784412007689E0640D706C90A8
:103D8000006511E0FEA3E0FF9000650DE0FD9000EE
:103D90003244120079D2ED1200768EEEF0A3EFF0ED
:103DA000E490006510F0120078269400402A12007A
:103DB0007A43120077FC120076A9FE9000650EE0AF
:103DC00075F01112007958120013F6E92FF9E43A50
:103DD000FAEE120079D980CE120076E79000323CDC
:103DE000120076897403F0D23C804FE49000651095
:103DF000F0120078269400404112007A43120078B5
:103E0000A9120076A9FC12007934120076FFE0FABC
:103E1000A3E0FBEFF582758300EB2582FFE5833A93
:103E2000FE75F011ED12007958120013F6E92FF922
:103E3000EA3EFAEC120079D980B7900065111200C1
:103E4000792F120076FFEE8FF01200126175F011DB
:103E5000ED120077EAE0FEA3E0FF75F011ED12002D
:103E60007702E0FCA3E0C39FEC9E502C120076E7A3
:103E70009000310F12007689E0FD1200777BE0FAA6
:103E8000A3E0C39DEA9400500675F078EF800D1210
:103E900000767C7403F0800F120076E79000322BDE
:103EA000120076897409F0303C030142CC013B8159
:103EB000120078A1640370359000650DE090003128
:103EC0000E1200778BEE1200768EE004F0D394038E
:103ED000400C75F078EE120076DFEE0142221200FF
:103EE00076D6EE1200768E7403F0013B81EFB407B4
:103EF0000C1200785A120076DCEF01422212007890
:103F0000A1640B702F120076D6EE1200768E740C20
:103F1000F012007763EE1200768EE0640D6003010C
:103F200042CC12007A4D1200781EEE1200768E748A
:103F30000C01405DEF6404702B1200777BE0FEA360
:103F4000E04E60069000651380261200767C7403B4
:103F500012007987120076891200793B5003013BE9
:103F60008101415890006513E0640C60030142CC6C
:103F70007402F0013D17120076E79000323412000F
:103F80007689E0B40D1775F078EF90003244120096
:103F90007689E0FFA3E090006511CF802290006554
:103FA0000EE0FF120076FFE0FCA3E0FD75F011EFDC
:103FB000120077EA12007A3CFFEE9C90006511F047
:103FC000A3EFF01200785A120079BD1200EE0C1225
:103FD00000767C7406F00142CC120076B8120078AC
:103FE000D960030140759000650EE090002DBD1270
:103FF0000076F1EC8DF0120012619000650EE090F9
:10400000002DBB120076F112007A3CEE9C12007675
:10401000E79000322B5009120076897405F0800772
:10402000120076897407F0120076E790003234129D
:10403000007689E0640D6003013B8175F078EF90B4
:1040400000322B12007689E0B405189000650DE06F
:1040500075F0789000323C120076897407F0D23CFB
:104060000142CC120076E79000323C12007689744F
:1040700008F0013B81120078A1B40B0301412DEF40
:10408000B4040A1200767C7405F0013B819000654F
:1040900013E0640760030142CC1200785A120076E4
:1040A000DCEF0142221200785AA3E0FD900064493F
:1040B0007401F0E4FBFA120116821200767C740897
:1040C000F00142CC120076B8120078D9701E1200AE
:1040D00076E79000323412007689E0B40D0B1200BE
:1040E00079A2120076897408F0014192120078A139
:1040F00064076004EFB4030C1200785A120076DCF7
:10410000EF014222120078A1640B703012007A4D48
:1041100012007767EE1200768EE0B40D1090003238
:104120003C1200774FEE1200768E740CF01200767F
:10413000D6EE1200768E740CF00142CCEF6404705F
:104140002A1200767C740712007987120076891291
:1041500000793B5003013B81120076E79000322941
:1041600012007689E4F0A3F0013F0590006513E0AA
:10417000640C60030142CC120076E79000323412E6
:10418000007689E0B40D0B120079A21200768974D2
:1041900008F01200767C740DF00142CC1200785ABF
:1041A000A3E0FDE4FBFA1200EE0C1200767C740A28
:1041B000F00142CC120076B8120078D970281200B3
:1041C000767C740D1200784512007689E0640D60EB
:1041D000030142CC120076E79000323C120076894F
:1041E0007414F00142CC120078A1B40407120076D6
:1041F000D6EE8041EF6407600C90006513E0640325
:1042000060030142CC120076E79000310E12007676
:1042100089E004F0D39403401375F078EF12007630
:10422000DFEF1200768E740BF0013B811200785A9A
:10423000120076DCEF1200768E7409F0013B8112D9
:104240000076E79000310712007689E020E71F90A2
:1042500000650DE090003228120078D1EE12007651
:104260008EE4F075F078EE120076DFEE805775F090
:1042700078EF9000322812007689E004F0D394029F
:10428000502E1200767C7401F090005DBCE0FD9031
:1042900000650EE0FB90006405EFF0A37401F0A34D
:1042A00074F4F0A37401F0A374F4F0E4FF01439BF1
:1042B000120076E790003228120076891200799178
:1042C000120076DFEF1200768E740EF01200767C0C
:1042D000E0FF640D600DEF640E6008EF640C600396
:1042E000014391120076E79000322812007689127D
:1042F00000799190003254120076891200784412AD
:10430000007689E024F7601814603424FE604114BC
:10431000604F24FE606824077077900030DC8034A2
:10432000120076E79000321E12007689E0FB9000C2
:104330005B5CE0FD90006405EF12007744801A1288
:104340000076E79000323812007689E06043803DC5
:1043500090002F7212007739FB7F0412010A5C80F3
:10436000301200767CE0640D600B120079A212001E
:104370007689740CF012007735FB7F04801D1200E3
:1043800076E79000323812007689E060041201B0BE
:1043900035303C0B12007735FB7F0412010A5C229A
:1043A000D230E4900063CAF01200987C24AEF5820B
:1043B000E434121200966078371200987B24AFF52F
:1043C00082E434121200966078341200987B24B094
:1043D000F582E434121200966078351200987B243E
:1043E000B1F582E43412120096607836F618E6FFD2
:1043F0005470FEC4540F7838F6EF540708F678442A
:1044000006E6C394404002E4F67837E6FFC394041E
:104410004003014B4C7834E620E703014928783803
:10442000E69000085912009745E020E7030149286B
:104430001200974D1200966030E20718E6FF120155
:10444000AAC07835E65407600301451608E620E067
:10445000030144F608E6FF08E6FE75F0EA9000085E
:10446000FC1200965460589000322B120098AE1245
:104470000096E9FD64096015ED640A601090003251
:104480003C120098AE120096E96414703212009843
:104490008812009654C394A05016120098841200FB
:1044A000965404F07844E67003763F22784416224E
:1044B00012009884120096FC2F12009757E4F01215
:1044C0000097E8120096D1E6FD08E6900063DAF066
:1044D00008E6A3F0A37401F012015C89120097E8CA
:1044E000120096D112016F307838E6FF18E6FD12FF
:1044F000007A830149367835E6783730E30CE6FFF9
:1045000008E6FD12015271014936E6FF08E6FD1288
:10451000015D2B0149367835E620E3030147FA12A5
:104520000096D9B4091318E6FBCDEBCDE4900065F5
:1045300080F0120140390149367838E664016003A1
:1045400001463808E6640170637837E6FA1200978E
:1045500081120096EBFE90004E7EE0FD5E6003014E
:10456000460DE6FC2475F582E4344E120096EBFB12
:10457000747A2CF582E4344E120096EB6B6023EDD6
:104580004E90004E7EF090004D4512009934EAF0B6
:10459000E4A3F0A3F0A3F0A3F0FB7F0312010A5CF5
:1045A000806B7837E6FF1201A48580617839E6FFD9
:1045B00064026008EF640360030149367837E6FF60
:1045C00012009781120096EBFE90004E8CE0FD5E8B
:1045D000703B74832FF582E4344E120096EBFF900B
:1045E000004E8BE06F6026E6FCED4E90004E8CF0A6
:1045F00090004E7912009934ECF0A3E4F0A304F09B
:10460000A3E4F0A304F0E4FBFF12010A5C7839E6AE
:1046100024DAF582E43461F583C083C082759300A7
:10462000E0FF7837E69000000393FEEF4E759300AD
:10463000D082D083F00149367839E6FF18E6FE12C1
:1046400000989212009654546064606003014936E9
:104650001200989112009654540F783AF6E6FF90A3
:10466000002F7C120098C0E0900063CAF0900055C3
:1046700028E0FE783766600301474775F016EF12B1
:104680000097AEC083C082E0FD74B82EF582E4349A
:104690005D120096EBF4FEED5E759300D082D08340
:1046A000F090002F81120098BFE0FF783AE6FE7587
:1046B000F01690002F82120013EAE06F6010900055
:1046C0005528E078381200989EEE12004B4D78374E
:1046D000E6FF08E675F0EA9000089E12009654FD89
:1046E0007C0008E6FBC8EBC87E007401088005C3A7
:1046F00033CE33CED8F9FFEE5CFEEF5D4E600301A2
:1047000049367837E6FF08E6FD75F0EA9000089E26
:1047100012009654FEC8EBC87401088002C333D857
:10472000FC4EF0120151BC7838E6FF18E6FD7839EE
:1047300012009780120096EBFB900066097401F05E
:104740001201809D014936900063CAE0FF7838E687
:10475000FE900031641200977812009819120096AA
:10476000EB640170030147EC9000550BE020E60379
:10477000014936783AE6FF120097ABC083C082E069
:10478000FE7837E624B8F582E4345D120096EBF447
:10479000FDEE5D759300D082D083F0900063D2E08F
:1047A000FE90002F87120098BFE5822EF582E43537
:1047B00083120096EBFF783AE6FC75F01690002F16
:1047C00083120013EAE5822EF582E4358312009607
:1047D000EB6F7003014936900063D2E0FF7838E652
:1047E000FD08E6FBEC12004B4D0149369000550BDD
:1047F000E020E503014936014773120096D96409A8
:10480000700301493608E6FEEF12009892120096F6
:10481000FC2E1200965B54606460600301491490A2
:10482000005528E0FF7837E6FD6F600301491475F5
:10483000F0C0ED1200981108E6FF75930075F018AE
:1048400012009827900063CB12001416120011B3C7
:10485000900063D1F0900063CCE475F00212001276
:104860006175F0EAEF900008B7120096FC2E120076
:10487000965B540F783AF6E675F048A4249CF974D8
:1048800001900063CE1200993BE4900063D2F09057
:104890000063D1E0FFA3E0FEC39F502D900063CBE7
:1048A000120013F6E92EF9E412009799FF900063C5
:1048B000CE120013F6E92EF9E43AFAEF120011E5F0
:1048C000900063D2E004F080C6783AE675F048A420
:1048D0002494F97401900063D31200993B90006313
:1048E000D1E0FF120097D7EF120098C72405F9E432
:1048F0001200979954FC120098C72401F9E41200A1
:1049000097994408120011E5E6FDE4FB7F011201CE
:104910007C95D23030301F1200989A900066A074B7
:1049200020F0120170A8800E7834E630E7081200FB
:10493000989A1201A27E7834E620E303014A59C214
:10494000E97837E6FF14601314601914601F24031C
:10495000702275A6987835A6A7801975AE98783517
:10496000A6AF801075B6987835A6B7800775BE9843
:104970007835A6BFD2E97835E630E403014A221241
:1049800000974D1200966020E003014A227837E636
:10499000120097A21200966054EE1200974C12007B
:1049A00096604402F0E6FF08E675F0EA900008BF62
:1049B000120096545401F07D011201A7647837E685
:1049C000FF1200FF5C7837E6FF7B08E4FD1200DE93
:1049D0000B7837E6FF7B01E4FD1201B1837837E6FF
:1049E000FF7D0112018B60900053E4E020E66AE451
:1049F000900063D2F0900063D2E0FFC3940450149F
:104A00001200974D1200966020E009900063D2E0FA
:104A100004F080E1900063D2E0C39404403BC218EC
:104A200080377835E630E4317837E6120097A21205
:104A300000966020E0231200974D1200966044011A
:104A4000F0E4FD1201A7647837E6FDE4FF120123CC
:104A5000AB7837E6FF1201AF0C7834E630E21A7813
:104A600037E6FFE4FD120159F37837E6FF1201AD96
:104A70000A7837E6FF12015E6B7834E630E4087896
:104A800037E6FF1201A24D7834E620E503014B4CD6
:104A90007837E6FF701275A699783BA6A7E6442002
:104AA000F6F5A775A699803EEFB4011275AE997818
:104AB0003BA6AFE64420F6F5AF75AE99802878376F
:104AC000E6B4021275B699783BA6B7E64420F6F52F
:104AD000B775B699801075BE99783BA6BFE644209D
:104AE000F6F5BF75BE997837E6FF120098581200A8
:104AF00096EB70279000528012009934EFF012006C
:104B0000990112009901E4FBFF12010A5CEF04FF16
:104B1000120098551200984EF080291200985512F4
:104B20000096EBC39401FFE49400FE900042F575FB
:104B3000F009EF120013EAEE75F009A4120097399C
:104B4000120099027837E6FF1201A827229000662A
:104B500080F0120125AE229000661AE0FF75F07811
:104B60009000322B120013EAEF2583F58375930032
:104B700022FFED75F078120013EAED2583F583E549
:104B8000822EF582E43583F58375930022EFF09051
:104B900000322BEE75F078020013EA900062E51205
:104BA0000013F6E92406F9E43AFA120011B3FF9073
:104BB0000062D2E0900031E9FE75F078020013EA5D
:104BC000900062E5120013F6E92402F9E43AFA12C1
:104BD0000011B3FF900062D2E0FE9000317D75F0CD
:104BE00078020013EAEFF0900062DDA3E0FBCFEB68
:104BF000CF900031A1EE75F078020013EAEE75F067
:104C000078020013EA900065897B007A007900E061
:104C1000FF75F0789000322122FFE0900008FCFE42
:104C200075F0EA120013EAE5822FF582E43583F588
:104C30008375930022EE75F0789000311002001316
:104C4000EA900066BA120013F6E92407F9E43AFA8A
:104C5000020011B3F090002F71E0FD90006405EFA9
:104C6000F0CFEECFA3E4F0EFA3F0E4A3F0A3F022A3
:104C7000FFE090003236FE75F078020013EA9000F3
:104C80003111EE75F078020013EAEFF0E0FF75F0F5
:104C90001690002F81020013EA75F078EF90003132
:104CA00052020013EA90003109ED75F0780200130A
:104CB000EAE09000322BFE75F078020013EAEE7500
:104CC000F078020013EA90003272EE75F07802007C
:104CD00013EA90006583E0FF75F07822A3E0FDCE33
:104CE000EDCE90006592F090006584E0FD90006547
:104CF00093229000632CE075F01690002F8B020039
:104D000013EAFF75F078020013EA9000682CE0FFC8
:104D100075F07822ED9000322175F078020013EAE8
:104D20009000632CE0FF75F01690002F82020013B4
:104D3000EAFE75F078020013EA9000310CED75F090
:104D400078020013EA9000632CE075F048A4249CDC
:104D5000F9740135F0FA7B0122120013F6CEEACE87
:104D6000CFE9CF22E090003109FD75F07802001301
:104D7000EA75F0EA900008D4020013EA900066C5D4
:104D8000E0FFA3E0FDA3E0FB2290006593E0FE7549
:104D9000F078EF900032362290006583E0FFA3E0C8
:104DA000FDE490006592F0A3229000316A75F078DE
:104DB000020013EAE0FD75F01190002DB21200130D
:104DC000EA02001416900066BDE0FF75F0789000CE
:104DD0003236221200141675F078EF90003221223C
:104DE000EFF0900062D2E0FF75F078900031102271
:104DF0009000675DE090000904FF75F0EA0200137F
:104E0000EA9000632FE024B4F582E4345DF5837505
:104E10009300E022900031E9EF75F078120013EA78
:104E2000EF2583F58322F0EF75F0789000310722AB
:104E3000E92402F9E43AFA12001277FFAEF0229068
:104E400000632CE0FF90002F7C75F016020013EA3F
:104E5000F075F078EF9000323B22900062E512008E
:104E600013F6E92275F01690002F8D120013EA0256
:104E70000013F675F006020013EA900066C9E0FF21
:104E800075F0789000323C22900062D5120013F643
:104E9000900062DBE0FEA3E022FF900062D2E0FE21
:104EA00075F0782275F01190002DB5120013EAE428
:104EB000F022900062D9E075930022FDEF75F0EAD0
:104EC000020013EAFE75F078020013EAEB54F0C416
:104ED000540FFFCEEFCECFEBCFEF540FFFCCEFCC84
:104EE000CFEDCFCDCDCFEECFCBEFCB9000652C2249
:104EF000F090002F71E0FD9000640522900062E2C6
:104F0000120013F6E922900066D1E0FF7C017D7863
:104F1000120011F974072FF974313EFA22120014AD
:104F20001675F078EF22EF2583F583E58222900055
:104F300062D9E0FE900062D2E0FD22900064FFE0C2
:104F4000FF90006501E022E075F016A42487F97453
:104F50002F35F0FA7B0122EF75F0EA020013EAED3B
:104F600075F078020013EA7B017A6379329000646D
:104F7000AC120014169000632EE0900064AFF0A312
:104F800022F075F078EF90003110229000675DE01C
:104F9000FF75F0789000323422900066CBE0FF90ED
:104FA0000066C922120014167B007A007900227470
:104FB0000FF075F078EF9000323A2290006583E0B0
:104FC000FFA3E0FD2290006501E0FF2275F0EA906A
:104FD000000926120013EA7593002229F9EA3EFA25
:104FE000020014167E007C017D78120011F9744BCA
:104FF0002FF974323EFA7B012290002F90020013A9
:10500000EA75F005A429F9EA35F0FAE92404F9E48F
:105010003AFA22E0FF75F0789000321F2212001356
:10502000F6E94A4B22900042EAE0FF22CAEECAC9E2
:10503000EFC97B0122900062DAE07593002275F0DF
:1050400008120013EAE0FEA3E0FF900067EBE0FD2A
:1050500022E09000682CFDE09000640522E0FF75DE
:10506000F0789000310922EE75F078020013EAA37F
:10507000F0900066BA020013F6900064FEE075F04E
:10508000C090000FAA020013EAE4F075F078EF90E8
:1050900000321F22A3F0A3F0FB7F0422900062DF06
:1050A000120013F6E922FF900062D2E02290006223
:1050B000D9E0FD7593002290006589E0FF75F078D6
:1050C000229000632EE0FF7E00EE22E0FD75F07876
:1050D000EF9000314D22CEEDCEEFC394022290002E
:1050E000662EE0FF227E017D00020016147B017A0D
:1050F00063793C9000640F0200141675F016A42426
:1051000083F9742F35F0FA7B012275F078EF900067
:10511000323422E0FF75F078900031512275F006AC
:10512000ED020013EA90002DAF020013EAEFF0A3A6
:10513000EDF0A3EBF02290003105E075930022E042
:10514000FF75F0789000323B22E0FF75F078900018
:10515000321B22120011E575F078EF9000311D220C
:10516000FE120013EAE5822F22C874A7C8CC74424D
:10517000CCCD7401CD22F0900042EBE0229000668D
:10518000C9E0FF900066CBE0FD22E0FFCEEDCECD82
:10519000CD22E0FF9000632CE022120011E5900088
:1051A0006331E004F022EFF0A302001416E0FF9058
:1051B00000632DE02290006331E029F9E43AFA22FD
:1051C000759300E0FE9000662DE022F09000550BF4
:1051D000E022E0FE75F078EF229000658BE0FEA300
:1051E000E0FF22C8E9C8CCEACCCDEBCD2290006626
:1051F000C2E0FF2275F016EF120013EAE0229000E1
:10520000632DE0FF229000675DE0FF22900067F0D1
:10521000E0FF2290005CE2E075F003A424EDF5824B
:10522000E4345CF583759300E0900065BAF0A374F4
:1052300008F0E4900065B9F0900065BBE0FF9000D5
:1052400065BAE05F7003015745120133182442F537
:1052500082E43462120132DAFE900065BCF07431EF
:105260002FF582E43462120132DAFF900065BDF05E
:105270007B827AB179AC900065B9E0FD900062570D
:10528000E4F0A3EDF0EEFDA3E4F0A3EDF0A3E4F071
:10529000A3EFF012005788B46015A3E070117B8271
:1052A0007AB179D0120016CF900065BD7403F090EA
:1052B0000065BDE0FF70030156AE20E303015377A4
:1052C000900065BCE020E30301535E7B827AB179F4
:1052D000D6900065B91201337C120016CF7B817A1B
:1052E0001C79A21201A8BC1201331812019D4BEFC8
:1052F000603FC2E890005CDCE090006235F0D2E8EC
:105300007B827AB179F8120016CF90006230E0FD0E
:10531000900065B9E090006405F0A37403F0A374F5
:10532000E8F0A37403F0A374E8F0E4FBFF12010AB1
:105330005C12013318120132D34408F0744B2FF57C
:1053400082E43462120132DAFFC39402402912016E
:10535000B0257B827AB27911120016CF80197B8238
:105360007AB279201201339612005771120132D3AA
:1053700054F7F012019C5C900065BDE020E0030151
:105380005436900065BCE030E0061201335A8004C8
:1053900012013361120133477B827AB2794101569F
:1053A000F6120132CE5401FF900065BCE0FE5401BC
:1053B0006F6079EE30E02E90005CE8E0C394085016
:1053C000147B827AB2795F1200577D7D1E7C0012B9
:1053D00001880380617B827AB2796D90005CE8126B
:1053E00001337C804D12013318120132D354FEF088
:1053F00074502F1201331F1201331812013383121C
:10540000013324303E0A9000624AE06F7002C23ECF
:10541000120132F2120132DAFFC394024018120173
:10542000B025120132F212013324800A7B827AB253
:10543000798A120016CF900065BDE020E103015586
:1054400004900065BCE030E1061201335A8004127A
:10545000013361120133477B827AB279911200578E
:105460007D120132D3FE5402FD900065BCE0FC5475
:10547000026D601CEC30E11174462FF582E4346259
:10548000120133A04402F08007120132CE54FDF025
:10549000900065BCE0FF20E16B542164217065122F
:1054A0000132F2120132DAFFC39402405790003108
:1054B000071201332C120132DA30E70D120132F2F9
:1054C000120132DAFF1201B025120132F212013359
:1054D000247B827AB279AE120016CF1201331824DF
:1054E00050F582E43462120132DAC394055015900B
:1054F000006237E0700E7D1EFC120188039000628E
:10550000377401F0900065BDE030E266900065BC44
:10551000E030E2061201335A8004120133611201B5
:1055200033477B827AB279C7120016CF120132CE8E
:105530005404FF900065BCE0FE54046F602AEE3016
:10554000E2137B827AB279E5120016CF120132CED5
:105550004404F0801D7B827AB279FA120016CF12D1
:105560000132CE54FBF0800A7B827AB2798A120033
:1055700016CF900065BDE020E40301572890006538
:10558000BCE05403640360030156A090006237E05E
:10559000C3940250030157287B827AB3790F12001B
:1055A0005788FF30E1061201335A8004120133613B
:1055B00012013347EF30E0061201335A8004120122
:1055C00033619000625A120014167B827AB37924F8
:1055D000120016CF120132F2120132DAFF60079088
:1055E0000065BEF080587B017A6579BE900065B990
:1055F000E0FD12013F6AEF700301569B120133A7D1
:10560000900065B9E0FE120132F7F583759300EF63
:10561000F0EEC454F0FE9000321C1201332C120143
:1056200033A0F0900065BCE030E613120133A79080
:105630000031511201332D120132DA4480F0900012
:1056400065B9E0FE0490003106F0120133A775F051
:10565000789000323412013330F58375930074056D
:10566000F074502E1201331F90006237F0900062E8
:1056700036E0FD90006405120133681201336AE4DC
:10568000FBFF12010A5C7B827AB3793B900065BE16
:105690001201337C120016CF015728C23E01572851
:1056A0007B827AB37958120016CFC23E807A7B8211
:1056B0007AB3796A1201339612013311900065BCF6
:1056C0001201330C900065BDE0FF9000625BE4F0D6
:1056D000A3EF1200577112013383120132DA20E076
:1056E0001C74422FF582E43462120132DA30E00D8C
:1056F0007B827AB3798E120016CF0153A112013347
:105700001812013383120132DA30E41C74422FF58F
:1057100082E43462120132DA20E40D7B827AB379BA
:10572000A0120016CF01557D120133182442F582D4
:10573000E43462120132DAFE74222FF582E434621C
:10574000120133A0F0900065BAE0FFA3E0FEF4FD83
:10575000EF5D900065BAF054786015EE25E0A3F097
:10576000900065B9E004F0E0C3940450030152389E
:1057700022F0120016CF900065B9E0FF2212001649
:10578000CF900065B9E0FF22120016CF900065BCF3
:10579000E022900062BE120013F6E924AFF9E43A69
:1057A000FA120011B3FD900062BE120013F6E92454
:1057B000AEF9E43AFA120011B375F004A4FF9000B8
:1057C00062BE120013F6E922FF9000630912001373
:1057D000F6E92416F9E43AFA1200141FE92FF9EA5F
:1057E0003EFAE92403F9E43AFA020011B3F090001A
:1057F00061F5120013F6E92416F9E43AFA020014EE
:105800001F900062B0E09000326CFF75F0781200DB
:1058100013EAEF2583F58375930022FF900061F56D
:10582000120013F6E92290006315E0FF900063096F
:10583000120013F6E92275F004A4FF9000638812A9
:105840000013F6E922900061E2120013F690006561
:105850003312001416900061E5E090006536F09078
:105860000061F2020013F6F9E43AFA12001277FF2F
:1058700090006381120013F6E922759300E0900016
:1058800061EAFEE0FD24B4F582E4345DF5837593AE
:1058900000E0222404F9E43AFA0200127790006250
:1058A000C4120013F6E92402F9E43AFAEF020011F7
:1058B000E590006456E09000644E75F004A4FF1279
:1058C0000013F6E92FF9EA35F0FAE92290005E9A22
:1058D000F0900061F5120013F6900063621200145C
:1058E00016900061E2020013F6CAEECAC9EFC97B46
:1058F00001900062CD12001416900062CD120013C8
:10590000F6E94A4B22900062B0E0FF900062B3E0FB
:10591000FD900062CA120013F69000638112001419
:1059200016900062BE120013F69000638402001409
:1059300016900062B5120013F6900062BDE02401DB
:10594000FF900062BCE03400FEE92FF9EA3EFA0263
:105950000011B3E075F004A4FFAEF09000644E02B5
:105960000013F6A3F0E4A3F0A3F0A3F0A32224AF66
:10597000F9E43AFA7401020011C92404F9E43AFA8C
:10598000E5F08FF00200129BE075F004A429F9EA1B
:1059900035F0FA02001277900062C4120013F6E9A3
:1059A0002290006315E0C39401FFE49400FE7802A6
:1059B000EF229000630612001416900061F50200B9
:1059C00013F6900063A9120013F6E9240122C39490
:1059D00001FF131313541F900061E9F0EF5407A364
:1059E000F0900061E9E0FF24F9F582E434612224BB
:1059F000AEF9E43AFAE4020011E52420F9E43AFAB7
:105A0000ED020011E590006303120013F6E4F5F0D7
:105A10000200129BF0A3E4F0A37406F0E4A3F0A349
:105A20007408F0A3229000620FE0FFC39408748012
:105A3000948022900062C7020013F6E92401F9E481
:105A40003AFA22900062CA120013F6E922FE900090
:105A50006314E02EFEC374089EFEC8EEC8EF082251
:105A6000900062CD020013F6241EF9E43AFA22FEF9
:105A700075F078020013EA29F9EA3EFA120012776B
:105A8000FF9000630CE5F022CAEECAC9EFC97B01A2
:105A900022900063A9120013F6E924082290006402
:105AA000A1E0FF75F0789000326F22F0A37481F0CE
:105AB000A3E4F0A3747FF022900061F502001416B5
:105AC000FF7E00C3940174809480227B007A007969
:105AD0000002001416900063A6120013F6E92407D2
