:020000040000FA
:1000000002010001020408000101000201B03D00EC
:100010000100020004000800100102040849430026
:10002000EF222202015687E4FE12018301CEEFCEB9
:10003000CFCF220201670F0201601A02011654029B
:1000400001A98702008B9302018C390201369402C8
:100050000193740201A8110201AD680201A3CD90C1
:10006000909090010204080FA0A0A0A001100440ED
:1000700055A0A0A0A00220088012012AF12222FF90
:1000800090006729120013D57810EC4D4E4F700484
:100090007CA57DA5C3EC13FCED13FDEE13FEEF1361
:1000A000FF5010EC64CCFCED644CFDEE644EFEEFB2
:1000B00064CEFFD8DF90006729120013EDEE547F65
:1000C000FE2290006729EEF0EFA3F0A374A5F0A341
:1000D000F02275F003A424A0F582E43460F5837562
:1000E00093002275F003A424A2F582E43460F58322
:1000F00075930022F09000609FE004F0C3942022EA
:1001000075EBAA75EB55759D02787FE4F6D8FD90E6
:100110000000007F007E807D01E4F0A3DFFCDEFABA
:10012000DDF8750F7E7510FF75814D02001B8B4148
:10013000640000416409004164040041640300411B
:10014000640A004164080041682E004249C700006B
:100150004249D400004249D200004149C900424905
:10016000C300004249CC00004249CA00004249C5D0
:1001700000004249D000004249CE00000143004146
:1001800067BC004167BD004147F00060904F3200FE
:1001900042003E3C3A3B456843413F3D2B35676951
:1001A000E2E188E0141E006A001D16041A1F006BAD
:1001B000061B070821208C6C2C1909171522686D65
:1001C00011050B0A1C23696E00100D1824256A6F97
:1001D000360E0C122726007037380F33132D00719E
:1001E0008734032F2E007239E52830003100940047
:1001F0006493928A002A8B0059895C5F85000062B3
:10020000635A5D5E60295344575B56556147000051
:1002100000004046000000000000000000000060F8
:10022000A54E8D000000000000000000000000004E
:10023000000000BEE60000E4B40000C400000000BE
:100240000000E3C3B900B7000000E7C20000BC0033
:10025000920065C100B800B60000B0C000BFB50094
:100260000000B1BD00000000000000BB0054000011
:10027000B30000BA000000000000000000580000B9
:1002800000B2000000000000006600004D00504A6F
:10029000000000494C51004F52004800004E0046FB
:1002A0004B480004010244453A3B3C3D3E3F40413F
:1002B0001E1F200000000000787665756677747E4A
:1002C000797A7C7D7B7F8180603F4D0602810002D0
:1002D000820002830003B50003B60003B70003CD1C
:1002E0000003E20003E90003EA00038301038A013B
:1002F0000392010394010321020323020324020356
:100300002502032602032702032A024153D401498E
:10031000552A0000000000001E001E4E5F7B0047B3
:10032000014700470147F000F100FF004E5F6B00FE
:10033000E001E000E001E0F000F100FF00606E5E2F
:10034000D60924800617150F450001040145010454
:100350000627203A4500010628203D4500010329D3
:10036000204203302043071440131A4500010913AB
:1003700080130F180A450001071640130A450001B3
:1003800006052005450001030620160B07200C86F4
:100390000500E7035E28580A0CA0090F04160B5E3F
:1003A0002858040E482858062020185E2858FF4177
:1003B0005F8B00415ED100415ECD00415F7A00411C
:1003C0005F8D00415ED500415ED300415F79004101
:1003D0005ED00048610000102030405060704861DD
:1003E000488081828384858687486150909192936A
:1003F0009495969760406108A0A1A2A3A4A5A6A782
:10040000A8A9AAABACADAEAFB0B1B2B3B4B5B6B7F4
:10041000B8B9BABBBCBDBEBFC0C1C2C3C4C5C6C7E4
:10042000C8C9CACBCCCDCECFD0D1D2D3D4D5D6D7D4
:10043000D8D9DADBDCDDDEDF41630A00416320006E
:1004400041631F004163090044631B000000005228
:10045000608C1201010109000008950B046812006C
:10046000010203016040604C2A03560069007200DB
:100470007400750061006C002000480055004200C7
:1004800020005600650072003A0030002E00300057
:10049000310000000000000000000000000000002B
:1004A00000000000000000006020602C0A034D00E6
:1004B00054004B002000000000000000000000007D
:1004C0000000000000000000000000005257CB12A6
:1004D00001100100000008950B06680200010203EC
:1004E00001605457DD09025400030100A001090412
:1004F00000000103010100092110010001223F0059
:10050000070581030800010904010001030102003D
:10051000092110010001226E000705820307000176
:100520000904020001030102000921100100012257
:100530005D0007058303070001603F583505010989
:1005400006A101050719E029E715002501750195A8
:100550000881029501750881019505750105081945
:1005600001290591029501750391019506750815FC
:100570000025680507190029688100C0606E58745D
:1005800005010902A10185010901A101050919015E
:100590002905150025017501950581027503950151
:1005A000810105010930093109381581257F750858
:1005B00095038106C0C005010980A10185020501DE
:1005C000198129831500250195037501810695017F
:1005D00075058101C0050C0901A101850319002AD7
:1005E0003C021500263C02751095018100C0605D3B
:1005F00058E205010902A10185040901A1000509CC
:10060000190129051500250175019505810275015E
:100610009503810175089501050109381581257F2C
:100620008106C00901A1000501093015002600045A
:100630003500460004751095018102093115002628
:1006400000033500460003751095018102C0C044C7
:100650005831040309046022599F220341005300CA
:1006600049005800200045006C00650063007400DC
:1006700072006F006E006900630073006040595F94
:100680002A035600690072007400750061006C0056
:100690002000480049004400200056006500720018
:1006A0003A0030002E003000310000000000000051
:1006B000000000000000000000000000000000003A
:1006C0006020593F0A0341005300490058000000D0
:1006D000000000000000000000000000000000001A
:1006E000000000004430F1010204085430DD14031E
:1006F0004D006900630072006F0073006F006600B8
:100700007400485DAF0102040810204080445CAED4
:100710001A1C1E20445CA912141618425CE4000046
:10072000C11CC11AC11B415CE300415CB207415CC2
:10073000AD0049635F030000000000000000415E5F
:100740009400602A5EA100810082008300B500B69B
:1007500000B700CD00E200E900EA0183018A0192BE
:100760000194022102230224022502260227022AE2
:1007700049625600000000000064006449624400C1
:1007800000000000000200024F62BF20FF803F0017
:10079000000000000000000000004F62A220FF8067
:1007A0000000000000000000000000004762B110DF
:1007B000000F200900004762B810000F2000000061
:1007C00042671509DA42671790C05A4FE6000100E8
:1007D00001000100010001000100010004002000EF
:1007E000640032001900115A4FCC000100010001D1
:1007F0000001000100010001000200100032001998
:10080000000C00084D5270080C101820305E1A1AA7
:10081000646464644D51630406080C10182F1A1A9E
:1008200064646464424FC9000042500700004250B3
:10083000050000414FCB00424FC70000425003006B
:10084000004250010000414FC30041527D00605AF8
:10085000500931324D000000384D00000000364D87
:1008600000000000344D00000000334D0000000087
:10087000324D00000000314D000000003932314B94
:1008800000003131354B000039363030000031394D
:1008900032303000333834303000353736303000C5
:1008A000000000000000000000000000C11FC11D8A
:1008B000C11E41602B00415FC40141601601415FD0
:1008C000D00F415FD200415FC10141600B00415F29
:1008D000B947415F960041601D00445FBB000000C6
:1008E00000415F970041600C0041601E00415FCDF8
:1008F00000485FFB0000000000000000415FC000F6
:10090000426017020042601A018042601F00004FDF
:100910005FE4000000000000000000000000000094
:100920000041601900485FF3039C039C006400646D
:10093000486003029C0064029C0064415FC7004160
:1009400057CA0060C05637000000000001000100D7
:100950000100018246BC030101010201010182463E
:10096000BC03010201020101018246BC0301020134
:10097000030103018246BC030201000001000100E3
:100980000100018246BC030101010201010182460E
:10099000BC03010201020101018246BC0301020104
:1009A000030103018246BC020103000001000100B3
:1009B0000100018246BC02010101010103018246DE
:1009C000BC02010101020102018246BC02010301D5
:1009D000010103018246BC01030200000100010085
:1009E0000100018246BC01010301010101018246AF
:1009F000BC01010201030102018246BC01010301A5
:100A0000030102018246BC60C056F70302010003E5
:100A10000100010101000181F457030101010201FC
:100A2000000181F457030102010201010181F45721
:100A3000030102010301030181F4570201000302D3
:100A40000100010101030181F457020101010101CB
:100A5000000181F457020101010201020181F457F2
:100A6000020103010001030181F4570100030201A7
:100A70000100010001030181F4570101000101019E
:100A8000010181F457010102010301020181F457C0
:100A9000010103010001020181F45700030201007A
:100AA0000103010001000181F4570001010102016D
:100AB000010181F457000102010301010181F45792
:100AC000000103010301020181F45760F055370072
:100AD0000102030301010100010001810022000164
:100AE0000201010101018100220101030102010251
:100AF00001810022020100010301030181002203A0
:100B0000010200010100010201000181007E0101DA
:100B100000010301010181007E03010201020100C5
:100B20000181007E030102010301010181007E03B6
:100B3000010200010100010001000181007E0101AC
:100B400000010101010181007E0301020102010295
:100B50000181007E030102010301030181007E0087
:100B60000000000000000000000000000000000085
:100B70000000000000000000000000000000000075
:100B80000000000000000000000000000000000065
:100B90000000000000000000000000000000000055
:100BA0000000000000000000000000000000000045
:100BB000000000000000000000000000000000C174
:100BC00027C1264461710001020342615A000042BC
:100BD000615800004261AE000060386175AA550698
:100BE00001CC330000AA550602CC330000AA5507F9
:100BF0000301000000AA55050401000000AA5505E4
:100C00000501000000AA55050601000000AA5505CF
:100C10000701000000004864CF0000000000000051
:100C200000EDD2E7CD33EC3392D524814006E4FFCA
:100C3000FEFDFC22FCE4CFCECDCC24E0501174FFAD
:100C400080EDC3CC13CCCD13CDCE13CECF13CF04B8
:100C500070F030D5DE020013A1F920E73624F950F8
:100C6000037907E4F42402FBE58215827002158300
:100C7000DBF6E024FB501BE96014E4F0E58215820A
:100C800070021583E004F0B40A08E4F0D9EE7401B0
:100C9000F00A22C2D522ED33EC3392D5FA602AB4A1
:100CA000FF33EDC2E77B8160067A0C79BBE4227AE0
:100CB0000C79C420D5047A0C79BF224E614E002BEA
:100CC000494E46002D494E4600E47A08F0A3DAFC6E
:100CD0007B00740722C093C083C082ECC0E0EDC0EB
:100CE000E0EEC0E0EFC0E0EA75F010A4CAABF0752A
:100CF000F04DA42BFBE435F0FCEA2410FAEB34C5EC
:100D0000FBEC34D9FCEDC2E7FF75F056A4F42411D6
:100D1000C5F0F434C58FF0A42AE5F03BE43CF020A4
:100D2000E71612001087D0E0FFD0E0FED0E0FDD043
:100D3000E0FC12000FB58016F40412001087D0E01A
:100D4000FFD0E0FED0E0FDD0E0FC12000EA3D08288
:100D5000D083D093E0FAEDD2E7CD33EC332482FB9D
:100D6000E4C3CF33CFCE33CECD33CD33DBF37B07EC
:100D700075F00A846004F0A31B0AE5F0F0A38FF07D
:100D8000740AA4FFACF08EF0740AA42CFEACF050F0
:100D9000010C8DF0740AA42CFDE435F0F0A3DBDE29
:100DA00074072202001102E86480F8E933E8336036
:100DB000110460EFED33EC337009E8FCE9FDEAFE65
:100DC000EBFF220460DDD3EB9FEA9EE99DE8C2E7DA
:100DD0008CF0C2F795F0400CE8CCF8E9CDF9EACEFA
:100DE000FAEBCFFB120010CD85D0F0580470032031
:100DF000D5B1E80470085002B2D50200110C92D5AA
:100E0000EC0460F6E4CCC0E0C398F8603C94186051
:100E100009400ED0E0FB020010E4E4FBFAC9FC80BC
:100E200028E830E406E4C9FBE4CAFCE830E305E462
:100E3000C9CACBFCE854076010F8C3E913F9EA13F8
:100E4000FAEB13FBEC13FCD8F130F531C3E49CFC56
:100E5000EF9BFFEE9AFEED99FDD0E0FBEF4E4D4C7F
:100E6000701322DB0402001109EC2CFCEF33FFEEBF
:100E700033FEED33FDED30E7EA020010E4EF2BFF27
:100E8000EE3AFEED39FDD0E0FB50140BBB0004023E
:100E900000110CED13FDEE13FEEF13FFEC13FC023B
:100EA0000010E4EC4D6011E8497018ED33EC3304A8
:100EB000600DE4FCFFFEFD22E933E8330470F80224
:100EC000001102120010CD58046009E4CC248150B6
:100ED0000728500B0200110C28400402001109C021
:100EE000E0EB4A7046B98007D0E0FB020010F8EF53
:100EF0004E701DBD8008EBFFEAFEE9FD80EAE98D3A
:100F0000F0A4FEE5F002000F92E9CDF9EAFEEBFF56
:100F1000EF89F0A4FCE5F0CE89F0A42EFFE435F0D3
:100F2000CD89F0A42DFEE435F08067EF4E7005BD4D
:100F300080D780C2EF8BF0A4ACF0EE8BF0A42CFC39
:100F4000E435F0F8EF8AF0A42CE5F038FCE433CB7C
:100F50008DF0A42CFCE5F03BF8EE8AF0A42CFCE527
:100F6000F038F8E433CF89F0A42CFCE5F038CF3426
:100F700000CE89F0A42FFFE5F03EFEE433C98DF0EA
:100F8000A42EFEE5F039CD8AF0A42FFFE5F03EFE59
:100F9000E43DFD33D0E0FB50080BBB001002001114
:100FA0000CEC2CFCEF33FFEE33FEED33FD020010B2
:100FB000E40200110CEC5D046005E85904700402C1
:100FC000001102120010CD580460F4EC4860F0ECFF
:100FD0007004FDFEFF22C860D82481C8500AC3985F
:100FE00060025007020011099850C6F582E9294BAA
:100FF0004A7006AB82020010F875F0007C1A788007
:10100000C3EF9BEE9AED99400DC3EF9BFFEE9AFE66
:10101000ED99FDE842F0DC24ACF0D0E0FFD0E0FE3A
:10102000D0E0FDAB8220E7101BEB60B8EC2CFCEFAE
:1010300033FFEE33FEED33FD020010E4E803F83039
:10104000E705C0F075F000EF2FFFEE33FEED33FD46
:1010500040B730E7C180A93F800000412000004236
:10106000C80000447A0000461C400047C3500049B5
:101070007424004B1896804CBEBC205A0E1BCA67C5
:1010800053C21C749DC5AEFB600654076020232329
:10109000120010BAEB5438600C120010A5120010A8
:1010A000B512000EA3ECF8EDF9EEFAEFCB22EB123D
:1010B0000010B580F0543803241C90001057FE93A4
:1010C000FC0EEE93FD0EEE930ECE93FF22E9D2E7D7
:1010D000C933E833F892D5EDD2E7CD33EC33FC5089
:1010E00002B2D522EC30E7100FBF000C0EBE000894
:1010F0000DBD00040BEB6014A2D5EB13FCED92E7E1
:10110000FD2274FFFCFDFEFF22E480F8A2D574FFEF
:1011100013FC7D80E480EFEB7008E709F608DFFA46
:10112000801B89828A831410E70AF593E0A3F608EE
:10113000DFFA8009F593E493A3F608DFF9ECFAA946
:10114000F0EDFB2288F0EF60010E4E60F088F0EDCC
:1011500060C51410E7E7CB700E88828C838B93E711
:1011600009F0A3DFFA80D61410E72A89828A83F572
:1011700093ECFAE0A3C8C582C8CCC583CCCBC59399
:10118000CBF0A3C8C582C8CCC583CCCBC593CBDF7D
:10119000E2DEE080AA89828A83F593ECFAE493A3E5
:1011A000C8C582C8CCC583CCCBC593CBF0A3C8C57A
:1011B00082C8CCC583CCCBC593CBDFE1DEDF020098
:1011C000113FEB7002E72289828A831410E704F54D
:1011D00093E022F593E49322BB000327F722F8EB78
:1011E00089828A831410E706F593E028F022F593AC
:1011F000E4932822BB0002F722BB800050098982B9
:101200008A838B931593F022EF8DF0A4A8F0CF8CF6
:10121000F0A428CE8DF0A42EFE22BC000BBE002927
:10122000EF8DF084FFADF022E4CCF875F008EF2FDD
:10123000FFEE33FEEC33FCEE9DEC984005FCEE9D9A
:10124000FE0FD5F0E9E4CEFD22EDF8F5F0EE0084D6
:1012500020D21CFEADF075F008EF2FFFED33FD40FE
:1012600007985006D5F0F222C398FD0FD5F0EA2278
:10127000C5F0F8A3E028F0C5F0F8E5821582700209
:101280001583E038F022EB7007E7F5F009E7192243
:1012900089828A831410E708F593E0F5F0A3E02231
:1012A000F593E493F5F074019322BB0006F709A7C8
:1012B000F01922BB8000500D89828A838B9315938D
:1012C000F0E5F0A3F022EF2BFFEE3AFEED39FDEC56
:1012D00038FC2275F008758200EF2FFFEE33FECD4B
:1012E00033CDCC33CCC58233C5829BED9AEC99E5E6
:1012F0008298400CF582EE9BFEED9AFDEC99FC0F76
:10130000D5F0D6E4CEFBE4CDFAE4CCF9A88222B83D
:1013100000C1B90059BA002DEC8BF084CFCECDFCC2
:10132000E5F0CBF97818EF2FFFEE33FEED33FDEC4F
:1013300033FCEB33FB10D703994004EB99FB0FD838
:10134000E5E4F9FA227818EF2FFFEE33FEED33FDD6
:10135000EC33FCC933C910D7059BE99A4007EC9BD5
:10136000FCE99AF90FD8E0E4C9FAE4CCFB2275F065
:1013700010EF2FFFEE33FEED33FDCC33CCC833C876
:1013800010D7079BEC9AE899400AED9BFDEC9AFC7C
:10139000E899F80FD5F0DAE4CDFBE4CCFAE4C8F92B
:1013A00022C3E49FFFE49EFEE49DFDE49CFC22E852
:1013B000600FECC313FCED13FDEE13FEEF13FFD82B
:1013C000F122E8600FEFC333FFEE33FEED33FDECA7
:1013D00033FCD8F122E0FCA3E0FDA3E0FEA3E0FF94
:1013E00022E0F8A3E0F9A3E0FAA3E0FB22ECF0A3EB
:1013F000EDF0A3EEF0A3EFF022A42582F582E5F054
:101400003583F58322E0FBA3E0FAA3E0F922F8E0BC
:10141000FBA3A3E0F925F0F0E582158270021583A5
:10142000E0FA38F022EBF0A3EAF0A3E9F022EB7047
:1014300006E9F80200164A89828A831410E706F545
:101440009302001405F5930200165CBB001CD093B8
:10145000D0F0D0E0F8D0E0C9FBD0E0FAD0E0CBC8C3
:10146000C0E0C0F0C09302001653BB80005022D0F1
:1014700093D0F0D0E0F8D0E0C9F582D0E0CAF5838F
:10148000D0E0CB14C8C0E0C0F0C093889302001431
:1014900025D093D083D082D0E0D0E0D0E0E473D0E8
:1014A00093D083D082F8E4937012740193700DA3EB
:1014B000A393F8740193F5828883E47374029368AC
:1014C00060EFA3A3A380DF8B938A83898215935354
:1014D000937FE473EB700C87F009E608B5F019DF31
:1014E000F6801589828A831410E711F593E0F5F0F0
:1014F000A3E608B5F002DFF502001585F593E49345
:10150000F5F0A3E608B5F07DDFF48079CB701388A1
:10151000828C838B9387F009E493A3B5F067DFF5A2
:1015200080631410E73089828A83F593ECFAE0F542
:10153000F0A3C8C582C8CCC583CCCBC593CBE493FC
:10154000A3C8C582C8CCC583CCCBC593CBB5F03579
:10155000DFDCDEDA802F89828A83F593ECFAE4936C
:10156000F5F0A3C8C582C8CCC583CCCBC593CBE46A
:1015700093A3C8C582C8CCC583CCCBC593CBB5F0EB
:1015800004DFDBDED97FFFB5F0020F2240027F01CE
:1015900022020014D40200150C88F0EF60010E4EF8
:1015A00060EEED60EC1410E7ECCB701288828C8357
:1015B000F59387F009E0A3B5F0CBDFF680C71410F0
:1015C000E72F89828A83F593ECFAE0F5F0A3C8C58A
:1015D00082C8CCC583CCCBC593CBE0A3C8C582C899
:1015E000CCC583CCCBC593CBB5F09ADFDDDEDB80F9
:1015F0009489828A83F593ECFAE493F5F0A3C8C545
:1016000082C8CCC583CCCBC593CBE0A3C8C582C868
:10161000CCC583CCCBC593CBB5F004DFDCDEDA02DE
:10162000001585EF4E6022EF60010EEDBB0007F75D
:1016300009DFFCA9F022BB8000500E89828A838BCF
:10164000931593F0A3DFFCDEFA22E6FB08E6FA0826
:10165000E6F922EBF608EAF608E9F622E493FB74D1
:101660000193FA740293F922E5082475F582E434B3
:1016700062F583759300E0050822900062723007DE
:101680000490006275E475F0011200140E0200115E
:10169000C22000E57F2ED2008018EF540F2490D492
:1016A0003440D4FF30040BEF24BFB41A005003249D
:1016B00061FFE50960021509050CE50C7002050BD8
:1016C00030071190006272E475F0011200140EEF01
:1016D000020011F4020000277403D2078003E4C261
:1016E00007F5089000627212001425E4F509F50B65
:1016F000F50CE50960087F20120016B280F4750A27
:10170000FFC201C200C202C203C205C206C2081261
:1017100000167AFF700E3007067F00120016C3AF66
:101720000CAE0B22B42563C2D5C2041200167AFF98
:1017300024D0B40A00501A75F00A780930D505088B
:10174000B6FF0106C6A426F620D5047002D2038097
:10175000D824CFB41A00EF5004C2E5D20402001A14
:1017600000D20180C4D20080BED20280BAD2D5801D
:10177000B8D20580B27F20120016B2200207740191
:10178000B5090040F012001668FF120016B2020000
:1017900016F2D208D206808F12001668FB120016CD
:1017A00068FA12001668F94A4B7006790D7A1B7BAD
:1017B0008120023DE50960397E00E9C0E02EF9EAAA
:1017C000C0E03400FA120011C2F9D0E0FAD0E0C94A
:1017D00060060EEE650A70E2C2D5EBC0E0EAC0E03A
:1017E000E9C0E0EE12001A68D0E0F9D0E0FAD0E0EB
:1017F000FB120011C2FF6096EBC0E0EAC0E0E9C056
:10180000E0120016B2D0E02401F9D0E03400FAD0A2
:10181000E0FBE50A0460DAD50AD70200178ED2028F
:10182000808F12001A4460F6E50A70010412000C61
:1018300059A90A600EE50A600A14F50A12001AF79F
:10184000EF60F2EA30E702F404C3994004020018A2
:10185000D7EAF4250A0430E701E404F50A800F1200
:10186000001A4460B9EA050A250A12000C59EA90E8
:101870000062A1F030E701E4250A04D50A0420053E
:10188000011412001A68E4C0E012001AF790006216
:10189000A1E0601420E70814F01200169A802604D4
:1018A000F0D0E014C0E07F001200169AE50A60084C
:1018B00012001691150A800D30050412001691D001
:1018C000E0020016F2D0E00480BD12001A446093DA
:1018D000E50A0412000C59900062A1EAF0E50A2022
:1018E0000502600104240412001A6874FF04C0E0B9
:1018F00012001AF71200169AE50A20050260041277
:10190000001691D0E0B50AE57F45120016A49000BC
:1019100062A1E07F2B30E7047F2DF404C0E01200C9
:1019200016B2D0E075F00A84C0F01200169BD0E029
:101930001200169B020016F2791080027908C20686
:10194000C2088008D2D5790A8004790AC2D5E50A8E
:10195000047002F50AE4FAFDFEFF12001668FC7B33
:101960000820011612001668FD7B1030000C1200D2
:101970001668FE12001668FF7B20EC3382D592D5E4
:101980005013C3E43000069FFFE49EFEE4200103F1
:101990009DFDE49CFCE4CBF8C201EC700CCFCECDF5
:1019A000CCE824F8F870F38017C3EF33FFEE33FE72
:1019B000ED33FDEC33FCEB33FB994002FB0FD8E930
:1019C000EB300105F8D0E0C448B201C0E00AEC4DAC
:1019D0004E4F78207B0070C2EAB50A0040BCC0E0E0
:1019E00012001A6AD0F0D0E0200104C4C0E0C4B2F2
:1019F00001C0F01200169BD0F0D5F0EA020016F2FA
:101A00001200149F17985319385817654C176142E4
:101A1000193C4F194444194449177B43194A551836
:101A20005F4618CA451822471B2A5017692D176DA3
:101A30002E17942B1771231792201B162A1727484D
:101A40000000178AE50AB4FF03750A06120016683B
:101A5000FC12001668FD12001668FE12001668FFE0
:101A60009000629A02000C96790AA2D520031430E5
:101A70000509B910020404B9080104A2D520060220
:101A800050010420026D9202B509005036C0E07F7B
:101A90002030031A7F30A202720672055010120025
:101AA0001AC3C202C206C205C2087F3080103005C8
:101AB00003E9C0E0120016B2300503D0E0F9D0E02F
:101AC000B509CA3005197F30B9100D120016B27F62
:101AD000583004077F788003B90804120016B2302A
:101AE00002067F2D020016B27F202008F77F2B20F0
:101AF00006F222920280CC7F00B40700500E249A96
:101B0000F582E43462F583759300E0FF22286E7558
:101B10006C6C2900D201120016683001F7C20178FE
:101B20000930D50108F602001727120016687F4910
:101B300060087F4310E7027F5814C0E0EF120016E0
:101B4000A3743A120016A3D0E0600DC0E0C41200E6
:101B5000169BD0E01200169BD203750904020019EF
:101B60003802010B83E493A3F85407240CC8C33351
:101B7000C4540F4420C8834004F456800146F6DF65
:101B8000E4800C01020408102040809000012FE442
:101B90007E019360CCA3FF543F30E509541FFEE45F
:101BA00093A360010ECF54E0B4E026E493FBA3E4DA
:101BB00093FAA3E493F9A3E493C083C082120011C3
:101BC000F4D082D083A309E970010ADFEADEE8805D
:101BD000BE54C025E0602B408CE493A3FAE493A3A9
:101BE000F8E493A3C8C582C8CAC583CA759300F038
:101BF000A3759300C8C582C8CAC583CADFE3DEE106
:101C0000808DE493A3F8E493A34003F68001F208E7
:101C1000DFF402001B8F0200200082FF00000000A2
:101C20000200200082FF000000000200200082FF6E
:101C3000000000000200200082F0002000320200BC
:101C4000200082FF000000000500200082F000203C
:101C500000640200200082FF00000000020020005B
:101C600082F0002000640500200082FF00000000D8
:101C70000500200082FF0000000005002003E8FFAF
:101C80000000000005002000C8FF00000000020066
:101C9000200082F0002000640200200082F000207A
:101CA00000640200200082F000200064FF000000B9
:101CB0000005000803E8F0002001F4FF0000000028
:101CC00009021900010100E03209040000010900C5
:101CD0000000070581030100FF040309042203201B
:101CE000004D0054004B00200045006C006500636F
:101CF00000740072006F006E0069006300730009D9
:101D000029071000320100FF000000000000000061
:101D100000000000000000000000000000000000C3
:101D200000000000000000000101010101010001AC
:101D3000000700080604142474849408182880906E
:101D4000A0C0900061FEEFF0A3EDF0A312001425F7
:101D5000C20EC20FC210C211C212E490006209F09A
:101D60009000620BF0A3F0C224900061FEE0FF90AF
:101D7000005E0FF0900061FFE0FEEF12005BE8EF05
:101D80002583F583E5822EF582E435831200588C95
:101D9000FF7E0064017004D2118060EF64024E6027
:101DA00004EF4E7056D21290005E9DE0FFA3E090CB
:101DB000006238CFF0A3EFF090005E9FE0FFA3E059
:101DC0009000623ACFF0A3EFF07E007F0C7D007BA5
:101DD000017A5E79951200162390006238E0FFA325
:101DE000E090005E9DCFF0A3EFF09000623AE0FF3C
:101DF000A3E090005E9FCFF0A3EFF07E007F107D08
:101E0000007B017A62791612001623900061FE129F
:101E1000005805120058FD700A7B827ABC7988024E
:101E20000016DE900061FE120058051200140580B5
:101E3000301200585F120011C2FF900061FFE0FEF7
:101E40006F6028E92405120057F9E94A4B70030135
:101E500028B31200585FE92408120057F912005BFA
:101E6000A4900062101200142580C61200585FE989
:101E70002405120057F9E94A4B70030128B31200F8
:101E8000585FE92405120057F99000620D12001402
:101E900025C8EEC87401088002C333D8FCFF900047
:101EA00061FEE0FE9000315012005BECEE12005833
:101EB00013E05F700790006204E060283011117B2E
:101EC000017A5D79BB12005AB8900062097402F081
:101ED0003012117B017A5E791012005AB8900062BC
:101EE000097403F01200585FE92404120057E560FA
:101EF00041120058E1120011C2FF9000620D120061
:101F00001405120011C26F6029E92407120057F965
:101F1000EA494B70030128B39000620D12005AD9B0
:101F2000120057F912005BA49000620D12001425F4
:101F300080B21200584512019CAB9000620D120055
:101F40001405E92404120057F912005AB8900062EF
:101F50000D120059C6120057E590006209F0E49096
:101F600000622CF090006209E0FF9000622CE0D348
:101F70009F40030126D6120059BA120057E2FF7E95
:101F80000064077002D211301138EF64074E600F01
:101F9000EF640C4E6009EF64014E60030126A0EF70
:101FA000640C4E6017EF64014E600301203812008C
:101FB000581C12005893648045F0707CC211D212F4
:101FC0008003301273120059BA120057E2FF640105
:101FD000600DEF64096008EF640C60030126A01235
:101FE00000581C12005893FFAEF064014E6049EF98
:101FF00064804E6043EF64024E603DEF64304E609B
:1020000037EF64314E6031EF64384E602B12005967
:10201000BA120057E2640C601F1200581C120058DC
:1020200093FFAEF064814E600FEF64824E6009EF63
:1020300064834E60030126A0120059BA120011C237
:10204000648060030126A020110301249B12005824
:102050005FE92401120057F9E94A4B70357D1F7F73
:1020600010FE120183BF12005A88EBC0E0EAC0E004
:10207000E9C0E01200585F12005A3B1200144B12E4
:1020800000585FE92401120057F9E94A4B70030137
:1020900028B31200581C2401120057E5600764029F
:1020A00060030126A0D20FE490006234F0120058C1
:1020B0001C2415120057E5FF6012120057EE1200A3
:1020C000128664E045F07016D20E80121200581C81
:1020D000240D1200589564E045F07002D20E3025B0
:1020E000030126DC900053CCE09000620AF0EF6020
:1020F00046120057EEE92402120057E51200581B61
:102100002406120057E52FFFE433FE7803EFCEA23A
:10211000E713CE13D8F89000622B120057EDE92494
:1021200002120057E51200581B2406120057E52F33
:1021300090006230F080151200581C2406120057DF
:10214000E5FF9000622B12005C1FEFF01200581C9C
:102150002408120057E5640160030123AE12005801
:102160001C2409120057E59000622E12005C1FE04B
:102170009000623212005B2C9000622E12005B39DC
:1021800040030126A090006232E02EFF9000622AF8
:10219000F090006203E0FEEFD39E40030126A01200
:1021A0000058E19000622AE029120057E5FC700314
:1021B0000123A790006230E02408FE9000622FF017
:1021C0001200581C2407120057E5FDEED39D400A6B
:1021D000ED54079000622FF080079000622F740882
:1021E000F090006231ECF012005C2A90006233F053
:1021F00012005C5B9000622F12005AFBFEC39F40EE
:10220000030123A774AF2E12005887FF900062319C
:10221000E05F70030123A01200581C241512005720
:10222000E570030122D112005C2A12005AFC2F90A3
:10223000006235F0E490006234F01200581C24155E
:10224000120057E5FF90006234E0FEC39F40030197
:1022500022F9120057EEEE12005BF32912005AE346
:10226000120057E5FD90006235E0C39D4059900093
:102270006213120057CDFF90006235E0D39F5047A4
:10228000120057EE90006234E0FF12005989FD9071
:10229000006236E5F0F0A3ED120057EDEF75F004A3
:1022A000A429120058C52402120057E5FF900062CD
:1022B00035E0C39FFF120057EE90006234120059C0
:1022C00088FDCEEDCE802C90006234E004F0012237
:1022D0003A1200581C240D12005895FFAEF09000E1
:1022E0006236EEF0A3EFF09000622DE0FE90006207
:1022F00033E02E2F90006205F090006236E070040B
:10230000A3E064E0702E9000621612005AFBFE12E9
:10231000005885FDEF4D90006216F0900053CCE020
:102320004DF074AF2E12005887FF9000620AE05FF4
:102330007047804190006205E0120059CEF583C0DD
:1023400083C0821200587AFCEE4C759300D082D084
:10235000831200585EE92401120057F912005A3B1B
:102360007E00E92FF9EE120057E7FF74AF2D12003F
:1023700058875F7004120028B49000623112005A2E
:10238000FB12005885F4FEEF5E90006231F0701091
:10239000120058E19000622AE029120059F18007EA
:1023A00012005BFB0121F412005C03012178120092
:1023B000581C2408120057E5640860030126A01287
:1023C00000581C2406120057E59000622A12005B98
:1023D0002C1200581C2409120057E512005B3A40E9
:1023E000030126A0EEFFA3E02FFFE433FE9000627E
:1023F00003E0FDD3EF9D7480F86E9840030126A0A2
:1024000090006229E0FFA3E02FFFE433FE120058A2
:10241000E112005949FF90006231F0E4120011F41A
:10242000EF64017004D210805D90006231E060566C
:102430001200581C240D12005895FF90006231E0E4
:102440002F90006205F0120059CEF583C083C08240
:102450001200587AFCEE4C759300D082D0831200A3
:10246000585EE92401120057F912005A3B7E00E938
:102470002FF9EE120057E7FF74AF2D120058875F57
:102480007004120028B41200584512019CAB30258C
:10249000030126A012005C030123D12012030126B0
:1024A000A0E49000620BF0A3F01200581C2401126B
:1024B0000057E5FF64026014EF6406600FEF64608C
:1024C000600AEF600764406003012667120059BA92
:1024D000120057E264097011D224120058D1120080
:1024E000FB7890005E9501256FD2241200581C12D3
:1024F000005893FFE5F060030125D3EF24CF60354A
:1025000014606024FA605C24B8606C24506003019D
:1025100025D31200581C2408120057E5120058CC8D
:102520001200FB7890005E97EEF0A3EFF07B017A4B
:102530005E799780211200581C2408120057E5127A
:102540000058CC1200FB7890005E99EEF0A3EFF0FB
:102550007B017A5E799990005E95E0FD1201A1CE33
:10256000012684120058D11200FB7890005E9BEE89
:10257000F0A3EFF0012684120058E1120059B212C4
:102580000028C890006238EE807790006238E0FC46
:10259000A3E0FD4C70251200581C240C120057E5D6
:1025A000700301268490005E94E0440412005C35C0
:1025B000E490005E9DF0A3F001268490005E9D12E1
:1025C000005C3C4404F01200581C240C12005970AA
:1025D000012684120058E1120059B2120028C89056
:1025E00000623AEEF0A3EFF0120059BA120057E27F
:1025F000640170139000623AE0FFA3E0900062383B
:10260000CFF0A3EFF080839000623AE0FCA3E0FDFE
:102610004C70231200581C240B120057E5602E90BA
:10262000005E94E0440812005C35D224E490005E21
:102630009FF0A3F0801790005E9F12005C3C44085E
:10264000F01200581C240B12005970D224120058AA
:102650001C2401120057E56460702990005E9FE021
:102660007002A3E0601E221200581C2401120057C1
:10267000E570111200581C12005893640145F07067
:10268000030125D39000620BE07002A3E060030118
:1026900024E91200584512019CAB3025030128B3F0
:1026A0001200584512019CAB2025211200581C2411
:1026B00019120057F9EA494B60121200581C2419EC
:1026C000120057F912005BA412005AB89000622C55
:1026D000E004F0011F643010030128B3200F030150
:1026E00028B31200585FE92401120057F9120011B3
:1026F000C2FF90006216E06F7003012794200E0362
:10270000012794EF607812005C5B12005A25506E2E
:102710001200585FE92401120057F9120011C2FE9D
:1027200074AF2F12005887FF5E603C90006216E085
:102730005F70349000622DE01200588512005C4EEC
:1027400090005524E014F0900053CC12005AFBFE88
:1027500012005885F4FDEF5D900053CCF0EE24E0BC
:10276000FD7F011200A3D11200585FE9240112007D
:1027700057F9120011C2600612005BFB808C9000BA
:102780006216E0FF1200585FE92401120057F9EFCA
:10279000120011F490006206740F12005B31900079
:1027A000620612005B3940030128B31200585FE94A
:1027B0002401120057F912005A3BEE7E0029F9EE6F
:1027C000120057E7FF700301288390006229E0128E
:1027D0000059E71200588C6F700301288312005CC7
:1027E0005B12005A2540030128831200585FE92438
:1027F00001120057F912005A3B90006229E0FE7C5A
:102800000029F9EC120057E7FD74AF2F120058872A
:10281000FF5D605274172EF582E434621200588C0A
:102820005F70431200585FE92401120057F912004B
:102830005A3B90006229E0FF29F9EC120057E7901B
:1028400000622D1200588212005C4EEF3333335475
:10285000F82D0490006205F0FD90005524E014F07E
:102860007F011200A3D11200585FE9240112005722
:10287000F912005A3B12005C624F600712005BFBCA
:102880000127E190006229120059E51200588CFEE0
:102890001200585FE92401120057F912005A3BEF69
:1028A0007C0029F9EC3AFAEE120011F412005C03F4
:1028B00001279E2290005524E004F090006205E07C
:1028C000FDE4FF1200A3D12290006327120014251B
:1028D0007B017A62790B12005C8122900062F0EF3A
:1028E000F0A3ECF0A3ED120051A7E4900062F6F023
:1028F000A374FFF0E4900062F9F0A3F012004E8898
:10290000FF9000630612004FDBE9240112004C4CDB
:1029100024FC7003012A1C147003012BDB24E470D7
:1029200003012B9B241F6003012FAE900062F31262
:10293000001405E92FF9EA3EFA900062FD12001436
:1029400025E9240412004C4CFEC394064009740689
:10295000120011F47F0022900062F0120051131255
:10296000004B64E04E759300F0120050CD12004B06
:1029700064E0701D1200509C240512004C4C1200A3
:1029800050A69000314D12004C76EE12004B69EFCC
:10299000F01200509C240512004C4C120050A690DE
:1029A00000314F12004CB6EE12004B69E0FDEFD340
:1029B0009D400F9000314F12004C82EE12004B6987
:1029C000EFF01200509C240812004C4CD39432407B
:1029D000067432120011F47E007F04EEC0E0EFC0F6
:1029E000E0900062FD12004C454480FD900062F0D2
:1029F000E075F0EAA424CCF9740835F0FA7B01D034
:102A0000E0FFD0E0FE12001623900062FD12004CA1
:102A10004512004E9990003170012B8D12004E88A6
:102A20009000630012004FDBE9240212004C4CC3FB
:102A3000940640037F002212004EFC240312004C37
:102A40004C700B900062F6F0A3E004F0800A900056
:102A500062F7E0B4FF02E4F012004EFC240512001D
:102A60004C4CFF702112004DE212004B64E0FE90CE
:102A70000062F7E0FD12004C9912004F262D120063
:102A80004B82EEF0802A12004F2E9000315212003D
:102A90004B73EFF0ED12004C36ED12004B69E07015
:102AA0000F75F078ED12004C39ED12004B69EFF024
:102AB00012004EFC240312004C4CFF12004F2E75E6
:102AC000F0789000317112004B76E0FCEFD39C401F
:102AD0000E75F078ED9000317112004B76EFF01228
:102AE000004EFC240612004C4CFF900062F7E0FE02
:102AF00075F078ED9000315812004B76EFF09000B1
:102B0000630012004C459000316412004B71EFF0ED
:102B100012004EFC240412004C4C9000317712003D
:102B20004B71E0FEEFD39E401112004F2E75F078EE
:102B30009000317712004B76EFF0900063001200A6
:102B40004C4564016003012FAE900062F01200500A
:102B50005D12004B64E04401120051CB543060150B
:102B60009000600C120051D29000325912004B6458
:102B7000EEF0012FAE90005525E0247FF582E4347D
:102B80005212004E0D12004E99900032591200134D
:102B9000F9EE12004B69EFF0012FAE12004E8829BA
:102BA000F9EA3EFAE9240712004E331201AE5C1234
:102BB000004F349000320F12004CBFED2583F58397
:102BC000C083C08212004EB2D082D08375F0021250
:102BD0000013F9EEF0A3EFF0012FAE900062F6E0E3
:102BE000D394064003012FA412004E8829F9EA3E2F
:102BF000FA9000630312001425C238E4900062F8D2
:102C0000F0900062F6E0FF900062F8E0FEC39F5093
:102C10005E12004E5A240212004C4C547FFF1200E8
:102C20004F3412004BDAED2583F583C083C0821246
:102C30000050ADD082D08312004E73759300120005
:102C40004B7FE0547F6F701E900062F0E0FF9000B9
:102C5000317112004CCB12004F262D12004B82E036
:102C6000600DD2388009900062F8E004F080921282
:102C7000004E5A240412004E331201AE5C900062E2
:102C8000FBEEF0A3EFF0900062F7E012004E991215
:102C9000004C9DEE12004F272F12004B82E0640182
:102CA000704712004C35EE12004B69E06401600C75
:102CB00012004C35EE12004B697401F0D3900062A3
:102CC000FCE094C0900062FBE09400401CE4F0A3A0
:102CD00074C0F0FF7E001201AE5C12004E5A12006A
:102CE000500CEE8FF0120012AA203803012E6E1243
:102CF000004BC0EE2583F583C083C082120050AD27
:102D0000D082D08312004E73C083C082120050352F
:102D1000D082D083258212004B82E06F7003012D98
:102D2000F612004C35EE12004B69E06403700301AB
:102D30002F6812004E5A240212004C4C120050A66A
:102D400012004BDAEE12004B691200511DC083C015
:102D50008212005035D082D083258212004B82121D
:102D6000004BE5EE12004B691200511DC083C0827A
:102D7000900062F8E0FE759300D082D08325821225
:102D8000004B8212004DE012004B64E0B4092012A7
:102D9000004E14C083C08212004EB2D082D0831283
:102DA000004E7375930012004B7F74F0F0802D126B
:102DB000004B9BEE2583F583C083C08212004EB288
:102DC000D082D08312004E73C083C082120050356F
:102DD000D082D083258212004B82EFF012004E5A2F
:102DE000240312004C4C5403C43354E012004E9997
:102DF000900031C58054900062F0E0900031A11243
:102E0000004D02EF2583F583C083C08212004EB2CD
:102E1000D082D08312004E73C083C082120050351E
:102E2000D082D083258212004B82E0FF900062FBAB
:102E3000E0FCA3E0FDD39FEC94005003012F68CF8A
:102E4000EDCF12004E9A900031A1120013F9EE2539
:102E500083F583C083C08212004EB2D082D0831229
:102E6000004E73C083C082900062F8012F58120098
:102E70004BC0EE2583F583C083C082120050ADD0D5
:102E800082D08312004E73C083C082900062F6E04D
:102E9000759300D082D083258212004B8212004BA2
:102EA000E5EE12004B691200511DC083C0829000F4
:102EB00062F6E0FE759300D082D083258212004B2B
:102EC0008212004DE012004B64E0B4092012004E63
:102ED00014C083C08212004EB2D082D08312004E42
:102EE0007375930012004B7F74FFF0803112004B1A
:102EF0009BEE2583F583C083C08212004EB2D08240
:102F0000D08312004E73C083C082900062F6E075D9
:102F10009300D082D083258212004B82EFF0120002
:102F20004E5A240312004C4C5403C43354E0120094
:102F300050A6FE900031C512004D19EE2583F58391
:102F4000C083C08212004EB2D082D08312004E7372
:102F5000C083C082900062F6E0759300D082D08377
:102F6000258212004B82EFF012004EFC2405120065
:102F70004C4CB4092F12004E5A2406F9E43AFA7464
:102F8000FA120011F412004E5A240212004C4C5452
:102F90007F120050A69000327812004D31EE1200E0
:102FA0004B69EFF0203807900062F6E004F09000E3
:102FB000630612001405120011C2FF900062F9E4CA
:102FC0008FF012001270900062F1E0FEA3E0FFC3E8
:102FD000900062FAE09F900062F9E09E50030128A1
:102FE000FC7F0122900042EA12012A7F90000063D8
:102FF00093FDE4FB1200E5150201AF4BFFFFFFFF5D
:10300000900062CEEFF0A3EDF0C223E4900062DA0C
:10301000F0A3F0900062EE04F0900062E212005A19
:10302000CB12005C6975F078900032651200580E82
:1030300012001405900062DC120014251200142EF8
:10304000900062D312001425120057BE240A120009
:103050005895FF900062D6E5F0F0A3EFF012005B08
:103060001A1200594BFF540304900062D0F0FDC3C4
:10307000900062D7E09D900062D6E094005003017A
:103080003AF1C222EF54FC900062D1F0E4FFEFC3AA
:10309000940D748094805018EF90001D3593FE902D
:1030A0000062D1E0FDEE6D7004D22280030F80DE5D
:1030B000202224900062D0E012005B03C3900062E3
:1030C000D7E09FFF900062D6E09EFEF0A3EFF04EA7
:1030D0007003013AE3808612005B1A1200594BFF1D
:1030E000540CFECDEECDEF54F0900062D1F0900084
:1030F00062D0E0FF7E00C3940274809480500AE4A2
:10310000900062D8F0A3F08044EF64024E700A127F
:1031100000593112005B448034900062D0E0D394B7
:10312000027480948040261200593112005B449052
:103130000062D312001405900062DBE0240212004A
:103140005940900062D875F00012001270CFEDCF98
:10315000EF24FC700301380324FC7003013981243F
:10316000086003013AB1900062D1E0FF247060155D
:1031700024F0700301375124E0700301378A2440A2
:103180006003013AB1120057BE241C120057E5FE3D
:10319000120057BE241D120057E58EF0A4FEEF6406
:1031A00080700B120057BE12005BC2EE800CCFEE97
:1031B000CF120057BE12005B61EF120011D812004F
:1031C00057BE2409120057E554016003013711125C
:1031D000005C69900062D1E0FD900062D8E0FAA343
:1031E000E0FB12010A43EF7003013711120058018E
:1031F000120058FD70307D20FE12003B2112005A53
:10320000881200580112005AEB9000326C120058DC
:103210000E120058FD70097B827ABC79950133CE7D
:1032200012005801804012005A33120011C2FF9060
:103230000062CFE06F60447D217E0012003B2112CE
:103240000058E97003013AB112005A60EBC0E0EA9D
:10325000C0E0E9C0E012005A33E912005B611200DD
:10326000144B900062EB12001405900062E512000E
:103270001425900062CFE0120011F412005A33E9D5
:103280002405120057F9E94A4B600301330E7D22F1
:10329000FE12003B2812005A88EBC0E0EAC0E0E9C9
:1032A000C0E012005A33E92405F9E43AFA12001496
:1032B0004B12005A33E92405120057F9E94A4B70C2
:1032C00003013AB112005A33E92405120057F9906C
:1032D0000062E212001425120057BE241312005798
:1032E000E512005B68EF120011F4120057BE240EC5
:1032F00012005895FF1200589D120057BE2410125C
:10330000005895FF1200599712005C70806A1200F5
:1033100057BE2413120057E512005B68120011C259
:103320006F605A7D237E0012003B28120058E9701E
:10333000097B827ABC79A60133CE12005A33E92484
:10334000041200597012005A60EBC0E0EAC0E0E9D4
:10335000C0E01200599712005BC91200144B120012
:103360005A60900062E212001425120057BE241326
:10337000120057E512005B68EF120011F412005CB6
:103380000B900062DC700612005BE0800412005AB1
:1033900095120057E5FF900062DFE4F0A3EFF01212
:1033A0000057BE241D120057E5900062E1F0900026
:1033B00062EEE070030134427D247F1C7E00120126
:1033C00083BF120058E9700D7B827ABC79B7120076
:1033D00016DE013AB1120059972404120057F9E998
:1033E0004A4B702D12005A60900062E812001425BA
:1033F000900062E812001405EBC0E0EAC0E0E9C00A
:10340000E0120059972404F9E43AFA1200144B80B0
:10341000311200599724011200597012005A60EBC2
:10342000C0E0EAC0E0E9C0E012005A432419F9E420
:103430003AFA1200144B12005A60900062E812002F
:103440001425120057BE24AE120057E5FFD3120018
:103450005AC450030136B8120057BE241412005843
:1034600095640C45F06010120057BE240E120058EF
:1034700095640C45F07064EF12003AF2EBC0E0EA9C
:10348000C0E0E9C0E012005A432416F9E43AFA1207
:1034900000144B900062E8120057F2EA494B603B7F
:1034A000120057BE24AE120057E512005BF3120063
:1034B00057BE12005A68EBC0E0EAC0E0E9C0E090F5
:1034C0000062E8120057F212005B57D0E0F9D0E03A
:1034D000FAD0E0FB12001144013570120057BE24EF
:1034E000B0120057E5900062D2F0120057BE241CC3
:1034F000120057E56401600E120057BE241D120031
:1035000057E56401707B120057BE24AE120057E5E8
:1035100012003AF2EBC0E0EAC0E0E9C0E012005A63
:10352000432416F9E43AFA1200144B900062E812B0
:103530000057F2EA494B6038120057BE24AE120021
:1035400057E512005BF3120057BE12005A68EBC039
:10355000E0EAC0E0E9C0E0900062E8120057F21231
:10356000005B57D0E0F9D0E0FAD0E0FB1200114444
:1035700012005905120057BE24AE120057E501375C
:103580000D120057BE24AE120057E5FF900062D224
:10359000E0C39F4003013711120057BE241C1200E4
:1035A00057E5FF7E00120057BE241D120057E5901C
:1035B0000062EFF07401120011F4120057BE24AE45
:1035C000120057E5C39401FD900062D2E06D6041A6
:1035D00012005C0B701A120057BE2405120057E54A
:1035E000CCEFCC2CFD120057BE12005BC2ED801D4B
:1035F000900062D1E064907018120057BE24071248
:103600000057E52F120057BD12005B61EF12001149
:10361000F412005905E412003B08900062D1E0FF6B
:103620007E0064807027120057BE2406120057E502
:10363000FD120057BE2405120059FC900062DFA362
:10364000E0FD120057BE12005BC2ED8029EF6490CE
:103650004E7027120057BE2408120057E51200577B
:10366000BD2407120058A8900062DFA3E0120057A3
:10367000BD12005B61EF120011F4900062EFE012E6
:103680000057BD241D120058A8120057BE24B012C6
:10369000005970120057BE24AE120057E5120057B1
:1036A000BD24B0120057E5C39F50030133AE120092
:1036B00057BE120059EF8059120057BE241E120047
:1036C0005895FF12005A431200597A120057BE242F
:1036D0001C120057E56401602F120057BE241D1212
:1036E0000057E5FFD312005AC4401D120057BE24F4
:1036F0000E12005895640C45F0700D120057BE2450
:10370000AE120058A80134DB12005905E412003B48
:103710000812005C0B900062DC701012005BE0127B
:103720000057E5120057BD2405800E12005A95126D
:103730000057E5120057BD2407120058A87E007FED
:10374000937D00120057BE12005A681200162380A3
:1037500022120057BE2409120057E544041200113A
:10376000F4120057BE241212005970120057BE12F4
:103770000059EF120057BE2410120058951200573E
:10378000BD12005A68E5F0013A37120057BE241204
:10379000F9E43AFA12005C36120011C2705E1200AF
:1037A00057BE2409120057E554FA120011F47E00A6
:1037B0007F0B7D00120057BE2413F9E43AFA120081
:1037C00016237E007F937D00120057BE12005A68B8
:1037D00012001623120057BE2405120059F11200E0
:1037E00057BE2406120059F1120057BE24071200DA
:1037F00059F1120057BE2408120059F1900062EEF0
:1038000001393A120057BE2409120057E5540160ED
:1038100003013AB1900062D1E0440424FC7003013A
:1038200038B924F0700301395D24F0700301396F59
:1038300024B0700301394C24E07003013940241096
:103840006003013AB1900062EE7401F012005C690D
:1038500075F078900032681200580E1200140512AC
:103860000011C212005B4FFDCEEDCE541F4F12006F
:1038700011F412005B50120057BD2413120058A817
:10388000120057BE2405F9E43AFA7408120011D860
:10389000120057BE12005BC27408120011D8120049
:1038A00057BE12005BC97408120011F4120057BE13
:1038B00012005B617408013AAD120057BE24091270
:1038C0000057E530E21512005B11120057BD2414B9
:1038D000F9E43AFAEE12005982802112005B1112CB
:1038E0000057BD240EF9E43AFAEE12005982900016
:1038F00062E2120058FD60041200589D900062D8E8
:10390000E07004A3E0640C6003013AB1900062CF60
:10391000E0FF900062CEE09000316412005A6F1216
:10392000005BAC1200588C6003013AB1EE12005BF0
:10393000E812005BACF5837593007401F0013AB1B5
:1039400012005B50120057BD241D800A12005B500C
:10395000120057BD241C120058A8013AB112005B96
:1039600011120057BD2418F9E43AFAEE013A371261
:10397000005B11120057BD241AF9E43AFAEE013A3D
:1039800037120057BE2409120057E5FF54016003A7
:10399000013AB1900062D1E0440824E87003013A92
:1039A0003B24F07003013A5824206003013AB1EF40
:1039B000900062D830E263E0FCA3E0120057A51249
:1039C0000058C412005A68EC8DF0120012AA900040
:1039D00062D8E0FCA3E0120057A5120058C4120000
:1039E0005A68EC8DF0120012AA1200579212005879
:1039F000C4120059FA12005792120058C42421121E
:103A00000059FC120057BE1200596E120057BE2416
:103A1000AEF9E43AFA7401013AADE0FEA3E0FFCD5D
:103A2000EFCD120059972403120059FC120057BE23
:103A30002410F9E43AFAEE8FF08017900062D8E093
:103A4000FCA3E0120057A5120058C412005A68ECFB
:103A50008DF0120012AA805912005792120058C419
:103A6000120059FA120057A6120058C4241E120060
:103A7000589512005B4FFDCEEDCEC39F120057BD8F
:103A800024AFF9E43AFAEF120011D8120057A1124C
:103A90000058C42421120059FC120057BE120059CC
:103AA0006E120057BE24AEF9E43AFA740112001106
:103AB000D8900062D0E0F912005B03900062D6E07B
:103AC000FCA3E0FDC39FEC9E4011E9FFED9FFFECDE
:103AD0009E900062D6F0A3EFF08008E4900062D6DA
:103AE000F0A3F0900062D6E07002A3E06003013022
:103AF0005D2275F004A4FFAEF07D25120183BFCADC
:103B0000EECAC9EFC97B0122900063A5F090006264
:103B1000D8E0FAA3E0FB1200C49A900062EEEFF046
:103B2000227F0B120183BF227F0A120183BF22E48E
:103B300090006531F0C23C900047F0E07004120143
:103B4000AF4B900042EAE09000652BF0E0FD900062
:103B5000321F1200735AED1200724FE09000652C74
:103B6000F0C39412A3F0ED120072DFED1200724F59
:103B7000E020E70301439F1200723DE07003014320
:103B80009F1200723DE01200149F3BAF013BDE022A
:103B90003CA9033D0D043F76053FD90640A50740EB
:103BA000C408419C0941B40A423F0B000042CC12B8
:103BB00000723D7402F075F078EF900032541200FC
:103BC000724A7401F0120074F51201970412007227
:103BD000A89000310E1200724AE4F00142CC1200AB
:103BE00072791200749A6003013C699000652BE0C1
:103BF000FD9000322C12007396ED1200724FE054CB
:103C0000809000652EF09000323212007359ED1250
:103C100000724FE0FEA3E04E603A9000652EE0B4E3
:103C200080081200723D740380301200723D7405EA
:103C3000120074061200724AE0640D6003013B81B9
:103C4000D23C120072A89000323C1200724A7402F8
:103C5000F00142CC1200723D740712007548120048
:103C6000724AE4F0A3F0013B8112007462640370B5
:103C700003013EF1EFB40703013EF190006531E02E
:103C8000640B60030142CC1200723D740C1200748C
:103C9000061200724AE0640D60030142CC12007209
:103CA000A8120073DFEF013F2B9000652CE0FF129C
:103CB0000072C0E0FCA3E0FD90002DBB1200731C5D
:103CC000120075FDFFEE9CFE9000652FF0A3EFF053
:103CD0009000652CE090002DB51200731DE0FCA350
:103CE000E0FDC39FEC9E50099000652FECF0A3ED22
:103CF000F01200741B1200757EE490006467F012ED
:103D00000115291200723D7404F00142CC120072B8
:103D100079E090006531F090006531E06402600365
:103D2000013EB09000652CE0FEC39412A3F0EE12A9
:103D30000072C0120074F075F011120073ABE0FA5B
:103D4000A3E0C39FFFEA9E9000652FF0A3EFF075FC
:103D5000F011ED12007344E0FEA3120073EB9E40DD
:103D600005EEF0A3EFF0120072A89000310E1200E1
:103D7000724A120074051200724AE0640D706C9071
:103D800000652FE0FEA3E0FF9000652BE0FD9000B2
:103D9000324412007593ED1200724FEEF0A3EFF073
:103DA000E49000652EF0120073E79400402A1200A0
:103DB0007604120073BD1200726AFE9000652CE05A
:103DC00075F0111200751912001405E92FF9E43A83
:103DD000FAEE1200759A80CE120072A89000323C62
:103DE0001200724A7403F0D23C804FE49000652EBA
:103DF000F0120073E7940040411200760412007440
:103E00006A1200726AFC120074F5120072C0E0FAC5
:103E1000A3E0FBEFF582758300EB2582FFE5833A93
:103E2000FE75F011ED1200751912001405E92FF955
:103E3000EA3EFAEC1200759A80B79000652F1200E6
:103E400074F0120072C0EE8FF01200127075F01153
:103E5000ED120073ABE0FEA3E0FF75F011ED120070
:103E600072C3E0FCA3E0C39FEC9E502C120072A82A
:103E70009000310F1200724AE0FD1200733CE0FA2C
:103E8000A3E0C39DEA9400500675F078EF800D1210
:103E900000723D7403F0800F120072A89000322B64
:103EA0001200724A7409F0303C030142CC013B819C
:103EB00012007462640370359000652BE09000314D
:103EC0000E1200734CEE1200724FE004F0D3940314
:103ED000400C75F078EE120072A0EE014222120042
:103EE0007297EE1200724F7403F0013B81EFB4073A
:103EF0000C1200741B1200729DEF0142221200741A
:103F000062640B702F12007297EE1200724F740CE5
:103F1000F012007324EE1200724FE0640D60030192
:103F200042CC1200760E120073DFEE1200724F7454
:103F30000C01405DEF6404702B1200733CE0FEA3A3
:103F4000E04E60069000653180261200723D7403D9
:103F5000120075481200724A120074FC5003013BB3
:103F60008101415890006531E0640C60030142CC4E
:103F70007402F0013D17120072A890003234120052
:103F8000724AE0B40D1775F078EF900032441200D9
:103F9000724AE0FFA3E09000652FCF802290006579
:103FA0002CE0FF120072C0E0FCA3E0FD75F011EF01
:103FB000120073AB120075FDFFEE9C9000652FF0B0
:103FC000A3EFF01200741B1200757E1200ECDE12DB
:103FD00000723D7406F00142CC1200727912007436
:103FE0009A60030140759000652CE090002DBD1291
:103FF0000072B2EC8DF0120012709000652CE0900F
:10400000002DBB120072B2120075FDEE9C12007200
:10401000A89000322B50091200724A7405F08007F4
:104020001200724A7407F0120072A8900032341223
:1040300000724AE0640D6003013B8175F078EF90F7
:1040400000322B1200724AE0B405189000652BE094
:1040500075F0789000323C1200724A7407F0D23C3E
:104060000142CC120072A89000323C1200724A74D5
:1040700008F0013B8112007462B40B0301412DEF83
:10408000B4040A1200723D7405F0013B8190006592
:1040900031E0640760030142CC1200741B1200720D
:1040A0009DEF0142221200741BA3E0FD90006467A3
:1040B0007401F0E4FBFA120115291200723D740834
:1040C000F00142CC120072791200749A701E120034
:1040D00072A8900032341200724AE0B40D0B120044
:1040E00075631200724A7408F00141921200746202
:1040F00064076004EFB4030C1200741B1200729D7D
:10410000EF01422212007462640B70301200760ECE
:1041100012007328EE1200724FE0B40D10900032BE
:104120003C12007310EE1200724F740CF012007209
:1041300097EE1200724F740CF00142CCEF640470E1
:104140002A1200723D7407120075481200724A125A
:104150000074FC5003013B81120072A890003229C8
:104160001200724AE4F0A3F0013F0590006531E0CF
:10417000640C60030142CC120072A8900032341229
:1041800000724AE0B40D0B120075631200724A749B
:1041900008F01200723D740DF00142CC1200741B45
:1041A000A3E0FDE4FBFA1200ECDE1200723D740A9B
:1041B000F00142CC120072791200749A7028120039
:1041C000723D740D120074061200724AE0640D60B4
:1041D000030142CC120072A89000323C1200724AD5
:1041E0007414F00142CC12007462B404071200721D
:1041F00097EE8041EF6407600C90006531E0640346
:1042000060030142CC120072A89000310E120072BD
:104210004AE004F0D39403401375F078EF12007273
:10422000A0EF1200724F740BF0013B811200741B5F
:104230001200729DEF1200724F7409F0013B81125F
:104240000072A8900031071200724AE020E71F9028
:1042500000652BE09000322812007492EE1200727A
:104260004FE4F075F078EE120072A0EE805775F012
:1042700078EF900032281200724AE004F0D39402E2
:10428000502E1200723D7401F090005DB7E0FD9079
:1042900000652CE0FB90006423EFF0A37401F0A311
:1042A00074F4F0A37401F0A374F4F0E4FF01439BF1
:1042B000120072A8900032281200724A1200755241
:1042C000120072A0EF1200724F740EF01200723DD5
:1042D000E0FF640D600DEF640E6008EF640C600396
:1042E000014391120072A8900032281200724A1203
:1042F000007552900032541200724A120074051276
:1043000000724AE024F7601814603424FE604114FF
:10431000604F24FE606824077077900030DC8034A2
:10432000120072A89000321E1200724AE0FB900048
:104330005B57E0FD90006423EF12007305801A12B2
:104340000072A8900032381200724AE06043803D4B
:1043500090002F72120072FAFB7F04120109038091
:10436000301200723DE0640D600B120075631200A4
:10437000724A740CF0120072F6FB7F04801D12006A
:1043800072A8900032381200724AE060041201AE46
:10439000F0303C0B120072F6FB7F0412010903227D
:1043A000D230E4900063E8F01200979924AEF582D1
:1043B000E434121200957D78371200979824AFF5F7
:1043C00082E434121200957D78341200979824B05C
:1043D000F582E434121200957D7835120097982406
:1043E000B1F582E434121200957D7836F618E6FFB6
:1043F0005470FEC4540F7838F6EF540708F678442A
:1044000006E6C394404002E4F67837E6FFC394041E
:104410004003014B4C7834E620E703014928783803
:10442000E69000085912009662E020E7030149284F
:104430001200966A1200957D30E20718E6FF12011D
:10444000A9A77835E65407600301451608E620E081
:10445000030144F608E6FF08E6FE75F0EA9000085E
:10446000FC1200957160589000322B120097CB120D
:10447000009606FD64096015ED640A601090003234
:104480003C120097CB12009606641470321200970B
:10449000A512009571C394A05016120097A11200A6
:1044A000957104F07844E67003763F227844162232
:1044B000120097A1120096192F12009674E4F012C0
:1044C000009705120095EEE6FD08E6900063F8F00F
:1044D00008E6A3F0A37401F012015BBD120097057A
:1044E000120095EE12016F027838E6FF18E6FD1211
:1044F0000076440149367835E6783730E30CE6FF3C
:1045000008E6FD12015101014936E6FF08E6FD12F9
:10451000015C5F0149367835E620E3030147FA1272
:104520000095F6B4091318E6FBCDEBCDE4900065D9
:1045300097F012013ECD0149367838E664016003F8
:1045400001463808E6640170637837E6FA1200968F
:104550009E12009608FE90004E7EE0FD5E60030114
:10456000460DE6FC2475F582E4344E12009608FBF5
:10457000747A2CF582E4344E120096086B6023EDB9
:104580004E90004E7EF090004D4512009851EAF09A
:10459000E4A3F0A3F0A3F0A3F0FB7F03120109034F
:1045A000806B7837E6FF1201A34580617839E6FF1A
:1045B00064026008EF640360030149367837E6FF60
:1045C0001200969E12009608FE90004E8CE0FD5E52
:1045D000703B74832FF582E4344E12009608FF90EE
:1045E000004E8BE06F6026E6FCED4E90004E8CF0A6
:1045F00090004E7912009851ECF0A3E4F0A304F07F
:10460000A3E4F0A304F0E4FBFF120109037839E608
:1046100024F8F582E43461F583C083C08275930089
:10462000E0FF7837E69000000393FEEF4E759300AD
:10463000D082D083F00149367839E6FF18E6FE12C1
:104640000097AF12009571546064606003014936B1
:10465000120097AE12009571540F783AF6E6FF906B
:10466000002F7C120097DDE0900063E8F090005589
:1046700025E0FE783766600301474775F016EF12B4
:104680000096CBC083C082E0FD74B32EF582E43483
:104690005D12009608F4FEED5E759300D082D08323
:1046A000F090002F81120097DCE0FF783AE6FE756B
:1046B000F01690002F82120013F9E06F6010900046
:1046C0005525E07838120097BBEE12004B4D783735
:1046D000E6FF08E675F0EA9000089E12009571FD6D
:1046E0007C0008E6FBC8EBC87E007401088005C3A7
:1046F00033CE33CED8F9FFEE5CFEEF5D4E600301A2
:1047000049367837E6FF08E6FD75F0EA9000089E26
:1047100012009571FEC8EBC87401088002C333D83B
:10472000FC4EF01201504C7838E6FF18E6FD78395F
:104730001200969D12009608FB900066207401F00E
:1047400012017FF7014936900063E8E0FF7838E610
:10475000FE90003164120096951200973612009672
:1047600008640170030147EC90005508E020E6035F
:10477000014936783AE6FF120096C8C083C082E04D
:10478000FE7837E624B3F582E4345D12009608F42F
:10479000FDEE5D759300D082D083F0900063F0E071
:1047A000FE90002F87120097DCE5822EF582E4351B
:1047B0008312009608FF783AE6FC75F01690002FF9
:1047C00083120013F9E5822EF582E43583120096F8
:1047D000086F7003014936900063F0E0FF7838E617
:1047E000FD08E6FBEC12004B4D01493690005508E0
:1047F000E020E503014936014773120095F664098C
:10480000700301493608E6FEEF120097AF120096DA
:10481000192E120095785460646060030149149069
:10482000005525E0FF7837E6FD6F600301491475F8
:10483000F0C0ED1200972E08E6FF75930075F01892
:1048400012009744900063E912001425120011C26F
:10485000900063EFF0900063EAE475F0021200123A
:104860007075F0EAEF900008B7120096192E12004A
:104870009578540F783AF6E675F048A4249CF974BC
:1048800001900063EC12009858E4900063F0F090FF
:104890000063EFE0FFA3E0FEC39F502D900063E9AB
:1048A00012001405E92EF9E4120096B6FF90006399
:1048B000EC12001405E92EF9E43AFAEF120011F4B3
:1048C000900063F0E004F080C6783AE675F048A402
:1048D0002494F97401900063F112009858900063D9
:1048E000EFE0FF120096F4EF120097E42405F9E4DC
:1048F000120096B654FC120097E42401F9E4120069
:1049000096B64408120011F4E6FDE4FB7F011201A3
:104910007BEFD23030301F120097B7900066BC7426
:1049200020F01201707A800E7834E630E708120029
:1049300097B71201A16C7834E620E303014A59C20B
:10494000E97837E6FF14601314601914601F24031C
:10495000702275A6987835A6A7801975AE98783517
:10496000A6AF801075B6987835A6B7800775BE9843
:104970007835A6BFD2E97835E630E403014A221241
:1049800000966A1200957D20E003014A227837E6FE
:10499000120096BF1200957D54EE12009669120027
:1049A000957D4402F0E6FF08E675F0EA900008BF46
:1049B000120095715401F07D011201A6247837E6AA
:1049C000FF120159D17837E6FF7B08E4FD1200DCC5
:1049D000DD7837E6FF7B01E4FD1201B0357837E67C
:1049E000FF7D01120189FD900053E1E020E66AE4B9
:1049F000900063F0F0900063F0E0FFC39404501463
:104A00001200966A1200957D20E009900063F0E0A4
:104A100004F080E1900063F0E0C39404403BC218CE
:104A200080377835E630E4317837E6120096BF12E9
:104A300000957D20E0231200966A1200957D4401C6
:104A4000F0E4FD1201A6247837E6FDE4FF1201220E
:104A5000527837E6FF1201ADDB7834E630E21A789F
:104A600037E6FFE4FD120158837837E6FF1201AB09
:104A7000F17837E6FF12015D9F7834E630E408787C
:104A800037E6FF1201A13B7834E620E503014B4CE9
:104A90007837E6FF701275A699783BA6A7E6442002
:104AA000F6F5A775A699803EEFB4011275AE997818
:104AB0003BA6AFE64420F6F5AF75AE99802878376F
:104AC000E6B4021275B699783BA6B7E64420F6F52F
:104AD000B775B699801075BE99783BA6BFE644209D
:104AE000F6F5BF75BE997837E6FF1200977512008C
:104AF000960870279000527E12009851EFF0120035
:104B0000981E1200981EE4FBFF12010903EF04FF38
:104B1000120097721200976BF080291200977212A0
:104B2000009608C39401FFE49400FE900042F575DE
:104B3000F009EF120013F9EE75F009A41200965671
:104B40001200981F7837E6FF1201A70E2290006628
:104B50009CF0120124552290006631E0FF75F07838
:104B60009000322B120013F9EF2583F58375930023
:104B700022FFED75F078120013F9ED2583F583E53A
:104B8000822EF582E43583F58375930022EFF09051
:104B900000322BEE75F078020013F99000630312D7
:104BA000001405E92406F9E43AFA120011C2FF9054
:104BB0000062F0E0900031E9FE75F078020013F930
:104BC0009000630312001405E92402F9E43AFA1292
:104BD0000011C2FF900062F0E0FE9000317D75F0A0
:104BE00078020013F9EFF0900062FBA3E0FBCFEB3B
:104BF000CF900031A1EE75F078020013F9EE75F058
:104C000078020013F9900065A07B007A007900E03B
:104C1000FF75F0789000322122FFE0900008FCFE42
:104C200075F0EA120013F9E5822FF582E43583F579
:104C30008375930022EE75F0789000311002001316
:104C4000F9900066D612001405E92407F9E43AFA4F
:104C5000020011C2F090002F71E0FD90006423EF7C
:104C6000F0CFEECFA3E4F0EFA3F0E4A3F0A3F022A3
:104C7000FFE090003236FE75F078020013F99000E4
:104C80003111EE75F078020013F9EFF0E0FF75F0E6
:104C90001690002F81020013F975F078EF90003123
:104CA00052020013F990003109ED75F078020013FB
:104CB000F9E09000322BFE75F078020013F9EE75E2
:104CC000F078020013F990003272EE75F07802006D
:104CD00013F99000659AE0FF75F07822A3E0FDCE0D
:104CE000EDCE900065A9F09000659BE0FD90006519
:104CF000AA229000634AE075F01690002F8B020004
:104D000013F9FF75F078020013F990006845E0FF91
:104D100075F07822ED9000322175F078020013F9D9
:104D20009000634AE0FF75F01690002F8202001396
:104D3000F9FE75F078020013F99000310CED75F072
:104D400078020013F99000634AE075F048A4249CAF
:104D5000F9740135F0FA7B012212001405CEEACE77
:104D6000CFE9CF22E090003109FD75F07802001301
:104D7000F975F0EA900008D4020013F9900066E19A
:104D8000E0FFA3E0FDA3E0FB22900065AAE0FE7532
:104D9000F078EF90003236229000659AE0FFA3E0B1
:104DA000FDE4900065A9F0A3229000316A75F078C7
:104DB000020013F9E0FD75F01190002DB2120013FE
:104DC000F902001425900066D9E0FF75F078900094
:104DD0003236221200142575F078EF90003221222D
:104DE000EFF0900062F0E0FF75F078900031102253
:104DF00090006776E090000904FF75F0EA02001366
:104E0000F99000634DE024AFF582E4345DF58375DD
:104E10009300E022900031E9EF75F078120013F969
:104E2000EF2583F58322F0EF75F0789000310722AB
:104E3000E92402F9E43AFA12001286FFAEF0229059
:104E400000634AE0FF90002F7C75F016020013F912
:104E5000F075F078EF9000323B229000630312006F
:104E60001405E92275F01690002F8D120013F90237
:104E700000140575F006020013F9900066E5E0FFE6
:104E800075F0789000323C22900062F31200140515
:104E9000900062F9E0FEA3E022FF900062F0E0FEE5
:104EA00075F0782275F01190002DB5120013F9E419
:104EB000F022900062F7E075930022FDEF75F0EAB2
:104EC000020013F9FE75F078020013F9EB54F0C4F8
:104ED000540FFFCEEFCECFEBCFEF540FFFCCEFCC84
:104EE000CFEDCFCDCDCFEECFCBEFCB9000654A222B
:104EF000F090002F71E0FD90006423229000630089
:104F000012001405E922900066EDE0FF7C017D7837
:104F10001200120874072FF974313EFA221200149D
:104F20002575F078EF22EF2583F583E58222900046
:104F300062F7E0FE900062F0E0FD229000651DE067
:104F4000FF9000651FE022E075F016A42487F97435
:104F50002F35F0FA7B0122EF75F0EA020013F9ED2C
:104F600075F078020013F97B017A63795090006440
:104F7000CA120014259000634CE0900064CDF0A3A9
:104F800022F075F078EF900031102290006776E003
:104F9000FF75F0789000323422900066E7E0FF90D1
:104FA0000066E522120014257B007A007900227445
:104FB0000FF075F078EF9000323A229000659AE099
:104FC000FFA3E0FD229000651FE0FF2275F0EA904C
:104FD000000926120013F97593002229F9EA3EFA16
:104FE000020014257E007C017D7812001208744BAB
:104FF0002FF974323EFA7B012290002F90020013A9
:10500000F975F005A429F9EA35F0FAE92404F9E480
:105010003AFA22E0FF75F0789000321F2212001455
:1050200005E94A4B22900042EAE0FF22CAEECAC9D3
:10503000EFC97B0122900062F8E07593002275F0C1
:1050400008120013F9E0FEA3E0FF90006804E0FD01
:1050500022E090006845FDE09000642322E0FF75A7
:10506000F0789000310922EE75F078020013F9A370
:10507000F0900066D6020014059000651CE075F003
:10508000C090000FAA020013F9E4F075F078EF90D9
:1050900000321F22A3F0A3F0FB7F0422900062FDE8
:1050A00012001405E922FF900062F0E022900062F5
:1050B000F7E0FD75930022900065A0E0FF75F078A1
:1050C000229000634CE0FF7E00EE22E0FD75F07858
:1050D000EF9000314D22CEEDCEEFC394022290002E
:1050E0006645E0FF227E017D00020016237B017AE7
:1050F00063795A9000642D0200142575F016A424DB
:1051000083F9742F35F0FA7B012275F078EF900067
:10511000323422E0FF75F078900031512275F006AC
:10512000ED020013F990002DAF020013F9EFF0A388
:10513000EDF0A3EBF02290003105E075930022E042
:10514000FF75F0789000323B22E0FF75F078900018
:10515000321B22120011F475F078EF9000311D22FD
:10516000FE120013F9E5822F22C874A7C8CC74423E
:10517000CCCD7401CD22F0900042EBE0229000668D
:10518000E5E0FF900066E7E0FD22E0FFCEEDCECD4A
:10519000CD22E0FF9000634AE022120011F490005B
:1051A000634FE004F022EFF0A302001425E0FF902B
:1051B00000634BE0229000634FE029F9E43AFA22C1
:1051C000759300E0FE90006644E022F090005508E0
:1051D000E022E0FE75F078EF22900065A2E0FEA3E9
:1051E000E0FF22C8E9C8CCEACCCDEBCD2290006626
:1051F000DEE0FF2275F016EF120013F9E0229000B6
:10520000634BE0FF2290006776E0FF229000680980
:10521000E0FF2290005CDDE075F003A424E8F58255
:10522000E4345CF583759300E0900065D1F0A374DD
:1052300008F0E4900065D0F0900065D2E0FF9000A7
:1052400065D1E05F7003015745120131B02460F56C
:1052500082E4346212013172FE900065D3F0744F23
:105260002FF582E4346212013172FF900065D4F0B0
:105270007B827AB3791F900065D0E0FD9000627563
:10528000E4F0A3EDF0EEFDA3E4F0A3EDF0A3E4F071
:10529000A3EFF012005788B46015A3E070117B8271
:1052A0007AB37943120016DE900065D47403F0904F
:1052B0000065D4E0FF70030156AE20E3030153778D
:1052C000900065D3E020E30301535E7B827AB379DB
:1052D00049900065D012013214120016DE7B817AEB
:1052E0001C79B11201A7A3120131B012019C71EF18
:1052F000603FC2E890005CD7E090006253F0D2E8D3
:105300007B827AB3796B120016DE9000624EE0FD6C
:10531000900065D0E090006423F0A37403F0A374C0
:10532000E8F0A37403F0A374E8F0E4FBFF120109B2
:1053300003120131B01201316B4408F074692FF58A
:1053400082E4346212013172FFC3940240291201D7
:10535000AEE07B827AB37984120016DE80197B82FC
:105360007AB379931201322E120057711201316B08
:1053700054F7F012019B82900065D4E020E0030115
:105380005436900065D3E030E006120131F280041B
:10539000120131F9120131DF7B827AB379B40156FF
:1053A000F6120131665401FF900065D3E0FE54010E
:1053B0006F6079EE30E02E90005CE3E0C39408501B
:1053C000147B827AB379D21200577D7D1E7C001245
:1053D0000186A080617B827AB379E090005CE31261
:1053E000013214804D120131B01201316B54FEF0C4
:1053F000746E2F120131B7120131B01201321B123B
:105400000131BC303E0A90006268E06F7002C23E1B
:105410001201318A12013172FFC394024018120145
:10542000AEE01201318A120131BC800A7B827AB36C
:1054300079FD120016DE900065D4E020E1030155ED
:1054400004900065D3E030E106120131F2800412CD
:105450000131F9120131DF7B827AB47904120057ED
:105460007D1201316BFE5402FD900065D3E0FC54C7
:10547000026D601CEC30E11174642FF582E434623B
:10548000120132384402F080071201316654FDF0F7
:10549000900065D3E0FF20E16B5421642170651218
:1054A00001318A12013172FFC394024057900031DA
:1054B00007120131C41201317230E70D1201318A35
:1054C00012013172FF1201AEE01201318A12013174
:1054D000BC7B827AB47921120016DE120131B0242D
:1054E0006EF582E4346212013172C3940550159056
:1054F000006255E0700E7D1EFC120186A0900062D5
:10550000557401F0900065D4E030E266900065D3F8
:10551000E030E206120131F28004120131F9120189
:1055200031DF7B827AB4793A120016DE12013166DD
:105530005404FF900065D3E0FE54046F602AEE30FF
:10554000E2137B827AB47958120016DE12013166BA
:105550004404F0801D7B827AB4796D120016DE124D
:1055600001316654FBF0800A7B827AB379FD120028
:1055700016DE900065D4E020E40301572890006512
:10558000D3E05403640360030156A090006255E029
:10559000C3940250030157287B827AB479821200A7
:1055A0005788FF30E106120131F28004120131F90F
:1055B000120131DFEF30E006120131F280041201F6
:1055C00031F990006278120014257B827AB47997C1
:1055D000120016DE1201318A12013172FF6007904B
:1055E0000065D5F080587B017A6579D5900065D04B
:1055F000E0FD12013DFEEF700301569B1201323FA8
:10560000900065D0E0FE1201318FF583759300EFB5
:10561000F0EEC454F0FE9000321C120131C41201AD
:105620003238F0900065D3E030E6131201323F903B
:10563000003151120131C5120131724480F09000E5
:1056400065D0E0FE0490003106F01201323F75F0A3
:105650007890003234120131C8F5837593007405D7
:10566000F0746E2E120131B790006255F090006216
:1056700054E0FD900064231201320012013202E472
:10568000FBFF120109037B827AB479AE900065D5E5
:1056900012013214120016DE015728C23E015728AB
:1056A0007B827AB479CB120016DEC23E807A7B828E
:1056B0007AB479DD1201322E120131A9900065D33E
:1056C000120131A4900065D4E0FF90006279E4F00B
:1056D000A3EF120057711201321B1201317220E048
:1056E0001C74602FF582E434621201317230E00DD7
:1056F0007B827AB57901120016DE0153A1120131C5
:10570000B01201321B1201317230E41C74602FF5AB
:1057100082E434621201317220E40D7B827AB57921
:1057200013120016DE01557D120131B02460F5829E
:10573000E4346212013172FE74402FF582E4346267
:1057400012013238F0900065D1E0FFA3E0FEF4FDD5
:10575000EF5D900065D1F054786015EE25E0A3F080
:10576000900065D0E004F0E0C39404500301523887
:1057700022F0120016DE900065D0E0FF2212001623
:10578000DE900065D0E0FF22120016DE900065D3A7
:10579000E022900062DC12001405E924AFF9E43A3B
:1057A000FA120011C2FD900062DC12001405E92417
:1057B000AEF9E43AFA120011C275F004A4FF9000A9
:1057C00062DC12001405E922FF9000632712001426
:1057D00005E92416F9E43AFA1200142EE92FF9EA41
:1057E0003EFAE92403F9E43AFA020011C2F090000B
:1057F000621312001405E92416F9E43AFA020014BF
:105800002E900062CEE09000326CFF75F0781200AE
:1058100013F9EF2583F58375930022FF900062133F
:1058200012001405E92290006333E0FF9000632723
:1058300012001405E92275F004A4FF900063A6127B
:10584000001405E922900062001200140590006522
:10585000511200142590006203E090006554F0900E
:1058600000621002001405F9E43AFA12001286FFF1
:105870009000639F12001405E922759300E09000E8
:105880006208FEE0FD24AFF582E4345DF583759394
:1058900000E0222404F9E43AFA0200128690006241
:1058A000E212001405E92402F9E43AFAEF020011C9
:1058B000F490006474E09000646C75F004A4FF122E
:1058C000001405E92FF9EA35F0FAE92290005E9517
:1058D000F09000621312001405900063801200140F
:1058E000259000620002001405CAEECAC9EFC97B08
:1058F00001900062EB12001425900062EB1200147C
:1059000005E94A4B22900062CEE0FF900062D1E0B0
:10591000FD900062E8120014059000639F120014CD
:1059200025900062DC12001405900063A2020014AE
:1059300025900062D312001405900062DBE0240180
:10594000FF900062DAE03400FEE92FF9EA3EFA0245
:105950000011C2E075F004A4FFAEF09000646C0288
:10596000001405A3F0E4A3F0A3F0A3F0A32224AF56
:10597000F9E43AFA7401020011D82404F9E43AFA7D
:10598000E5F08FF0020012AAE075F004A429F9EA0C
:1059900035F0FA02001286900062E212001405E966
:1059A0002290006333E0C39401FFE49400FE780288
:1059B000EF2290006324120014259000621302006D
:1059C0001405900063C712001405E9240122C39452
:1059D00001FF131313541F90006207F0EF5407A345
:1059E000F090006207E0FF2417F582E4346222247D
:1059F000AEF9E43AFAE4020011F42420F9E43AFAA8
:105A0000ED020011F49000632112001405E4F5F09A
:105A1000020012AAF0A3E4F0A37406F0E4A3F0A33A
:105A20007408F0A3229000622DE0FFC394087480F4
:105A3000948022900062E502001405E92401F9E453
:105A40003AFA22900062E812001405E922FE900062
:105A50006332E02EFEC374089EFEC8EEC8EF082233
:105A6000900062EB02001405241EF9E43AFA22FECB
:105A700075F078020013F929F9EA3EFA120012864D
:105A8000FF9000632AE5F022CAEECAC9EFC97B0184
:105A900022900063C712001405E9240822900064D4
:105AA000BFE0FF75F0789000326F22F0A37481F0B0
:105AB000A3E4F0A3747FF022900062130200142587
:105AC000FF7E00C3940174809480227B007A007969
:105AD0000002001425900063C412001405E9240795
