:020000040000FA
:1000000002010001020408000101000201B16F00B9
:100010000100020004000800100102040849430026
:10002000EF2222020157EAE4FE1201839BCEEFCEBB
:10003000CFCF22020167300201603B020117AD02FF
:1000400001AA6A02008CAA02018D8F0201372D02DB
:10005000019AD302002FD90201AE7D0201A4F690CD
:10006000909090010204080FA0A0A0A001100440ED
:1000700055A0A0A0A002200880120128892222FFFA
:1000800090006713120013CA7810EC4D4E4F7004A5
:100090007CA57DA5C3EC13FCED13FDEE13FEEF1361
:1000A000FF5010EC64CCFCED644CFDEE644EFEEFB2
:1000B00064CEFFD8DF90006713120013E2EE547F86
:1000C000FE2290006713EEF0EFA3F0A374A5F0A357
:1000D000F02275F003A42486F582E43460F583757C
:1000E00093002275F003A42488F582E43460F5833C
:1000F00075930022F090006085E004F0C394202204
:1001000075EBAA75EB55759D02787FE4F6D8FD90E6
:100110000000007F007E807D01E4F0A3DFFCDEFABA
:10012000DDF8750F7E7510FF75814D02001B804153
:1001300063E8004163F1004163EC004163EB00417F
:1001400063F2004163F00041681B004249C70000B0
:100150004249D400004249D200004149C900424905
:10016000C300004249CC00004249CA00004249C5D0
:1001700000004249D000004249CE00000143004146
:1001800067A9004167AA004147F00060904F320024
:1001900042003E3C3A3B456843413F3D2B35676951
:1001A000E2E188E0141E006A001D16041A1F006BAD
:1001B000061B070821208C6C2C1909171522686D65
:1001C00011050B0A1C23696E00100D1824256A6F97
:1001D000360E0C122726007037380F33132D00719E
:1001E0008734032F2E007239E52830003100940047
:1001F0006493928A002A8B0059895C5F85000062B3
:10020000635A5D5E60295344575B56556147000051
:1002100000004046000000000000000000000060F8
:10022000A54E8D000000000000000000000000004E
:10023000000000BEE60000E4B40000C400000000BE
:100240000000E3C3B900B7000000E7C20000BC0033
:10025000920065C100B800B60000B0C000BFB50094
:100260000000B1BD00000000000000BB0054000011
:10027000B30000BA000000000000000000580000B9
:1002800000B2000000000000006600004D00504A6F
:10029000000000494C51004F52004800004E0046FB
:1002A0004B480004010244453A3B3C3D3E3F40413F
:1002B0001E1F200000000000787665756677747E4A
:1002C000797A7C7D7B7F8180603F4D0602810002D0
:1002D000820002830003B50003B60003B70003CD1C
:1002E0000003E20003E90003EA00038301038A013B
:1002F0000392010394010321020323020324020356
:100300002502032602032702032A024153D6014194
:10031000552E0041527E0041552D004153D80041D9
:10032000527F0049552F0000000000001E001E4EA5
:100330005F610047014700470147F000F100FF00FF
:100340004E5F5100E001E000E001E0F000F100FF4D
:1003500000604F5EDB0924800617150F450001047D
:10036000014501040327203A0331203C0332203B9E
:100370000333203D0334203E0336201D0329204251
:1003800003302043071640130A4500010A0CA00958
:100390000F04160B5E2858040E4828580620201813
:1003A0005E2858FF415F7100415ED600415ED20079
:1003B000415F6000415F7300415EDA00415ED8003A
:1003C000415F5F00415ED500486140001020304031
:1003D0005060704861888081828384858687486107
:1003E00090909192939495969760406148A0A1A2B5
:1003F000A3A4A5A6A7A8A9AAABACADAEAFB0B1B255
:10040000B3B4B5B6B7B8B9BABBBCBDBEBFC0C1C244
:10041000C3C4C5C6C7C8C9CACBCCCDCECFD0D1D234
:10042000D3D4D5D6D7D8D9DADBDCDDDEDF4162F232
:100430000041630800416307004162F10044630327
:1004400000000000526072120101010900000895CD
:100450000B0468120001020301604060322A035657
:1004600000690072007400750061006C0020004893
:10047000005500420020005600650072003A00302E
:10048000002E0030003100000000000000000000DD
:10049000000000000000000000000000006020607C
:1004A000120A034D0054004B002000000000000021
:1004B000000000000000000000000000000000003C
:1004C000005257D01201100100000008950B066879
:1004D000020001020301605457E2090254000301C3
:1004E00000A001090400000103010100092110011D
:1004F0000001223F000705810308000109040100F3
:100500000103010200092110010001226E0007050C
:10051000820307000109040200010301020009210E
:1005200010010001225D0007058303070001603F01
:10053000583A05010906A101050719E029E7150048
:1005400025017501950881029501750881019505C0
:10055000750105081901290591029501750391019D
:10056000950675081500256805071900296881009A
:10057000C0606E587905010902A10185010901A138
:100580000105091901290515002501750195058148
:1005900002750395018101050109300931093815FA
:1005A00081257F750895038106C0C005010980A1DA
:1005B000018502050119812983150025019503751F
:1005C000018106950175058101C0050C0901A10194
:1005D000850319002A3C021500263C02751095017E
:1005E0008100C0605D58E705010902A10185040989
:1005F00001A10005091901290515002501750195BD
:1006000005810275019503810175089501050109B0
:10061000381581257F8106C00901A1000501093037
:10062000150026000435004600047510950181026E
:1006300009311500260003350046000375109501A9
:100640008102C0C044583604030904602259A42220
:10065000034100530049005800200045006C00652C
:10066000006300740072006F006E00690063007325
:1006700000604059642A03560069007200740075D6
:100680000061006C00200048004900440020005632
:1006900000650072003A0030002E0030003100008A
:1006A000000000000000000000000000000000004A
:1006B0000000000000602059440A03410053004933
:1006C00000580000000000000000000000000000D2
:1006D0000000000000000000004430F101020408A6
:1006E0005430DD14034D006900630072006F007325
:1006F000006F0066007400485DB401020408102019
:100700004080445CB31A1C1E20445CAE12141618C0
:10071000425CE90000C11CC11AC11B415CE80041F8
:100720005CB707415CB2004963470300000000006A
:10073000000000415E9900602A5EA60081008200F0
:100740008300B500B600B700CD00E200E900EA0181
:1007500083018A01920194022102230224022502CC
:10076000260227022A49623E0000000000006400C1
:100770006449622C0000000000000200024F62A7E2
:1007800020FF803F00000000000000000000004F3C
:10079000628A20FF800000000000000000000000CE
:1007A0000047629910000F200900004762A0100066
:1007B0000F200000004266FF09DA42670190C05A2C
:1007C0004FE60001000100010001000100010001ED
:1007D0000004002000640032001900115A4FCC00C0
:1007E0000100010001000100010001000100020000
:1007F0001000320019000C00084D5270080C10183F
:1008000020305E1A1A646464644D51630406080C57
:1008100010182F1A1A64646464424FC900004250D1
:100820000700004250050000414FCB00424FC70077
:100830000042500300004250010000414FC30041FC
:10084000527D00605A500931324D000000384D0091
:10085000000000364D00000000344D000000003361
:100860004D00000000324D00000000314D0000003E
:10087000003932314B00003131354B000039363010
:100880003000003139323030003338343030003508
:10089000373630300000000000000000000000008B
:1008A00000C11FC11DC11E41601100415FAA01416D
:1008B0005FFC01415FB60F415FB800415FA7014196
:1008C0005FF100415F9F47415F7C0041600300444E
:1008D0005FA100000000415F7D00415FF2004160C8
:1008E0000400415FB300485FE10000000000000029
:1008F00000415FA600425FFD0200426000018042AD
:10090000600500004F5FCA0000000000000000000A
:10091000000000000000415FFF00485FD9039C0316
:100920009C00640064485FE9029C0064029C0064CF
:10093000415FAD004157CF0060C0563C0000000051
:10094000000101010001000182481F0001010101B5
:1009500001020182481F00010201010102018248D7
:100960001F030103010301030182481F0001020369
:10097000000101010001000182481F000101010185
:1009800001020182481F00010201010102018248A7
:100990001F030103010301030182481F0102000339
:1009A000010100010201000182481F010102010151
:1009B00001010182481F0101020102010001824878
:1009C0001F030103010301030182481F0200010309
:1009D000020100010001010182481F020101010022
:1009E00001010182481F0201000102010201824847
:1009F0001F030103010301030182481F60C056FC6D
:100A000000010203000101010001000181F58300E2
:100A10000101010101020181F583000102010101CF
:100A2000030181F583000103010201030181F583C4
:100A300001020300010100010301000181F58301AE
:100A40000102010101010181F5830101020102019D
:100A5000030181F583010103010201000181F58396
:100A600002030001020100010301010181F583027B
:100A70000101010001010181F5830201030102016D
:100A8000020181F583020103010301000181F58365
:100A900003000102030100010001010181F583034C
:100AA0000101010001020181F5830301020101013D
:100AB000020181F583030100010301030181F58334
:100AC00060F0553C00010203030101010001000137
:100AD00081002200010201010101018100220101C6
:100AE000030102010201810022020100010301034E
:100AF0000181002200010203000101010001020145
:100B000081007E000101010101030181007E0201DB
:100B100003010001020181007E02010301010103C2
:100B20000181007E000102030001010100010001BA
:100B300081007E000101010101010181007E0201AD
:100B400003010201020181007E020103010301038E
:100B50000181007E00000000000000000000000095
:100B60000000000000000000000000000000000085
:100B70000000000000000000000000000000000075
:100B80000000000000000000000000000000000065
:100B90000000000000000000000000000000000055
:100BA0000000000000000000000000000000000045
:100BB00000000000C127C126446100000102034279
:100BC00060E800004260E6000042613E00006038DC
:100BD0006105AA550601CC330000AA550602CC33A4
:100BE0000000AA55070301000000AA5505040100F2
:100BF0000000AA55050501000000AA5505060100E0
:100C00000000AA55050701000000004864B7000075
:100C1000000000000000EDD2E7CD33EC3392D52484
:100C2000814006E4FFFEFDFC22FCE4CFCECDCC24C7
:100C3000E0501174FF80EDC3CC13CCCD13CDCE1397
:100C4000CECF13CF0470F030D5DE02001396F9201A
:100C5000E73624F950037907E4F42402FBE5821512
:100C60008270021583DBF6E024FB501BE96014E47C
:100C7000F0E582158270021583E004F0B40A08E4FE
:100C8000F0D9EE7401F00A22C2D522ED33EC339292
:100C9000D5FA602AB4FF33EDC2E77B8160067A0C97
:100CA00079B0E4227A0C79B920D5047A0C79B4228F
:100CB0004E614E002B494E46002D494E4600E47AC7
:100CC00008F0A3DAFC7B00740722C093C083C082C3
:100CD000ECC0E0EDC0E0EEC0E0EFC0E0EA75F0107F
:100CE000A4CAABF075F04DA42BFBE435F0FCEA246C
:100CF00010FAEB34C5FBEC34D9FCEDC2E7FF75F01C
:100D000056A4F42411C5F0F434C58FF0A42AE5F0FC
:100D10003BE43CF020E7161200107CD0E0FFD0E06E
:100D2000FED0E0FDD0E0FC12000FAA8016F4041201
:100D300000107CD0E0FFD0E0FED0E0FDD0E0FC125F
:100D4000000E98D082D083D093E0FAEDD2E7CD3375
:100D5000EC332482FBE4C3CF33CFCE33CECD33CDBF
:100D600033DBF37B0775F00A846004F0A31B0AE50C
:100D7000F0F0A38FF0740AA4FFACF08EF0740AA414
:100D80002CFEACF050010C8DF0740AA42CFDE4355F
:100D9000F0F0A3DBDE740722020010F7E86480F8AD
:100DA000E933E83360110460EFED33EC337009E8A8
:100DB000FCE9FDEAFEEBFF220460DDD3EB9FEA9E37
:100DC000E99DE8C2E78CF0C2F795F0400CE8CCF85A
:100DD000E9CDF9EACEFAEBCFFB120010C285D0F0D4
:100DE0005804700320D5B1E80470085002B2D5024F
:100DF00000110192D5EC0460F6E4CCC0E0C398F891
:100E0000603C94186009400ED0E0FB020010D9E469
:100E1000FBFAC9FC8028E830E406E4C9FBE4CAFC1C
:100E2000E830E305E4C9CACBFCE854076010F8C316
:100E3000E913F9EA13FAEB13FBEC13FCD8F130F5E4
:100E400031C3E49CFCEF9BFFEE9AFEED99FDD0E0F0
:100E5000FBEF4E4D4C701322DB04020010FEEC2C15
:100E6000FCEF33FFEE33FEED33FDED30E7EA020039
:100E700010D9EF2BFFEE3AFEED39FDD0E0FB501418
:100E80000BBB000402001101ED13FDEE13FEEF1386
:100E9000FFEC13FC020010D9EC4D6011E84970180A
:100EA000ED33EC3304600DE4FCFFFEFD22E933E892
:100EB000330470F8020010F7120010C258046009E1
:100EC000E4CC2481500728500B0200110128400473
:100ED000020010FEC0E0EB4A7046B98007D0E0FB8C
:100EE000020010EDEF4E701DBD8008EBFFEAFEE939
:100EF000FD80EAE98DF0A4FEE5F002000F87E9CD60
:100F0000F9EAFEEBFFEF89F0A4FCE5F0CE89F0A44E
:100F10002EFFE435F0CD89F0A42DFEE435F0806796
:100F2000EF4E7005BD80D780C2EF8BF0A4ACF0EE21
:100F30008BF0A42CFCE435F0F8EF8AF0A42CE5F05B
:100F400038FCE433CB8DF0A42CFCE5F03BF8EE8AC2
:100F5000F0A42CFCE5F038F8E433CF89F0A42CFCA5
:100F6000E5F038CF3400CE89F0A42FFFE5F03EFE47
:100F7000E433C98DF0A42EFEE5F039CD8AF0A42F1C
:100F8000FFE5F03EFEE43DFD33D0E0FB50080BBB37
:100F9000001002001101EC2CFCEF33FFEE33FEEDEC
:100FA00033FD020010D902001101EC5D046005E878
:100FB00059047004020010F7120010C2580460F4C3
:100FC000EC4860F0EC7004FDFEFF22C860D824817C
:100FD000C8500AC39860025007020010FE9850C61D
:100FE000F582E9294B4A7006AB82020010ED75F0DC
:100FF000007C1A7880C3EF9BEE9AED99400DC3EF09
:101000009BFFEE9AFEED99FDE842F0DC24ACF0D0B7
:10101000E0FFD0E0FED0E0FDAB8220E7101BEB60EC
:10102000B8EC2CFCEF33FFEE33FEED33FD02001085
:10103000D9E803F830E705C0F075F000EF2FFFEEB8
:1010400033FEED33FD40B730E7C180A93F8000009B
:101050004120000042C80000447A0000461C4000C5
:1010600047C35000497424004B1896804CBEBC20E6
:101070005A0E1BCA6753C21C749DC5AEFB60065452
:101080000760202323120010AFEB5438600C1200CD
:10109000109A120010AA12000E98ECF8EDF9EEFA70
:1010A000EFCB22EB120010AA80F0543803241C90DE
:1010B00000104CFE93FC0EEE93FD0EEE930ECE93BD
:1010C000FF22E9D2E7C933E833F892D5EDD2E7CD74
:1010D00033EC33FC5002B2D522EC30E7100FBF00E6
:1010E0000C0EBE00080DBD00040BEB6014A2D5EB86
:1010F00013FCED92E7FD2274FFFCFDFEFF22E4806D
:10110000F8A2D574FF13FC7D80E480EFEB7008E754
:1011100009F608DFFA801B89828A831410E70AF532
:1011200093E0A3F608DFFA8009F593E493A3F608A9
:10113000DFF9ECFAA9F0EDFB2288F0EF60010E4E2A
:1011400060F088F0ED60C51410E7E7CB700E888280
:101150008C838B93E709F0A3DFFA80D61410E72A7B
:1011600089828A83F593ECFAE0A3C8C582C8CCC50E
:1011700083CCCBC593CBF0A3C8C582C8CCC583CCE8
:10118000CBC593CBDFE2DEE080AA89828A83F59328
:10119000ECFAE493A3C8C582C8CCC583CCCBC59375
:1011A000CBF0A3C8C582C8CCC583CCCBC593CBDF5D
:1011B000E1DEDF02001134EB7002E72289828A83CC
:1011C0001410E704F593E022F593E49322BB0003A7
:1011D00027F722F8EB89828A831410E706F593E05B
:1011E00028F022F593E4932822BB0002F722BB806B
:1011F00000500989828A838B931593F022EF8DF03A
:10120000A4A8F0CF8CF0A428CE8DF0A42EFE22BC92
:10121000000BBE0029EF8DF084FFADF022E4CCF886
:1012200075F008EF2FFFEE33FEEC33FCEE9DEC98EB
:101230004005FCEE9DFE0FD5F0E9E4CEFD22EDF871
:10124000F5F0EE008420D21CFEADF075F008EF2F13
:10125000FFED33FD4007985006D5F0F222C398FD0C
:101260000FD5F0EA22C5F0F8A3E028F0C5F0F8E5C4
:1012700082158270021583E038F022EB7007E7F5E3
:10128000F009E7192289828A831410E708F593E0B0
:10129000F5F0A3E022F593E493F5F074019322BBFB
:1012A0000006F709A7F01922BB8000500D89828A39
:1012B000838B931593F0E5F0A3F022EF2BFFEE3A2A
:1012C000FEED39FDEC38FC2275F008758200EF2F39
:1012D000FFEE33FECD33CDCC33CCC58233C5829BFC
:1012E000ED9AEC99E58298400CF582EE9BFEED9A22
:1012F000FDEC99FC0FD5F0D6E4CEFBE4CDFAE4CCBE
:10130000F9A88222B800C1B90059BA002DEC8BF0BF
:1013100084CFCECDFCE5F0CBF97818EF2FFFEE337C
:10132000FEED33FDEC33FCEB33FB10D703994004A7
:10133000EB99FB0FD8E5E4F9FA227818EF2FFFEECE
:1013400033FEED33FDEC33FCC933C910D7059BE9FF
:101350009A4007EC9BFCE99AF90FD8E0E4C9FAE45B
:10136000CCFB2275F010EF2FFFEE33FEED33FDCCFA
:1013700033CCC833C810D7079BEC9AE899400AEDE4
:101380009BFDEC9AFCE899F80FD5F0DAE4CDFBE48C
:10139000CCFAE4C8F922C3E49FFFE49EFEE49DFD7D
:1013A000E49CFC22E8600FECC313FCED13FDEE138C
:1013B000FEEF13FFD8F122E8600FEFC333FFEE33E7
:1013C000FEED33FDEC33FCD8F122E0FCA3E0FDA3FD
:1013D000E0FEA3E0FF22E0F8A3E0F9A3E0FAA3E037
:1013E000FB22ECF0A3EDF0A3EEF0A3EFF022A42596
:1013F00082F582E5F03583F58322E0FBA3E0FAA3D2
:10140000E0F922F8E0FBA3A3E0F925F0F0E582156E
:101410008270021583E0FA38F022EBF0A3EAF0A321
:10142000E9F022EB7006E9F80200163F89828A8310
:101430001410E706F593020013FAF5930200165113
:10144000BB001CD093D0F0D0E0F8D0E0C9FBD0E0D6
:10145000FAD0E0CBC8C0E0C0F0C09302001648BB91
:1014600080005022D093D0F0D0E0F8D0E0C9F582CF
:10147000D0E0CAF583D0E0CB14C8C0E0C0F0C09380
:1014800088930200141AD093D083D082D0E0D0E0A9
:10149000D0E0E473D093D083D082F8E493701274D8
:1014A0000193700DA3A393F8740193F5828883E4EC
:1014B000737402936860EFA3A3A380DF8B938A8386
:1014C0008982159353937FE473EB700C87F009E6E0
:1014D00008B5F019DFF6801589828A831410E711A8
:1014E000F593E0F5F0A3E608B5F002DFF50200158C
:1014F0007AF593E493F5F0A3E608B5F07DDFF48088
:1015000079CB701388828C838B9387F009E493A343
:10151000B5F067DFF580631410E73089828A83F5C0
:1015200093ECFAE0F5F0A3C8C582C8CCC583CCCB58
:10153000C593CBE493A3C8C582C8CCC583CCCBC527
:1015400093CBB5F035DFDCDEDA802F89828A83F534
:1015500093ECFAE493F5F0A3C8C582C8CCC583CC5C
:10156000CBC593CBE493A3C8C582C8CCC583CCCBF1
:10157000C593CBB5F004DFDBDED97FFFB5F0020FFA
:101580002240027F0122020014C90200150188F0E6
:10159000EF60010E4E60EEED60EC1410E7ECCB70E6
:1015A0001288828C83F59387F009E0A3B5F0CBDF36
:1015B000F680C71410E72F89828A83F593ECFAE04E
:1015C000F5F0A3C8C582C8CCC583CCCBC593CBE00E
:1015D000A3C8C582C8CCC583CCCBC593CBB5F09A84
:1015E000DFDDDEDB809489828A83F593ECFAE49375
:1015F000F5F0A3C8C582C8CCC583CCCBC593CBE0DE
:10160000A3C8C582C8CCC583CCCBC593CBB5F004E9
:10161000DFDCDEDA0200157AEF4E6022EF60010EA9
:10162000EDBB0007F709DFFCA9F022BB8000500EDC
:1016300089828A838B931593F0A3DFFCDEFA22E67E
:10164000FB08E6FA08E6F922EBF608EAF608E9F6FE
:1016500022E493FB740193FA740293F922E50824BF
:101660005DF582E43462F583759300E0050822900D
:1016700000625A3007049000625DE475F0011200C8
:101680001403020011B72000E57F2ED2008018EF6E
:10169000540F2490D43440D4FF30040BEF24BFB453
:1016A0001A0050032461FFE50960021509050CE5E5
:1016B0000C7002050B3007119000625AE475F001BE
:1016C00012001403EF020011E9020000277403D294
:1016D000078003E4C207F5089000625A1200141A4A
:1016E000E4F509F50BF50CE50960087F20120016FA
:1016F000A780F4750AFFC201C200C202C203C2057C
:10170000C206C2081200166FFF700E3007067F0077
:10171000120016B8AF0CAE0B22B42563C2D5C204BA
:101720001200166FFF24D0B40A00501A75F00A7820
:101730000930D50508B6FF0106C6A426F620D50453
:101740007002D20380D824CFB41A00EF5004C2E54F
:10175000D204020019F5D20180C4D20080BED202A8
:1017600080BAD2D580B8D20580B27F20120016A7E9
:101770002002077401B5090040F01200165DFF1247
:101780000016A7020016E7D208D206808F120016B4
:101790005DFB1200165DFA1200165DF94A4B7006E9
:1017A00079027A1B7B8120023DE50960397E00E9E0
:1017B000C0E02EF9EAC0E03400FA120011B7F9D007
:1017C000E0FAD0E0C960060EEE650A70E2C2D5EB21
:1017D000C0E0EAC0E0E9C0E0EE12001A5DD0E0F936
:1017E000D0E0FAD0E0FB120011B7FF6096EBC0E04A
:1017F000EAC0E0E9C0E0120016A7D0E02401F9D069
:10180000E03400FAD0E0FBE50A0460DAD50AD7023A
:10181000001783D202808F12001A3960F6E50A7031
:10182000010412000C4EA90A600EE50A600A14F5C4
:101830000A12001AECEF60F2EA30E702F404C399EE
:101840004004020018CCEAF4250A0430E701E4045D
:10185000F50A800F12001A3960B9EA050A250A1242
:10186000000C4EEA90006289F030E701E4250A049A
:10187000D50A042005011412001A5DE4C0E012002C
:101880001AEC90006289E0601420E70814F012005E
:10189000168F802604F0D0E014C0E07F00120016FE
:1018A0008FE50A600812001686150A800D300504BF
:1018B00012001686D0E0020016E7D0E00480BD12C8
:1018C000001A396093E50A0412000C4E90006289F8
:1018D000EAF0E50A200502600104240412001A5D02
:1018E00074FF04C0E012001AEC1200168FE50A2003
:1018F0000502600412001686D0E0B50AE57F4512A5
:1019000000169990006289E07F2B30E7047F2DF468
:1019100004C0E0120016A7D0E075F00A84C0F012EF
:10192000001690D0E012001690020016E7791080A1
:10193000027908C206C2088008D2D5790A800479E3
:101940000AC2D5E50A047002F50AE4FAFDFEFF12A8
:1019500000165DFC7B082001161200165DFD7B1051
:1019600030000C1200165DFE1200165DFF7B20ECAD
:101970003382D592D55013C3E43000069FFFE49E16
:10198000FEE42001039DFDE49CFCE4CBF8C201ECE5
:10199000700CCFCECDCCE824F8F870F38017C3EFED
:1019A00033FFEE33FEED33FDEC33FCEB33FB9940BC
:1019B00002FB0FD8E9EB300105F8D0E0C448B201D2
:1019C000C0E00AEC4D4E4F78207B0070C2EAB50AA9
:1019D0000040BCC0E012001A5FD0F0D0E02001044B
:1019E000C4C0E0C4B201C0F012001690D0F0D5F02F
:1019F000EA020016E712001494178D53192D581798
:101A00005A4C17564219314F193944193949177030
:101A100043193F5518544618BF451817471B1F5008
:101A2000175E2D17622E17892B1766231787201B29
:101A30000B2A171C480000177FE50AB4FF03750A3C
:101A4000061200165DFC1200165DFD1200165DFE0A
:101A50001200165DFF9000628202000C8B790AA2D0
:101A6000D5200314300509B910020404B908010493
:101A7000A2D520060250010420026D9202B5090091
:101A80005036C0E07F2030031A7F30A20272067207
:101A900005501012001AB8C202C206C205C2087F61
:101AA000308010300503E9C0E0120016A7300503AE
:101AB000D0E0F9D0E0B509CA3005197F30B9100D72
:101AC000120016A77F583004077F788003B90804F6
:101AD000120016A73002067F2D020016A77F2020D5
:101AE00008F77F2B2006F222920280CC7F00B407F9
:101AF00000500E2482F582E43462F583759300E091
:101B0000FF22286E756C6C2900D2011200165D3020
:101B100001F7C201780930D50108F60200171C123E
:101B200000165D7F4960087F4310E7027F5814C0AC
:101B3000E0EF12001698743A12001698D0E0600D8B
:101B4000C0E0C412001690D0E012001690D20375C7
:101B500009040200192D02010CDCE493A3F85407D8
:101B6000240CC8C333C4540F4420C8834004F45623
:101B7000800146F6DFE4800C01020408102040805A
:101B80009000012FE47E019360CCA3FF543F30E529
:101B900009541FFEE493A360010ECF54E0B4E02685
:101BA000E493FBA3E493FAA3E493F9A3E493C0833F
:101BB000C082120011E9D082D083A309E970010A22
:101BC000DFEADEE880BE54C025E0602B408CE49361
:101BD000A3FAE493A3F8E493A3C8C582C8CAC58353
:101BE000CA759300F0A3759300C8C582C8CAC5839F
:101BF000CADFE3DEE1808DE493A3F8E493A340031E
:101C0000F68001F208DFF402001B8402002000824B
:101C1000FF000000000200200082FF000000000220
:101C200000200082FF000000000200200082F0007F
:101C30002000320200200082FF000000000500208A
:101C40000082F0002000640200200082FF000000FB
:101C5000000200200082F0002000640500200082C5
:101C6000FF000000000500200082FF0000000005CA
:101C7000002003E8FF0000000005002000C8FF006E
:101C80000000000200200082F0002000640200201A
:101C90000082F0002000640200200082F00020009A
:101CA00064FF0000000005000803E8F0002001F4D4
:101CB000FF0000000009021900010100E0320904E0
:101CC00000000109000000070581030100FF040373
:101CD0000904220320004D0054004B002000450061
:101CE0006C0065006300740072006F006E00690094
:101CF000630073000929071000320100FF00000093
:101D000000000000000000000000000000000000D3
:101D100000000000000000000000000000010101C0
:101D200001010100010007000806041424748494D2
:101D30000818288090A0C0900061E6EFF0A3EDF0B5
:101D4000A31200141AC20EC20FC210C211C212E4B2
:101D5000900061F1F0900061F3F0A3F0C2249000D4
:101D600061E6E0FF90005E14F0900061E7E0FEEFB6
:101D700012005BE8EF2583F583E5822EF582E435DA
:101D8000831200588CFF7E0064017004D2118060C1
:101D9000EF64024E6004EF4E7056D21290005EA2C5
:101DA000E0FFA3E090006220CFF0A3EFF090005E90
:101DB000A4E0FFA3E090006222CFF0A3EFF07E004A
:101DC0007F0C7D007B017A5E799A120016189000D4
:101DD0006220E0FFA3E090005EA2CFF0A3EFF090BE
:101DE000006222E0FFA3E090005EA4CFF0A3EFF03A
:101DF0007E007F107D007B017A6179FE120016184B
:101E0000900061E612005805120058FD700A7B82AE
:101E10007ABD7943020016D3900061E6120058059E
:101E2000120013FA80301200585F120011B7FF90B1
:101E30000061E7E0FE6F6028E92405120057F9E928
:101E40004A4B70030128A81200585FE924081200C9
:101E500057F912005BA4900061F81200141A80C6B2
:101E60001200585FE92405120057F9E94A4B700344
:101E70000128A81200585FE92405120057F99000C4
:101E800061F51200141AC8EEC87401088002C33349
:101E9000D8FCFF900061E6E0FE9000315012005B3C
:101EA000ECEE12005813E05F7007900061ECE06008
:101EB000283011117B017A5D79C012005AB8900068
:101EC00061F17402F03012117B017A5E7915120013
:101ED0005AB8900061F17403F01200585FE92404CD
:101EE000120057E56041120058E1120011B7FF904F
:101EF0000061F5120013FA120011B76F6029E9248E
:101F000007120057F9EA494B70030128A8900061B5
:101F1000F512005AD9120057F912005BA490006123
:101F2000F51200141A80B21200584512019D6E90ED
:101F30000061F5120013FAE92404120057F91200A7
:101F40005AB8900061F5120059C6120057E590008A
:101F500061F1F0E490006214F0900061F1E0FF9014
:101F6000006214E0D39F40030126CB120059BA123D
:101F70000057E2FF7E0064077002D211301138EF83
:101F800064074E600FEF640C4E6009EF64014E6011
:101F900003012695EF640C4E6017EF64014E600359
:101FA00001202D1200581C12005893648045F070D7
:101FB0007CC211D2128003301273120059BA12007F
:101FC00057E2FF6401600DEF64096008EF640C6084
:101FD000030126951200581C12005893FFAEF064BE
:101FE000014E6049EF64804E6043EF64024E603DF5
:101FF000EF64304E6037EF64314E6031EF64384E3D
:10200000602B120059BA120057E2640C601F1200D4
:10201000581C12005893FFAEF064814E600FEF64BD
:10202000824E6009EF64834E6003012695120059C9
:10203000BA120011B76480600301269520110301D4
:1020400024901200585FE92401120057F9E94A4B25
:1020500070357D1F7F10FE120184B812005A88EB84
:10206000C0E0EAC0E0E9C0E01200585F12005A3B4D
:10207000120014401200585FE92401120057F9E9D8
:102080004A4B70030128A81200581C240112005763
:10209000E5600764026003012695D20FE4900062B8
:1020A0001CF01200581C2415120057E5FF60121294
:1020B0000057EE1200127B64E045F07016D20E80DD
:1020C000121200581C240D1200589564E045F0705F
:1020D00002D20E3025030126D1900053CEE09000AD
:1020E00061F2F0EF6046120057EEE9240212005749
:1020F000E51200581B2406120057E52FFFE433FEBB
:102100007803EFCEA2E713CE13D8F8900062131233
:102110000057EDE92402120057E51200581B24066F
:10212000120057E52F90006218F080151200581C1D
:102130002406120057E5FF9000621312005C1FEFA7
:10214000F01200581C2408120057E56401600301D6
:1021500023A31200581C2409120057E590006216B0
:1021600012005C1FE09000621A12005B2C9000626B
:102170001612005B3940030126959000621AE02E8A
:10218000FF90006212F0900061EBE0FEEFD39E4002
:1021900003012695120058E190006212E029120016
:1021A00057E5FC700301239C90006218E02408FEB0
:1021B00090006217F01200581C2407120057E5FD2A
:1021C000EED39D400AED540790006217F08007900F
:1021D0000062177408F090006219ECF012005C2A9B
:1021E0009000621BF012005C5B9000621712005AB4
:1021F000FBFEC39F400301239C74B42E120058873A
:10220000FF90006219E05F70030123951200581CD3
:102210002415120057E570030122C612005C2A1231
:10222000005AFC2F9000621DF0E49000621CF01236
:1022300000581C2415120057E5FF9000621CE0FEB8
:10224000C39F40030122EE120057EEEE12005BF333
:102250002912005AE3120057E5FD9000621DE0C309
:102260009D4059900061FB120057CDFF9000621D08
:10227000E0D39F5047120057EE9000621CE0FF121F
:10228000005989FD9000621EE5F0F0A3ED120057A1
:10229000EDEF75F004A429120058C524021200576E
:1022A000E5FF9000621DE0C39FFF120057EE900013
:1022B000621C12005988FDCEEDCE802C9000621C6D
:1022C000E004F001222F1200581C240D1200589532
:1022D000FFAEF09000621EEEF0A3EFF090006215EA
:1022E000E0FE9000621BE02E2F900061EDF0900068
:1022F000621EE07004A3E064E0702E900061FE12A4
:10230000005AFBFE12005885FDEF4D900061FEF073
:10231000900053CEE04DF074B42E12005887FF9019
:102320000061F2E05F70478041900061EDE01200D3
:1023300059CEF583C083C0821200587AFCEE4C75EA
:102340009300D082D0831200585EE9240112005716
:10235000F912005A3B7E00E92FF9EE120057E7FF11
:1023600074B42D120058875F7004120028A99000E1
:10237000621912005AFB12005885F4FEEF5E9000BD
:102380006219F07010120058E190006212E02912F8
:102390000059F1800712005BFB0121E912005C0388
:1023A00001216D1200581C2408120057E5640860D2
:1023B000030126951200581C2406120057E59000D0
:1023C000621212005B2C1200581C2409120057E5FF
:1023D00012005B3A4003012695EEFFA3E02FFFE4D5
:1023E00033FE900061EBE0FDD3EF9D7480F86E98B2
:1023F000400301269590006211E0FFA3E02FFFE467
:1024000033FE120058E112005949FF90006219F0A2
:10241000E4120011E9EF64017004D210805D9000B5
:102420006219E060561200581C240D12005895FFE6
:1024300090006219E02F900061EDF0120059CEF586
:1024400083C083C0821200587AFCEE4C759300D092
:1024500082D0831200585EE92401120057F912005D
:102460005A3B7E00E92FF9EE120057E7FF74B42DB6
:10247000120058875F7004120028A91200584512F4
:10248000019D6E30250301269512005C030123C6D1
:10249000201203012695E4900061F3F0A3F01200EE
:1024A000581C2401120057E5FF64026014EF640613
:1024B000600FEF6460600AEF60076440600301260C
:1024C0005C120059BA120057E264097011D224124A
:1024D0000058D11200FCA490005E9A012564D22419
:1024E0001200581C12005893FFE5F060030125C844
:1024F000EF24CF603514606024FA605C24B8606C0F
:10250000245060030125C81200581C2408120057EB
:10251000E5120058CC1200FCA490005E9CEEF0A3E3
:10252000EFF07B017A5E799C80211200581C240810
:10253000120057E5120058CC1200FCA490005E9ED9
:10254000EEF0A3EFF07B017A5E799E90005E9AE058
:10255000FD1201A2C9012679120058D11200FCA473
:1025600090005EA0EEF0A3EFF0012679120058E192
:10257000120059B2120028BD90006220EE807790C0
:10258000006220E0FCA3E0FD4C70251200581C24E2
:102590000C120057E5700301267990005E99E04423
:1025A0000412005C35E490005EA2F0A3F0012679ED
:1025B00090005EA212005C3C4404F01200581C24FF
:1025C0000C12005970012679120058E1120059B21C
:1025D000120028BD90006222EEF0A3EFF012005925
:1025E000BA120057E26401701390006222E0FFA368
:1025F000E090006220CFF0A3EFF080839000622291
:10260000E0FCA3E0FD4C70231200581C240B1200C8
:1026100057E5602E90005E99E0440812005C35D2C8
:1026200024E490005EA4F0A3F0801790005EA41252
:10263000005C3C4408F01200581C240B1200597036
:10264000D2241200581C2401120057E5646070293E
:1026500090005EA4E07002A3E0601E221200581CED
:102660002401120057E570111200581C12005893F3
:10267000640145F070030125C8900061F3E0700229
:10268000A3E060030124DE1200584512019D6E3064
:1026900025030128A81200584512019D6E2025210E
:1026A0001200581C2419120057F9EA494B60121203
:1026B00000581C2419120057F912005BA412005A8A
:1026C000B890006214E004F0011F59301003012893
:1026D000A8200F030128A81200585FE92401120066
:1026E00057F9120011B7FF900061FEE06F7003010F
:1026F0002789200E03012789EF607812005C5B12A6
:10270000005A25506E1200585FE92401120057F953
:10271000120011B7FE74B42F12005887FF5E603CA0
:10272000900061FEE05F703490006215E012005886
:102730008512005C4E90005527E014F0900053CEB7
:1027400012005AFBFE12005885F4FDEF5D90005315
:10275000CEF0EE24E0FD7F011200AF341200585F8E
:10276000E92401120057F9120011B7600612005B4C
:10277000FB808C900061FEE0FF1200585FE92401AD
:10278000120057F9EF120011E9900061EE740F1278
:10279000005B31900061EE12005B3940030128A814
:1027A0001200585FE92401120057F912005A3BEE5B
:1027B0007E0029F9EE120057E7FF70030128789098
:1027C000006211E0120059E71200588C6F7003018B
:1027D000287812005C5B12005A2540030128781209
:1027E00000585FE92401120057F912005A3B90008B
:1027F0006211E0FE7C0029F9EC120057E7FD74B489
:102800002F12005887FF5D605274FF2EF582E4346A
:10281000611200588C5F70431200585FE924011266
:102820000057F912005A3B90006211E0FF29F9ECC1
:10283000120057E7900062151200588212005C4E99
:10284000EF33333354F82D04900061EDF0FD900028
:102850005527E014F07F011200AF341200585FE9F1
:102860002401120057F912005A3B12005C624F60BB
:102870000712005BFB0127D690006211120059E598
:102880001200588CFE1200585FE92401120057F91B
:1028900012005A3BEF7C0029F9EC3AFAEE120011D3
:1028A000E912005C030127932290005527E004F011
:1028B000900061EDE0FDE4FF1200AF342290006370
:1028C0000F1200141A7B017A6179F312005C8122E5
:1028D000900062D8EFF0A3ECF0A3ED120051A7E452
:1028E000900062DEF0A374FFF0E4900062E1F0A3D8
:1028F000F012004E88FF900062EE12004FDBE924D8
:102900000112004C4C24FC7003012A1114700301C5
:102910002BD024E47003012B90241F6003012FA30C
:10292000900062DB120013FAE92FF9EA3EFA9000F8
:1029300062E51200141AE9240412004C4CFEC39400
:102940000640097406120011E97F0022900062D847
:102950001200511312004B64E04E759300F0120008
:1029600050CD12004B64E0701D1200509C240512E3
:10297000004C4C120050A69000314D12004C76EEE7
:1029800012004B69EFF01200509C240512004C4CD1
:10299000120050A69000314F12004CB6EE12004BC0
:1029A00069E0FDEFD39D400F9000314F12004C8243
:1029B000EE12004B69EFF01200509C240812004CFC
:1029C0004CD3943240067432120011E97E007F0429
:1029D000EEC0E0EFC0E0900062E512004C4544809C
:1029E000FD900062D8E075F0EAA424CCF9740835B3
:1029F000F0FA7B01D0E0FFD0E0FE12001618900044
:102A000062E512004C4512004E9990003170012B86
:102A10008212004E88900062E812004FDBE9240227
:102A200012004C4CC3940640037F002212004EFC5F
:102A3000240312004C4C700B900062DEF0A3E00403
:102A4000F0800A900062DFE0B4FF02E4F012004E72
:102A5000FC240512004C4CFF702112004DE21200C4
:102A60004B64E0FE900062DFE0FD12004C99120022
:102A70004F262D12004B82EEF0802A12004F2E902E
:102A800000315212004B73EFF0ED12004C36ED1294
:102A9000004B69E0700F75F078ED12004C39ED12C3
:102AA000004B69EFF012004EFC240312004C4CFF67
:102AB00012004F2E75F0789000317112004B76E0C5
:102AC000FCEFD39C400E75F078ED90003171120050
:102AD0004B76EFF012004EFC240612004C4CFF9097
:102AE0000062DFE0FE75F078ED9000315812004B87
:102AF00076EFF0900062E812004C459000316412CD
:102B0000004B71EFF012004EFC240412004C4C906C
:102B100000317712004B71E0FEEFD39E401112009E
:102B20004F2E75F0789000317712004B76EFF090D1
:102B30000062E812004C4564016003012FA390007D
:102B400062D81200505D12004B64E0440112005143
:102B5000CB5430601590005FF2120051D2900032D9
:102B60005912004B64EEF0012FA390005528E02489
:102B700081F582E4345212004E0D12004E999000FD
:102B80003259120013EEEE12004B69EFF0012FA341
:102B900012004E8829F9EA3EFAE9240712004E3362
:102BA0001201AF8512004F349000320F12004CBF5B
:102BB000ED2583F583C083C08212004EB2D082D04F
:102BC0008375F002120013EEEEF0A3EFF0012FA3D5
:102BD000900062DEE0D394064003012F9912004E6C
:102BE0008829F9EA3EFA900062EB1200141AC23802
:102BF000E4900062E0F0900062DEE0FF900062E0AE
:102C0000E0FEC39F505E12004E5A240212004C4C4C
:102C1000547FFF12004F3412004BDAED2583F58309
:102C2000C083C082120050ADD082D08312004E7398
:102C300075930012004B7FE0547F6F701E9000620E
:102C4000D8E0FF9000317112004CCB12004F262DBE
:102C500012004B82E0600DD2388009900062E0E003
:102C600004F0809212004E5A240412004E331201D6
:102C7000AF85900062E3EEF0A3EFF0900062DFE03A
:102C800012004E9912004C9DEE12004F272F120099
:102C90004B82E06401704712004C35EE12004B6924
:102CA000E06401600C12004C35EE12004B697401B7
:102CB000F0D3900062E4E094C0900062E3E09400FE
:102CC000401CE4F0A374C0F0FF7E001201AF851237
:102CD000004E5A1200500CEE8FF01200129F203856
:102CE00003012E6312004BC0EE2583F583C083C021
:102CF00082120050ADD082D08312004E73C083C0C8
:102D00008212005035D082D083258212004B82E09F
:102D10006F7003012DEB12004C35EE12004B69E091
:102D200064037003012F5D12004E5A240212004CFE
:102D30004C120050A612004BDAEE12004B69120042
:102D4000511DC083C08212005035D082D0832582AD
:102D500012004B8212004BE5EE12004B691200513B
:102D60001DC083C082900062E0E0FE759300D082B7
:102D7000D083258212004B8212004DE012004B647A
:102D8000E0B4092012004E14C083C08212004EB27B
:102D9000D082D08312004E7375930012004B7F7463
:102DA000F0F0802D12004B9BEE2583F583C083C08D
:102DB0008212004EB2D082D08312004E73C083C004
:102DC0008212005035D082D083258212004B82EFD0
:102DD000F012004E5A240312004C4C5403C43354D6
:102DE000E012004E99900031C58054900062D8E006
:102DF000900031A112004D02EF2583F583C083C0FE
:102E00008212004EB2D082D08312004E73C083C0B3
:102E10008212005035D082D083258212004B82E08E
:102E2000FF900062E3E0FCA3E0FDD39FEC94005030
:102E300003012F5DCFEDCF12004E9A900031A11209
:102E40000013EEEE2583F583C083C08212004EB2DC
:102E5000D082D08312004E73C083C082900062E0A3
:102E6000012F4D12004BC0EE2583F583C083C08235
:102E7000120050ADD082D08312004E73C083C08246
:102E8000900062DEE0759300D082D083258212002C
:102E90004B8212004BE5EE12004B691200511DC02F
:102EA00083C082900062DEE0FE759300D082D08302
:102EB000258212004B8212004DE012004B64E0B4F8
:102EC000092012004E14C083C08212004EB2D0827C
:102ED000D08312004E7375930012004B7F74FFF085
:102EE000803112004B9BEE2583F583C083C0821294
:102EF000004EB2D082D08312004E73C083C0829045
:102F00000062DEE0759300D082D083258212004BF0
:102F100082EFF012004E5A240312004C4C5403C4AA
:102F20003354E0120050A6FE900031C512004D1936
:102F3000EE2583F583C083C08212004EB2D082D0CA
:102F40008312004E73C083C082900062DEE07593EE
:102F500000D082D083258212004B82EFF012004E07
:102F6000FC240512004C4CB4092F12004E5A2406C2
:102F7000F9E43AFA74FA120011E912004E5A2402E6
:102F800012004C4C547F120050A690003278120070
:102F90004D31EE12004B69EFF0203807900062DEF1
:102FA000E004F0900062EE120013FA120011B7FF75
:102FB000900062E1E48FF012001265900062D9E0A7
:102FC000FEA3E0FFC3900062E2E09F900062E1E0B8
:102FD0009E50030128F17F0122C0E0E8C0E0784C58
:102FE0007600759108A6D9E630E10B784306E670C5
:102FF00003784206D22AD0E0F8D0E032FFFFFFFF8C
:10300000900062B6EFF0A3EDF0C223E4900062C23C
:10301000F0A3F0900062D604F0900062CA12005A49
:10302000CB12005C6975F078900032651200580E82
:10303000120013FA900062C41200141A1200142332
:10304000900062BB1200141A120057BE240A12002C
:103050005895FF900062BEE5F0F0A3EFF012005B20
:103060001A1200594BFF540304900062B8F0FDC3DC
:10307000900062BFE09D900062BEE09400500301AA
:103080003AF1C222EF54FC900062B9F0E4FFEFC3C2
:10309000940D748094805018EF90001D2A93FE9038
:1030A0000062B9E0FDEE6D7004D22280030F80DE75
:1030B000202224900062B8E012005B03C3900062FB
:1030C000BFE09FFF900062BEE09EFEF0A3EFF04ED7
:1030D0007003013AE3808612005B1A1200594BFF1D
:1030E000540CFECDEECDEF54F0900062B9F090009C
:1030F00062B8E0FF7E00C3940274809480500AE4BA
:10310000900062C0F0A3F08044EF64024E700A1297
:1031100000593112005B448034900062B8E0D394CF
:10312000027480948040261200593112005B449052
:103130000062BB120013FA900062C3E02402120086
:103140005940900062C075F00012001265CFEDCFBB
:10315000EF24FC700301380324FC7003013981243F
:10316000086003013AB1900062B9E0FF2470601575
:1031700024F0700301375124E0700301378A2440A2
:103180006003013AB1120057BE241C120057E5FE3D
:10319000120057BE241D120057E58EF0A4FEEF6406
:1031A00080700B120057BE12005BC2EE800CCFEE97
:1031B000CF120057BE12005B61EF120011CD12005A
:1031C00057BE2409120057E554016003013711125C
:1031D000005C69900062B9E0FD900062C0E0FAA373
:1031E000E0FB12010B9CEF70030137111200580134
:1031F000120058FD70307D20FE12003B2112005A53
:10320000881200580112005AEB9000326C120058DC
:103210000E120058FD70097B827ABD79500133CEC1
:1032200012005801804012005A33120011B7FF906B
:103230000062B7E06F60447D217E0012003B2112E6
:103240000058E97003013AB112005A60EBC0E0EA9D
:10325000C0E0E9C0E012005A33E912005B611200DD
:103260001440900062D3120013FA900062CD120055
:10327000141A900062B7E0120011E912005A33E903
:103280002405120057F9E94A4B600301330E7D22F1
:10329000FE12003B2812005A88EBC0E0EAC0E0E9C9
:1032A000C0E012005A33E92405F9E43AFA12001496
:1032B0004012005A33E92405120057F9E94A4B70CD
:1032C00003013AB112005A33E92405120057F9906C
:1032D0000062CA1200141A120057BE2413120057BB
:1032E000E512005B68EF120011E9120057BE240ED0
:1032F00012005895FF1200589D120057BE2410125C
:10330000005895FF1200599712005C70806A1200F5
:1033100057BE2413120057E512005B68120011B764
:103320006F605A7D237E0012003B28120058E9701E
:10333000097B827ABD79610133CE12005A33E924C8
:10334000041200597012005A60EBC0E0EAC0E0E9D4
:10335000C0E01200599712005BC91200144012001D
:103360005A60900062CA1200141A120057BE241349
:10337000120057E512005B68EF120011E912005CC1
:103380000B900062C4700612005BE0800412005AC9
:1033900095120057E5FF900062C7E4F0A3EFF0122A
:1033A0000057BE241D120057E5900062C9F090003E
:1033B00062D6E070030134427D247F1C7E0012013E
:1033C00084B8120058E9700D7B827ABD79721200C0
:1033D00016D3013AB1120059972404120057F9E9A3
:1033E0004A4B702D12005A60900062D01200141ADD
:1033F000900062D0120013FAEBC0E0EAC0E0E9C02E
:10340000E0120059972404F9E43AFA1200144080BB
:10341000311200599724011200597012005A60EBC2
:10342000C0E0EAC0E0E9C0E012005A432419F9E420
:103430003AFA1200144012005A60900062D0120052
:10344000141A120057BE24AE120057E5FFD3120023
:103450005AC450030136B8120057BE241412005843
:1034600095640C45F06010120057BE240E120058EF
:1034700095640C45F07064EF12003AF2EBC0E0EA9C
:10348000C0E0E9C0E012005A432416F9E43AFA1207
:10349000001440900062D0120057F2EA494B603BA2
:1034A000120057BE24AE120057E512005BF3120063
:1034B00057BE12005A68EBC0E0EAC0E0E9C0E090F5
:1034C0000062D0120057F212005B57D0E0F9D0E052
:1034D000FAD0E0FB12001139013570120057BE24FA
:1034E000B0120057E5900062BAF0120057BE241CDB
:1034F000120057E56401600E120057BE241D120031
:1035000057E56401707B120057BE24AE120057E5E8
:1035100012003AF2EBC0E0EAC0E0E9C0E012005A63
:10352000432416F9E43AFA12001440900062D012D3
:103530000057F2EA494B6038120057BE24AE120021
:1035400057E512005BF3120057BE12005A68EBC039
:10355000E0EAC0E0E9C0E0900062D0120057F21249
:10356000005B57D0E0F9D0E0FAD0E0FB120011394F
:1035700012005905120057BE24AE120057E501375C
:103580000D120057BE24AE120057E5FF900062BA3C
:10359000E0C39F4003013711120057BE241C1200E4
:1035A00057E5FF7E00120057BE241D120057E5901C
:1035B0000062D7F07401120011E9120057BE24AE68
:1035C000120057E5C39401FD900062BAE06D6041BE
:1035D00012005C0B701A120057BE2405120057E54A
:1035E000CCEFCC2CFD120057BE12005BC2ED801D4B
:1035F000900062B9E064907018120057BE24071260
:103600000057E52F120057BD12005B61EF12001149
:10361000E912005905E412003B08900062B9E0FF8E
:103620007E0064807027120057BE2406120057E502
:10363000FD120057BE2405120059FC900062C7A37A
:10364000E0FD120057BE12005BC2ED8029EF6490CE
:103650004E7027120057BE2408120057E51200577B
:10366000BD2407120058A8900062C7A3E0120057BB
:10367000BD12005B61EF120011E9900062D7E01209
:103680000057BD241D120058A8120057BE24B012C6
:10369000005970120057BE24AE120057E5120057B1
:1036A000BD24B0120057E5C39F50030133AE120092
:1036B00057BE120059EF8059120057BE241E120047
:1036C0005895FF12005A431200597A120057BE242F
:1036D0001C120057E56401602F120057BE241D1212
:1036E0000057E5FFD312005AC4401D120057BE24F4
:1036F0000E12005895640C45F0700D120057BE2450
:10370000AE120058A80134DB12005905E412003B48
:103710000812005C0B900062C4701012005BE01293
:103720000057E5120057BD2405800E12005A95126D
:103730000057E5120057BD2407120058A87E007FED
:10374000937D00120057BE12005A681200161880AE
:1037500022120057BE2409120057E544041200113A
:10376000E9120057BE241212005970120057BE12FF
:103770000059EF120057BE2410120058951200573E
:10378000BD12005A68E5F0013A37120057BE241204
:10379000F9E43AFA12005C36120011B7705E1200BA
:1037A00057BE2409120057E554FA120011E97E00B1
:1037B0007F0B7D00120057BE2413F9E43AFA120081
:1037C00016187E007F937D00120057BE12005A68C3
:1037D00012001618120057BE2405120059F11200EB
:1037E00057BE2406120059F1120057BE24071200DA
:1037F00059F1120057BE2408120059F1900062D608
:1038000001393A120057BE2409120057E5540160ED
:1038100003013AB1900062B9E0440424FC70030152
:1038200038B924F0700301395D24F0700301396F59
:1038300024B0700301394C24E07003013940241096
:103840006003013AB1900062D67401F012005C6925
:1038500075F078900032681200580E120013FA12B8
:103860000011B712005B4FFDCEEDCE541F4F12007A
:1038700011E912005B50120057BD2413120058A822
:10388000120057BE2405F9E43AFA7408120011CD6B
:10389000120057BE12005BC27408120011CD120054
:1038A00057BE12005BC97408120011E9120057BE1E
:1038B00012005B617408013AAD120057BE24091270
:1038C0000057E530E21512005B11120057BD2414B9
:1038D000F9E43AFAEE12005982802112005B1112CB
:1038E0000057BD240EF9E43AFAEE12005982900016
:1038F00062CA120058FD60041200589D900062C018
:10390000E07004A3E0640C6003013AB1900062B778
:10391000E0FF900062B6E09000316412005A6F122E
:10392000005BAC1200588C6003013AB1EE12005BF0
:10393000E812005BACF5837593007401F0013AB1B5
:1039400012005B50120057BD241D800A12005B500C
:10395000120057BD241C120058A8013AB112005B96
:1039600011120057BD2418F9E43AFAEE013A371261
:10397000005B11120057BD241AF9E43AFAEE013A3D
:1039800037120057BE2409120057E5FF54016003A7
:10399000013AB1900062B9E0440824E87003013AAA
:1039A0003B24F07003013A5824206003013AB1EF40
:1039B000900062C030E263E0FCA3E0120057A51261
:1039C0000058C412005A68EC8DF01200129F90004B
:1039D00062C0E0FCA3E0120057A5120058C4120018
:1039E0005A68EC8DF01200129F1200579212005884
:1039F000C4120059FA12005792120058C42421121E
:103A00000059FC120057BE1200596E120057BE2416
:103A1000AEF9E43AFA7401013AADE0FEA3E0FFCD5D
:103A2000EFCD120059972403120059FC120057BE23
:103A30002410F9E43AFAEE8FF08017900062C0E0AB
:103A4000FCA3E0120057A5120058C412005A68ECFB
:103A50008DF01200129F805912005792120058C424
:103A6000120059FA120057A6120058C4241E120060
:103A7000589512005B4FFDCEEDCEC39F120057BD8F
:103A800024AFF9E43AFAEF120011CD120057A11257
:103A90000058C42421120059FC120057BE120059CC
:103AA0006E120057BE24AEF9E43AFA740112001106
:103AB000CD900062B8E0F912005B03900062BEE0B6
:103AC000FCA3E0FDC39FEC9E4011E9FFED9FFFECDE
:103AD0009E900062BEF0A3EFF08008E4900062BE0A
:103AE000F0A3F0900062BEE07002A3E0600301303A
:103AF0005D2275F004A4FFAEF07D25120184B8CAE2
:103B0000EECAC9EFC97B01229000638DF09000627C
:103B1000C0E0FAA3E0FB1200C5C6900062D6EFF049
:103B2000227F0B120184B8227F0A120184B822E49A
:103B300090006519F0C23C900047F0E0700412015B
:103B4000B074900042EAE090006513F0E0FD900050
:103B5000321F120077C7ED120076BCE090006514AA
:103B6000F0C39412A3F0ED1200774CED120076BC76
:103B7000E020E70301439F120076AAE070030143AF
:103B80009F120076AAE0120014943BAF013BDE02C4
:103B90003CA9033D0D043F76053FD90640A50740EB
:103BA000C408419C0941B40A423F0B000042CC12B8
:103BB0000076AA7402F075F078EF9000325412008B
:103BC00076B77401F012007962120197C71200777C
:103BD000159000310E120076B7E4F00142CC1200CD
:103BE00076E6120079076003013C6990006513E0F6
:103BF000FD9000322C12007803ED120076BCE054E8
:103C00008090006516F090003232120077C6ED12F7
:103C10000076BCE0FEA3E04E603A90006516E0B48A
:103C20008008120076AA74038030120076AA740508
:103C300012007873120076B7E0640D6003013B81D7
:103C4000D23C120077159000323C120076B7740215
:103C5000F00142CC120076AA7407120079B5120066
:103C600076B7E4F0A3F0013B81120078CF640370D3
:103C700003013EF1EFB40703013EF190006519E046
:103C8000640B60030142CC120076AA740C12007817
:103C900073120076B7E0640D60030142CC12007726
:103CA000151200784CEF013F2B90006514E0FF12D5
:103CB00000772DE0FCA3E0FD90002DBB120077897A
:103CC00012007A6AFFEE9CFE90006517F0A3EFF0F9
:103CD00090006514E090002DB51200778AE0FCA3F7
:103CE000E0FDC39FEC9E500990006517ECF0A3ED3A
:103CF000F012007888120079EBE49000644FF01223
:103D0000011682120076AA7404F00142CC120076E9
:103D1000E6E090006519F090006519E06402600328
:103D2000013EB090006514E0FEC39412A3F0EE12C1
:103D300000772D1200795D75F01112007818E0FA05
:103D4000A3E0C39FFFEA9E90006517F0A3EFF07514
:103D5000F011ED120077B1E0FEA3120078589E40FA
:103D600005EEF0A3EFF0120077159000310E12006F
:103D700076B712007872120076B7E0640D706C901E
:103D8000006517E0FEA3E0FF90006513E0FD9000E2
:103D9000324412007A00ED120076BCEEF0A3EFF090
:103DA000E490006516F0120078549400402A120046
:103DB0007A711200782A120076D7FE90006514E01E
:103DC00075F01112007986120013FAE92FF9E43A1E
:103DD000FAEE12007A0780CE120077159000323C7E
:103DE000120076B77403F0D23C804FE49000651661
:103DF000F0120078549400404112007A7112007859
:103E0000D7120076D7FC120079621200772DE0FA03
:103E1000A3E0FBEFF582758300EB2582FFE5833A93
:103E2000FE75F011ED12007986120013FAE92FF9F0
:103E3000EA3EFAEC12007A0780B79000651712008C
:103E4000795D1200772DEE8FF01200126575F0117A
:103E5000ED12007818E0FEA3E0FF75F011ED1200FE
:103E60007730E0FCA3E0C39FEC9E502C1200771546
:103E70009000310F120076B7E0FD120077A9E0FA4A
:103E8000A3E0C39DEA9400500675F078EF800D1210
:103E90000076AA7403F0800F120077159000322B81
:103EA000120076B77409F0303C030142CC013B812B
:103EB000120078CF6403703590006513E0900031F4
:103EC0000E120077B9EE120076BCE004F0D3940332
:103ED000400C75F078EE1200770DEE0142221200D0
:103EE0007704EE120076BC7403F0013B81EFB40757
:103EF0000C120078881200770AEF01422212007833
:103F0000CF640B702F12007704EE120076BC740C95
:103F1000F012007791EE120076BCE0640D600301B0
:103F200042CC12007A7B1200784CEE120076BC7400
:103F30000C01405DEF6404702B120077A9E0FEA332
:103F4000E04E6006900065198026120076AA740380
:103F5000120079B5120076B7120079695003013B5F
:103F60008101415890006519E0640C60030142CC66
:103F70007402F0013D1712007715900032341200E0
:103F800076B7E0B40D1775F078EF90003244120068
:103F900076B7E0FFA3E090006517CF802290006520
:103FA00014E0FF1200772DE0FCA3E0FD75F011EFA7
:103FB0001200781812007A6AFFEE9C90006517F0E4
:103FC000A3EFF012007888120079EB1200EE0A12CB
:103FD0000076AA7406F00142CC120076E61200794F
:103FE00007600301407590006514E090002DBD123C
:103FF00000771FEC8DF01200126590006514E090C0
:10400000002DBB1200771F12007A6AEE9C12007717
:10401000159000322B5009120076B77405F0800716
:10402000120076B77407F012007715900032341240
:104030000076B7E0640D6003013B8175F078EF9086
:1040400000322B120076B7E0B4051890006513E03B
:1040500075F0789000323C120076B77407F0D23CCD
:104060000142CC120077159000323C120076B774F2
:1040700008F0013B81120078CFB40B0301412DEF12
:10408000B4040A120076AA7405F0013B8190006521
:1040900019E0640760030142CC12007888120077AF
:1040A0000AEF01422212007888A3E0FD9000644FDD
:1040B0007401F0E4FBFA12011682120076AA740869
:1040C000F00142CC120076E612007907701E120051
:1040D000771590003234120076B7E0B40D0B120061
:1040E00079D0120076B77408F0014192120078CFAF
:1040F00064076004EFB4030C120078881200770A9A
:10410000EF014222120078CF640B703012007A7BEC
:1041100012007795EE120076BCE0B40D10900032DC
:104120003C1200777DEE120076BC740CF012007722
:1041300004EE120076BC740CF00142CCEF64047003
:104140002A120076AA7407120079B5120076B71207
:104150000079695003013B811200771590003229E4
:10416000120076B7E4F0A3F0013F0590006519E076
:10417000640C60030142CC120077159000323412B7
:104180000076B7E0B40D0B120079D0120076B77448
:1041900008F0120076AA740DF00142CC1200788863
:1041A000A3E0FDE4FBFA1200EE0A120076AA740AFC
:1041B000F00142CC120076E6120079077028120056
:1041C00076AA740D12007873120076B7E0640D6061
:1041D000030142CC120077159000323C120076B7F2
:1041E0007414F00142CC120078CFB40407120077A7
:1041F00004EE8041EF6407600C90006519E06403F1
:1042000060030142CC120077159000310E12007647
:10421000B7E004F0D39403401375F078EF12007701
:104220000DEF120076BC740BF0013B811200788810
:104230001200770AEF120076BC7409F0013B81127C
:1042400000771590003107120076B7E020E71F9045
:10425000006513E090003228120078FFEE1200761D
:10426000BCE4F075F078EE1200770DEE805775F033
:1042700078EF90003228120076B7E004F0D3940271
:10428000502E120076AA7401F090005DBCE0FD9003
:10429000006514E0FB9000640BEFF0A37401F0A341
:1042A00074F4F0A37401F0A374F4F0E4FF01439BF1
:1042B0001200771590003228120076B7120079BFED
:1042C0001200770DEF120076BC740EF0120076AA81
:1042D000E0FF640D600DEF640E6008EF640C600396
:1042E0000143911200771590003228120076B71220
:1042F0000079BF90003254120076B7120078721223
:104300000076B7E024F7601814603424FE6041148E
:10431000604F24FE606824077077900030DC8034A2
:10432000120077159000321E120076B7E0FB900065
:104330005B5CE0FD9000640BEF12007772801A1254
:1043400000771590003238120076B7E06043803D68
:1043500090002F7212007767FB7F0412010A5C80C5
:1043600030120076AAE0640D600B120079D01200C2
:1043700076B7740CF012007763FB7F04801D120087
:10438000771590003238120076B7E060041201B061
:1043900019303C0B12007763FB7F0412010A5C2288
:1043A000D230E4900063D0F0120098AA24AEF582D7
:1043B000E434121200968E7837120098A924AFF5D3
:1043C00082E434121200968E7834120098A924B038
:1043D000F582E434121200968E7835120098A924E2
:1043E000B1F582E434121200968E7836F618E6FFA4
:1043F0005470FEC4540F7838F6EF540708F678442A
:1044000006E6C394404002E4F67837E6FFC394041E
:104410004003014B4C7834E620E703014928783803
:10442000E69000085912009773E020E7030149283D
:104430001200977B1200968E30E20718E6FF1201F9
:10444000AA8A7835E65407600301451608E620E09D
:10445000030144F608E6FF08E6FE75F0EA9000085E
:10446000FC1200968260589000322B120098DC12E9
:10447000009717FD64096015ED640A601090003222
:104480003C120098DC1200971764147032120098E6
:10449000B612009682C394A05016120098B2120071
:1044A000968204F07844E67003763F227844162220
:1044B000120098B21200972A2F12009785E4F0128A
:1044C000009816120096FFE6FD08E6900063E0F003
:1044D00008E6A3F0A37401F012015C7C12009816A8
:1044E000120096FF12016F237838E6FF18E6FD12DE
:1044F000007AB10149367835E6783730E30CE6FFCB
:1045000008E6FD12015264014936E6FF08E6FD1295
:10451000015D1E0149367835E620E3030147FA12B2
:10452000009707B4091318E6FBCDEBCDE4900065C6
:1045300086F012013F6A0149367838E6640160036B
:1045400001463808E6640170637837E6FA1200978E
:10455000AF12009719FE90004E7EE0FD5E600301F1
:10456000460DE6FC2475F582E4344E12009719FBE3
:10457000747A2CF582E4344E120097196B6023EDA7
:104580004E90004E7EF090004D4512009962EAF088
:10459000E4A3F0A3F0A3F0A3F0FB7F0312010A5CF5
:1045A000806B7837E6FF1201A46E80617839E6FFF0
:1045B00064026008EF640360030149367837E6FF60
:1045C000120097AF12009719FE90004E8CE0FD5E2E
:1045D000703B74832FF582E4344E12009719FF90DC
:1045E000004E8BE06F6026E6FCED4E90004E8CF0A6
:1045F00090004E7912009962ECF0A3E4F0A304F06D
:10460000A3E4F0A304F0E4FBFF12010A5C7839E6AE
:1046100024E0F582E43461F583C083C082759300A1
:10462000E0FF7837E69000000393FEEF4E759300AD
:10463000D082D083F00149367839E6FF18E6FE12C1
:104640000098C0120096825460646060030149368D
:10465000120098BF12009682540F783AF6E6FF9047
:10466000002F7C120098EEE0900063D0F09000558F
:1046700028E0FE783766600301474775F016EF12B1
:104680000097DCC083C082E0FD74B82EF582E4346C
:104690005D12009719F4FEED5E759300D082D08311
:1046A000F090002F81120098EDE0FF783AE6FE7559
:1046B000F01690002F82120013EEE06F6010900051
:1046C0005528E07838120098CCEE12004B4D783720
:1046D000E6FF08E675F0EA9000089E12009682FD5B
:1046E0007C0008E6FBC8EBC87E007401088005C3A7
:1046F00033CE33CED8F9FFEE5CFEEF5D4E600301A2
:1047000049367837E6FF08E6FD75F0EA9000089E26
:1047100012009682FEC8EBC87401088002C333D829
:10472000FC4EF0120151AF7838E6FF18E6FD7839FB
:10473000120097AE12009719FB9000660F7401F0FB
:1047400012018090014936900063D0E0FF7838E68E
:10475000FE90003164120097A6120098471200974D
:1047600019640170030147EC9000550BE020E6034B
:10477000014936783AE6FF120097D9C083C082E03B
:10478000FE7837E624B8F582E4345D12009719F418
:10479000FDEE5D759300D082D083F0900063D8E089
:1047A000FE90002F87120098EDE5822EF582E43509
:1047B0008312009719FF783AE6FC75F01690002FE7
:1047C00083120013EEE5822EF582E4358312009702
:1047D000196F7003014936900063D8E0FF7838E61E
:1047E000FD08E6FBEC12004B4D0149369000550BDD
:1047F000E020E50301493601477312009707640979
:10480000700301493608E6FEEF120098C0120097C7
:104810002A2E120096895460646060030149149046
:10482000005528E0FF7837E6FD6F600301491475F5
:10483000F0C0ED1200983F08E6FF75930075F01880
:1048400012009855900063D11200141A120011B78B
:10485000900063D7F0900063D2E475F0021200126A
:104860006575F0EAEF900008B71200972A2E120043
:104870009689540F783AF6E675F048A4249CF974AA
:1048800001900063D412009969E4900063D8F0901D
:104890000063D7E0FFA3E0FEC39F502D900063D1DB
:1048A000120013FAE92EF9E4120097C7FF90006393
:1048B000D4120013FAE92EF9E43AFAEF120011E9E2
:1048C000900063D8E004F080C6783AE675F048A41A
:1048D0002494F97401900063D912009969900063DF
:1048E000D7E0FF12009805EF120098F52405F9E4CF
:1048F000120097C754FC120098F52401F9E4120045
:1049000097C74408120011E9E6FDE4FB7F0112019C
:104910007C88D23030301F120098C8900066A67490
:1049200020F01201709B800E7834E630E708120008
:1049300098C81201A2677834E620E303014A59C2FD
:10494000E97837E6FF14601314601914601F24031C
:10495000702275A6987835A6A7801975AE98783517
:10496000A6AF801075B6987835A6B7800775BE9843
:104970007835A6BFD2E97835E630E403014A221241
:1049800000977B1200968E20E003014A227837E6DA
:10499000120097D01200968E54EE1200977A1200F1
:1049A000968E4402F0E6FF08E675F0EA900008BF34
:1049B000120096825401F07D011201A74D7837E66E
:1049C000FF1200FF5A7837E6FF7B08E4FD1200DE95
:1049D000097837E6FF7B01E4FD1201B1677837E61D
:1049E000FF7D0112018B53900053E4E020E66AE45E
:1049F000900063D8F0900063D8E0FFC39404501493
:104A00001200977B1200968E20E009900063D8E098
:104A100004F080E1900063D8E0C39404403BC218E6
:104A200080377835E630E4317837E6120097D012D7
:104A300000968E20E0231200977B1200968E440190
:104A4000F0E4FD1201A74D7837E6FDE4FF120123E3
:104A5000C27837E6FF1201AEF07834E630E21A7819
:104A600037E6FFE4FD120159E67837E6FF1201ACA4
:104A7000D47837E6FF12015E5E7834E630E40878D9
:104A800037E6FF1201A2367834E620E503014B4CED
:104A90007837E6FF701275A699783BA6A7E6442002
:104AA000F6F5A775A699803EEFB4011275AE997818
:104AB0003BA6AFE64420F6F5AF75AE99802878376F
:104AC000E6B4021275B699783BA6B7E64420F6F52F
:104AD000B775B699801075BE99783BA6BFE644209D
:104AE000F6F5BF75BE997837E6FF1200988612007A
:104AF000971970279000528012009962EFF012000F
:104B0000992F1200992FE4FBFF12010A5CEF04FFBA
:104B1000120098831200987CF0802912009883126A
:104B2000009719C39401FFE49400FE900042F575CC
:104B3000F009EF120013EEEE75F009A4120097676A
:104B4000120099307837E6FF1201A83722900066EC
:104B500086F0120125C52290006620E0FF75F078EE
:104B60009000322B120013EEEF2583F5837593002E
:104B700022FFED75F078120013EEED2583F583E545
:104B8000822EF582E43583F58375930022EFF09051
:104B900000322BEE75F078020013EE900062EB12FB
:104BA0000013FAE92406F9E43AFA120011B7FF906B
:104BB0000062D8E0900031E9FE75F078020013EE53
:104BC000900062EB120013FAE92402F9E43AFA12B7
:104BD0000011B7FF900062D8E0FE9000317D75F0C3
:104BE00078020013EEEFF0900062E3A3E0FBCFEB5E
:104BF000CF900031A1EE75F078020013EEEE75F063
:104C000078020013EE9000658F7B007A007900E057
:104C1000FF75F0789000322122FFE0900008FCFE42
:104C200075F0EA120013EEE5822FF582E43583F584
:104C30008375930022EE75F0789000311002001316
:104C4000EE900066C0120013FAE92407F9E43AFA7C
:104C5000020011B7F090002F71E0FD9000640BEF9F
:104C6000F0CFEECFA3E4F0EFA3F0E4A3F0A3F022A3
:104C7000FFE090003236FE75F078020013EE9000EF
:104C80003111EE75F078020013EEEFF0E0FF75F0F1
:104C90001690002F81020013EE75F078EF9000312E
:104CA00052020013EE90003109ED75F07802001306
:104CB000EEE09000322BFE75F078020013EEEE75F8
:104CC000F078020013EE90003272EE75F078020078
:104CD00013EE90006589E0FF75F07822A3E0FDCE29
:104CE000EDCE90006598F09000658AE0FD9000653B
:104CF000992290006332E075F01690002F8B02002D
:104D000013EEFF75F078020013EE90006832E0FFBA
:104D100075F07822ED9000322175F078020013EEE4
:104D200090006332E0FF75F01690002F82020013AE
:104D3000EEFE75F078020013EE9000310CED75F088
:104D400078020013EE90006332E075F048A4249CD2
:104D5000F9740135F0FA7B0122120013FACEEACE83
:104D6000CFE9CF22E090003109FD75F07802001301
:104D7000EE75F0EA900008D4020013EE900066CBC6
:104D8000E0FFA3E0FDA3E0FB2290006599E0FE7543
:104D9000F078EF900032362290006589E0FFA3E0C2
:104DA000FDE490006598F0A3229000316A75F078D8
:104DB000020013EEE0FD75F01190002DB212001309
:104DC000EE0200141A900066C3E0FF75F0789000C0
:104DD0003236221200141A75F078EF900032212238
:104DE000EFF0900062D8E0FF75F07890003110226B
:104DF00090006763E090000904FF75F0EA02001379
:104E0000EE90006335E024B4F582E4345DF58375FB
:104E10009300E022900031E9EF75F078120013EE74
:104E2000EF2583F58322F0EF75F0789000310722AB
:104E3000E92402F9E43AFA1200127BFFAEF0229064
:104E4000006332E0FF90002F7C75F016020013EE35
:104E5000F075F078EF9000323B22900062EB120088
:104E600013FAE92275F01690002F8D120013EE024E
:104E70000013FA75F006020013EE900066CFE0FF13
:104E800075F0789000323C22900062DB120013FA39
:104E9000900062E1E0FEA3E022FF900062D8E0FE15
:104EA00075F0782275F01190002DB5120013EEE424
:104EB000F022900062DFE075930022FDEF75F0EACA
:104EC000020013EEFE75F078020013EEEB54F0C40E
:104ED000540FFFCEEFCECFEBCFEF540FFFCCEFCC84
:104EE000CFEDCFCDCDCFEECFCBEFCB900065322243
:104EF000F090002F71E0FD9000640B22900062E8BA
:104F0000120013FAE922900066D7E0FF7C017D7859
:104F1000120011FD74072FF974313EFA22120014A9
:104F20001A75F078EF22EF2583F583E58222900051
:104F300062DFE0FE900062D8E0FD2290006505E0AF
:104F4000FF90006507E022E075F016A42487F9744D
:104F50002F35F0FA7B0122EF75F0EA020013EEED37
:104F600075F078020013EE7B017A63793890006463
:104F7000B21200141A90006334E0900064B5F0A3FC
:104F800022F075F078EF900031102290006763E016
:104F9000FF75F0789000323422900066D1E0FF90E7
:104FA0000066CF221200141A7B007A007900227466
:104FB0000FF075F078EF9000323A2290006589E0AA
:104FC000FFA3E0FD2290006507E0FF2275F0EA9064
:104FD000000926120013EE7593002229F9EA3EFA21
:104FE0000200141A7E007C017D78120011FD744BC2
:104FF0002FF974323EFA7B012290002F90020013A9
:10500000EE75F005A429F9EA35F0FAE92404F9E48B
:105010003AFA22E0FF75F0789000321F2212001356
:10502000FAE94A4B22900042EAE0FF22CAEECAC9DE
:10503000EFC97B0122900062E0E07593002275F0D9
:1050400008120013EEE0FEA3E0FF900067F1E0FD20
:1050500022E090006832FDE09000640B22E0FF75D2
:10506000F0789000310922EE75F078020013EEA37B
:10507000F0900066C0020013FA90006504E075F03D
:10508000C090000FAA020013EEE4F075F078EF90E4
:1050900000321F22A3F0A3F0FB7F0422900062E500
:1050A000120013FAE922FF900062D8E02290006219
:1050B000DFE0FD759300229000658FE0FF75F078CA
:1050C0002290006334E0FF7E00EE22E0FD75F07870
:1050D000EF9000314D22CEEDCEEFC394022290002E
:1050E0006634E0FF227E017D00020016187B017A03
:1050F000637942900064150200141A75F016A42416
:1051000083F9742F35F0FA7B012275F078EF900067
:10511000323422E0FF75F078900031512275F006AC
:10512000ED020013EE90002DAF020013EEEFF0A39E
:10513000EDF0A3EBF02290003105E075930022E042
:10514000FF75F0789000323B22E0FF75F078900018
:10515000321B22120011E975F078EF9000311D2208
:10516000FE120013EEE5822F22C874A7C8CC744249
:10517000CCCD7401CD22F0900042EBE0229000668D
:10518000CFE0FF900066D1E0FD22E0FFCEEDCECD76
:10519000CD22E0FF90006332E022120011E990007E
:1051A0006337E004F022EFF0A30200141AE0FF904E
:1051B000006333E02290006337E029F9E43AFA22F1
:1051C000759300E0FE90006633E022F09000550BEE
:1051D000E022E0FE75F078EF2290006591E0FEA3FA
:1051E000E0FF22C8E9C8CCEACCCDEBCD2290006626
:1051F000C8E0FF2275F016EF120013EEE0229000D7
:105200006333E0FF2290006763E0FF22900067F6BF
:10521000E0FF2290005CE2E075F003A424EDF5824B
:10522000E4345CF583759300E0900065C0F0A374EE
:1052300008F0E4900065BFF0900065C1E0FF9000C9
:1052400065C0E05F7003015745120132492448F5FB
:1052500082E434621201320BFE900065C2F07437B2
:105260002FF582E434621201320BFF900065C3F027
:105270007B827AB17990900065BFE0FD9000625D1D
:10528000E4F0A3EDF0EEFDA3E4F0A3EDF0A3E4F071
:10529000A3EFF012005788B46015A3E070117B8271
:1052A0007AB179B4120016D3900065C37403F090FC
:1052B0000065C3E0FF70030156AE20E3030153779E
:1052C000900065C2E020E30301535E7B827AB179EE
:1052D000BA900065BF120132AD120016D37B817AFD
:1052E0001C79A61201A8CC1201324912019D34EF9B
:1052F000603FC2E890005CDCE09000623BF0D2E8E6
:105300007B827AB179DC120016D390006236E0FD20
:10531000900065BFE09000640BF0A37403F0A374E9
:10532000E8F0A37403F0A374E8F0E4FBFF12010AB1
:105330005C12013249120132044408F074512FF515
:1053400082E434621201320BFFC39402402912013D
:10535000B0097B827AB179F5120016D380197B826D
:105360007AB27904120132C7120057711201320465
:1053700054F7F012019C45900065C3E020E0030162
:105380005436900065C2E030E0061201328B800492
:1053900012013292120132787B827AB2792501565B
:1053A000F6120131FF5401FF900065C2E0FE540186
:1053B0006F6079EE30E02E90005CE8E0C394085016
:1053C000147B827AB279431200577D7D1E7C0012D5
:1053D0000187F680617B827AB2795190005CE81295
:1053E0000132AD804D120132491201320454FEF0F7
:1053F00074562F1201325012013249120132B41286
:10540000013255303E0A90006250E06F7002C23E99
:10541000120132231201320BFFC394024018120111
:10542000B0091201322312013255800A7B827AB20E
:10543000796E120016D3900065C3E020E103015598
:1054400004900065C2E030E1061201328B80041244
:10545000013292120132787B827AB279751200574A
:105460007D12013204FE5402FD900065C2E0FC543E
:10547000026D601CEC30E111744C2FF582E4346253
:10548000120132D14402F08007120131FF54FDF0C5
:10549000900065C2E0FF20E16B5421642170651229
:1054A0000132231201320BFFC394024057900031A6
:1054B000071201325D1201320B30E70D1201322367
:1054C0001201320BFF1201B0091201322312013214
:1054D000557B827AB27992120016D3120132492496
:1054E00056F582E434621201320BC39405501590D4
:1054F00000623DE0700E7D1EFC120187F690006296
:105500003D7401F0900065C3E030E266900065C232
:10551000E030E2061201328B800412013292120155
:1055200032787B827AB279AB120016D3120131FF46
:105530005404FF900065C2E0FE54046F602AEE3010
:10554000E2137B827AB279C9120016D3120131FFBD
:105550004404F0801D7B827AB279DE120016D312E9
:105560000131FF54FBF0800A7B827AB2796E12001F
:1055700016D3900065C3E020E4030157289000652E
:10558000C2E05403640360030156A09000623DE052
:10559000C3940250030157287B827AB279F3120038
:1055A0005788FF30E1061201328B800412013292DB
:1055B00012013278EF30E0061201328B80041201C2
:1055C0003292900062601200141A7B827AB37908DA
:1055D000120016D3120132231201320BFF60079022
:1055E0000065C4F080587B017A6579C4900065BF7E
:1055F000E0FD12013E9BEF700301569B120132D871
:10560000900065BFE0FE12013228F583759300EF2C
:10561000F0EEC454F0FE9000321C1201325D120113
:1056200032D1F0900065C2E030E613120132D8901A
:105630000031511201325E1201320B4480F09000B1
:1056400065BFE0FE0490003106F0120132D875F01B
:10565000789000323412013261F58375930074053D
:10566000F074562E120132509000623DF0900062AC
:105670003CE0FD9000640B120132991201329BE470
:10568000FBFF12010A5C7B827AB3791F900065C42C
:10569000120132AD120016D3015728C23E0157281D
:1056A0007B827AB3793C120016D3C23E807A7B8229
:1056B0007AB3794E120132C712013242900065C2AC
:1056C0001201323D900065C3E0FF90006261E4F09A
:1056D000A3EF12005771120132B41201320B20E015
:1056E0001C74482FF582E434621201320B30E00D55
:1056F0007B827AB37972120016D30153A112013260
:1057000049120132B41201320B30E41C74482FF5F7
:1057100082E434621201320B20E40D7B827AB37989
:1057200084120016D301557D120132492448F582B6
:10573000E434621201320BFE74282FF582E43462E5
:10574000120132D1F0900065C0E0FFA3E0FEF4FD4D
:10575000EF5D900065C0F054786015EE25E0A3F091
:10576000900065BFE004F0E0C39404500301523898
:1057700022F0120016D3900065BFE0FF221200163F
:10578000D3900065BFE0FF22120016D3900065C2DF
:10579000E022900062C4120013FAE924AFF9E43A5F
:1057A000FA120011B7FD900062C4120013FAE92446
:1057B000AEF9E43AFA120011B775F004A4FF9000B4
:1057C00062C4120013FAE922FF9000630F12001363
:1057D000FAE92416F9E43AFA12001423E92FF9EA57
:1057E0003EFAE92403F9E43AFA020011B7F0900016
:1057F00061FB120013FAE92416F9E43AFA020014E4
:1058000023900062B6E09000326CFF75F0781200D1
:1058100013EEEF2583F58375930022FF900061FB63
:10582000120013FAE9229000631BE0FF9000630F5F
:10583000120013FAE92275F004A4FF9000638E129F
:105840000013FAE922900061E8120013FA90006553
:10585000391200141A900061EBE09000653CF09062
:105860000061F8020013FAF9E43AFA1200127BFF21
:1058700090006387120013FAE922759300E090000C
:1058800061F0FEE0FD24B4F582E4345DF5837593A8
:1058900000E0222404F9E43AFA0200127B9000624C
:1058A000CA120013FAE92402F9E43AFAEF020011ED
:1058B000E99000645CE09000645475F004A4FF1269
:1058C0000013FAE92FF9EA35F0FAE92290005E9A1E
:1058D000F0900061FB120013FA900063681200144C
:1058E0001A900061E8020013FACAEECAC9EFC97B38
:1058F00001900062D31200141A900062D3120013B8
:10590000FAE94A4B22900062B6E0FF900062B9E0EB
:10591000FD900062D0120013FA9000638712001409
:105920001A900062C4120013FA9000638A020014F5
:105930001A900062BB120013FA900062C3E02401C7
:10594000FF900062C2E03400FEE92FF9EA3EFA025D
:105950000011B7E075F004A4FFAEF09000645402AB
:105960000013FAA3F0E4A3F0A3F0A3F0A32224AF62
:10597000F9E43AFA7401020011CD2404F9E43AFA88
:10598000E5F08FF00200129FE075F004A429F9EA17
:1059900035F0FA0200127B900062CA120013FAE995
:1059A000229000631BE0C39401FFE49400FE7802A0
:1059B000EF229000630C1200141A900061FB0200A9
:1059C00013FA900063AF120013FAE9240122C39482
:1059D00001FF131313541F900061EFF0EF5407A35E
:1059E000F0900061EFE0FF24FFF582E434612224AF
:1059F000AEF9E43AFAE4020011E92420F9E43AFAB3
:105A0000ED020011E990006309120013FAE4F5F0C9
:105A10000200129FF0A3E4F0A37406F0E4A3F0A345
:105A20007408F0A32290006215E0FFC3940874800C
:105A3000948022900062CD020013FAE92401F9E477
:105A40003AFA22900062D0120013FAE922FE900086
:105A5000631AE02EFEC374089EFEC8EEC8EF08224B
:105A6000900062D3020013FA241EF9E43AFA22FEEF
:105A700075F078020013EE29F9EA3EFA1200127B63
:105A8000FF90006312E5F022CAEECAC9EFC97B019C
:105A900022900063AF120013FAE9240822900064F8
:105AA000A7E0FF75F0789000326F22F0A37481F0C8
:105AB000A3E4F0A3747FF022900061FB0200141AAB
:105AC000FF7E00C3940174809480227B007A007969
:105AD000000200141A900063AC120013FAE92407C4
